{
  "contracts/TokenB.sol": {
    "TokenB": {
      "abi": [
        {
          "inputs": [
            {
              "internalType": "address",
              "name": "initialOwner",
              "type": "address"
            }
          ],
          "stateMutability": "nonpayable",
          "type": "constructor"
        },
        {
          "inputs": [
            {
              "internalType": "address",
              "name": "spender",
              "type": "address"
            },
            {
              "internalType": "uint256",
              "name": "allowance",
              "type": "uint256"
            },
            {
              "internalType": "uint256",
              "name": "needed",
              "type": "uint256"
            }
          ],
          "name": "ERC20InsufficientAllowance",
          "type": "error"
        },
        {
          "inputs": [
            {
              "internalType": "address",
              "name": "sender",
              "type": "address"
            },
            {
              "internalType": "uint256",
              "name": "balance",
              "type": "uint256"
            },
            {
              "internalType": "uint256",
              "name": "needed",
              "type": "uint256"
            }
          ],
          "name": "ERC20InsufficientBalance",
          "type": "error"
        },
        {
          "inputs": [
            {
              "internalType": "address",
              "name": "approver",
              "type": "address"
            }
          ],
          "name": "ERC20InvalidApprover",
          "type": "error"
        },
        {
          "inputs": [
            {
              "internalType": "address",
              "name": "receiver",
              "type": "address"
            }
          ],
          "name": "ERC20InvalidReceiver",
          "type": "error"
        },
        {
          "inputs": [
            {
              "internalType": "address",
              "name": "sender",
              "type": "address"
            }
          ],
          "name": "ERC20InvalidSender",
          "type": "error"
        },
        {
          "inputs": [
            {
              "internalType": "address",
              "name": "spender",
              "type": "address"
            }
          ],
          "name": "ERC20InvalidSpender",
          "type": "error"
        },
        {
          "inputs": [
            {
              "internalType": "address",
              "name": "user",
              "type": "address"
            },
            {
              "internalType": "uint256",
              "name": "remainingTime",
              "type": "uint256"
            }
          ],
          "name": "FaucetCooldownActive",
          "type": "error"
        },
        {
          "inputs": [
            {
              "internalType": "address",
              "name": "owner",
              "type": "address"
            }
          ],
          "name": "OwnableInvalidOwner",
          "type": "error"
        },
        {
          "inputs": [
            {
              "internalType": "address",
              "name": "account",
              "type": "address"
            }
          ],
          "name": "OwnableUnauthorizedAccount",
          "type": "error"
        },
        {
          "inputs": [],
          "name": "ReentrancyGuardReentrantCall",
          "type": "error"
        },
        {
          "anonymous": false,
          "inputs": [
            {
              "indexed": true,
              "internalType": "address",
              "name": "owner",
              "type": "address"
            },
            {
              "indexed": true,
              "internalType": "address",
              "name": "spender",
              "type": "address"
            },
            {
              "indexed": false,
              "internalType": "uint256",
              "name": "value",
              "type": "uint256"
            }
          ],
          "name": "Approval",
          "type": "event"
        },
        {
          "anonymous": false,
          "inputs": [
            {
              "indexed": true,
              "internalType": "address",
              "name": "user",
              "type": "address"
            },
            {
              "indexed": false,
              "internalType": "uint256",
              "name": "amount",
              "type": "uint256"
            },
            {
              "indexed": false,
              "internalType": "uint256",
              "name": "timestamp",
              "type": "uint256"
            }
          ],
          "name": "FaucetUsed",
          "type": "event"
        },
        {
          "anonymous": false,
          "inputs": [
            {
              "indexed": true,
              "internalType": "address",
              "name": "previousOwner",
              "type": "address"
            },
            {
              "indexed": true,
              "internalType": "address",
              "name": "newOwner",
              "type": "address"
            }
          ],
          "name": "OwnershipTransferred",
          "type": "event"
        },
        {
          "anonymous": false,
          "inputs": [
            {
              "indexed": true,
              "internalType": "address",
              "name": "from",
              "type": "address"
            },
            {
              "indexed": true,
              "internalType": "address",
              "name": "to",
              "type": "address"
            },
            {
              "indexed": false,
              "internalType": "uint256",
              "name": "value",
              "type": "uint256"
            }
          ],
          "name": "Transfer",
          "type": "event"
        },
        {
          "inputs": [],
          "name": "FAUCET_AMOUNT",
          "outputs": [
            {
              "internalType": "uint256",
              "name": "",
              "type": "uint256"
            }
          ],
          "stateMutability": "view",
          "type": "function"
        },
        {
          "inputs": [],
          "name": "FAUCET_COOLDOWN",
          "outputs": [
            {
              "internalType": "uint256",
              "name": "",
              "type": "uint256"
            }
          ],
          "stateMutability": "view",
          "type": "function"
        },
        {
          "inputs": [
            {
              "internalType": "address",
              "name": "owner",
              "type": "address"
            },
            {
              "internalType": "address",
              "name": "spender",
              "type": "address"
            }
          ],
          "name": "allowance",
          "outputs": [
            {
              "internalType": "uint256",
              "name": "",
              "type": "uint256"
            }
          ],
          "stateMutability": "view",
          "type": "function"
        },
        {
          "inputs": [
            {
              "internalType": "address",
              "name": "spender",
              "type": "address"
            },
            {
              "internalType": "uint256",
              "name": "value",
              "type": "uint256"
            }
          ],
          "name": "approve",
          "outputs": [
            {
              "internalType": "bool",
              "name": "",
              "type": "bool"
            }
          ],
          "stateMutability": "nonpayable",
          "type": "function"
        },
        {
          "inputs": [
            {
              "internalType": "address",
              "name": "account",
              "type": "address"
            }
          ],
          "name": "balanceOf",
          "outputs": [
            {
              "internalType": "uint256",
              "name": "",
              "type": "uint256"
            }
          ],
          "stateMutability": "view",
          "type": "function"
        },
        {
          "inputs": [
            {
              "internalType": "address",
              "name": "user",
              "type": "address"
            }
          ],
          "name": "canUseFaucet",
          "outputs": [
            {
              "internalType": "bool",
              "name": "canUse",
              "type": "bool"
            }
          ],
          "stateMutability": "view",
          "type": "function"
        },
        {
          "inputs": [],
          "name": "decimals",
          "outputs": [
            {
              "internalType": "uint8",
              "name": "",
              "type": "uint8"
            }
          ],
          "stateMutability": "view",
          "type": "function"
        },
        {
          "inputs": [],
          "name": "faucet",
          "outputs": [],
          "stateMutability": "nonpayable",
          "type": "function"
        },
        {
          "inputs": [
            {
              "internalType": "address",
              "name": "user",
              "type": "address"
            }
          ],
          "name": "getFaucetCooldownTime",
          "outputs": [
            {
              "internalType": "uint256",
              "name": "remainingTime",
              "type": "uint256"
            }
          ],
          "stateMutability": "view",
          "type": "function"
        },
        {
          "inputs": [
            {
              "internalType": "address",
              "name": "",
              "type": "address"
            }
          ],
          "name": "lastFaucetTime",
          "outputs": [
            {
              "internalType": "uint256",
              "name": "",
              "type": "uint256"
            }
          ],
          "stateMutability": "view",
          "type": "function"
        },
        {
          "inputs": [
            {
              "internalType": "address",
              "name": "to",
              "type": "address"
            },
            {
              "internalType": "uint256",
              "name": "amount",
              "type": "uint256"
            }
          ],
          "name": "mint",
          "outputs": [],
          "stateMutability": "nonpayable",
          "type": "function"
        },
        {
          "inputs": [],
          "name": "name",
          "outputs": [
            {
              "internalType": "string",
              "name": "",
              "type": "string"
            }
          ],
          "stateMutability": "view",
          "type": "function"
        },
        {
          "inputs": [],
          "name": "owner",
          "outputs": [
            {
              "internalType": "address",
              "name": "",
              "type": "address"
            }
          ],
          "stateMutability": "view",
          "type": "function"
        },
        {
          "inputs": [],
          "name": "renounceOwnership",
          "outputs": [],
          "stateMutability": "nonpayable",
          "type": "function"
        },
        {
          "inputs": [],
          "name": "symbol",
          "outputs": [
            {
              "internalType": "string",
              "name": "",
              "type": "string"
            }
          ],
          "stateMutability": "view",
          "type": "function"
        },
        {
          "inputs": [],
          "name": "totalSupply",
          "outputs": [
            {
              "internalType": "uint256",
              "name": "",
              "type": "uint256"
            }
          ],
          "stateMutability": "view",
          "type": "function"
        },
        {
          "inputs": [
            {
              "internalType": "address",
              "name": "to",
              "type": "address"
            },
            {
              "internalType": "uint256",
              "name": "value",
              "type": "uint256"
            }
          ],
          "name": "transfer",
          "outputs": [
            {
              "internalType": "bool",
              "name": "",
              "type": "bool"
            }
          ],
          "stateMutability": "nonpayable",
          "type": "function"
        },
        {
          "inputs": [
            {
              "internalType": "address",
              "name": "from",
              "type": "address"
            },
            {
              "internalType": "address",
              "name": "to",
              "type": "address"
            },
            {
              "internalType": "uint256",
              "name": "value",
              "type": "uint256"
            }
          ],
          "name": "transferFrom",
          "outputs": [
            {
              "internalType": "bool",
              "name": "",
              "type": "bool"
            }
          ],
          "stateMutability": "nonpayable",
          "type": "function"
        },
        {
          "inputs": [
            {
              "internalType": "address",
              "name": "newOwner",
              "type": "address"
            }
          ],
          "name": "transferOwnership",
          "outputs": [],
          "stateMutability": "nonpayable",
          "type": "function"
        }
      ],
      "evm": {
        "bytecode": {
          "linkReferences": {},
          "object": "60806040523461002f576100196100146100fa565b6101eb565b610021610034565b6116406106c1823961164090f35b61003a565b60405190565b600080fd5b601f801991011690565b634e487b7160e01b600052604160045260246000fd5b906100699061003f565b810190811060018060401b0382111761008157604052565b610049565b90610099610092610034565b928361005f565b565b600080fd5b60018060a01b031690565b6100b4906100a0565b90565b6100c0816100ab565b036100c757565b600080fd5b905051906100d9826100b7565b565b906020828203126100f5576100f2916000016100cc565b90565b61009b565b610118611d018038038061010d81610086565b9283398101906100db565b90565b60018060401b0381116101375761013360209161003f565b0190565b610049565b9061014e6101498361011b565b610086565b918252565b60007f546f6b656e420000000000000000000000000000000000000000000000000000910152565b610185600661013c565b9061019260208301610153565b565b61019c61017b565b90565b60007f544b420000000000000000000000000000000000000000000000000000000000910152565b6101d1600361013c565b906101de6020830161019f565b565b6101e86101c7565b90565b610205906101f7610194565b6101ff6101e0565b91610295565b565b90565b90565b90565b61022461021f61022992610207565b61020d565b61020a565b90565b6102366001610210565b90565b60001b90565b9061024c60001991610239565b9181191691161790565b61026a61026561026f9261020a565b61020d565b61020a565b90565b90565b9061028a61028561029192610256565b610272565b825461023f565b9055565b906102a09291610302565b6102b26102ab61022c565b6006610275565b565b90565b6102cb6102c66102d0926102b4565b61020d565b6100a0565b90565b6102dc906102b7565b90565b6102e8906100ab565b9052565b9190610300906000602085019401906102df565b565b9161030c9161059d565b8061032861032261031d60006102d3565b6100ab565b916100ab565b14610338576103369061065f565b565b61035d61034560006102d3565b6000918291631e4fbdf760e01b8352600483016102ec565b0390fd5b5190565b634e487b7160e01b600052602260045260246000fd5b906001600283049216801561039b575b602083101461039657565b610365565b91607f169161038b565b600052602060002090565b601f602091010490565b1b90565b919060086103da9102916103d4600019846103ba565b926103ba565b9181191691161790565b91906103fa6103f561040293610256565b610272565b9083546103be565b9055565b600090565b61041d91610417610406565b916103e4565b565b5b81811061042b575050565b80610439600060019361040b565b01610420565b9190601f811161044f575b505050565b61045b610480936103a5565b906020610467846103b0565b83019310610488575b610479906103b0565b019061041f565b38808061044a565b915061047981929050610470565b1c90565b906104ab9060001990600802610496565b191690565b816104ba9161049a565b906002021790565b906104cc81610361565b9060018060401b03821161058c576104ee826104e8855461037b565b8561043f565b602090601f83116001146105235791809161051293600092610517575b50506104b0565b90555b565b9091500151388061050b565b601f19831691610532856103a5565b9260005b8181106105745750916002939185600196941061055a575b50505002019055610515565b61056a910151601f84169061049a565b905538808061054e565b91936020600181928787015181550195019201610536565b610049565b9061059b916104c2565b565b906105ac6105b3926003610591565b6004610591565b565b60001c90565b60018060a01b031690565b6105d26105d7916105b5565b6105bb565b90565b6105e490546105c6565b90565b906105f860018060a01b0391610239565b9181191691161790565b61061661061161061b926100a0565b61020d565b6100a0565b90565b61062790610602565b90565b6106339061061e565b90565b90565b9061064e6106496106559261062a565b610636565b82546105e7565b9055565b60000190565b61066960056105da565b610674826005610639565b906106a86106a27f8be0079c531659141344cd1fd0a4f28419497f9722a3daafe3b4186f6b6457e09361062a565b9161062a565b916106b1610034565b806106bb81610659565b0390a356fe60806040526004361015610013575b6108a8565b61001e60003561014d565b806306fdde0314610148578063095ea7b31461014357806318160ddd1461013e57806323b872dd14610139578063313ce5671461013457806340c10f191461012f578063705195161461012a57806370a0823114610125578063715018a614610120578063766976401461011b578063780768fc146101165780637bc1f6cc146101115780637d1d5d191461010c5780638da5cb5b1461010757806395d89b4114610102578063a9059cbb146100fd578063dd62ed3e146100f8578063de5f72fd146100f35763f2fde38b0361000e57610875565b610842565b61080c565b6107a8565b610773565b61073e565b6106e6565b610678565b6105b0565b61057b565b610506565b6104d1565b61049c565b610449565b61040e565b6103af565b61033f565b6102e6565b6101f9565b60e01c90565b60405190565b600080fd5b600080fd5b600091031261016e57565b61015e565b5190565b60209181520190565b60005b838110610194575050906000910152565b806020918301518185015201610183565b601f801991011690565b6101ce6101d76020936101dc936101c581610173565b93848093610177565b95869101610180565b6101a5565b0190565b6101f691602082019160008184039101526101af565b90565b3461022957610209366004610163565b610225610214610a0f565b61021c610153565b918291826101e0565b0390f35b610159565b60018060a01b031690565b6102429061022e565b90565b61024e81610239565b0361025557565b600080fd5b9050359061026782610245565b565b90565b61027581610269565b0361027c57565b600080fd5b9050359061028e8261026c565b565b91906040838203126102b957806102ad6102b6926000860161025a565b93602001610281565b90565b61015e565b151590565b6102cc906102be565b9052565b91906102e4906000602085019401906102c3565b565b34610317576103136103026102fc366004610290565b90610a2a565b61030a610153565b918291826102d0565b0390f35b610159565b61032590610269565b9052565b919061033d9060006020850194019061031c565b565b3461036f5761034f366004610163565b61036b61035a610a78565b610362610153565b91829182610329565b0390f35b610159565b90916060828403126103aa576103a7610390846000850161025a565b9361039e816020860161025a565b93604001610281565b90565b61015e565b346103e0576103dc6103cb6103c5366004610374565b91610a8e565b6103d3610153565b918291826102d0565b0390f35b610159565b60ff1690565b6103f4906103e5565b9052565b919061040c906000602085019401906103eb565b565b3461043e5761041e366004610163565b61043a610429610ae1565b610431610153565b918291826103f8565b0390f35b610159565b60000190565b346104785761046261045c366004610290565b90610b17565b61046a610153565b8061047481610443565b0390f35b610159565b90602082820312610497576104949160000161025a565b90565b61015e565b346104cc576104c86104b76104b236600461047d565b610ba2565b6104bf610153565b91829182610329565b0390f35b610159565b34610501576104fd6104ec6104e736600461047d565b610c15565b6104f4610153565b91829182610329565b0390f35b610159565b3461053457610516366004610163565b61051e610c82565b610526610153565b8061053081610443565b0390f35b610159565b90565b90565b61055361054e61055892610539565b61053c565b610269565b90565b61056d68056bc75e2d6310000061053f565b90565b61057861055b565b90565b346105ab5761058b366004610163565b6105a7610596610570565b61059e610153565b91829182610329565b0390f35b610159565b346105e0576105dc6105cb6105c636600461047d565b610c8c565b6105d3610153565b918291826102d0565b0390f35b610159565b6105f96105f46105fe9261022e565b61053c565b61022e565b90565b61060a906105e5565b90565b61061690610601565b90565b906106239061060d565b600052602052604060002090565b1c90565b90565b61064890600861064d9302610631565b610635565b90565b9061065b9154610638565b90565b61067590610670600791600092610619565b610650565b90565b346106a8576106a461069361068e36600461047d565b61065e565b61069b610153565b91829182610329565b0390f35b610159565b90565b6106c46106bf6106c9926106ad565b61053c565b610269565b90565b6106d8620151806106b0565b90565b6106e36106cc565b90565b34610716576106f6366004610163565b6107126107016106db565b610709610153565b91829182610329565b0390f35b610159565b61072490610239565b9052565b919061073c9060006020850194019061071b565b565b3461076e5761074e366004610163565b61076a610759610d01565b610761610153565b91829182610728565b0390f35b610159565b346107a357610783366004610163565b61079f61078e610d17565b610796610153565b918291826101e0565b0390f35b610159565b346107d9576107d56107c46107be366004610290565b90610d2d565b6107cc610153565b918291826102d0565b0390f35b610159565b919060408382031261080757806107fb610804926000860161025a565b9360200161025a565b90565b61015e565b3461083d576108396108286108223660046107de565b90610d67565b610830610153565b91829182610329565b0390f35b610159565b3461087057610852366004610163565b61085a610f4e565b610862610153565b8061086c81610443565b0390f35b610159565b346108a35761088d61088836600461047d565b610fc0565b610895610153565b8061089f81610443565b0390f35b610159565b600080fd5b606090565b634e487b7160e01b600052602260045260246000fd5b90600160028304921680156108e8575b60208310146108e357565b6108b2565b91607f16916108d8565b60209181520190565b600052602060002090565b906000929180549061092161091a836108c8565b80946108f2565b9160018116908160001461097a575060011461093d575b505050565b61094a91929394506108fb565b916000925b8184106109625750500190388080610938565b6001816020929593955484860152019101929061094f565b92949550505060ff1916825215156020020190388080610938565b9061099f91610906565b90565b634e487b7160e01b600052604160045260246000fd5b906109c2906101a5565b810190811067ffffffffffffffff8211176109dc57604052565b6109a2565b90610a016109fa926109f1610153565b93848092610995565b03836109b8565b565b610a0c906109e1565b90565b610a176108ad565b50610a226003610a03565b90565b600090565b610a4791610a36610a25565b50610a3f610fcb565b919091610fd8565b600190565b600090565b60001c90565b610a63610a6891610a51565b610635565b90565b610a759054610a57565b90565b610a80610a4c565b50610a8b6002610a6b565b90565b91610ab892610a9b610a25565b50610ab0610aa7610fcb565b82908491611029565b9190916110b8565b600190565b600090565b90565b610ad9610ad4610ade92610ac2565b61053c565b6103e5565b90565b610ae9610abd565b50610af46012610ac5565b90565b90610b0991610b0461115b565b610b0b565b565b90610b15916111aa565b565b90610b2191610af7565b565b634e487b7160e01b600052601160045260246000fd5b610b48610b4e91939293610269565b92610269565b8201809211610b5957565b610b23565b610b6d610b7391939293610269565b92610269565b8203918211610b7e57565b610b23565b90565b610b9a610b95610b9f92610b83565b61053c565b610269565b90565b610baa610a4c565b50610bbf610bba42926007610619565b610a6b565b90610bd282610bcc6106cc565b90610b39565b610be4610bde83610269565b91610269565b11610bf8575050610bf56000610b86565b90565b610c0d610c1292610c076106cc565b90610b39565b610b5e565b90565b610c2c610c3191610c24610a4c565b506000610619565b610a6b565b90565b610c3c61115b565b610c44610c6e565b565b610c5a610c55610c5f92610b83565b61053c565b61022e565b90565b610c6b90610c46565b90565b610c80610c7b6000610c62565b61124a565b565b610c8a610c34565b565b610cab610ca6610cb992610c9e610a25565b506007610619565b610a6b565b610cb36106cc565b90610b39565b610ccb610cc542610269565b91610269565b111590565b600090565b60018060a01b031690565b610cec610cf191610a51565b610cd5565b90565b610cfe9054610ce0565b90565b610d09610cd0565b50610d146005610cf4565b90565b610d1f6108ad565b50610d2a6004610a03565b90565b610d4a91610d39610a25565b50610d42610fcb565b9190916110b8565b600190565b90610d599061060d565b600052602052604060002090565b610d8c91610d82610d8792610d7a610a4c565b506001610d4f565b610619565b610a6b565b90565b610d976112d7565b610d9f610e4d565b610da761135c565b565b916020610dcb929493610dc46040820196600083019061071b565b019061031c565b565b60001b90565b90610de060001991610dcd565b9181191691161790565b610dfe610df9610e0392610269565b61053c565b610269565b90565b90565b90610e1e610e19610e2592610dea565b610e06565b8254610dd3565b9055565b916020610e4b929493610e446040820196600083019061031c565b019061031c565b565b334290610e75610e67610e6260078490610619565b610a6b565b610e6f6106cc565b90610b39565b610e87610e8184610269565b91610269565b11610f0057610ea182610e9c60078490610619565b610e09565b610eb381610ead61055b565b906111aa565b610ebb61055b565b91610ee67f1471294b27bd6e7d297998c0fd0fb313349f2f6c782cc696d9279410a95575749261060d565b92610efb610ef2610153565b92839283610e29565b0390a2565b610f2e82610f29610f1b610f1660078690610619565b610a6b565b610f236106cc565b90610b39565b610b5e565b90610f4a60009283926337f86cfd60e01b845260048401610da9565b0390fd5b610f56610d8f565b565b610f6990610f6461115b565b610f6b565b565b80610f87610f81610f7c6000610c62565b610239565b91610239565b14610f9757610f959061124a565b565b610fbc610fa46000610c62565b6000918291631e4fbdf760e01b835260048301610728565b0390fd5b610fc990610f58565b565b610fd3610cd0565b503390565b91610fe69291600192611370565b565b60409061101261101994969593966110086060840198600085019061071b565b602083019061031c565b019061031c565b565b906110269103610269565b90565b929192611037818390610d67565b908161104d611047600019610269565b91610269565b1061105a575b5050509050565b8161106d61106787610269565b91610269565b106110945761108b939461108291939261101b565b90600092611370565b80388080611053565b506110b4849291926000938493637dc7a0d960e11b855260048501610fe8565b0390fd5b91826110d56110cf6110ca6000610c62565b610239565b91610239565b1461113257816110f66110f06110eb6000610c62565b610239565b91610239565b146111095761110792919091611493565b565b61112e6111166000610c62565b600091829163ec442f0560e01b835260048301610728565b0390fd5b61115761113f6000610c62565b6000918291634b637e8f60e11b835260048301610728565b0390fd5b611163610d01565b61117c611176611171610fcb565b610239565b91610239565b0361118357565b6111a661118e610fcb565b600091829163118cdaa760e01b835260048301610728565b0390fd5b806111c66111c06111bb6000610c62565b610239565b91610239565b146111e3576111e1916111d96000610c62565b919091611493565b565b6112086111f06000610c62565b600091829163ec442f0560e01b835260048301610728565b0390fd5b9061121d60018060a01b0391610dcd565b9181191691161790565b90565b9061123f61123a6112469261060d565b611227565b825461120c565b9055565b6112546005610cf4565b61125f82600561122a565b9061129361128d7f8be0079c531659141344cd1fd0a4f28419497f9722a3daafe3b4186f6b6457e09361060d565b9161060d565b9161129c610153565b806112a681610443565b0390a3565b90565b6112c26112bd6112c7926112ab565b61053c565b610269565b90565b6112d460026112ae565b90565b6112e16006610a6b565b6112fa6112f46112ef6112ca565b610269565b91610269565b146113135761131161130a6112ca565b6006610e09565b565b6000633ee5aeb560e01b81528061132c60048201610443565b0390fd5b90565b61134761134261134c92611330565b61053c565b610269565b90565b6113596001611333565b90565b61136e61136761134f565b6006610e09565b565b90928161138e6113886113836000610c62565b610239565b91610239565b1461145c57836113af6113a96113a46000610c62565b610239565b91610239565b14611433576113d3836113ce6113c760018690610d4f565b8790610619565b610e09565b6113dd575b505050565b9190916114286114166114107f8c5be1e5ebec7d5bd14f71427d1e84f3dd0314c0f7b2291e5b200ac8c7c3b9259361060d565b9361060d565b9361141f610153565b91829182610329565b0390a33880806113d8565b6114586114406000610c62565b6000918291634a1406b160e11b835260048301610728565b0390fd5b6114816114696000610c62565b600091829163e602df0560e01b835260048301610728565b0390fd5b906114909101610269565b90565b919091806114b26114ac6114a76000610c62565b610239565b91610239565b14600014611597576114d76114d0836114cb6002610a6b565b610b39565b6002610e09565b5b826114f46114ee6114e96000610c62565b610239565b91610239565b1460001461156a576115196115128361150d6002610a6b565b61101b565b6002610e09565b5b91909161156561155361154d7fddf252ad1be2c89b69c2b068fc378daa952ba7f163c4a11628f55a4df523b3ef9361060d565b9361060d565b9361155c610153565b91829182610329565b0390a3565b6115928261158c61157d60008790610619565b9161158783610a6b565b611485565b90610e09565b61151a565b6115ab6115a660008390610619565b610a6b565b806115be6115b885610269565b91610269565b106115e7576115d16115e291849061101b565b6115dd60008490610619565b610e09565b6114d8565b90611606909192600093849363391434e360e21b855260048501610fe8565b0390fdfea264697066735822122065965a7d37b30f29552679aca98fb59bf0a43b7e847ed17f74e9c9d8cf48456064736f6c634300081e0033",
          "opcodes": "PUSH1 0x80 PUSH1 0x40 MSTORE CALLVALUE PUSH2 0x2F JUMPI PUSH2 0x19 PUSH2 0x14 PUSH2 0xFA JUMP JUMPDEST PUSH2 0x1EB JUMP JUMPDEST PUSH2 0x21 PUSH2 0x34 JUMP JUMPDEST PUSH2 0x1640 PUSH2 0x6C1 DUP3 CODECOPY PUSH2 0x1640 SWAP1 RETURN JUMPDEST PUSH2 0x3A JUMP JUMPDEST PUSH1 0x40 MLOAD SWAP1 JUMP JUMPDEST PUSH1 0x0 DUP1 REVERT JUMPDEST PUSH1 0x1F DUP1 NOT SWAP2 ADD AND SWAP1 JUMP JUMPDEST PUSH4 0x4E487B71 PUSH1 0xE0 SHL PUSH1 0x0 MSTORE PUSH1 0x41 PUSH1 0x4 MSTORE PUSH1 0x24 PUSH1 0x0 REVERT JUMPDEST SWAP1 PUSH2 0x69 SWAP1 PUSH2 0x3F JUMP JUMPDEST DUP2 ADD SWAP1 DUP2 LT PUSH1 0x1 DUP1 PUSH1 0x40 SHL SUB DUP3 GT OR PUSH2 0x81 JUMPI PUSH1 0x40 MSTORE JUMP JUMPDEST PUSH2 0x49 JUMP JUMPDEST SWAP1 PUSH2 0x99 PUSH2 0x92 PUSH2 0x34 JUMP JUMPDEST SWAP3 DUP4 PUSH2 0x5F JUMP JUMPDEST JUMP JUMPDEST PUSH1 0x0 DUP1 REVERT JUMPDEST PUSH1 0x1 DUP1 PUSH1 0xA0 SHL SUB AND SWAP1 JUMP JUMPDEST PUSH2 0xB4 SWAP1 PUSH2 0xA0 JUMP JUMPDEST SWAP1 JUMP JUMPDEST PUSH2 0xC0 DUP2 PUSH2 0xAB JUMP JUMPDEST SUB PUSH2 0xC7 JUMPI JUMP JUMPDEST PUSH1 0x0 DUP1 REVERT JUMPDEST SWAP1 POP MLOAD SWAP1 PUSH2 0xD9 DUP3 PUSH2 0xB7 JUMP JUMPDEST JUMP JUMPDEST SWAP1 PUSH1 0x20 DUP3 DUP3 SUB SLT PUSH2 0xF5 JUMPI PUSH2 0xF2 SWAP2 PUSH1 0x0 ADD PUSH2 0xCC JUMP JUMPDEST SWAP1 JUMP JUMPDEST PUSH2 0x9B JUMP JUMPDEST PUSH2 0x118 PUSH2 0x1D01 DUP1 CODESIZE SUB DUP1 PUSH2 0x10D DUP2 PUSH2 0x86 JUMP JUMPDEST SWAP3 DUP4 CODECOPY DUP2 ADD SWAP1 PUSH2 0xDB JUMP JUMPDEST SWAP1 JUMP JUMPDEST PUSH1 0x1 DUP1 PUSH1 0x40 SHL SUB DUP2 GT PUSH2 0x137 JUMPI PUSH2 0x133 PUSH1 0x20 SWAP2 PUSH2 0x3F JUMP JUMPDEST ADD SWAP1 JUMP JUMPDEST PUSH2 0x49 JUMP JUMPDEST SWAP1 PUSH2 0x14E PUSH2 0x149 DUP4 PUSH2 0x11B JUMP JUMPDEST PUSH2 0x86 JUMP JUMPDEST SWAP2 DUP3 MSTORE JUMP JUMPDEST PUSH1 0x0 PUSH32 0x546F6B656E420000000000000000000000000000000000000000000000000000 SWAP2 ADD MSTORE JUMP JUMPDEST PUSH2 0x185 PUSH1 0x6 PUSH2 0x13C JUMP JUMPDEST SWAP1 PUSH2 0x192 PUSH1 0x20 DUP4 ADD PUSH2 0x153 JUMP JUMPDEST JUMP JUMPDEST PUSH2 0x19C PUSH2 0x17B JUMP JUMPDEST SWAP1 JUMP JUMPDEST PUSH1 0x0 PUSH32 0x544B420000000000000000000000000000000000000000000000000000000000 SWAP2 ADD MSTORE JUMP JUMPDEST PUSH2 0x1D1 PUSH1 0x3 PUSH2 0x13C JUMP JUMPDEST SWAP1 PUSH2 0x1DE PUSH1 0x20 DUP4 ADD PUSH2 0x19F JUMP JUMPDEST JUMP JUMPDEST PUSH2 0x1E8 PUSH2 0x1C7 JUMP JUMPDEST SWAP1 JUMP JUMPDEST PUSH2 0x205 SWAP1 PUSH2 0x1F7 PUSH2 0x194 JUMP JUMPDEST PUSH2 0x1FF PUSH2 0x1E0 JUMP JUMPDEST SWAP2 PUSH2 0x295 JUMP JUMPDEST JUMP JUMPDEST SWAP1 JUMP JUMPDEST SWAP1 JUMP JUMPDEST SWAP1 JUMP JUMPDEST PUSH2 0x224 PUSH2 0x21F PUSH2 0x229 SWAP3 PUSH2 0x207 JUMP JUMPDEST PUSH2 0x20D JUMP JUMPDEST PUSH2 0x20A JUMP JUMPDEST SWAP1 JUMP JUMPDEST PUSH2 0x236 PUSH1 0x1 PUSH2 0x210 JUMP JUMPDEST SWAP1 JUMP JUMPDEST PUSH1 0x0 SHL SWAP1 JUMP JUMPDEST SWAP1 PUSH2 0x24C PUSH1 0x0 NOT SWAP2 PUSH2 0x239 JUMP JUMPDEST SWAP2 DUP2 NOT AND SWAP2 AND OR SWAP1 JUMP JUMPDEST PUSH2 0x26A PUSH2 0x265 PUSH2 0x26F SWAP3 PUSH2 0x20A JUMP JUMPDEST PUSH2 0x20D JUMP JUMPDEST PUSH2 0x20A JUMP JUMPDEST SWAP1 JUMP JUMPDEST SWAP1 JUMP JUMPDEST SWAP1 PUSH2 0x28A PUSH2 0x285 PUSH2 0x291 SWAP3 PUSH2 0x256 JUMP JUMPDEST PUSH2 0x272 JUMP JUMPDEST DUP3 SLOAD PUSH2 0x23F JUMP JUMPDEST SWAP1 SSTORE JUMP JUMPDEST SWAP1 PUSH2 0x2A0 SWAP3 SWAP2 PUSH2 0x302 JUMP JUMPDEST PUSH2 0x2B2 PUSH2 0x2AB PUSH2 0x22C JUMP JUMPDEST PUSH1 0x6 PUSH2 0x275 JUMP JUMPDEST JUMP JUMPDEST SWAP1 JUMP JUMPDEST PUSH2 0x2CB PUSH2 0x2C6 PUSH2 0x2D0 SWAP3 PUSH2 0x2B4 JUMP JUMPDEST PUSH2 0x20D JUMP JUMPDEST PUSH2 0xA0 JUMP JUMPDEST SWAP1 JUMP JUMPDEST PUSH2 0x2DC SWAP1 PUSH2 0x2B7 JUMP JUMPDEST SWAP1 JUMP JUMPDEST PUSH2 0x2E8 SWAP1 PUSH2 0xAB JUMP JUMPDEST SWAP1 MSTORE JUMP JUMPDEST SWAP2 SWAP1 PUSH2 0x300 SWAP1 PUSH1 0x0 PUSH1 0x20 DUP6 ADD SWAP5 ADD SWAP1 PUSH2 0x2DF JUMP JUMPDEST JUMP JUMPDEST SWAP2 PUSH2 0x30C SWAP2 PUSH2 0x59D JUMP JUMPDEST DUP1 PUSH2 0x328 PUSH2 0x322 PUSH2 0x31D PUSH1 0x0 PUSH2 0x2D3 JUMP JUMPDEST PUSH2 0xAB JUMP JUMPDEST SWAP2 PUSH2 0xAB JUMP JUMPDEST EQ PUSH2 0x338 JUMPI PUSH2 0x336 SWAP1 PUSH2 0x65F JUMP JUMPDEST JUMP JUMPDEST PUSH2 0x35D PUSH2 0x345 PUSH1 0x0 PUSH2 0x2D3 JUMP JUMPDEST PUSH1 0x0 SWAP2 DUP3 SWAP2 PUSH4 0x1E4FBDF7 PUSH1 0xE0 SHL DUP4 MSTORE PUSH1 0x4 DUP4 ADD PUSH2 0x2EC JUMP JUMPDEST SUB SWAP1 REVERT JUMPDEST MLOAD SWAP1 JUMP JUMPDEST PUSH4 0x4E487B71 PUSH1 0xE0 SHL PUSH1 0x0 MSTORE PUSH1 0x22 PUSH1 0x4 MSTORE PUSH1 0x24 PUSH1 0x0 REVERT JUMPDEST SWAP1 PUSH1 0x1 PUSH1 0x2 DUP4 DIV SWAP3 AND DUP1 ISZERO PUSH2 0x39B JUMPI JUMPDEST PUSH1 0x20 DUP4 LT EQ PUSH2 0x396 JUMPI JUMP JUMPDEST PUSH2 0x365 JUMP JUMPDEST SWAP2 PUSH1 0x7F AND SWAP2 PUSH2 0x38B JUMP JUMPDEST PUSH1 0x0 MSTORE PUSH1 0x20 PUSH1 0x0 KECCAK256 SWAP1 JUMP JUMPDEST PUSH1 0x1F PUSH1 0x20 SWAP2 ADD DIV SWAP1 JUMP JUMPDEST SHL SWAP1 JUMP JUMPDEST SWAP2 SWAP1 PUSH1 0x8 PUSH2 0x3DA SWAP2 MUL SWAP2 PUSH2 0x3D4 PUSH1 0x0 NOT DUP5 PUSH2 0x3BA JUMP JUMPDEST SWAP3 PUSH2 0x3BA JUMP JUMPDEST SWAP2 DUP2 NOT AND SWAP2 AND OR SWAP1 JUMP JUMPDEST SWAP2 SWAP1 PUSH2 0x3FA PUSH2 0x3F5 PUSH2 0x402 SWAP4 PUSH2 0x256 JUMP JUMPDEST PUSH2 0x272 JUMP JUMPDEST SWAP1 DUP4 SLOAD PUSH2 0x3BE JUMP JUMPDEST SWAP1 SSTORE JUMP JUMPDEST PUSH1 0x0 SWAP1 JUMP JUMPDEST PUSH2 0x41D SWAP2 PUSH2 0x417 PUSH2 0x406 JUMP JUMPDEST SWAP2 PUSH2 0x3E4 JUMP JUMPDEST JUMP JUMPDEST JUMPDEST DUP2 DUP2 LT PUSH2 0x42B JUMPI POP POP JUMP JUMPDEST DUP1 PUSH2 0x439 PUSH1 0x0 PUSH1 0x1 SWAP4 PUSH2 0x40B JUMP JUMPDEST ADD PUSH2 0x420 JUMP JUMPDEST SWAP2 SWAP1 PUSH1 0x1F DUP2 GT PUSH2 0x44F JUMPI JUMPDEST POP POP POP JUMP JUMPDEST PUSH2 0x45B PUSH2 0x480 SWAP4 PUSH2 0x3A5 JUMP JUMPDEST SWAP1 PUSH1 0x20 PUSH2 0x467 DUP5 PUSH2 0x3B0 JUMP JUMPDEST DUP4 ADD SWAP4 LT PUSH2 0x488 JUMPI JUMPDEST PUSH2 0x479 SWAP1 PUSH2 0x3B0 JUMP JUMPDEST ADD SWAP1 PUSH2 0x41F JUMP JUMPDEST CODESIZE DUP1 DUP1 PUSH2 0x44A JUMP JUMPDEST SWAP2 POP PUSH2 0x479 DUP2 SWAP3 SWAP1 POP PUSH2 0x470 JUMP JUMPDEST SHR SWAP1 JUMP JUMPDEST SWAP1 PUSH2 0x4AB SWAP1 PUSH1 0x0 NOT SWAP1 PUSH1 0x8 MUL PUSH2 0x496 JUMP JUMPDEST NOT AND SWAP1 JUMP JUMPDEST DUP2 PUSH2 0x4BA SWAP2 PUSH2 0x49A JUMP JUMPDEST SWAP1 PUSH1 0x2 MUL OR SWAP1 JUMP JUMPDEST SWAP1 PUSH2 0x4CC DUP2 PUSH2 0x361 JUMP JUMPDEST SWAP1 PUSH1 0x1 DUP1 PUSH1 0x40 SHL SUB DUP3 GT PUSH2 0x58C JUMPI PUSH2 0x4EE DUP3 PUSH2 0x4E8 DUP6 SLOAD PUSH2 0x37B JUMP JUMPDEST DUP6 PUSH2 0x43F JUMP JUMPDEST PUSH1 0x20 SWAP1 PUSH1 0x1F DUP4 GT PUSH1 0x1 EQ PUSH2 0x523 JUMPI SWAP2 DUP1 SWAP2 PUSH2 0x512 SWAP4 PUSH1 0x0 SWAP3 PUSH2 0x517 JUMPI JUMPDEST POP POP PUSH2 0x4B0 JUMP JUMPDEST SWAP1 SSTORE JUMPDEST JUMP JUMPDEST SWAP1 SWAP2 POP ADD MLOAD CODESIZE DUP1 PUSH2 0x50B JUMP JUMPDEST PUSH1 0x1F NOT DUP4 AND SWAP2 PUSH2 0x532 DUP6 PUSH2 0x3A5 JUMP JUMPDEST SWAP3 PUSH1 0x0 JUMPDEST DUP2 DUP2 LT PUSH2 0x574 JUMPI POP SWAP2 PUSH1 0x2 SWAP4 SWAP2 DUP6 PUSH1 0x1 SWAP7 SWAP5 LT PUSH2 0x55A JUMPI JUMPDEST POP POP POP MUL ADD SWAP1 SSTORE PUSH2 0x515 JUMP JUMPDEST PUSH2 0x56A SWAP2 ADD MLOAD PUSH1 0x1F DUP5 AND SWAP1 PUSH2 0x49A JUMP JUMPDEST SWAP1 SSTORE CODESIZE DUP1 DUP1 PUSH2 0x54E JUMP JUMPDEST SWAP2 SWAP4 PUSH1 0x20 PUSH1 0x1 DUP2 SWAP3 DUP8 DUP8 ADD MLOAD DUP2 SSTORE ADD SWAP6 ADD SWAP3 ADD PUSH2 0x536 JUMP JUMPDEST PUSH2 0x49 JUMP JUMPDEST SWAP1 PUSH2 0x59B SWAP2 PUSH2 0x4C2 JUMP JUMPDEST JUMP JUMPDEST SWAP1 PUSH2 0x5AC PUSH2 0x5B3 SWAP3 PUSH1 0x3 PUSH2 0x591 JUMP JUMPDEST PUSH1 0x4 PUSH2 0x591 JUMP JUMPDEST JUMP JUMPDEST PUSH1 0x0 SHR SWAP1 JUMP JUMPDEST PUSH1 0x1 DUP1 PUSH1 0xA0 SHL SUB AND SWAP1 JUMP JUMPDEST PUSH2 0x5D2 PUSH2 0x5D7 SWAP2 PUSH2 0x5B5 JUMP JUMPDEST PUSH2 0x5BB JUMP JUMPDEST SWAP1 JUMP JUMPDEST PUSH2 0x5E4 SWAP1 SLOAD PUSH2 0x5C6 JUMP JUMPDEST SWAP1 JUMP JUMPDEST SWAP1 PUSH2 0x5F8 PUSH1 0x1 DUP1 PUSH1 0xA0 SHL SUB SWAP2 PUSH2 0x239 JUMP JUMPDEST SWAP2 DUP2 NOT AND SWAP2 AND OR SWAP1 JUMP JUMPDEST PUSH2 0x616 PUSH2 0x611 PUSH2 0x61B SWAP3 PUSH2 0xA0 JUMP JUMPDEST PUSH2 0x20D JUMP JUMPDEST PUSH2 0xA0 JUMP JUMPDEST SWAP1 JUMP JUMPDEST PUSH2 0x627 SWAP1 PUSH2 0x602 JUMP JUMPDEST SWAP1 JUMP JUMPDEST PUSH2 0x633 SWAP1 PUSH2 0x61E JUMP JUMPDEST SWAP1 JUMP JUMPDEST SWAP1 JUMP JUMPDEST SWAP1 PUSH2 0x64E PUSH2 0x649 PUSH2 0x655 SWAP3 PUSH2 0x62A JUMP JUMPDEST PUSH2 0x636 JUMP JUMPDEST DUP3 SLOAD PUSH2 0x5E7 JUMP JUMPDEST SWAP1 SSTORE JUMP JUMPDEST PUSH1 0x0 ADD SWAP1 JUMP JUMPDEST PUSH2 0x669 PUSH1 0x5 PUSH2 0x5DA JUMP JUMPDEST PUSH2 0x674 DUP3 PUSH1 0x5 PUSH2 0x639 JUMP JUMPDEST SWAP1 PUSH2 0x6A8 PUSH2 0x6A2 PUSH32 0x8BE0079C531659141344CD1FD0A4F28419497F9722A3DAAFE3B4186F6B6457E0 SWAP4 PUSH2 0x62A JUMP JUMPDEST SWAP2 PUSH2 0x62A JUMP JUMPDEST SWAP2 PUSH2 0x6B1 PUSH2 0x34 JUMP JUMPDEST DUP1 PUSH2 0x6BB DUP2 PUSH2 0x659 JUMP JUMPDEST SUB SWAP1 LOG3 JUMP INVALID PUSH1 0x80 PUSH1 0x40 MSTORE PUSH1 0x4 CALLDATASIZE LT ISZERO PUSH2 0x13 JUMPI JUMPDEST PUSH2 0x8A8 JUMP JUMPDEST PUSH2 0x1E PUSH1 0x0 CALLDATALOAD PUSH2 0x14D JUMP JUMPDEST DUP1 PUSH4 0x6FDDE03 EQ PUSH2 0x148 JUMPI DUP1 PUSH4 0x95EA7B3 EQ PUSH2 0x143 JUMPI DUP1 PUSH4 0x18160DDD EQ PUSH2 0x13E JUMPI DUP1 PUSH4 0x23B872DD EQ PUSH2 0x139 JUMPI DUP1 PUSH4 0x313CE567 EQ PUSH2 0x134 JUMPI DUP1 PUSH4 0x40C10F19 EQ PUSH2 0x12F JUMPI DUP1 PUSH4 0x70519516 EQ PUSH2 0x12A JUMPI DUP1 PUSH4 0x70A08231 EQ PUSH2 0x125 JUMPI DUP1 PUSH4 0x715018A6 EQ PUSH2 0x120 JUMPI DUP1 PUSH4 0x76697640 EQ PUSH2 0x11B JUMPI DUP1 PUSH4 0x780768FC EQ PUSH2 0x116 JUMPI DUP1 PUSH4 0x7BC1F6CC EQ PUSH2 0x111 JUMPI DUP1 PUSH4 0x7D1D5D19 EQ PUSH2 0x10C JUMPI DUP1 PUSH4 0x8DA5CB5B EQ PUSH2 0x107 JUMPI DUP1 PUSH4 0x95D89B41 EQ PUSH2 0x102 JUMPI DUP1 PUSH4 0xA9059CBB EQ PUSH2 0xFD JUMPI DUP1 PUSH4 0xDD62ED3E EQ PUSH2 0xF8 JUMPI DUP1 PUSH4 0xDE5F72FD EQ PUSH2 0xF3 JUMPI PUSH4 0xF2FDE38B SUB PUSH2 0xE JUMPI PUSH2 0x875 JUMP JUMPDEST PUSH2 0x842 JUMP JUMPDEST PUSH2 0x80C JUMP JUMPDEST PUSH2 0x7A8 JUMP JUMPDEST PUSH2 0x773 JUMP JUMPDEST PUSH2 0x73E JUMP JUMPDEST PUSH2 0x6E6 JUMP JUMPDEST PUSH2 0x678 JUMP JUMPDEST PUSH2 0x5B0 JUMP JUMPDEST PUSH2 0x57B JUMP JUMPDEST PUSH2 0x506 JUMP JUMPDEST PUSH2 0x4D1 JUMP JUMPDEST PUSH2 0x49C JUMP JUMPDEST PUSH2 0x449 JUMP JUMPDEST PUSH2 0x40E JUMP JUMPDEST PUSH2 0x3AF JUMP JUMPDEST PUSH2 0x33F JUMP JUMPDEST PUSH2 0x2E6 JUMP JUMPDEST PUSH2 0x1F9 JUMP JUMPDEST PUSH1 0xE0 SHR SWAP1 JUMP JUMPDEST PUSH1 0x40 MLOAD SWAP1 JUMP JUMPDEST PUSH1 0x0 DUP1 REVERT JUMPDEST PUSH1 0x0 DUP1 REVERT JUMPDEST PUSH1 0x0 SWAP2 SUB SLT PUSH2 0x16E JUMPI JUMP JUMPDEST PUSH2 0x15E JUMP JUMPDEST MLOAD SWAP1 JUMP JUMPDEST PUSH1 0x20 SWAP2 DUP2 MSTORE ADD SWAP1 JUMP JUMPDEST PUSH1 0x0 JUMPDEST DUP4 DUP2 LT PUSH2 0x194 JUMPI POP POP SWAP1 PUSH1 0x0 SWAP2 ADD MSTORE JUMP JUMPDEST DUP1 PUSH1 0x20 SWAP2 DUP4 ADD MLOAD DUP2 DUP6 ADD MSTORE ADD PUSH2 0x183 JUMP JUMPDEST PUSH1 0x1F DUP1 NOT SWAP2 ADD AND SWAP1 JUMP JUMPDEST PUSH2 0x1CE PUSH2 0x1D7 PUSH1 0x20 SWAP4 PUSH2 0x1DC SWAP4 PUSH2 0x1C5 DUP2 PUSH2 0x173 JUMP JUMPDEST SWAP4 DUP5 DUP1 SWAP4 PUSH2 0x177 JUMP JUMPDEST SWAP6 DUP7 SWAP2 ADD PUSH2 0x180 JUMP JUMPDEST PUSH2 0x1A5 JUMP JUMPDEST ADD SWAP1 JUMP JUMPDEST PUSH2 0x1F6 SWAP2 PUSH1 0x20 DUP3 ADD SWAP2 PUSH1 0x0 DUP2 DUP5 SUB SWAP2 ADD MSTORE PUSH2 0x1AF JUMP JUMPDEST SWAP1 JUMP JUMPDEST CALLVALUE PUSH2 0x229 JUMPI PUSH2 0x209 CALLDATASIZE PUSH1 0x4 PUSH2 0x163 JUMP JUMPDEST PUSH2 0x225 PUSH2 0x214 PUSH2 0xA0F JUMP JUMPDEST PUSH2 0x21C PUSH2 0x153 JUMP JUMPDEST SWAP2 DUP3 SWAP2 DUP3 PUSH2 0x1E0 JUMP JUMPDEST SUB SWAP1 RETURN JUMPDEST PUSH2 0x159 JUMP JUMPDEST PUSH1 0x1 DUP1 PUSH1 0xA0 SHL SUB AND SWAP1 JUMP JUMPDEST PUSH2 0x242 SWAP1 PUSH2 0x22E JUMP JUMPDEST SWAP1 JUMP JUMPDEST PUSH2 0x24E DUP2 PUSH2 0x239 JUMP JUMPDEST SUB PUSH2 0x255 JUMPI JUMP JUMPDEST PUSH1 0x0 DUP1 REVERT JUMPDEST SWAP1 POP CALLDATALOAD SWAP1 PUSH2 0x267 DUP3 PUSH2 0x245 JUMP JUMPDEST JUMP JUMPDEST SWAP1 JUMP JUMPDEST PUSH2 0x275 DUP2 PUSH2 0x269 JUMP JUMPDEST SUB PUSH2 0x27C JUMPI JUMP JUMPDEST PUSH1 0x0 DUP1 REVERT JUMPDEST SWAP1 POP CALLDATALOAD SWAP1 PUSH2 0x28E DUP3 PUSH2 0x26C JUMP JUMPDEST JUMP JUMPDEST SWAP2 SWAP1 PUSH1 0x40 DUP4 DUP3 SUB SLT PUSH2 0x2B9 JUMPI DUP1 PUSH2 0x2AD PUSH2 0x2B6 SWAP3 PUSH1 0x0 DUP7 ADD PUSH2 0x25A JUMP JUMPDEST SWAP4 PUSH1 0x20 ADD PUSH2 0x281 JUMP JUMPDEST SWAP1 JUMP JUMPDEST PUSH2 0x15E JUMP JUMPDEST ISZERO ISZERO SWAP1 JUMP JUMPDEST PUSH2 0x2CC SWAP1 PUSH2 0x2BE JUMP JUMPDEST SWAP1 MSTORE JUMP JUMPDEST SWAP2 SWAP1 PUSH2 0x2E4 SWAP1 PUSH1 0x0 PUSH1 0x20 DUP6 ADD SWAP5 ADD SWAP1 PUSH2 0x2C3 JUMP JUMPDEST JUMP JUMPDEST CALLVALUE PUSH2 0x317 JUMPI PUSH2 0x313 PUSH2 0x302 PUSH2 0x2FC CALLDATASIZE PUSH1 0x4 PUSH2 0x290 JUMP JUMPDEST SWAP1 PUSH2 0xA2A JUMP JUMPDEST PUSH2 0x30A PUSH2 0x153 JUMP JUMPDEST SWAP2 DUP3 SWAP2 DUP3 PUSH2 0x2D0 JUMP JUMPDEST SUB SWAP1 RETURN JUMPDEST PUSH2 0x159 JUMP JUMPDEST PUSH2 0x325 SWAP1 PUSH2 0x269 JUMP JUMPDEST SWAP1 MSTORE JUMP JUMPDEST SWAP2 SWAP1 PUSH2 0x33D SWAP1 PUSH1 0x0 PUSH1 0x20 DUP6 ADD SWAP5 ADD SWAP1 PUSH2 0x31C JUMP JUMPDEST JUMP JUMPDEST CALLVALUE PUSH2 0x36F JUMPI PUSH2 0x34F CALLDATASIZE PUSH1 0x4 PUSH2 0x163 JUMP JUMPDEST PUSH2 0x36B PUSH2 0x35A PUSH2 0xA78 JUMP JUMPDEST PUSH2 0x362 PUSH2 0x153 JUMP JUMPDEST SWAP2 DUP3 SWAP2 DUP3 PUSH2 0x329 JUMP JUMPDEST SUB SWAP1 RETURN JUMPDEST PUSH2 0x159 JUMP JUMPDEST SWAP1 SWAP2 PUSH1 0x60 DUP3 DUP5 SUB SLT PUSH2 0x3AA JUMPI PUSH2 0x3A7 PUSH2 0x390 DUP5 PUSH1 0x0 DUP6 ADD PUSH2 0x25A JUMP JUMPDEST SWAP4 PUSH2 0x39E DUP2 PUSH1 0x20 DUP7 ADD PUSH2 0x25A JUMP JUMPDEST SWAP4 PUSH1 0x40 ADD PUSH2 0x281 JUMP JUMPDEST SWAP1 JUMP JUMPDEST PUSH2 0x15E JUMP JUMPDEST CALLVALUE PUSH2 0x3E0 JUMPI PUSH2 0x3DC PUSH2 0x3CB PUSH2 0x3C5 CALLDATASIZE PUSH1 0x4 PUSH2 0x374 JUMP JUMPDEST SWAP2 PUSH2 0xA8E JUMP JUMPDEST PUSH2 0x3D3 PUSH2 0x153 JUMP JUMPDEST SWAP2 DUP3 SWAP2 DUP3 PUSH2 0x2D0 JUMP JUMPDEST SUB SWAP1 RETURN JUMPDEST PUSH2 0x159 JUMP JUMPDEST PUSH1 0xFF AND SWAP1 JUMP JUMPDEST PUSH2 0x3F4 SWAP1 PUSH2 0x3E5 JUMP JUMPDEST SWAP1 MSTORE JUMP JUMPDEST SWAP2 SWAP1 PUSH2 0x40C SWAP1 PUSH1 0x0 PUSH1 0x20 DUP6 ADD SWAP5 ADD SWAP1 PUSH2 0x3EB JUMP JUMPDEST JUMP JUMPDEST CALLVALUE PUSH2 0x43E JUMPI PUSH2 0x41E CALLDATASIZE PUSH1 0x4 PUSH2 0x163 JUMP JUMPDEST PUSH2 0x43A PUSH2 0x429 PUSH2 0xAE1 JUMP JUMPDEST PUSH2 0x431 PUSH2 0x153 JUMP JUMPDEST SWAP2 DUP3 SWAP2 DUP3 PUSH2 0x3F8 JUMP JUMPDEST SUB SWAP1 RETURN JUMPDEST PUSH2 0x159 JUMP JUMPDEST PUSH1 0x0 ADD SWAP1 JUMP JUMPDEST CALLVALUE PUSH2 0x478 JUMPI PUSH2 0x462 PUSH2 0x45C CALLDATASIZE PUSH1 0x4 PUSH2 0x290 JUMP JUMPDEST SWAP1 PUSH2 0xB17 JUMP JUMPDEST PUSH2 0x46A PUSH2 0x153 JUMP JUMPDEST DUP1 PUSH2 0x474 DUP2 PUSH2 0x443 JUMP JUMPDEST SUB SWAP1 RETURN JUMPDEST PUSH2 0x159 JUMP JUMPDEST SWAP1 PUSH1 0x20 DUP3 DUP3 SUB SLT PUSH2 0x497 JUMPI PUSH2 0x494 SWAP2 PUSH1 0x0 ADD PUSH2 0x25A JUMP JUMPDEST SWAP1 JUMP JUMPDEST PUSH2 0x15E JUMP JUMPDEST CALLVALUE PUSH2 0x4CC JUMPI PUSH2 0x4C8 PUSH2 0x4B7 PUSH2 0x4B2 CALLDATASIZE PUSH1 0x4 PUSH2 0x47D JUMP JUMPDEST PUSH2 0xBA2 JUMP JUMPDEST PUSH2 0x4BF PUSH2 0x153 JUMP JUMPDEST SWAP2 DUP3 SWAP2 DUP3 PUSH2 0x329 JUMP JUMPDEST SUB SWAP1 RETURN JUMPDEST PUSH2 0x159 JUMP JUMPDEST CALLVALUE PUSH2 0x501 JUMPI PUSH2 0x4FD PUSH2 0x4EC PUSH2 0x4E7 CALLDATASIZE PUSH1 0x4 PUSH2 0x47D JUMP JUMPDEST PUSH2 0xC15 JUMP JUMPDEST PUSH2 0x4F4 PUSH2 0x153 JUMP JUMPDEST SWAP2 DUP3 SWAP2 DUP3 PUSH2 0x329 JUMP JUMPDEST SUB SWAP1 RETURN JUMPDEST PUSH2 0x159 JUMP JUMPDEST CALLVALUE PUSH2 0x534 JUMPI PUSH2 0x516 CALLDATASIZE PUSH1 0x4 PUSH2 0x163 JUMP JUMPDEST PUSH2 0x51E PUSH2 0xC82 JUMP JUMPDEST PUSH2 0x526 PUSH2 0x153 JUMP JUMPDEST DUP1 PUSH2 0x530 DUP2 PUSH2 0x443 JUMP JUMPDEST SUB SWAP1 RETURN JUMPDEST PUSH2 0x159 JUMP JUMPDEST SWAP1 JUMP JUMPDEST SWAP1 JUMP JUMPDEST PUSH2 0x553 PUSH2 0x54E PUSH2 0x558 SWAP3 PUSH2 0x539 JUMP JUMPDEST PUSH2 0x53C JUMP JUMPDEST PUSH2 0x269 JUMP JUMPDEST SWAP1 JUMP JUMPDEST PUSH2 0x56D PUSH9 0x56BC75E2D63100000 PUSH2 0x53F JUMP JUMPDEST SWAP1 JUMP JUMPDEST PUSH2 0x578 PUSH2 0x55B JUMP JUMPDEST SWAP1 JUMP JUMPDEST CALLVALUE PUSH2 0x5AB JUMPI PUSH2 0x58B CALLDATASIZE PUSH1 0x4 PUSH2 0x163 JUMP JUMPDEST PUSH2 0x5A7 PUSH2 0x596 PUSH2 0x570 JUMP JUMPDEST PUSH2 0x59E PUSH2 0x153 JUMP JUMPDEST SWAP2 DUP3 SWAP2 DUP3 PUSH2 0x329 JUMP JUMPDEST SUB SWAP1 RETURN JUMPDEST PUSH2 0x159 JUMP JUMPDEST CALLVALUE PUSH2 0x5E0 JUMPI PUSH2 0x5DC PUSH2 0x5CB PUSH2 0x5C6 CALLDATASIZE PUSH1 0x4 PUSH2 0x47D JUMP JUMPDEST PUSH2 0xC8C JUMP JUMPDEST PUSH2 0x5D3 PUSH2 0x153 JUMP JUMPDEST SWAP2 DUP3 SWAP2 DUP3 PUSH2 0x2D0 JUMP JUMPDEST SUB SWAP1 RETURN JUMPDEST PUSH2 0x159 JUMP JUMPDEST PUSH2 0x5F9 PUSH2 0x5F4 PUSH2 0x5FE SWAP3 PUSH2 0x22E JUMP JUMPDEST PUSH2 0x53C JUMP JUMPDEST PUSH2 0x22E JUMP JUMPDEST SWAP1 JUMP JUMPDEST PUSH2 0x60A SWAP1 PUSH2 0x5E5 JUMP JUMPDEST SWAP1 JUMP JUMPDEST PUSH2 0x616 SWAP1 PUSH2 0x601 JUMP JUMPDEST SWAP1 JUMP JUMPDEST SWAP1 PUSH2 0x623 SWAP1 PUSH2 0x60D JUMP JUMPDEST PUSH1 0x0 MSTORE PUSH1 0x20 MSTORE PUSH1 0x40 PUSH1 0x0 KECCAK256 SWAP1 JUMP JUMPDEST SHR SWAP1 JUMP JUMPDEST SWAP1 JUMP JUMPDEST PUSH2 0x648 SWAP1 PUSH1 0x8 PUSH2 0x64D SWAP4 MUL PUSH2 0x631 JUMP JUMPDEST PUSH2 0x635 JUMP JUMPDEST SWAP1 JUMP JUMPDEST SWAP1 PUSH2 0x65B SWAP2 SLOAD PUSH2 0x638 JUMP JUMPDEST SWAP1 JUMP JUMPDEST PUSH2 0x675 SWAP1 PUSH2 0x670 PUSH1 0x7 SWAP2 PUSH1 0x0 SWAP3 PUSH2 0x619 JUMP JUMPDEST PUSH2 0x650 JUMP JUMPDEST SWAP1 JUMP JUMPDEST CALLVALUE PUSH2 0x6A8 JUMPI PUSH2 0x6A4 PUSH2 0x693 PUSH2 0x68E CALLDATASIZE PUSH1 0x4 PUSH2 0x47D JUMP JUMPDEST PUSH2 0x65E JUMP JUMPDEST PUSH2 0x69B PUSH2 0x153 JUMP JUMPDEST SWAP2 DUP3 SWAP2 DUP3 PUSH2 0x329 JUMP JUMPDEST SUB SWAP1 RETURN JUMPDEST PUSH2 0x159 JUMP JUMPDEST SWAP1 JUMP JUMPDEST PUSH2 0x6C4 PUSH2 0x6BF PUSH2 0x6C9 SWAP3 PUSH2 0x6AD JUMP JUMPDEST PUSH2 0x53C JUMP JUMPDEST PUSH2 0x269 JUMP JUMPDEST SWAP1 JUMP JUMPDEST PUSH2 0x6D8 PUSH3 0x15180 PUSH2 0x6B0 JUMP JUMPDEST SWAP1 JUMP JUMPDEST PUSH2 0x6E3 PUSH2 0x6CC JUMP JUMPDEST SWAP1 JUMP JUMPDEST CALLVALUE PUSH2 0x716 JUMPI PUSH2 0x6F6 CALLDATASIZE PUSH1 0x4 PUSH2 0x163 JUMP JUMPDEST PUSH2 0x712 PUSH2 0x701 PUSH2 0x6DB JUMP JUMPDEST PUSH2 0x709 PUSH2 0x153 JUMP JUMPDEST SWAP2 DUP3 SWAP2 DUP3 PUSH2 0x329 JUMP JUMPDEST SUB SWAP1 RETURN JUMPDEST PUSH2 0x159 JUMP JUMPDEST PUSH2 0x724 SWAP1 PUSH2 0x239 JUMP JUMPDEST SWAP1 MSTORE JUMP JUMPDEST SWAP2 SWAP1 PUSH2 0x73C SWAP1 PUSH1 0x0 PUSH1 0x20 DUP6 ADD SWAP5 ADD SWAP1 PUSH2 0x71B JUMP JUMPDEST JUMP JUMPDEST CALLVALUE PUSH2 0x76E JUMPI PUSH2 0x74E CALLDATASIZE PUSH1 0x4 PUSH2 0x163 JUMP JUMPDEST PUSH2 0x76A PUSH2 0x759 PUSH2 0xD01 JUMP JUMPDEST PUSH2 0x761 PUSH2 0x153 JUMP JUMPDEST SWAP2 DUP3 SWAP2 DUP3 PUSH2 0x728 JUMP JUMPDEST SUB SWAP1 RETURN JUMPDEST PUSH2 0x159 JUMP JUMPDEST CALLVALUE PUSH2 0x7A3 JUMPI PUSH2 0x783 CALLDATASIZE PUSH1 0x4 PUSH2 0x163 JUMP JUMPDEST PUSH2 0x79F PUSH2 0x78E PUSH2 0xD17 JUMP JUMPDEST PUSH2 0x796 PUSH2 0x153 JUMP JUMPDEST SWAP2 DUP3 SWAP2 DUP3 PUSH2 0x1E0 JUMP JUMPDEST SUB SWAP1 RETURN JUMPDEST PUSH2 0x159 JUMP JUMPDEST CALLVALUE PUSH2 0x7D9 JUMPI PUSH2 0x7D5 PUSH2 0x7C4 PUSH2 0x7BE CALLDATASIZE PUSH1 0x4 PUSH2 0x290 JUMP JUMPDEST SWAP1 PUSH2 0xD2D JUMP JUMPDEST PUSH2 0x7CC PUSH2 0x153 JUMP JUMPDEST SWAP2 DUP3 SWAP2 DUP3 PUSH2 0x2D0 JUMP JUMPDEST SUB SWAP1 RETURN JUMPDEST PUSH2 0x159 JUMP JUMPDEST SWAP2 SWAP1 PUSH1 0x40 DUP4 DUP3 SUB SLT PUSH2 0x807 JUMPI DUP1 PUSH2 0x7FB PUSH2 0x804 SWAP3 PUSH1 0x0 DUP7 ADD PUSH2 0x25A JUMP JUMPDEST SWAP4 PUSH1 0x20 ADD PUSH2 0x25A JUMP JUMPDEST SWAP1 JUMP JUMPDEST PUSH2 0x15E JUMP JUMPDEST CALLVALUE PUSH2 0x83D JUMPI PUSH2 0x839 PUSH2 0x828 PUSH2 0x822 CALLDATASIZE PUSH1 0x4 PUSH2 0x7DE JUMP JUMPDEST SWAP1 PUSH2 0xD67 JUMP JUMPDEST PUSH2 0x830 PUSH2 0x153 JUMP JUMPDEST SWAP2 DUP3 SWAP2 DUP3 PUSH2 0x329 JUMP JUMPDEST SUB SWAP1 RETURN JUMPDEST PUSH2 0x159 JUMP JUMPDEST CALLVALUE PUSH2 0x870 JUMPI PUSH2 0x852 CALLDATASIZE PUSH1 0x4 PUSH2 0x163 JUMP JUMPDEST PUSH2 0x85A PUSH2 0xF4E JUMP JUMPDEST PUSH2 0x862 PUSH2 0x153 JUMP JUMPDEST DUP1 PUSH2 0x86C DUP2 PUSH2 0x443 JUMP JUMPDEST SUB SWAP1 RETURN JUMPDEST PUSH2 0x159 JUMP JUMPDEST CALLVALUE PUSH2 0x8A3 JUMPI PUSH2 0x88D PUSH2 0x888 CALLDATASIZE PUSH1 0x4 PUSH2 0x47D JUMP JUMPDEST PUSH2 0xFC0 JUMP JUMPDEST PUSH2 0x895 PUSH2 0x153 JUMP JUMPDEST DUP1 PUSH2 0x89F DUP2 PUSH2 0x443 JUMP JUMPDEST SUB SWAP1 RETURN JUMPDEST PUSH2 0x159 JUMP JUMPDEST PUSH1 0x0 DUP1 REVERT JUMPDEST PUSH1 0x60 SWAP1 JUMP JUMPDEST PUSH4 0x4E487B71 PUSH1 0xE0 SHL PUSH1 0x0 MSTORE PUSH1 0x22 PUSH1 0x4 MSTORE PUSH1 0x24 PUSH1 0x0 REVERT JUMPDEST SWAP1 PUSH1 0x1 PUSH1 0x2 DUP4 DIV SWAP3 AND DUP1 ISZERO PUSH2 0x8E8 JUMPI JUMPDEST PUSH1 0x20 DUP4 LT EQ PUSH2 0x8E3 JUMPI JUMP JUMPDEST PUSH2 0x8B2 JUMP JUMPDEST SWAP2 PUSH1 0x7F AND SWAP2 PUSH2 0x8D8 JUMP JUMPDEST PUSH1 0x20 SWAP2 DUP2 MSTORE ADD SWAP1 JUMP JUMPDEST PUSH1 0x0 MSTORE PUSH1 0x20 PUSH1 0x0 KECCAK256 SWAP1 JUMP JUMPDEST SWAP1 PUSH1 0x0 SWAP3 SWAP2 DUP1 SLOAD SWAP1 PUSH2 0x921 PUSH2 0x91A DUP4 PUSH2 0x8C8 JUMP JUMPDEST DUP1 SWAP5 PUSH2 0x8F2 JUMP JUMPDEST SWAP2 PUSH1 0x1 DUP2 AND SWAP1 DUP2 PUSH1 0x0 EQ PUSH2 0x97A JUMPI POP PUSH1 0x1 EQ PUSH2 0x93D JUMPI JUMPDEST POP POP POP JUMP JUMPDEST PUSH2 0x94A SWAP2 SWAP3 SWAP4 SWAP5 POP PUSH2 0x8FB JUMP JUMPDEST SWAP2 PUSH1 0x0 SWAP3 JUMPDEST DUP2 DUP5 LT PUSH2 0x962 JUMPI POP POP ADD SWAP1 CODESIZE DUP1 DUP1 PUSH2 0x938 JUMP JUMPDEST PUSH1 0x1 DUP2 PUSH1 0x20 SWAP3 SWAP6 SWAP4 SWAP6 SLOAD DUP5 DUP7 ADD MSTORE ADD SWAP2 ADD SWAP3 SWAP1 PUSH2 0x94F JUMP JUMPDEST SWAP3 SWAP5 SWAP6 POP POP POP PUSH1 0xFF NOT AND DUP3 MSTORE ISZERO ISZERO PUSH1 0x20 MUL ADD SWAP1 CODESIZE DUP1 DUP1 PUSH2 0x938 JUMP JUMPDEST SWAP1 PUSH2 0x99F SWAP2 PUSH2 0x906 JUMP JUMPDEST SWAP1 JUMP JUMPDEST PUSH4 0x4E487B71 PUSH1 0xE0 SHL PUSH1 0x0 MSTORE PUSH1 0x41 PUSH1 0x4 MSTORE PUSH1 0x24 PUSH1 0x0 REVERT JUMPDEST SWAP1 PUSH2 0x9C2 SWAP1 PUSH2 0x1A5 JUMP JUMPDEST DUP2 ADD SWAP1 DUP2 LT PUSH8 0xFFFFFFFFFFFFFFFF DUP3 GT OR PUSH2 0x9DC JUMPI PUSH1 0x40 MSTORE JUMP JUMPDEST PUSH2 0x9A2 JUMP JUMPDEST SWAP1 PUSH2 0xA01 PUSH2 0x9FA SWAP3 PUSH2 0x9F1 PUSH2 0x153 JUMP JUMPDEST SWAP4 DUP5 DUP1 SWAP3 PUSH2 0x995 JUMP JUMPDEST SUB DUP4 PUSH2 0x9B8 JUMP JUMPDEST JUMP JUMPDEST PUSH2 0xA0C SWAP1 PUSH2 0x9E1 JUMP JUMPDEST SWAP1 JUMP JUMPDEST PUSH2 0xA17 PUSH2 0x8AD JUMP JUMPDEST POP PUSH2 0xA22 PUSH1 0x3 PUSH2 0xA03 JUMP JUMPDEST SWAP1 JUMP JUMPDEST PUSH1 0x0 SWAP1 JUMP JUMPDEST PUSH2 0xA47 SWAP2 PUSH2 0xA36 PUSH2 0xA25 JUMP JUMPDEST POP PUSH2 0xA3F PUSH2 0xFCB JUMP JUMPDEST SWAP2 SWAP1 SWAP2 PUSH2 0xFD8 JUMP JUMPDEST PUSH1 0x1 SWAP1 JUMP JUMPDEST PUSH1 0x0 SWAP1 JUMP JUMPDEST PUSH1 0x0 SHR SWAP1 JUMP JUMPDEST PUSH2 0xA63 PUSH2 0xA68 SWAP2 PUSH2 0xA51 JUMP JUMPDEST PUSH2 0x635 JUMP JUMPDEST SWAP1 JUMP JUMPDEST PUSH2 0xA75 SWAP1 SLOAD PUSH2 0xA57 JUMP JUMPDEST SWAP1 JUMP JUMPDEST PUSH2 0xA80 PUSH2 0xA4C JUMP JUMPDEST POP PUSH2 0xA8B PUSH1 0x2 PUSH2 0xA6B JUMP JUMPDEST SWAP1 JUMP JUMPDEST SWAP2 PUSH2 0xAB8 SWAP3 PUSH2 0xA9B PUSH2 0xA25 JUMP JUMPDEST POP PUSH2 0xAB0 PUSH2 0xAA7 PUSH2 0xFCB JUMP JUMPDEST DUP3 SWAP1 DUP5 SWAP2 PUSH2 0x1029 JUMP JUMPDEST SWAP2 SWAP1 SWAP2 PUSH2 0x10B8 JUMP JUMPDEST PUSH1 0x1 SWAP1 JUMP JUMPDEST PUSH1 0x0 SWAP1 JUMP JUMPDEST SWAP1 JUMP JUMPDEST PUSH2 0xAD9 PUSH2 0xAD4 PUSH2 0xADE SWAP3 PUSH2 0xAC2 JUMP JUMPDEST PUSH2 0x53C JUMP JUMPDEST PUSH2 0x3E5 JUMP JUMPDEST SWAP1 JUMP JUMPDEST PUSH2 0xAE9 PUSH2 0xABD JUMP JUMPDEST POP PUSH2 0xAF4 PUSH1 0x12 PUSH2 0xAC5 JUMP JUMPDEST SWAP1 JUMP JUMPDEST SWAP1 PUSH2 0xB09 SWAP2 PUSH2 0xB04 PUSH2 0x115B JUMP JUMPDEST PUSH2 0xB0B JUMP JUMPDEST JUMP JUMPDEST SWAP1 PUSH2 0xB15 SWAP2 PUSH2 0x11AA JUMP JUMPDEST JUMP JUMPDEST SWAP1 PUSH2 0xB21 SWAP2 PUSH2 0xAF7 JUMP JUMPDEST JUMP JUMPDEST PUSH4 0x4E487B71 PUSH1 0xE0 SHL PUSH1 0x0 MSTORE PUSH1 0x11 PUSH1 0x4 MSTORE PUSH1 0x24 PUSH1 0x0 REVERT JUMPDEST PUSH2 0xB48 PUSH2 0xB4E SWAP2 SWAP4 SWAP3 SWAP4 PUSH2 0x269 JUMP JUMPDEST SWAP3 PUSH2 0x269 JUMP JUMPDEST DUP3 ADD DUP1 SWAP3 GT PUSH2 0xB59 JUMPI JUMP JUMPDEST PUSH2 0xB23 JUMP JUMPDEST PUSH2 0xB6D PUSH2 0xB73 SWAP2 SWAP4 SWAP3 SWAP4 PUSH2 0x269 JUMP JUMPDEST SWAP3 PUSH2 0x269 JUMP JUMPDEST DUP3 SUB SWAP2 DUP3 GT PUSH2 0xB7E JUMPI JUMP JUMPDEST PUSH2 0xB23 JUMP JUMPDEST SWAP1 JUMP JUMPDEST PUSH2 0xB9A PUSH2 0xB95 PUSH2 0xB9F SWAP3 PUSH2 0xB83 JUMP JUMPDEST PUSH2 0x53C JUMP JUMPDEST PUSH2 0x269 JUMP JUMPDEST SWAP1 JUMP JUMPDEST PUSH2 0xBAA PUSH2 0xA4C JUMP JUMPDEST POP PUSH2 0xBBF PUSH2 0xBBA TIMESTAMP SWAP3 PUSH1 0x7 PUSH2 0x619 JUMP JUMPDEST PUSH2 0xA6B JUMP JUMPDEST SWAP1 PUSH2 0xBD2 DUP3 PUSH2 0xBCC PUSH2 0x6CC JUMP JUMPDEST SWAP1 PUSH2 0xB39 JUMP JUMPDEST PUSH2 0xBE4 PUSH2 0xBDE DUP4 PUSH2 0x269 JUMP JUMPDEST SWAP2 PUSH2 0x269 JUMP JUMPDEST GT PUSH2 0xBF8 JUMPI POP POP PUSH2 0xBF5 PUSH1 0x0 PUSH2 0xB86 JUMP JUMPDEST SWAP1 JUMP JUMPDEST PUSH2 0xC0D PUSH2 0xC12 SWAP3 PUSH2 0xC07 PUSH2 0x6CC JUMP JUMPDEST SWAP1 PUSH2 0xB39 JUMP JUMPDEST PUSH2 0xB5E JUMP JUMPDEST SWAP1 JUMP JUMPDEST PUSH2 0xC2C PUSH2 0xC31 SWAP2 PUSH2 0xC24 PUSH2 0xA4C JUMP JUMPDEST POP PUSH1 0x0 PUSH2 0x619 JUMP JUMPDEST PUSH2 0xA6B JUMP JUMPDEST SWAP1 JUMP JUMPDEST PUSH2 0xC3C PUSH2 0x115B JUMP JUMPDEST PUSH2 0xC44 PUSH2 0xC6E JUMP JUMPDEST JUMP JUMPDEST PUSH2 0xC5A PUSH2 0xC55 PUSH2 0xC5F SWAP3 PUSH2 0xB83 JUMP JUMPDEST PUSH2 0x53C JUMP JUMPDEST PUSH2 0x22E JUMP JUMPDEST SWAP1 JUMP JUMPDEST PUSH2 0xC6B SWAP1 PUSH2 0xC46 JUMP JUMPDEST SWAP1 JUMP JUMPDEST PUSH2 0xC80 PUSH2 0xC7B PUSH1 0x0 PUSH2 0xC62 JUMP JUMPDEST PUSH2 0x124A JUMP JUMPDEST JUMP JUMPDEST PUSH2 0xC8A PUSH2 0xC34 JUMP JUMPDEST JUMP JUMPDEST PUSH2 0xCAB PUSH2 0xCA6 PUSH2 0xCB9 SWAP3 PUSH2 0xC9E PUSH2 0xA25 JUMP JUMPDEST POP PUSH1 0x7 PUSH2 0x619 JUMP JUMPDEST PUSH2 0xA6B JUMP JUMPDEST PUSH2 0xCB3 PUSH2 0x6CC JUMP JUMPDEST SWAP1 PUSH2 0xB39 JUMP JUMPDEST PUSH2 0xCCB PUSH2 0xCC5 TIMESTAMP PUSH2 0x269 JUMP JUMPDEST SWAP2 PUSH2 0x269 JUMP JUMPDEST GT ISZERO SWAP1 JUMP JUMPDEST PUSH1 0x0 SWAP1 JUMP JUMPDEST PUSH1 0x1 DUP1 PUSH1 0xA0 SHL SUB AND SWAP1 JUMP JUMPDEST PUSH2 0xCEC PUSH2 0xCF1 SWAP2 PUSH2 0xA51 JUMP JUMPDEST PUSH2 0xCD5 JUMP JUMPDEST SWAP1 JUMP JUMPDEST PUSH2 0xCFE SWAP1 SLOAD PUSH2 0xCE0 JUMP JUMPDEST SWAP1 JUMP JUMPDEST PUSH2 0xD09 PUSH2 0xCD0 JUMP JUMPDEST POP PUSH2 0xD14 PUSH1 0x5 PUSH2 0xCF4 JUMP JUMPDEST SWAP1 JUMP JUMPDEST PUSH2 0xD1F PUSH2 0x8AD JUMP JUMPDEST POP PUSH2 0xD2A PUSH1 0x4 PUSH2 0xA03 JUMP JUMPDEST SWAP1 JUMP JUMPDEST PUSH2 0xD4A SWAP2 PUSH2 0xD39 PUSH2 0xA25 JUMP JUMPDEST POP PUSH2 0xD42 PUSH2 0xFCB JUMP JUMPDEST SWAP2 SWAP1 SWAP2 PUSH2 0x10B8 JUMP JUMPDEST PUSH1 0x1 SWAP1 JUMP JUMPDEST SWAP1 PUSH2 0xD59 SWAP1 PUSH2 0x60D JUMP JUMPDEST PUSH1 0x0 MSTORE PUSH1 0x20 MSTORE PUSH1 0x40 PUSH1 0x0 KECCAK256 SWAP1 JUMP JUMPDEST PUSH2 0xD8C SWAP2 PUSH2 0xD82 PUSH2 0xD87 SWAP3 PUSH2 0xD7A PUSH2 0xA4C JUMP JUMPDEST POP PUSH1 0x1 PUSH2 0xD4F JUMP JUMPDEST PUSH2 0x619 JUMP JUMPDEST PUSH2 0xA6B JUMP JUMPDEST SWAP1 JUMP JUMPDEST PUSH2 0xD97 PUSH2 0x12D7 JUMP JUMPDEST PUSH2 0xD9F PUSH2 0xE4D JUMP JUMPDEST PUSH2 0xDA7 PUSH2 0x135C JUMP JUMPDEST JUMP JUMPDEST SWAP2 PUSH1 0x20 PUSH2 0xDCB SWAP3 SWAP5 SWAP4 PUSH2 0xDC4 PUSH1 0x40 DUP3 ADD SWAP7 PUSH1 0x0 DUP4 ADD SWAP1 PUSH2 0x71B JUMP JUMPDEST ADD SWAP1 PUSH2 0x31C JUMP JUMPDEST JUMP JUMPDEST PUSH1 0x0 SHL SWAP1 JUMP JUMPDEST SWAP1 PUSH2 0xDE0 PUSH1 0x0 NOT SWAP2 PUSH2 0xDCD JUMP JUMPDEST SWAP2 DUP2 NOT AND SWAP2 AND OR SWAP1 JUMP JUMPDEST PUSH2 0xDFE PUSH2 0xDF9 PUSH2 0xE03 SWAP3 PUSH2 0x269 JUMP JUMPDEST PUSH2 0x53C JUMP JUMPDEST PUSH2 0x269 JUMP JUMPDEST SWAP1 JUMP JUMPDEST SWAP1 JUMP JUMPDEST SWAP1 PUSH2 0xE1E PUSH2 0xE19 PUSH2 0xE25 SWAP3 PUSH2 0xDEA JUMP JUMPDEST PUSH2 0xE06 JUMP JUMPDEST DUP3 SLOAD PUSH2 0xDD3 JUMP JUMPDEST SWAP1 SSTORE JUMP JUMPDEST SWAP2 PUSH1 0x20 PUSH2 0xE4B SWAP3 SWAP5 SWAP4 PUSH2 0xE44 PUSH1 0x40 DUP3 ADD SWAP7 PUSH1 0x0 DUP4 ADD SWAP1 PUSH2 0x31C JUMP JUMPDEST ADD SWAP1 PUSH2 0x31C JUMP JUMPDEST JUMP JUMPDEST CALLER TIMESTAMP SWAP1 PUSH2 0xE75 PUSH2 0xE67 PUSH2 0xE62 PUSH1 0x7 DUP5 SWAP1 PUSH2 0x619 JUMP JUMPDEST PUSH2 0xA6B JUMP JUMPDEST PUSH2 0xE6F PUSH2 0x6CC JUMP JUMPDEST SWAP1 PUSH2 0xB39 JUMP JUMPDEST PUSH2 0xE87 PUSH2 0xE81 DUP5 PUSH2 0x269 JUMP JUMPDEST SWAP2 PUSH2 0x269 JUMP JUMPDEST GT PUSH2 0xF00 JUMPI PUSH2 0xEA1 DUP3 PUSH2 0xE9C PUSH1 0x7 DUP5 SWAP1 PUSH2 0x619 JUMP JUMPDEST PUSH2 0xE09 JUMP JUMPDEST PUSH2 0xEB3 DUP2 PUSH2 0xEAD PUSH2 0x55B JUMP JUMPDEST SWAP1 PUSH2 0x11AA JUMP JUMPDEST PUSH2 0xEBB PUSH2 0x55B JUMP JUMPDEST SWAP2 PUSH2 0xEE6 PUSH32 0x1471294B27BD6E7D297998C0FD0FB313349F2F6C782CC696D9279410A9557574 SWAP3 PUSH2 0x60D JUMP JUMPDEST SWAP3 PUSH2 0xEFB PUSH2 0xEF2 PUSH2 0x153 JUMP JUMPDEST SWAP3 DUP4 SWAP3 DUP4 PUSH2 0xE29 JUMP JUMPDEST SUB SWAP1 LOG2 JUMP JUMPDEST PUSH2 0xF2E DUP3 PUSH2 0xF29 PUSH2 0xF1B PUSH2 0xF16 PUSH1 0x7 DUP7 SWAP1 PUSH2 0x619 JUMP JUMPDEST PUSH2 0xA6B JUMP JUMPDEST PUSH2 0xF23 PUSH2 0x6CC JUMP JUMPDEST SWAP1 PUSH2 0xB39 JUMP JUMPDEST PUSH2 0xB5E JUMP JUMPDEST SWAP1 PUSH2 0xF4A PUSH1 0x0 SWAP3 DUP4 SWAP3 PUSH4 0x37F86CFD PUSH1 0xE0 SHL DUP5 MSTORE PUSH1 0x4 DUP5 ADD PUSH2 0xDA9 JUMP JUMPDEST SUB SWAP1 REVERT JUMPDEST PUSH2 0xF56 PUSH2 0xD8F JUMP JUMPDEST JUMP JUMPDEST PUSH2 0xF69 SWAP1 PUSH2 0xF64 PUSH2 0x115B JUMP JUMPDEST PUSH2 0xF6B JUMP JUMPDEST JUMP JUMPDEST DUP1 PUSH2 0xF87 PUSH2 0xF81 PUSH2 0xF7C PUSH1 0x0 PUSH2 0xC62 JUMP JUMPDEST PUSH2 0x239 JUMP JUMPDEST SWAP2 PUSH2 0x239 JUMP JUMPDEST EQ PUSH2 0xF97 JUMPI PUSH2 0xF95 SWAP1 PUSH2 0x124A JUMP JUMPDEST JUMP JUMPDEST PUSH2 0xFBC PUSH2 0xFA4 PUSH1 0x0 PUSH2 0xC62 JUMP JUMPDEST PUSH1 0x0 SWAP2 DUP3 SWAP2 PUSH4 0x1E4FBDF7 PUSH1 0xE0 SHL DUP4 MSTORE PUSH1 0x4 DUP4 ADD PUSH2 0x728 JUMP JUMPDEST SUB SWAP1 REVERT JUMPDEST PUSH2 0xFC9 SWAP1 PUSH2 0xF58 JUMP JUMPDEST JUMP JUMPDEST PUSH2 0xFD3 PUSH2 0xCD0 JUMP JUMPDEST POP CALLER SWAP1 JUMP JUMPDEST SWAP2 PUSH2 0xFE6 SWAP3 SWAP2 PUSH1 0x1 SWAP3 PUSH2 0x1370 JUMP JUMPDEST JUMP JUMPDEST PUSH1 0x40 SWAP1 PUSH2 0x1012 PUSH2 0x1019 SWAP5 SWAP7 SWAP6 SWAP4 SWAP7 PUSH2 0x1008 PUSH1 0x60 DUP5 ADD SWAP9 PUSH1 0x0 DUP6 ADD SWAP1 PUSH2 0x71B JUMP JUMPDEST PUSH1 0x20 DUP4 ADD SWAP1 PUSH2 0x31C JUMP JUMPDEST ADD SWAP1 PUSH2 0x31C JUMP JUMPDEST JUMP JUMPDEST SWAP1 PUSH2 0x1026 SWAP2 SUB PUSH2 0x269 JUMP JUMPDEST SWAP1 JUMP JUMPDEST SWAP3 SWAP2 SWAP3 PUSH2 0x1037 DUP2 DUP4 SWAP1 PUSH2 0xD67 JUMP JUMPDEST SWAP1 DUP2 PUSH2 0x104D PUSH2 0x1047 PUSH1 0x0 NOT PUSH2 0x269 JUMP JUMPDEST SWAP2 PUSH2 0x269 JUMP JUMPDEST LT PUSH2 0x105A JUMPI JUMPDEST POP POP POP SWAP1 POP JUMP JUMPDEST DUP2 PUSH2 0x106D PUSH2 0x1067 DUP8 PUSH2 0x269 JUMP JUMPDEST SWAP2 PUSH2 0x269 JUMP JUMPDEST LT PUSH2 0x1094 JUMPI PUSH2 0x108B SWAP4 SWAP5 PUSH2 0x1082 SWAP2 SWAP4 SWAP3 PUSH2 0x101B JUMP JUMPDEST SWAP1 PUSH1 0x0 SWAP3 PUSH2 0x1370 JUMP JUMPDEST DUP1 CODESIZE DUP1 DUP1 PUSH2 0x1053 JUMP JUMPDEST POP PUSH2 0x10B4 DUP5 SWAP3 SWAP2 SWAP3 PUSH1 0x0 SWAP4 DUP5 SWAP4 PUSH4 0x7DC7A0D9 PUSH1 0xE1 SHL DUP6 MSTORE PUSH1 0x4 DUP6 ADD PUSH2 0xFE8 JUMP JUMPDEST SUB SWAP1 REVERT JUMPDEST SWAP2 DUP3 PUSH2 0x10D5 PUSH2 0x10CF PUSH2 0x10CA PUSH1 0x0 PUSH2 0xC62 JUMP JUMPDEST PUSH2 0x239 JUMP JUMPDEST SWAP2 PUSH2 0x239 JUMP JUMPDEST EQ PUSH2 0x1132 JUMPI DUP2 PUSH2 0x10F6 PUSH2 0x10F0 PUSH2 0x10EB PUSH1 0x0 PUSH2 0xC62 JUMP JUMPDEST PUSH2 0x239 JUMP JUMPDEST SWAP2 PUSH2 0x239 JUMP JUMPDEST EQ PUSH2 0x1109 JUMPI PUSH2 0x1107 SWAP3 SWAP2 SWAP1 SWAP2 PUSH2 0x1493 JUMP JUMPDEST JUMP JUMPDEST PUSH2 0x112E PUSH2 0x1116 PUSH1 0x0 PUSH2 0xC62 JUMP JUMPDEST PUSH1 0x0 SWAP2 DUP3 SWAP2 PUSH4 0xEC442F05 PUSH1 0xE0 SHL DUP4 MSTORE PUSH1 0x4 DUP4 ADD PUSH2 0x728 JUMP JUMPDEST SUB SWAP1 REVERT JUMPDEST PUSH2 0x1157 PUSH2 0x113F PUSH1 0x0 PUSH2 0xC62 JUMP JUMPDEST PUSH1 0x0 SWAP2 DUP3 SWAP2 PUSH4 0x4B637E8F PUSH1 0xE1 SHL DUP4 MSTORE PUSH1 0x4 DUP4 ADD PUSH2 0x728 JUMP JUMPDEST SUB SWAP1 REVERT JUMPDEST PUSH2 0x1163 PUSH2 0xD01 JUMP JUMPDEST PUSH2 0x117C PUSH2 0x1176 PUSH2 0x1171 PUSH2 0xFCB JUMP JUMPDEST PUSH2 0x239 JUMP JUMPDEST SWAP2 PUSH2 0x239 JUMP JUMPDEST SUB PUSH2 0x1183 JUMPI JUMP JUMPDEST PUSH2 0x11A6 PUSH2 0x118E PUSH2 0xFCB JUMP JUMPDEST PUSH1 0x0 SWAP2 DUP3 SWAP2 PUSH4 0x118CDAA7 PUSH1 0xE0 SHL DUP4 MSTORE PUSH1 0x4 DUP4 ADD PUSH2 0x728 JUMP JUMPDEST SUB SWAP1 REVERT JUMPDEST DUP1 PUSH2 0x11C6 PUSH2 0x11C0 PUSH2 0x11BB PUSH1 0x0 PUSH2 0xC62 JUMP JUMPDEST PUSH2 0x239 JUMP JUMPDEST SWAP2 PUSH2 0x239 JUMP JUMPDEST EQ PUSH2 0x11E3 JUMPI PUSH2 0x11E1 SWAP2 PUSH2 0x11D9 PUSH1 0x0 PUSH2 0xC62 JUMP JUMPDEST SWAP2 SWAP1 SWAP2 PUSH2 0x1493 JUMP JUMPDEST JUMP JUMPDEST PUSH2 0x1208 PUSH2 0x11F0 PUSH1 0x0 PUSH2 0xC62 JUMP JUMPDEST PUSH1 0x0 SWAP2 DUP3 SWAP2 PUSH4 0xEC442F05 PUSH1 0xE0 SHL DUP4 MSTORE PUSH1 0x4 DUP4 ADD PUSH2 0x728 JUMP JUMPDEST SUB SWAP1 REVERT JUMPDEST SWAP1 PUSH2 0x121D PUSH1 0x1 DUP1 PUSH1 0xA0 SHL SUB SWAP2 PUSH2 0xDCD JUMP JUMPDEST SWAP2 DUP2 NOT AND SWAP2 AND OR SWAP1 JUMP JUMPDEST SWAP1 JUMP JUMPDEST SWAP1 PUSH2 0x123F PUSH2 0x123A PUSH2 0x1246 SWAP3 PUSH2 0x60D JUMP JUMPDEST PUSH2 0x1227 JUMP JUMPDEST DUP3 SLOAD PUSH2 0x120C JUMP JUMPDEST SWAP1 SSTORE JUMP JUMPDEST PUSH2 0x1254 PUSH1 0x5 PUSH2 0xCF4 JUMP JUMPDEST PUSH2 0x125F DUP3 PUSH1 0x5 PUSH2 0x122A JUMP JUMPDEST SWAP1 PUSH2 0x1293 PUSH2 0x128D PUSH32 0x8BE0079C531659141344CD1FD0A4F28419497F9722A3DAAFE3B4186F6B6457E0 SWAP4 PUSH2 0x60D JUMP JUMPDEST SWAP2 PUSH2 0x60D JUMP JUMPDEST SWAP2 PUSH2 0x129C PUSH2 0x153 JUMP JUMPDEST DUP1 PUSH2 0x12A6 DUP2 PUSH2 0x443 JUMP JUMPDEST SUB SWAP1 LOG3 JUMP JUMPDEST SWAP1 JUMP JUMPDEST PUSH2 0x12C2 PUSH2 0x12BD PUSH2 0x12C7 SWAP3 PUSH2 0x12AB JUMP JUMPDEST PUSH2 0x53C JUMP JUMPDEST PUSH2 0x269 JUMP JUMPDEST SWAP1 JUMP JUMPDEST PUSH2 0x12D4 PUSH1 0x2 PUSH2 0x12AE JUMP JUMPDEST SWAP1 JUMP JUMPDEST PUSH2 0x12E1 PUSH1 0x6 PUSH2 0xA6B JUMP JUMPDEST PUSH2 0x12FA PUSH2 0x12F4 PUSH2 0x12EF PUSH2 0x12CA JUMP JUMPDEST PUSH2 0x269 JUMP JUMPDEST SWAP2 PUSH2 0x269 JUMP JUMPDEST EQ PUSH2 0x1313 JUMPI PUSH2 0x1311 PUSH2 0x130A PUSH2 0x12CA JUMP JUMPDEST PUSH1 0x6 PUSH2 0xE09 JUMP JUMPDEST JUMP JUMPDEST PUSH1 0x0 PUSH4 0x3EE5AEB5 PUSH1 0xE0 SHL DUP2 MSTORE DUP1 PUSH2 0x132C PUSH1 0x4 DUP3 ADD PUSH2 0x443 JUMP JUMPDEST SUB SWAP1 REVERT JUMPDEST SWAP1 JUMP JUMPDEST PUSH2 0x1347 PUSH2 0x1342 PUSH2 0x134C SWAP3 PUSH2 0x1330 JUMP JUMPDEST PUSH2 0x53C JUMP JUMPDEST PUSH2 0x269 JUMP JUMPDEST SWAP1 JUMP JUMPDEST PUSH2 0x1359 PUSH1 0x1 PUSH2 0x1333 JUMP JUMPDEST SWAP1 JUMP JUMPDEST PUSH2 0x136E PUSH2 0x1367 PUSH2 0x134F JUMP JUMPDEST PUSH1 0x6 PUSH2 0xE09 JUMP JUMPDEST JUMP JUMPDEST SWAP1 SWAP3 DUP2 PUSH2 0x138E PUSH2 0x1388 PUSH2 0x1383 PUSH1 0x0 PUSH2 0xC62 JUMP JUMPDEST PUSH2 0x239 JUMP JUMPDEST SWAP2 PUSH2 0x239 JUMP JUMPDEST EQ PUSH2 0x145C JUMPI DUP4 PUSH2 0x13AF PUSH2 0x13A9 PUSH2 0x13A4 PUSH1 0x0 PUSH2 0xC62 JUMP JUMPDEST PUSH2 0x239 JUMP JUMPDEST SWAP2 PUSH2 0x239 JUMP JUMPDEST EQ PUSH2 0x1433 JUMPI PUSH2 0x13D3 DUP4 PUSH2 0x13CE PUSH2 0x13C7 PUSH1 0x1 DUP7 SWAP1 PUSH2 0xD4F JUMP JUMPDEST DUP8 SWAP1 PUSH2 0x619 JUMP JUMPDEST PUSH2 0xE09 JUMP JUMPDEST PUSH2 0x13DD JUMPI JUMPDEST POP POP POP JUMP JUMPDEST SWAP2 SWAP1 SWAP2 PUSH2 0x1428 PUSH2 0x1416 PUSH2 0x1410 PUSH32 0x8C5BE1E5EBEC7D5BD14F71427D1E84F3DD0314C0F7B2291E5B200AC8C7C3B925 SWAP4 PUSH2 0x60D JUMP JUMPDEST SWAP4 PUSH2 0x60D JUMP JUMPDEST SWAP4 PUSH2 0x141F PUSH2 0x153 JUMP JUMPDEST SWAP2 DUP3 SWAP2 DUP3 PUSH2 0x329 JUMP JUMPDEST SUB SWAP1 LOG3 CODESIZE DUP1 DUP1 PUSH2 0x13D8 JUMP JUMPDEST PUSH2 0x1458 PUSH2 0x1440 PUSH1 0x0 PUSH2 0xC62 JUMP JUMPDEST PUSH1 0x0 SWAP2 DUP3 SWAP2 PUSH4 0x4A1406B1 PUSH1 0xE1 SHL DUP4 MSTORE PUSH1 0x4 DUP4 ADD PUSH2 0x728 JUMP JUMPDEST SUB SWAP1 REVERT JUMPDEST PUSH2 0x1481 PUSH2 0x1469 PUSH1 0x0 PUSH2 0xC62 JUMP JUMPDEST PUSH1 0x0 SWAP2 DUP3 SWAP2 PUSH4 0xE602DF05 PUSH1 0xE0 SHL DUP4 MSTORE PUSH1 0x4 DUP4 ADD PUSH2 0x728 JUMP JUMPDEST SUB SWAP1 REVERT JUMPDEST SWAP1 PUSH2 0x1490 SWAP2 ADD PUSH2 0x269 JUMP JUMPDEST SWAP1 JUMP JUMPDEST SWAP2 SWAP1 SWAP2 DUP1 PUSH2 0x14B2 PUSH2 0x14AC PUSH2 0x14A7 PUSH1 0x0 PUSH2 0xC62 JUMP JUMPDEST PUSH2 0x239 JUMP JUMPDEST SWAP2 PUSH2 0x239 JUMP JUMPDEST EQ PUSH1 0x0 EQ PUSH2 0x1597 JUMPI PUSH2 0x14D7 PUSH2 0x14D0 DUP4 PUSH2 0x14CB PUSH1 0x2 PUSH2 0xA6B JUMP JUMPDEST PUSH2 0xB39 JUMP JUMPDEST PUSH1 0x2 PUSH2 0xE09 JUMP JUMPDEST JUMPDEST DUP3 PUSH2 0x14F4 PUSH2 0x14EE PUSH2 0x14E9 PUSH1 0x0 PUSH2 0xC62 JUMP JUMPDEST PUSH2 0x239 JUMP JUMPDEST SWAP2 PUSH2 0x239 JUMP JUMPDEST EQ PUSH1 0x0 EQ PUSH2 0x156A JUMPI PUSH2 0x1519 PUSH2 0x1512 DUP4 PUSH2 0x150D PUSH1 0x2 PUSH2 0xA6B JUMP JUMPDEST PUSH2 0x101B JUMP JUMPDEST PUSH1 0x2 PUSH2 0xE09 JUMP JUMPDEST JUMPDEST SWAP2 SWAP1 SWAP2 PUSH2 0x1565 PUSH2 0x1553 PUSH2 0x154D PUSH32 0xDDF252AD1BE2C89B69C2B068FC378DAA952BA7F163C4A11628F55A4DF523B3EF SWAP4 PUSH2 0x60D JUMP JUMPDEST SWAP4 PUSH2 0x60D JUMP JUMPDEST SWAP4 PUSH2 0x155C PUSH2 0x153 JUMP JUMPDEST SWAP2 DUP3 SWAP2 DUP3 PUSH2 0x329 JUMP JUMPDEST SUB SWAP1 LOG3 JUMP JUMPDEST PUSH2 0x1592 DUP3 PUSH2 0x158C PUSH2 0x157D PUSH1 0x0 DUP8 SWAP1 PUSH2 0x619 JUMP JUMPDEST SWAP2 PUSH2 0x1587 DUP4 PUSH2 0xA6B JUMP JUMPDEST PUSH2 0x1485 JUMP JUMPDEST SWAP1 PUSH2 0xE09 JUMP JUMPDEST PUSH2 0x151A JUMP JUMPDEST PUSH2 0x15AB PUSH2 0x15A6 PUSH1 0x0 DUP4 SWAP1 PUSH2 0x619 JUMP JUMPDEST PUSH2 0xA6B JUMP JUMPDEST DUP1 PUSH2 0x15BE PUSH2 0x15B8 DUP6 PUSH2 0x269 JUMP JUMPDEST SWAP2 PUSH2 0x269 JUMP JUMPDEST LT PUSH2 0x15E7 JUMPI PUSH2 0x15D1 PUSH2 0x15E2 SWAP2 DUP5 SWAP1 PUSH2 0x101B JUMP JUMPDEST PUSH2 0x15DD PUSH1 0x0 DUP5 SWAP1 PUSH2 0x619 JUMP JUMPDEST PUSH2 0xE09 JUMP JUMPDEST PUSH2 0x14D8 JUMP JUMPDEST SWAP1 PUSH2 0x1606 SWAP1 SWAP2 SWAP3 PUSH1 0x0 SWAP4 DUP5 SWAP4 PUSH4 0x391434E3 PUSH1 0xE2 SHL DUP6 MSTORE PUSH1 0x4 DUP6 ADD PUSH2 0xFE8 JUMP JUMPDEST SUB SWAP1 REVERT INVALID LOG2 PUSH5 0x6970667358 0x22 SLT KECCAK256 PUSH6 0x965A7D37B30F 0x29 SSTORE 0x26 PUSH26 0xACA98FB59BF0A43B7E847ED17F74E9C9D8CF48456064736F6C63 NUMBER STOP ADDMOD 0x1E STOP CALLER "
        },
        "methodIdentifiers": {
          "FAUCET_AMOUNT()": "76697640",
          "FAUCET_COOLDOWN()": "7d1d5d19",
          "allowance(address,address)": "dd62ed3e",
          "approve(address,uint256)": "095ea7b3",
          "balanceOf(address)": "70a08231",
          "canUseFaucet(address)": "780768fc",
          "decimals()": "313ce567",
          "faucet()": "de5f72fd",
          "getFaucetCooldownTime(address)": "70519516",
          "lastFaucetTime(address)": "7bc1f6cc",
          "mint(address,uint256)": "40c10f19",
          "name()": "06fdde03",
          "owner()": "8da5cb5b",
          "renounceOwnership()": "715018a6",
          "symbol()": "95d89b41",
          "totalSupply()": "18160ddd",
          "transfer(address,uint256)": "a9059cbb",
          "transferFrom(address,address,uint256)": "23b872dd",
          "transferOwnership(address)": "f2fde38b"
        }
      }
    }
  }
}