{
  "contracts/DexPair.sol": {
    "DexPair": {
      "abi": [
        {
          "inputs": [],
          "stateMutability": "nonpayable",
          "type": "constructor"
        },
        {
          "inputs": [
            {
              "internalType": "address",
              "name": "spender",
              "type": "address"
            },
            {
              "internalType": "uint256",
              "name": "allowance",
              "type": "uint256"
            },
            {
              "internalType": "uint256",
              "name": "needed",
              "type": "uint256"
            }
          ],
          "name": "ERC20InsufficientAllowance",
          "type": "error"
        },
        {
          "inputs": [
            {
              "internalType": "address",
              "name": "sender",
              "type": "address"
            },
            {
              "internalType": "uint256",
              "name": "balance",
              "type": "uint256"
            },
            {
              "internalType": "uint256",
              "name": "needed",
              "type": "uint256"
            }
          ],
          "name": "ERC20InsufficientBalance",
          "type": "error"
        },
        {
          "inputs": [
            {
              "internalType": "address",
              "name": "approver",
              "type": "address"
            }
          ],
          "name": "ERC20InvalidApprover",
          "type": "error"
        },
        {
          "inputs": [
            {
              "internalType": "address",
              "name": "receiver",
              "type": "address"
            }
          ],
          "name": "ERC20InvalidReceiver",
          "type": "error"
        },
        {
          "inputs": [
            {
              "internalType": "address",
              "name": "sender",
              "type": "address"
            }
          ],
          "name": "ERC20InvalidSender",
          "type": "error"
        },
        {
          "inputs": [
            {
              "internalType": "address",
              "name": "spender",
              "type": "address"
            }
          ],
          "name": "ERC20InvalidSpender",
          "type": "error"
        },
        {
          "inputs": [],
          "name": "InsufficientInputAmount",
          "type": "error"
        },
        {
          "inputs": [],
          "name": "InsufficientLiquidity",
          "type": "error"
        },
        {
          "inputs": [],
          "name": "InsufficientLiquidityBurned",
          "type": "error"
        },
        {
          "inputs": [],
          "name": "InsufficientOutputAmount",
          "type": "error"
        },
        {
          "inputs": [],
          "name": "InvalidK",
          "type": "error"
        },
        {
          "inputs": [],
          "name": "InvalidTo",
          "type": "error"
        },
        {
          "inputs": [],
          "name": "Overflow",
          "type": "error"
        },
        {
          "inputs": [],
          "name": "ReentrancyGuardReentrantCall",
          "type": "error"
        },
        {
          "inputs": [
            {
              "internalType": "address",
              "name": "token",
              "type": "address"
            }
          ],
          "name": "SafeERC20FailedOperation",
          "type": "error"
        },
        {
          "inputs": [],
          "name": "Unauthorized",
          "type": "error"
        },
        {
          "anonymous": false,
          "inputs": [
            {
              "indexed": true,
              "internalType": "address",
              "name": "owner",
              "type": "address"
            },
            {
              "indexed": true,
              "internalType": "address",
              "name": "spender",
              "type": "address"
            },
            {
              "indexed": false,
              "internalType": "uint256",
              "name": "value",
              "type": "uint256"
            }
          ],
          "name": "Approval",
          "type": "event"
        },
        {
          "anonymous": false,
          "inputs": [
            {
              "indexed": true,
              "internalType": "address",
              "name": "sender",
              "type": "address"
            },
            {
              "indexed": false,
              "internalType": "uint256",
              "name": "amount0",
              "type": "uint256"
            },
            {
              "indexed": false,
              "internalType": "uint256",
              "name": "amount1",
              "type": "uint256"
            },
            {
              "indexed": true,
              "internalType": "address",
              "name": "to",
              "type": "address"
            }
          ],
          "name": "Burn",
          "type": "event"
        },
        {
          "anonymous": false,
          "inputs": [
            {
              "indexed": true,
              "internalType": "address",
              "name": "sender",
              "type": "address"
            },
            {
              "indexed": false,
              "internalType": "uint256",
              "name": "amount0",
              "type": "uint256"
            },
            {
              "indexed": false,
              "internalType": "uint256",
              "name": "amount1",
              "type": "uint256"
            }
          ],
          "name": "Mint",
          "type": "event"
        },
        {
          "anonymous": false,
          "inputs": [
            {
              "indexed": true,
              "internalType": "address",
              "name": "sender",
              "type": "address"
            },
            {
              "indexed": false,
              "internalType": "uint256",
              "name": "amount0In",
              "type": "uint256"
            },
            {
              "indexed": false,
              "internalType": "uint256",
              "name": "amount1In",
              "type": "uint256"
            },
            {
              "indexed": false,
              "internalType": "uint256",
              "name": "amount0Out",
              "type": "uint256"
            },
            {
              "indexed": false,
              "internalType": "uint256",
              "name": "amount1Out",
              "type": "uint256"
            },
            {
              "indexed": true,
              "internalType": "address",
              "name": "to",
              "type": "address"
            }
          ],
          "name": "Swap",
          "type": "event"
        },
        {
          "anonymous": false,
          "inputs": [
            {
              "indexed": false,
              "internalType": "uint112",
              "name": "reserve0",
              "type": "uint112"
            },
            {
              "indexed": false,
              "internalType": "uint112",
              "name": "reserve1",
              "type": "uint112"
            }
          ],
          "name": "Sync",
          "type": "event"
        },
        {
          "anonymous": false,
          "inputs": [
            {
              "indexed": true,
              "internalType": "address",
              "name": "from",
              "type": "address"
            },
            {
              "indexed": true,
              "internalType": "address",
              "name": "to",
              "type": "address"
            },
            {
              "indexed": false,
              "internalType": "uint256",
              "name": "value",
              "type": "uint256"
            }
          ],
          "name": "Transfer",
          "type": "event"
        },
        {
          "inputs": [],
          "name": "MINIMUM_LIQUIDITY",
          "outputs": [
            {
              "internalType": "uint256",
              "name": "",
              "type": "uint256"
            }
          ],
          "stateMutability": "view",
          "type": "function"
        },
        {
          "inputs": [
            {
              "internalType": "address",
              "name": "owner",
              "type": "address"
            },
            {
              "internalType": "address",
              "name": "spender",
              "type": "address"
            }
          ],
          "name": "allowance",
          "outputs": [
            {
              "internalType": "uint256",
              "name": "",
              "type": "uint256"
            }
          ],
          "stateMutability": "view",
          "type": "function"
        },
        {
          "inputs": [
            {
              "internalType": "address",
              "name": "spender",
              "type": "address"
            },
            {
              "internalType": "uint256",
              "name": "value",
              "type": "uint256"
            }
          ],
          "name": "approve",
          "outputs": [
            {
              "internalType": "bool",
              "name": "",
              "type": "bool"
            }
          ],
          "stateMutability": "nonpayable",
          "type": "function"
        },
        {
          "inputs": [
            {
              "internalType": "address",
              "name": "account",
              "type": "address"
            }
          ],
          "name": "balanceOf",
          "outputs": [
            {
              "internalType": "uint256",
              "name": "",
              "type": "uint256"
            }
          ],
          "stateMutability": "view",
          "type": "function"
        },
        {
          "inputs": [
            {
              "internalType": "address",
              "name": "to",
              "type": "address"
            }
          ],
          "name": "burn",
          "outputs": [
            {
              "internalType": "uint256",
              "name": "amount0",
              "type": "uint256"
            },
            {
              "internalType": "uint256",
              "name": "amount1",
              "type": "uint256"
            }
          ],
          "stateMutability": "nonpayable",
          "type": "function"
        },
        {
          "inputs": [],
          "name": "decimals",
          "outputs": [
            {
              "internalType": "uint8",
              "name": "",
              "type": "uint8"
            }
          ],
          "stateMutability": "view",
          "type": "function"
        },
        {
          "inputs": [],
          "name": "factory",
          "outputs": [
            {
              "internalType": "address",
              "name": "",
              "type": "address"
            }
          ],
          "stateMutability": "view",
          "type": "function"
        },
        {
          "inputs": [],
          "name": "getReserves",
          "outputs": [
            {
              "internalType": "uint112",
              "name": "_reserve0",
              "type": "uint112"
            },
            {
              "internalType": "uint112",
              "name": "_reserve1",
              "type": "uint112"
            },
            {
              "internalType": "uint32",
              "name": "_blockTimestampLast",
              "type": "uint32"
            }
          ],
          "stateMutability": "view",
          "type": "function"
        },
        {
          "inputs": [
            {
              "internalType": "address",
              "name": "_token0",
              "type": "address"
            },
            {
              "internalType": "address",
              "name": "_token1",
              "type": "address"
            }
          ],
          "name": "initialize",
          "outputs": [],
          "stateMutability": "nonpayable",
          "type": "function"
        },
        {
          "inputs": [],
          "name": "kLast",
          "outputs": [
            {
              "internalType": "uint256",
              "name": "",
              "type": "uint256"
            }
          ],
          "stateMutability": "view",
          "type": "function"
        },
        {
          "inputs": [
            {
              "internalType": "address",
              "name": "to",
              "type": "address"
            }
          ],
          "name": "mint",
          "outputs": [
            {
              "internalType": "uint256",
              "name": "liquidity",
              "type": "uint256"
            }
          ],
          "stateMutability": "nonpayable",
          "type": "function"
        },
        {
          "inputs": [],
          "name": "name",
          "outputs": [
            {
              "internalType": "string",
              "name": "",
              "type": "string"
            }
          ],
          "stateMutability": "view",
          "type": "function"
        },
        {
          "inputs": [],
          "name": "price0CumulativeLast",
          "outputs": [
            {
              "internalType": "uint256",
              "name": "",
              "type": "uint256"
            }
          ],
          "stateMutability": "view",
          "type": "function"
        },
        {
          "inputs": [],
          "name": "price1CumulativeLast",
          "outputs": [
            {
              "internalType": "uint256",
              "name": "",
              "type": "uint256"
            }
          ],
          "stateMutability": "view",
          "type": "function"
        },
        {
          "inputs": [
            {
              "internalType": "uint256",
              "name": "amount0Out",
              "type": "uint256"
            },
            {
              "internalType": "uint256",
              "name": "amount1Out",
              "type": "uint256"
            },
            {
              "internalType": "address",
              "name": "to",
              "type": "address"
            },
            {
              "internalType": "bytes",
              "name": "data",
              "type": "bytes"
            }
          ],
          "name": "swap",
          "outputs": [],
          "stateMutability": "nonpayable",
          "type": "function"
        },
        {
          "inputs": [],
          "name": "symbol",
          "outputs": [
            {
              "internalType": "string",
              "name": "",
              "type": "string"
            }
          ],
          "stateMutability": "view",
          "type": "function"
        },
        {
          "inputs": [],
          "name": "sync",
          "outputs": [],
          "stateMutability": "nonpayable",
          "type": "function"
        },
        {
          "inputs": [],
          "name": "token0",
          "outputs": [
            {
              "internalType": "address",
              "name": "",
              "type": "address"
            }
          ],
          "stateMutability": "view",
          "type": "function"
        },
        {
          "inputs": [],
          "name": "token1",
          "outputs": [
            {
              "internalType": "address",
              "name": "",
              "type": "address"
            }
          ],
          "stateMutability": "view",
          "type": "function"
        },
        {
          "inputs": [],
          "name": "totalSupply",
          "outputs": [
            {
              "internalType": "uint256",
              "name": "",
              "type": "uint256"
            }
          ],
          "stateMutability": "view",
          "type": "function"
        },
        {
          "inputs": [
            {
              "internalType": "address",
              "name": "to",
              "type": "address"
            },
            {
              "internalType": "uint256",
              "name": "value",
              "type": "uint256"
            }
          ],
          "name": "transfer",
          "outputs": [
            {
              "internalType": "bool",
              "name": "",
              "type": "bool"
            }
          ],
          "stateMutability": "nonpayable",
          "type": "function"
        },
        {
          "inputs": [
            {
              "internalType": "address",
              "name": "from",
              "type": "address"
            },
            {
              "internalType": "address",
              "name": "to",
              "type": "address"
            },
            {
              "internalType": "uint256",
              "name": "value",
              "type": "uint256"
            }
          ],
          "name": "transferFrom",
          "outputs": [
            {
              "internalType": "bool",
              "name": "",
              "type": "bool"
            }
          ],
          "stateMutability": "nonpayable",
          "type": "function"
        }
      ],
      "evm": {
        "bytecode": {
          "linkReferences": {},
          "object": "608060405234610027576100116101e9565b61001961002c565b613056610507823961305690f35b610032565b60405190565b600080fd5b601f801991011690565b634e487b7160e01b600052604160045260246000fd5b9061006190610037565b810190811060018060401b0382111761007957604052565b610041565b9061009161008a61002c565b9283610057565b565b60018060401b0381116100af576100ab602091610037565b0190565b610041565b906100c66100c183610093565b61007e565b918252565b60007f444558204c5020546f6b656e0000000000000000000000000000000000000000910152565b6100fd600c6100b4565b9061010a602083016100cb565b565b6101146100f3565b90565b60007f4445582d4c500000000000000000000000000000000000000000000000000000910152565b61014960066100b4565b9061015660208301610117565b565b61016061013f565b90565b60001b90565b9061017a60018060a01b0391610163565b9181191691161790565b60018060a01b031690565b90565b6101a66101a16101ab92610184565b61018f565b610184565b90565b6101b790610192565b90565b6101c3906101ae565b90565b90565b906101de6101d96101e5926101ba565b6101c6565b8254610169565b9055565b6102026101f461010c565b6101fc610158565b90610294565b61020d3360066101c9565b565b90565b90565b61022961022461022e9261020f565b61018f565b610212565b90565b61023b6001610215565b90565b9061024b60001991610163565b9181191691161790565b61026961026461026e92610212565b61018f565b610212565b90565b90565b9061028961028461029092610255565b610271565b825461023e565b9055565b9061029e916104ee565b6102b06102a9610231565b6005610274565b565b5190565b634e487b7160e01b600052602260045260246000fd5b90600160028304921680156102ec575b60208310146102e757565b6102b6565b91607f16916102dc565b600052602060002090565b601f602091010490565b1b90565b9190600861032b9102916103256000198461030b565b9261030b565b9181191691161790565b919061034b61034661035393610255565b610271565b90835461030f565b9055565b600090565b61036e91610368610357565b91610335565b565b5b81811061037c575050565b8061038a600060019361035c565b01610371565b9190601f81116103a0575b505050565b6103ac6103d1936102f6565b9060206103b884610301565b830193106103d9575b6103ca90610301565b0190610370565b38808061039b565b91506103ca819290506103c1565b1c90565b906103fc90600019906008026103e7565b191690565b8161040b916103eb565b906002021790565b9061041d816102b2565b9060018060401b0382116104dd5761043f8261043985546102cc565b85610390565b602090601f83116001146104745791809161046393600092610468575b5050610401565b90555b565b9091500151388061045c565b601f19831691610483856102f6565b9260005b8181106104c5575091600293918560019694106104ab575b50505002019055610466565b6104bb910151601f8416906103eb565b905538808061049f565b91936020600181928787015181550195019201610487565b610041565b906104ec91610413565b565b906104fd6105049260036104e2565b60046104e2565b56fe60806040526004361015610013575b610aad565b61001e60003561017d565b8063022c0d9f1461017857806306fdde03146101735780630902f1ac1461016e578063095ea7b3146101695780630dfe16811461016457806318160ddd1461015f57806323b872dd1461015a578063313ce56714610155578063485cc955146101505780635909c0d51461014b5780635a3d5493146101465780636a6278421461014157806370a082311461013c5780637464fc3d1461013757806389afcb441461013257806395d89b411461012d578063a9059cbb14610128578063ba9a7a5614610123578063c45a01551461011e578063d21220a714610119578063dd62ed3e146101145763fff6cae90361000e57610a7a565b610a44565b610a0f565b6109ca565b610985565b610914565b6108df565b6108a9565b610850565b61080b565b6107d6565b610782565b61073d565b6106d0565b61066d565b61060e565b61059e565b610546565b6104a8565b61041a565b61037c565b6102af565b60e01c90565b60405190565b600080fd5b600080fd5b600080fd5b90565b6101a481610198565b036101ab57565b600080fd5b905035906101bd8261019b565b565b60018060a01b031690565b6101d3906101bf565b90565b6101df816101ca565b036101e657565b600080fd5b905035906101f8826101d6565b565b600080fd5b600080fd5b600080fd5b909182601f830112156102435781359167ffffffffffffffff831161023e57602001926001830284011161023957565b610204565b6101ff565b6101fa565b906080828203126102a45761026081600084016101b0565b9261026e82602085016101b0565b9261027c83604083016101eb565b92606082013567ffffffffffffffff811161029f5761029b9201610209565b9091565b610193565b61018e565b60000190565b346102e1576102cb6102c2366004610248565b9392909261123f565b6102d3610183565b806102dd816102a9565b0390f35b610189565b60009103126102f157565b61018e565b5190565b60209181520190565b60005b838110610317575050906000910152565b806020918301518185015201610306565b601f801991011690565b61035161035a60209361035f93610348816102f6565b938480936102fa565b95869101610303565b610328565b0190565b6103799160208201916000818403910152610332565b90565b346103ac5761038c3660046102e6565b6103a8610397611371565b61039f610183565b91829182610363565b0390f35b610189565b6dffffffffffffffffffffffffffff1690565b6103cd906103b1565b9052565b63ffffffff1690565b6103e3906103d1565b9052565b6040906104116104189496959396610407606084019860008501906103c4565b60208301906103c4565b01906103da565b565b3461044d5761042a3660046102e6565b610449610435611416565b610440939193610183565b938493846103e7565b0390f35b610189565b919060408382031261047b578061046f61047892600086016101eb565b936020016101b0565b90565b61018e565b151590565b61048e90610480565b9052565b91906104a690600060208501940190610485565b565b346104d9576104d56104c46104be366004610452565b90611459565b6104cc610183565b91829182610492565b0390f35b610189565b1c90565b60018060a01b031690565b6104fd90600861050293026104de565b6104e2565b90565b9061051091546104ed565b90565b6105206007600090610505565b90565b61052c906101ca565b9052565b919061054490600060208501940190610523565b565b34610576576105563660046102e6565b610572610561610513565b610569610183565b91829182610530565b0390f35b610189565b61058490610198565b9052565b919061059c9060006020850194019061057b565b565b346105ce576105ae3660046102e6565b6105ca6105b961149c565b6105c1610183565b91829182610588565b0390f35b610189565b9091606082840312610609576106066105ef84600085016101eb565b936105fd81602086016101eb565b936040016101b0565b90565b61018e565b3461063f5761063b61062a6106243660046105d3565b916114b2565b610632610183565b91829182610492565b0390f35b610189565b60ff1690565b61065390610644565b9052565b919061066b9060006020850194019061064a565b565b3461069d5761067d3660046102e6565b610699610688611505565b610690610183565b91829182610657565b0390f35b610189565b91906040838203126106cb57806106bf6106c892600086016101eb565b936020016101eb565b90565b61018e565b346106ff576106e96106e33660046106a2565b9061155f565b6106f1610183565b806106fb816102a9565b0390f35b610189565b90565b61071790600861071c93026104de565b610704565b90565b9061072a9154610707565b90565b61073a600a60009061071f565b90565b3461076d5761074d3660046102e6565b61076961075861072d565b610760610183565b91829182610588565b0390f35b610189565b61077f600b60009061071f565b90565b346107b2576107923660046102e6565b6107ae61079d610772565b6107a5610183565b91829182610588565b0390f35b610189565b906020828203126107d1576107ce916000016101eb565b90565b61018e565b34610806576108026107f16107ec3660046107b7565b6119bf565b6107f9610183565b91829182610588565b0390f35b610189565b3461083b576108376108266108213660046107b7565b6119eb565b61082e610183565b91829182610588565b0390f35b610189565b61084d600c60009061071f565b90565b34610880576108603660046102e6565b61087c61086b610840565b610873610183565b91829182610588565b0390f35b610189565b9160206108a79294936108a06040820196600083019061057b565b019061057b565b565b346108da576108c16108bc3660046107b7565b611e4c565b906108d66108cd610183565b92839283610885565b0390f35b610189565b3461090f576108ef3660046102e6565b61090b6108fa611e6a565b610902610183565b91829182610363565b0390f35b610189565b346109455761094161093061092a366004610452565b90611e80565b610938610183565b91829182610492565b0390f35b610189565b90565b90565b61096461095f6109699261094a565b61094d565b610198565b90565b6109776103e8610950565b90565b61098261096c565b90565b346109b5576109953660046102e6565b6109b16109a061097a565b6109a8610183565b91829182610588565b0390f35b610189565b6109c76006600090610505565b90565b346109fa576109da3660046102e6565b6109f66109e56109ba565b6109ed610183565b91829182610530565b0390f35b610189565b610a0c6008600090610505565b90565b34610a3f57610a1f3660046102e6565b610a3b610a2a6109ff565b610a32610183565b91829182610530565b0390f35b610189565b34610a7557610a71610a60610a5a3660046106a2565b90611eba565b610a68610183565b91829182610588565b0390f35b610189565b34610aa857610a8a3660046102e6565b610a9261204c565b610a9a610183565b80610aa4816102a9565b0390f35b610189565b600080fd5b90610ac794939291610ac2612082565b610d11565b610acf612107565b565b90565b610ae8610ae3610aed92610ad1565b61094d565b610198565b90565b610b04610aff610b09926103b1565b61094d565b610198565b90565b600090565b60001c90565b610b23610b2891610b11565b6104e2565b90565b610b359054610b17565b90565b610b4c610b47610b51926101bf565b61094d565b6101bf565b90565b610b5d90610b38565b90565b610b6990610b54565b90565b5090565b610b7990610b38565b90565b610b8590610b70565b90565b610b9190610b70565b90565b634e487b7160e01b600052604160045260246000fd5b90610bb490610328565b810190811067ffffffffffffffff821117610bce57604052565b610b94565b60e01b90565b90505190610be68261019b565b565b90602082820312610c0257610bff91600001610bd9565b90565b61018e565b610c0f610183565b3d6000823e3d90fd5b634e487b7160e01b600052601160045260246000fd5b610c3d610c4391939293610198565b92610198565b8203918211610c4e57565b610c18565b610c62610c6891939293610198565b92610198565b91610c74838202610198565b928184041490151715610c8357565b610c18565b90565b610c9f610c9a610ca492610c88565b61094d565b610198565b90565b90565b610cbe610cb9610cc392610ca7565b61094d565b610198565b90565b610ccf90610b70565b90565b610d08610d0f94610cfe606094989795610cf4608086019a600087019061057b565b602085019061057b565b604083019061057b565b019061057b565b565b9093919281610d29610d236000610ad4565b91610198565b1480611224575b61120757610d3c611416565b509190919383610d54610d4e85610af0565b91610198565b101580156111ec575b6111cf57610d69610b0c565b50610d72610b0c565b50610d7d6007610b2b565b610d876008610b2b565b9287610d9b610d95846101ca565b916101ca565b1480156111b5575b61119857610e13602092610df5610e4a95610e18948a610dcc610dc66000610ad4565b91610198565b1161117e575b8d8d81610de8610de26000610ad4565b91610198565b11611162575b5050610b6c565b610e08610e026000610ad4565b91610198565b1161115d575b610b60565b610b7c565b6370a0823190610e3f610e2a30610b88565b92610e33610183565b95869485938493610bd3565b835260048301610530565b03915afa90811561115857610e76610e71610ea89360209360009161112b575b5094610b60565b610b7c565b6370a0823190610e9d610e8830610b88565b92610e91610183565b95869485938493610bd3565b835260048301610530565b03915afa908115611126576000916110f8575b5081610ee1610edb610ed686610ed18991610af0565b610c2e565b610198565b91610198565b116000146110e957610f0682610f0085610efb8891610af0565b610c2e565b90610c2e565b5b9481610f2d610f27610f2284610f1d8d91610af0565b610c2e565b610198565b91610198565b116000146110da57610f5282610f4c83610f478c91610af0565b610c2e565b90610c2e565b5b9386610f68610f626000610ad4565b91610198565b14806110bf575b6110a257610fe0610fa8610f8e86610f886103e8610950565b90610c53565b610fa28a610f9c6003610c8b565b90610c53565b90610c2e565b610fda610fc086610fba6103e8610950565b90610c53565b610fd489610fce6003610c8b565b90610c53565b90610c2e565b90610c53565b61102161101b611016611004610ff586610af0565b610ffe88610af0565b90610c53565b611010620f4240610caa565b90610c53565b610198565b91610198565b10611085576110339392909192612460565b611080339391929561106e6110687fd78ad95fa46c994b6551d0da85fc275fe613ce37657fb8d5e3d130840159d82296610cc6565b96610cc6565b96611077610183565b94859485610cd2565b0390a3565b6000632f62f0d960e21b81528061109e600482016102a9565b0390fd5b600063098fb56160e01b8152806110bb600482016102a9565b0390fd5b50846110d46110ce6000610ad4565b91610198565b14610f6f565b6110e46000610ad4565b610f53565b6110f36000610ad4565b610f07565b611119915060203d811161111f575b6111118183610baa565b810190610be8565b38610ebb565b503d611107565b610c07565b61114b9150843d8111611151575b6111438183610baa565b810190610be8565b38610e6a565b503d611139565b610c07565b610e0e565b6111779161116f8c610b60565b919091612167565b8d8d610dee565b6111938d61118b86610b60565b908d91612167565b610dd2565b6000630521f43160e31b8152806111b1600482016102a9565b0390fd5b50876111c96111c3866101ca565b916101ca565b14610da3565b600063bb55fd2760e01b8152806111e8600482016102a9565b0390fd5b50866112006111fa87610af0565b91610198565b1015610d5d565b60006342301c2360e01b815280611220600482016102a9565b0390fd5b50846112396112336000610ad4565b91610198565b14610d30565b9061124c94939291610ab2565b565b606090565b634e487b7160e01b600052602260045260246000fd5b9060016002830492168015611289575b602083101461128457565b611253565b91607f1691611279565b60209181520190565b600052602060002090565b90600092918054906112c26112bb83611269565b8094611293565b9160018116908160001461131b57506001146112de575b505050565b6112eb919293945061129c565b916000925b81841061130357505001903880806112d9565b600181602092959395548486015201910192906112f0565b92949550505060ff19168252151560200201903880806112d9565b90611340916112a7565b90565b9061136361135c92611353610183565b93848092611336565b0383610baa565b565b61136e90611343565b90565b61137961124e565b506113846003611365565b90565b600090565b600090565b6dffffffffffffffffffffffffffff1690565b6113b06113b591610b11565b611391565b90565b6113c290546113a4565b90565b60701c90565b6113d76113dc916113c5565b611391565b90565b6113e990546113cb565b90565b63ffffffff1690565b6114016114069161017d565b6113ec565b90565b61141390546113f5565b90565b61141e611387565b50611427611387565b5061143061138c565b5061143b60096113b8565b9061144660096113df565b906114516009611409565b90565b600090565b61147691611465611454565b5061146e61269c565b9190916126a9565b600190565b61148761148c91610b11565b610704565b90565b611499905461147b565b90565b6114a4610b0c565b506114af600261148f565b90565b916114dc926114bf611454565b506114d46114cb61269c565b829084916126fa565b919091612789565b600190565b600090565b90565b6114fd6114f8611502926114e6565b61094d565b610644565b90565b61150d6114e1565b5061151860126114e9565b90565b60001b90565b9061153260018060a01b039161151b565b9181191691161790565b90565b9061155461154f61155b92610cc6565b61153c565b8254611521565b9055565b903361157c6115766115716006610b2b565b6101ca565b916101ca565b036115985761158f61159692600761153f565b600861153f565b565b60006282b42960e81b8152806115b0600482016102a9565b0390fd5b906115c6916115c1612082565b611687565b906115cf612107565b565b634e487b7160e01b600052601260045260246000fd5b6115f36115f991610198565b91610198565b908115611604570490565b6115d1565b61161d61161861162292610ad1565b61094d565b6101bf565b90565b61162e90611609565b90565b9061163e6000199161151b565b9181191691161790565b61165c61165761166192610198565b61094d565b610198565b90565b90565b9061167c61167761168392611648565b611664565b8254611631565b9055565b91909150816116a66116a061169b30610b88565b6101ca565b916101ca565b146119a2576116b3611416565b509290929061170960206116d76116d26116cd6007610b2b565b610b60565b610b7c565b6370a08231906116fe6116e930610b88565b926116f2610183565b95869485938493610bd3565b835260048301610530565b03915afa90811561199d5760009161196f575b509361176f602061173d6117386117336008610b2b565b610b60565b610b7c565b6370a082319061176461174f30610b88565b92611758610183565b95869485938493610bd3565b835260048301610530565b03915afa90811561196a5760009161193c575b50916117978661179184610af0565b90610c2e565b926117ab816117a587610af0565b90610c2e565b946117b784829061289d565b936117c061149c565b806117d46117ce6000610ad4565b91610198565b146000146118f357506118016117f36117ee888a90610c53565b612ab3565b6117fb61096c565b90610c2e565b9861181d61180f6000611625565b61181761096c565b90612b82565b5b8961183261182c6000610ad4565b91610198565b146118d65761184561184e958b90612b82565b92909192612460565b61189a575b3390916118807f4c209b5fc8ad50758f13e2e1088ba56a560dff690a1c6fef26394f4c03821c4f92610cc6565b9261189561188c610183565b92839283610885565b0390a2565b6118d16118ca6118b26118ad60096113b8565b610af0565b6118c46118bf60096113df565b610af0565b90610c53565b600c611667565b611853565b600063bb55fd2760e01b8152806118ef600482016102a9565b0390fd5b6119369061193061192161191a61190b8b8590610c53565b61191487610af0565b906115e7565b928b610c53565b61192a86610af0565b906115e7565b90612a82565b9861181e565b61195d915060203d8111611963575b6119558183610baa565b810190610be8565b38611782565b503d61194b565b610c07565b611990915060203d8111611996575b6119888183610baa565b810190610be8565b3861171c565b503d61197e565b610c07565b6000630521f43160e31b8152806119bb600482016102a9565b0390fd5b6119d0906119cb610b0c565b6115b4565b90565b906119dd90610cc6565b600052602052604060002090565b611a02611a07916119fa610b0c565b5060006119d3565b61148f565b90565b90611a1d9291611a18612082565b611a29565b9091611a27612107565b565b929192505081611a49611a43611a3e30610b88565b6101ca565b916101ca565b14611e2f57611a56611416565b5091909192611a656007610b2b565b611a6f6008610b2b565b90611ab86020611a86611a8184610b60565b610b7c565b6370a0823190611aad611a9830610b88565b92611aa1610183565b95869485938493610bd3565b835260048301610530565b03915afa908115611e2a57600091611dfc575b5091611b156020611ae3611ade84610b60565b610b7c565b6370a0823190611b0a611af530610b88565b92611afe610183565b95869485938493610bd3565b835260048301610530565b03915afa908115611df757600091611dc9575b5096611b3b611b3630610b88565b6119eb565b96611b76611b4a82849061289d565b95611b71611b6a611b63611b5c61149c565b938d610c53565b83906115e7565b9b8b610c53565b6115e7565b9789611b8b611b856000610ad4565b91610198565b148015611dae575b611d9157611bea611be5611c1c96611bb5602094611bb030610b88565b612be4565b611bcb8d611bc283610b60565b908c9091612167565b611be0611bd788610b60565b8d8c9091612167565b610b60565b610b7c565b6370a0823190611c11611bfc30610b88565b92611c05610183565b98899485938493610bd3565b835260048301610530565b03915afa938415611d8c57611c48611c43611c7a96602093600091611d5f575b5095610b60565b610b7c565b6370a0823190611c6f611c5a30610b88565b92611c63610183565b98899485938493610bd3565b835260048301610530565b03915afa8015611d5a57611c9994600091611d2c575b50909192612460565b611cf0575b3390849184611cd6611cd07fdccd412f0b1252819cb1fd330b93224ca42612892bb3f4f789976e6d8193649693610cc6565b93610cc6565b93611ceb611ce2610183565b92839283610885565b0390a3565b611d27611d20611d08611d0360096113b8565b610af0565b611d1a611d1560096113df565b610af0565b90610c53565b600c611667565b611c9e565b611d4d915060203d8111611d53575b611d458183610baa565b810190610be8565b38611c90565b503d611d3b565b610c07565b611d7f9150843d8111611d85575b611d778183610baa565b810190610be8565b38611c3c565b503d611d6d565b610c07565b600063749383ad60e01b815280611daa600482016102a9565b0390fd5b5088611dc3611dbd6000610ad4565b91610198565b14611b93565b611dea915060203d8111611df0575b611de28183610baa565b810190610be8565b38611b28565b503d611dd8565b610c07565b611e1d915060203d8111611e23575b611e158183610baa565b810190610be8565b38611acb565b503d611e0b565b610c07565b6000630521f43160e31b815280611e48600482016102a9565b0390fd5b611e6690611e58610b0c565b611e60610b0c565b90611a0a565b9091565b611e7261124e565b50611e7d6004611365565b90565b611e9d91611e8c611454565b50611e9561269c565b919091612789565b600190565b90611eac90610cc6565b600052602052604060002090565b611edf91611ed5611eda92611ecd610b0c565b506001611ea2565b6119d3565b61148f565b90565b611eea612082565b611ef2611efc565b611efa612107565b565b611f4d6020611f1b611f16611f116007610b2b565b610b60565b610b7c565b6370a0823190611f42611f2d30610b88565b92611f36610183565b95869485938493610bd3565b835260048301610530565b03915afa801561204757611fb291600091612019575b506020611f80611f7b611f766008610b2b565b610b60565b610b7c565b6370a0823190611fa7611f9230610b88565b92611f9b610183565b96879485938493610bd3565b835260048301610530565b03915afa801561201457611fe492600091611fe6575b50611fd360096113b8565b90611fde60096113df565b92612460565b565b612007915060203d811161200d575b611fff8183610baa565b810190610be8565b38611fc8565b503d611ff5565b610c07565b61203a915060203d8111612040575b6120328183610baa565b810190610be8565b38611f63565b503d612028565b610c07565b612054611ee2565b565b90565b61206d61206861207292612056565b61094d565b610198565b90565b61207f6002612059565b90565b61208c600561148f565b6120a561209f61209a612075565b610198565b91610198565b146120be576120bc6120b5612075565b6005611667565b565b6000633ee5aeb560e01b8152806120d7600482016102a9565b0390fd5b90565b6120f26120ed6120f7926120db565b61094d565b610198565b90565b61210460016120de565b90565b6121196121126120fa565b6005611667565b565b63ffffffff60e01b1690565b61213b612136612140926103d1565b610bd3565b61211b565b90565b91602061216592949361215e60408201966000830190610523565b019061057b565b565b906121ae6121b39361219f6004949361218663a9059cbb919391612127565b9261218f610183565b9687946020860190815201612143565b60208201810382520383610baa565b612c47565b565b90565b6121cc6121c76121d1926121b5565b61094d565b610198565b90565b6121e06121e691610198565b91610198565b9081156121f1570690565b6115d1565b61220a61220561220f92610198565b61094d565b6103d1565b90565b61221e612224916103d1565b916103d1565b90039063ffffffff821161223457565b610c18565b61224d61224861225292610ad1565b61094d565b6103d1565b90565b61226961226461226e92610ad1565b61094d565b6103b1565b90565b60018060e01b031690565b61229061228b612295926103b1565b61094d565b612271565b90565b6122a46122aa91612271565b91612271565b9081156122b5570490565b6115d1565b6122ce6122c96122d392612271565b61094d565b610198565b90565b6122ea6122e56122ef926103d1565b61094d565b610198565b90565b61230161230791939293610198565b92610198565b820180921161231257565b610c18565b61232b61232661233092610198565b61094d565b6103b1565b90565b9061234c6dffffffffffffffffffffffffffff9161151b565b9181191691161790565b61236a61236561236f926103b1565b61094d565b6103b1565b90565b90565b9061238a61238561239192612356565b612372565b8254612333565b9055565b60701b90565b906123b76dffffffffffffffffffffffffffff60701b91612395565b9181191691161790565b906123d66123d16123dd92612356565b612372565b825461239b565b9055565b906123f363ffffffff60e01b91610bd3565b9181191691161790565b61241161240c612416926103d1565b61094d565b6103d1565b90565b90565b9061243161242c612438926123fd565b612419565b82546123e1565b9055565b91602061245e929493612457604082019660008301906103c4565b01906103c4565b565b90928161248361247d6dffffffffffffffffffffffffffff610af0565b91610198565b11801561266f575b6126525761251f9361250c61250561251894612511946124c16124bc426124b66401000000006121b8565b906121d4565b6121f6565b976124d6896124d06009611409565b90612212565b91826124eb6124e56000612239565b916103d1565b1180612636575b8061261a575b61256e575b505050612317565b6009612375565b612317565b60096123c1565b600961241c565b61252960096113b8565b61253360096113df565b7f1c411e9a96e071241c2f21f7726b17ae89e3cab4c78be50e062b03a9fffbbad191612569612560610183565b9283928361243c565b0390a1565b612612926125f66125f06125eb846125e56125df61260b986125da6125d36125c46125b56125b06125a16125fc9e612d5b565b6125aa8761227c565b90612298565b6122ba565b6125be8c6122d6565b90610c53565b6125ce600a61148f565b6122f2565b600a611667565b612d5b565b9161227c565b90612298565b6122ba565b916122d6565b90610c53565b612606600b61148f565b6122f2565b600b611667565b3880806124fd565b508061262f6126296000612255565b916103b1565b14156124f8565b508161264b6126456000612255565b916103b1565b14156124f2565b6000631a93c68960e11b81528061266b600482016102a9565b0390fd5b508361269161268b6dffffffffffffffffffffffffffff610af0565b91610198565b1161248b565b600090565b6126a4612697565b503390565b916126b79291600192612d86565b565b6040906126e36126ea94969593966126d960608401986000850190610523565b602083019061057b565b019061057b565b565b906126f79103610198565b90565b929192612708818390611eba565b908161271e612718600019610198565b91610198565b1061272b575b5050509050565b8161273e61273887610198565b91610198565b106127655761275c93946127539193926126ec565b90600092612d86565b80388080612724565b50612785849291926000938493637dc7a0d960e11b8552600485016126b9565b0390fd5b91826127a66127a061279b6000611625565b6101ca565b916101ca565b1461280357816127c76127c16127bc6000611625565b6101ca565b916101ca565b146127da576127d892919091612ea9565b565b6127ff6127e76000611625565b600091829163ec442f0560e01b835260048301610530565b0390fd5b6128286128106000611625565b6000918291634b637e8f60e11b835260048301610530565b0390fd5b61283590610b38565b90565b6128419061282c565b90565b61284d90610b70565b90565b9050519061285d826101d6565b565b906020828203126128795761287691600001612850565b90565b61018e565b90565b61289561289061289a9261287e565b61094d565b610198565b90565b91906128a7611454565b506128dd60206128c76128c26128bd6006610b2b565b612838565b612844565b63017e7e58906128d5610183565b938492610bd3565b825281806128ed600482016102a9565b03915afa908115612a7d57600091612a4f575b50908161291e6129186129136000611625565b6101ca565b916101ca565b14159361292b600c61148f565b9185600014612a1457826129486129426000610ad4565b91610198565b03612955575b505050505b565b61297761297c9161297161296b61298295610af0565b91610af0565b90610c53565b612ab3565b91612ab3565b908061299661299084610198565b91610198565b116129a2575b8061294e565b6129de6129e4926129d96129c86129b761149c565b6129c2868590610c2e565b90610c53565b936129d36005612881565b90610c53565b6122f2565b906115e7565b806129f86129f26000610ad4565b91610198565b11612a04575b8061299c565b612a0d91612b82565b38806129fe565b50509050612a2b612a256000610ad4565b91610198565b03612a36575b612953565b612a4a612a436000610ad4565b600c611667565b612a31565b612a70915060203d8111612a76575b612a688183610baa565b81019061285f565b38612900565b503d612a5e565b610c07565b90612a8b610b0c565b5081612a9f612a9983610198565b91610198565b10600014612aac57505b90565b9050612aa9565b612abb610b0c565b81612acf612ac96003610c8b565b91610198565b11600014612b50575080612b00612af083612aea6002612059565b906115e7565b612afa60016120de565b906122f2565b905b81612b15612b0f83610198565b91610198565b1015612b495750612b43612b3382612b2e8582906115e7565b6122f2565b612b3d6002612059565b906115e7565b90612b02565b929150505b565b9190612b65612b5f6000610ad4565b91610198565b03612b70575b612b4e565b9050612b7c60016120de565b90612b6b565b80612b9e612b98612b936000611625565b6101ca565b916101ca565b14612bbb57612bb991612bb16000611625565b919091612ea9565b565b612be0612bc86000611625565b600091829163ec442f0560e01b835260048301610530565b0390fd5b9081612c01612bfb612bf66000611625565b6101ca565b916101ca565b14612c1e57612c1c9190612c156000611625565b9091612ea9565b565b612c43612c2b6000611625565b6000918291634b637e8f60e11b835260048301610530565b0390fd5b906000602091612c55610b0c565b50612c5e610b0c565b50828151910182855af115612cf6573d60005190612c85612c7f6000610ad4565b91610198565b14600014612cdc5750612c9781610b7c565b3b612cab612ca56000610ad4565b91610198565b145b612cb45750565b612cc0612cd891610b7c565b6000918291635274afe760e01b835260048301610530565b0390fd5b612cef612ce960016120de565b91610198565b1415612cad565b6040513d6000823e3d90fd5b600090565b90565b612d1e612d19612d2392612d07565b61094d565b612271565b90565b612d35612d3b91939293612271565b92612271565b91612d47838202612271565b928184041490151715612d5657565b610c18565b612d70612d8391612d6a612d02565b5061227c565b612d7d600160701b612d0a565b90612d26565b90565b909281612da4612d9e612d996000611625565b6101ca565b916101ca565b14612e725783612dc5612dbf612dba6000611625565b6101ca565b916101ca565b14612e4957612de983612de4612ddd60018690611ea2565b87906119d3565b611667565b612df3575b505050565b919091612e3e612e2c612e267f8c5be1e5ebec7d5bd14f71427d1e84f3dd0314c0f7b2291e5b200ac8c7c3b92593610cc6565b93610cc6565b93612e35610183565b91829182610588565b0390a3388080612dee565b612e6e612e566000611625565b6000918291634a1406b160e11b835260048301610530565b0390fd5b612e97612e7f6000611625565b600091829163e602df0560e01b835260048301610530565b0390fd5b90612ea69101610198565b90565b91909180612ec8612ec2612ebd6000611625565b6101ca565b916101ca565b14600014612fad57612eed612ee683612ee1600261148f565b6122f2565b6002611667565b5b82612f0a612f04612eff6000611625565b6101ca565b916101ca565b14600014612f8057612f2f612f2883612f23600261148f565b6126ec565b6002611667565b5b919091612f7b612f69612f637fddf252ad1be2c89b69c2b068fc378daa952ba7f163c4a11628f55a4df523b3ef93610cc6565b93610cc6565b93612f72610183565b91829182610588565b0390a3565b612fa882612fa2612f93600087906119d3565b91612f9d8361148f565b612e9b565b90611667565b612f30565b612fc1612fbc600083906119d3565b61148f565b80612fd4612fce85610198565b91610198565b10612ffd57612fe7612ff89184906126ec565b612ff3600084906119d3565b611667565b612eee565b9061301c909192600093849363391434e360e21b8552600485016126b9565b0390fdfea2646970667358221220646cee990f1e19ff1172eb103aa2f85cdded62859d16fe970fd983953ff88e6164736f6c634300081e0033",
          "opcodes": "PUSH1 0x80 PUSH1 0x40 MSTORE CALLVALUE PUSH2 0x27 JUMPI PUSH2 0x11 PUSH2 0x1E9 JUMP JUMPDEST PUSH2 0x19 PUSH2 0x2C JUMP JUMPDEST PUSH2 0x3056 PUSH2 0x507 DUP3 CODECOPY PUSH2 0x3056 SWAP1 RETURN JUMPDEST PUSH2 0x32 JUMP JUMPDEST PUSH1 0x40 MLOAD SWAP1 JUMP JUMPDEST PUSH1 0x0 DUP1 REVERT JUMPDEST PUSH1 0x1F DUP1 NOT SWAP2 ADD AND SWAP1 JUMP JUMPDEST PUSH4 0x4E487B71 PUSH1 0xE0 SHL PUSH1 0x0 MSTORE PUSH1 0x41 PUSH1 0x4 MSTORE PUSH1 0x24 PUSH1 0x0 REVERT JUMPDEST SWAP1 PUSH2 0x61 SWAP1 PUSH2 0x37 JUMP JUMPDEST DUP2 ADD SWAP1 DUP2 LT PUSH1 0x1 DUP1 PUSH1 0x40 SHL SUB DUP3 GT OR PUSH2 0x79 JUMPI PUSH1 0x40 MSTORE JUMP JUMPDEST PUSH2 0x41 JUMP JUMPDEST SWAP1 PUSH2 0x91 PUSH2 0x8A PUSH2 0x2C JUMP JUMPDEST SWAP3 DUP4 PUSH2 0x57 JUMP JUMPDEST JUMP JUMPDEST PUSH1 0x1 DUP1 PUSH1 0x40 SHL SUB DUP2 GT PUSH2 0xAF JUMPI PUSH2 0xAB PUSH1 0x20 SWAP2 PUSH2 0x37 JUMP JUMPDEST ADD SWAP1 JUMP JUMPDEST PUSH2 0x41 JUMP JUMPDEST SWAP1 PUSH2 0xC6 PUSH2 0xC1 DUP4 PUSH2 0x93 JUMP JUMPDEST PUSH2 0x7E JUMP JUMPDEST SWAP2 DUP3 MSTORE JUMP JUMPDEST PUSH1 0x0 PUSH32 0x444558204C5020546F6B656E0000000000000000000000000000000000000000 SWAP2 ADD MSTORE JUMP JUMPDEST PUSH2 0xFD PUSH1 0xC PUSH2 0xB4 JUMP JUMPDEST SWAP1 PUSH2 0x10A PUSH1 0x20 DUP4 ADD PUSH2 0xCB JUMP JUMPDEST JUMP JUMPDEST PUSH2 0x114 PUSH2 0xF3 JUMP JUMPDEST SWAP1 JUMP JUMPDEST PUSH1 0x0 PUSH32 0x4445582D4C500000000000000000000000000000000000000000000000000000 SWAP2 ADD MSTORE JUMP JUMPDEST PUSH2 0x149 PUSH1 0x6 PUSH2 0xB4 JUMP JUMPDEST SWAP1 PUSH2 0x156 PUSH1 0x20 DUP4 ADD PUSH2 0x117 JUMP JUMPDEST JUMP JUMPDEST PUSH2 0x160 PUSH2 0x13F JUMP JUMPDEST SWAP1 JUMP JUMPDEST PUSH1 0x0 SHL SWAP1 JUMP JUMPDEST SWAP1 PUSH2 0x17A PUSH1 0x1 DUP1 PUSH1 0xA0 SHL SUB SWAP2 PUSH2 0x163 JUMP JUMPDEST SWAP2 DUP2 NOT AND SWAP2 AND OR SWAP1 JUMP JUMPDEST PUSH1 0x1 DUP1 PUSH1 0xA0 SHL SUB AND SWAP1 JUMP JUMPDEST SWAP1 JUMP JUMPDEST PUSH2 0x1A6 PUSH2 0x1A1 PUSH2 0x1AB SWAP3 PUSH2 0x184 JUMP JUMPDEST PUSH2 0x18F JUMP JUMPDEST PUSH2 0x184 JUMP JUMPDEST SWAP1 JUMP JUMPDEST PUSH2 0x1B7 SWAP1 PUSH2 0x192 JUMP JUMPDEST SWAP1 JUMP JUMPDEST PUSH2 0x1C3 SWAP1 PUSH2 0x1AE JUMP JUMPDEST SWAP1 JUMP JUMPDEST SWAP1 JUMP JUMPDEST SWAP1 PUSH2 0x1DE PUSH2 0x1D9 PUSH2 0x1E5 SWAP3 PUSH2 0x1BA JUMP JUMPDEST PUSH2 0x1C6 JUMP JUMPDEST DUP3 SLOAD PUSH2 0x169 JUMP JUMPDEST SWAP1 SSTORE JUMP JUMPDEST PUSH2 0x202 PUSH2 0x1F4 PUSH2 0x10C JUMP JUMPDEST PUSH2 0x1FC PUSH2 0x158 JUMP JUMPDEST SWAP1 PUSH2 0x294 JUMP JUMPDEST PUSH2 0x20D CALLER PUSH1 0x6 PUSH2 0x1C9 JUMP JUMPDEST JUMP JUMPDEST SWAP1 JUMP JUMPDEST SWAP1 JUMP JUMPDEST PUSH2 0x229 PUSH2 0x224 PUSH2 0x22E SWAP3 PUSH2 0x20F JUMP JUMPDEST PUSH2 0x18F JUMP JUMPDEST PUSH2 0x212 JUMP JUMPDEST SWAP1 JUMP JUMPDEST PUSH2 0x23B PUSH1 0x1 PUSH2 0x215 JUMP JUMPDEST SWAP1 JUMP JUMPDEST SWAP1 PUSH2 0x24B PUSH1 0x0 NOT SWAP2 PUSH2 0x163 JUMP JUMPDEST SWAP2 DUP2 NOT AND SWAP2 AND OR SWAP1 JUMP JUMPDEST PUSH2 0x269 PUSH2 0x264 PUSH2 0x26E SWAP3 PUSH2 0x212 JUMP JUMPDEST PUSH2 0x18F JUMP JUMPDEST PUSH2 0x212 JUMP JUMPDEST SWAP1 JUMP JUMPDEST SWAP1 JUMP JUMPDEST SWAP1 PUSH2 0x289 PUSH2 0x284 PUSH2 0x290 SWAP3 PUSH2 0x255 JUMP JUMPDEST PUSH2 0x271 JUMP JUMPDEST DUP3 SLOAD PUSH2 0x23E JUMP JUMPDEST SWAP1 SSTORE JUMP JUMPDEST SWAP1 PUSH2 0x29E SWAP2 PUSH2 0x4EE JUMP JUMPDEST PUSH2 0x2B0 PUSH2 0x2A9 PUSH2 0x231 JUMP JUMPDEST PUSH1 0x5 PUSH2 0x274 JUMP JUMPDEST JUMP JUMPDEST MLOAD SWAP1 JUMP JUMPDEST PUSH4 0x4E487B71 PUSH1 0xE0 SHL PUSH1 0x0 MSTORE PUSH1 0x22 PUSH1 0x4 MSTORE PUSH1 0x24 PUSH1 0x0 REVERT JUMPDEST SWAP1 PUSH1 0x1 PUSH1 0x2 DUP4 DIV SWAP3 AND DUP1 ISZERO PUSH2 0x2EC JUMPI JUMPDEST PUSH1 0x20 DUP4 LT EQ PUSH2 0x2E7 JUMPI JUMP JUMPDEST PUSH2 0x2B6 JUMP JUMPDEST SWAP2 PUSH1 0x7F AND SWAP2 PUSH2 0x2DC JUMP JUMPDEST PUSH1 0x0 MSTORE PUSH1 0x20 PUSH1 0x0 KECCAK256 SWAP1 JUMP JUMPDEST PUSH1 0x1F PUSH1 0x20 SWAP2 ADD DIV SWAP1 JUMP JUMPDEST SHL SWAP1 JUMP JUMPDEST SWAP2 SWAP1 PUSH1 0x8 PUSH2 0x32B SWAP2 MUL SWAP2 PUSH2 0x325 PUSH1 0x0 NOT DUP5 PUSH2 0x30B JUMP JUMPDEST SWAP3 PUSH2 0x30B JUMP JUMPDEST SWAP2 DUP2 NOT AND SWAP2 AND OR SWAP1 JUMP JUMPDEST SWAP2 SWAP1 PUSH2 0x34B PUSH2 0x346 PUSH2 0x353 SWAP4 PUSH2 0x255 JUMP JUMPDEST PUSH2 0x271 JUMP JUMPDEST SWAP1 DUP4 SLOAD PUSH2 0x30F JUMP JUMPDEST SWAP1 SSTORE JUMP JUMPDEST PUSH1 0x0 SWAP1 JUMP JUMPDEST PUSH2 0x36E SWAP2 PUSH2 0x368 PUSH2 0x357 JUMP JUMPDEST SWAP2 PUSH2 0x335 JUMP JUMPDEST JUMP JUMPDEST JUMPDEST DUP2 DUP2 LT PUSH2 0x37C JUMPI POP POP JUMP JUMPDEST DUP1 PUSH2 0x38A PUSH1 0x0 PUSH1 0x1 SWAP4 PUSH2 0x35C JUMP JUMPDEST ADD PUSH2 0x371 JUMP JUMPDEST SWAP2 SWAP1 PUSH1 0x1F DUP2 GT PUSH2 0x3A0 JUMPI JUMPDEST POP POP POP JUMP JUMPDEST PUSH2 0x3AC PUSH2 0x3D1 SWAP4 PUSH2 0x2F6 JUMP JUMPDEST SWAP1 PUSH1 0x20 PUSH2 0x3B8 DUP5 PUSH2 0x301 JUMP JUMPDEST DUP4 ADD SWAP4 LT PUSH2 0x3D9 JUMPI JUMPDEST PUSH2 0x3CA SWAP1 PUSH2 0x301 JUMP JUMPDEST ADD SWAP1 PUSH2 0x370 JUMP JUMPDEST CODESIZE DUP1 DUP1 PUSH2 0x39B JUMP JUMPDEST SWAP2 POP PUSH2 0x3CA DUP2 SWAP3 SWAP1 POP PUSH2 0x3C1 JUMP JUMPDEST SHR SWAP1 JUMP JUMPDEST SWAP1 PUSH2 0x3FC SWAP1 PUSH1 0x0 NOT SWAP1 PUSH1 0x8 MUL PUSH2 0x3E7 JUMP JUMPDEST NOT AND SWAP1 JUMP JUMPDEST DUP2 PUSH2 0x40B SWAP2 PUSH2 0x3EB JUMP JUMPDEST SWAP1 PUSH1 0x2 MUL OR SWAP1 JUMP JUMPDEST SWAP1 PUSH2 0x41D DUP2 PUSH2 0x2B2 JUMP JUMPDEST SWAP1 PUSH1 0x1 DUP1 PUSH1 0x40 SHL SUB DUP3 GT PUSH2 0x4DD JUMPI PUSH2 0x43F DUP3 PUSH2 0x439 DUP6 SLOAD PUSH2 0x2CC JUMP JUMPDEST DUP6 PUSH2 0x390 JUMP JUMPDEST PUSH1 0x20 SWAP1 PUSH1 0x1F DUP4 GT PUSH1 0x1 EQ PUSH2 0x474 JUMPI SWAP2 DUP1 SWAP2 PUSH2 0x463 SWAP4 PUSH1 0x0 SWAP3 PUSH2 0x468 JUMPI JUMPDEST POP POP PUSH2 0x401 JUMP JUMPDEST SWAP1 SSTORE JUMPDEST JUMP JUMPDEST SWAP1 SWAP2 POP ADD MLOAD CODESIZE DUP1 PUSH2 0x45C JUMP JUMPDEST PUSH1 0x1F NOT DUP4 AND SWAP2 PUSH2 0x483 DUP6 PUSH2 0x2F6 JUMP JUMPDEST SWAP3 PUSH1 0x0 JUMPDEST DUP2 DUP2 LT PUSH2 0x4C5 JUMPI POP SWAP2 PUSH1 0x2 SWAP4 SWAP2 DUP6 PUSH1 0x1 SWAP7 SWAP5 LT PUSH2 0x4AB JUMPI JUMPDEST POP POP POP MUL ADD SWAP1 SSTORE PUSH2 0x466 JUMP JUMPDEST PUSH2 0x4BB SWAP2 ADD MLOAD PUSH1 0x1F DUP5 AND SWAP1 PUSH2 0x3EB JUMP JUMPDEST SWAP1 SSTORE CODESIZE DUP1 DUP1 PUSH2 0x49F JUMP JUMPDEST SWAP2 SWAP4 PUSH1 0x20 PUSH1 0x1 DUP2 SWAP3 DUP8 DUP8 ADD MLOAD DUP2 SSTORE ADD SWAP6 ADD SWAP3 ADD PUSH2 0x487 JUMP JUMPDEST PUSH2 0x41 JUMP JUMPDEST SWAP1 PUSH2 0x4EC SWAP2 PUSH2 0x413 JUMP JUMPDEST JUMP JUMPDEST SWAP1 PUSH2 0x4FD PUSH2 0x504 SWAP3 PUSH1 0x3 PUSH2 0x4E2 JUMP JUMPDEST PUSH1 0x4 PUSH2 0x4E2 JUMP JUMPDEST JUMP INVALID PUSH1 0x80 PUSH1 0x40 MSTORE PUSH1 0x4 CALLDATASIZE LT ISZERO PUSH2 0x13 JUMPI JUMPDEST PUSH2 0xAAD JUMP JUMPDEST PUSH2 0x1E PUSH1 0x0 CALLDATALOAD PUSH2 0x17D JUMP JUMPDEST DUP1 PUSH4 0x22C0D9F EQ PUSH2 0x178 JUMPI DUP1 PUSH4 0x6FDDE03 EQ PUSH2 0x173 JUMPI DUP1 PUSH4 0x902F1AC EQ PUSH2 0x16E JUMPI DUP1 PUSH4 0x95EA7B3 EQ PUSH2 0x169 JUMPI DUP1 PUSH4 0xDFE1681 EQ PUSH2 0x164 JUMPI DUP1 PUSH4 0x18160DDD EQ PUSH2 0x15F JUMPI DUP1 PUSH4 0x23B872DD EQ PUSH2 0x15A JUMPI DUP1 PUSH4 0x313CE567 EQ PUSH2 0x155 JUMPI DUP1 PUSH4 0x485CC955 EQ PUSH2 0x150 JUMPI DUP1 PUSH4 0x5909C0D5 EQ PUSH2 0x14B JUMPI DUP1 PUSH4 0x5A3D5493 EQ PUSH2 0x146 JUMPI DUP1 PUSH4 0x6A627842 EQ PUSH2 0x141 JUMPI DUP1 PUSH4 0x70A08231 EQ PUSH2 0x13C JUMPI DUP1 PUSH4 0x7464FC3D EQ PUSH2 0x137 JUMPI DUP1 PUSH4 0x89AFCB44 EQ PUSH2 0x132 JUMPI DUP1 PUSH4 0x95D89B41 EQ PUSH2 0x12D JUMPI DUP1 PUSH4 0xA9059CBB EQ PUSH2 0x128 JUMPI DUP1 PUSH4 0xBA9A7A56 EQ PUSH2 0x123 JUMPI DUP1 PUSH4 0xC45A0155 EQ PUSH2 0x11E JUMPI DUP1 PUSH4 0xD21220A7 EQ PUSH2 0x119 JUMPI DUP1 PUSH4 0xDD62ED3E EQ PUSH2 0x114 JUMPI PUSH4 0xFFF6CAE9 SUB PUSH2 0xE JUMPI PUSH2 0xA7A JUMP JUMPDEST PUSH2 0xA44 JUMP JUMPDEST PUSH2 0xA0F JUMP JUMPDEST PUSH2 0x9CA JUMP JUMPDEST PUSH2 0x985 JUMP JUMPDEST PUSH2 0x914 JUMP JUMPDEST PUSH2 0x8DF JUMP JUMPDEST PUSH2 0x8A9 JUMP JUMPDEST PUSH2 0x850 JUMP JUMPDEST PUSH2 0x80B JUMP JUMPDEST PUSH2 0x7D6 JUMP JUMPDEST PUSH2 0x782 JUMP JUMPDEST PUSH2 0x73D JUMP JUMPDEST PUSH2 0x6D0 JUMP JUMPDEST PUSH2 0x66D JUMP JUMPDEST PUSH2 0x60E JUMP JUMPDEST PUSH2 0x59E JUMP JUMPDEST PUSH2 0x546 JUMP JUMPDEST PUSH2 0x4A8 JUMP JUMPDEST PUSH2 0x41A JUMP JUMPDEST PUSH2 0x37C JUMP JUMPDEST PUSH2 0x2AF JUMP JUMPDEST PUSH1 0xE0 SHR SWAP1 JUMP JUMPDEST PUSH1 0x40 MLOAD SWAP1 JUMP JUMPDEST PUSH1 0x0 DUP1 REVERT JUMPDEST PUSH1 0x0 DUP1 REVERT JUMPDEST PUSH1 0x0 DUP1 REVERT JUMPDEST SWAP1 JUMP JUMPDEST PUSH2 0x1A4 DUP2 PUSH2 0x198 JUMP JUMPDEST SUB PUSH2 0x1AB JUMPI JUMP JUMPDEST PUSH1 0x0 DUP1 REVERT JUMPDEST SWAP1 POP CALLDATALOAD SWAP1 PUSH2 0x1BD DUP3 PUSH2 0x19B JUMP JUMPDEST JUMP JUMPDEST PUSH1 0x1 DUP1 PUSH1 0xA0 SHL SUB AND SWAP1 JUMP JUMPDEST PUSH2 0x1D3 SWAP1 PUSH2 0x1BF JUMP JUMPDEST SWAP1 JUMP JUMPDEST PUSH2 0x1DF DUP2 PUSH2 0x1CA JUMP JUMPDEST SUB PUSH2 0x1E6 JUMPI JUMP JUMPDEST PUSH1 0x0 DUP1 REVERT JUMPDEST SWAP1 POP CALLDATALOAD SWAP1 PUSH2 0x1F8 DUP3 PUSH2 0x1D6 JUMP JUMPDEST JUMP JUMPDEST PUSH1 0x0 DUP1 REVERT JUMPDEST PUSH1 0x0 DUP1 REVERT JUMPDEST PUSH1 0x0 DUP1 REVERT JUMPDEST SWAP1 SWAP2 DUP3 PUSH1 0x1F DUP4 ADD SLT ISZERO PUSH2 0x243 JUMPI DUP2 CALLDATALOAD SWAP2 PUSH8 0xFFFFFFFFFFFFFFFF DUP4 GT PUSH2 0x23E JUMPI PUSH1 0x20 ADD SWAP3 PUSH1 0x1 DUP4 MUL DUP5 ADD GT PUSH2 0x239 JUMPI JUMP JUMPDEST PUSH2 0x204 JUMP JUMPDEST PUSH2 0x1FF JUMP JUMPDEST PUSH2 0x1FA JUMP JUMPDEST SWAP1 PUSH1 0x80 DUP3 DUP3 SUB SLT PUSH2 0x2A4 JUMPI PUSH2 0x260 DUP2 PUSH1 0x0 DUP5 ADD PUSH2 0x1B0 JUMP JUMPDEST SWAP3 PUSH2 0x26E DUP3 PUSH1 0x20 DUP6 ADD PUSH2 0x1B0 JUMP JUMPDEST SWAP3 PUSH2 0x27C DUP4 PUSH1 0x40 DUP4 ADD PUSH2 0x1EB JUMP JUMPDEST SWAP3 PUSH1 0x60 DUP3 ADD CALLDATALOAD PUSH8 0xFFFFFFFFFFFFFFFF DUP2 GT PUSH2 0x29F JUMPI PUSH2 0x29B SWAP3 ADD PUSH2 0x209 JUMP JUMPDEST SWAP1 SWAP2 JUMP JUMPDEST PUSH2 0x193 JUMP JUMPDEST PUSH2 0x18E JUMP JUMPDEST PUSH1 0x0 ADD SWAP1 JUMP JUMPDEST CALLVALUE PUSH2 0x2E1 JUMPI PUSH2 0x2CB PUSH2 0x2C2 CALLDATASIZE PUSH1 0x4 PUSH2 0x248 JUMP JUMPDEST SWAP4 SWAP3 SWAP1 SWAP3 PUSH2 0x123F JUMP JUMPDEST PUSH2 0x2D3 PUSH2 0x183 JUMP JUMPDEST DUP1 PUSH2 0x2DD DUP2 PUSH2 0x2A9 JUMP JUMPDEST SUB SWAP1 RETURN JUMPDEST PUSH2 0x189 JUMP JUMPDEST PUSH1 0x0 SWAP2 SUB SLT PUSH2 0x2F1 JUMPI JUMP JUMPDEST PUSH2 0x18E JUMP JUMPDEST MLOAD SWAP1 JUMP JUMPDEST PUSH1 0x20 SWAP2 DUP2 MSTORE ADD SWAP1 JUMP JUMPDEST PUSH1 0x0 JUMPDEST DUP4 DUP2 LT PUSH2 0x317 JUMPI POP POP SWAP1 PUSH1 0x0 SWAP2 ADD MSTORE JUMP JUMPDEST DUP1 PUSH1 0x20 SWAP2 DUP4 ADD MLOAD DUP2 DUP6 ADD MSTORE ADD PUSH2 0x306 JUMP JUMPDEST PUSH1 0x1F DUP1 NOT SWAP2 ADD AND SWAP1 JUMP JUMPDEST PUSH2 0x351 PUSH2 0x35A PUSH1 0x20 SWAP4 PUSH2 0x35F SWAP4 PUSH2 0x348 DUP2 PUSH2 0x2F6 JUMP JUMPDEST SWAP4 DUP5 DUP1 SWAP4 PUSH2 0x2FA JUMP JUMPDEST SWAP6 DUP7 SWAP2 ADD PUSH2 0x303 JUMP JUMPDEST PUSH2 0x328 JUMP JUMPDEST ADD SWAP1 JUMP JUMPDEST PUSH2 0x379 SWAP2 PUSH1 0x20 DUP3 ADD SWAP2 PUSH1 0x0 DUP2 DUP5 SUB SWAP2 ADD MSTORE PUSH2 0x332 JUMP JUMPDEST SWAP1 JUMP JUMPDEST CALLVALUE PUSH2 0x3AC JUMPI PUSH2 0x38C CALLDATASIZE PUSH1 0x4 PUSH2 0x2E6 JUMP JUMPDEST PUSH2 0x3A8 PUSH2 0x397 PUSH2 0x1371 JUMP JUMPDEST PUSH2 0x39F PUSH2 0x183 JUMP JUMPDEST SWAP2 DUP3 SWAP2 DUP3 PUSH2 0x363 JUMP JUMPDEST SUB SWAP1 RETURN JUMPDEST PUSH2 0x189 JUMP JUMPDEST PUSH14 0xFFFFFFFFFFFFFFFFFFFFFFFFFFFF AND SWAP1 JUMP JUMPDEST PUSH2 0x3CD SWAP1 PUSH2 0x3B1 JUMP JUMPDEST SWAP1 MSTORE JUMP JUMPDEST PUSH4 0xFFFFFFFF AND SWAP1 JUMP JUMPDEST PUSH2 0x3E3 SWAP1 PUSH2 0x3D1 JUMP JUMPDEST SWAP1 MSTORE JUMP JUMPDEST PUSH1 0x40 SWAP1 PUSH2 0x411 PUSH2 0x418 SWAP5 SWAP7 SWAP6 SWAP4 SWAP7 PUSH2 0x407 PUSH1 0x60 DUP5 ADD SWAP9 PUSH1 0x0 DUP6 ADD SWAP1 PUSH2 0x3C4 JUMP JUMPDEST PUSH1 0x20 DUP4 ADD SWAP1 PUSH2 0x3C4 JUMP JUMPDEST ADD SWAP1 PUSH2 0x3DA JUMP JUMPDEST JUMP JUMPDEST CALLVALUE PUSH2 0x44D JUMPI PUSH2 0x42A CALLDATASIZE PUSH1 0x4 PUSH2 0x2E6 JUMP JUMPDEST PUSH2 0x449 PUSH2 0x435 PUSH2 0x1416 JUMP JUMPDEST PUSH2 0x440 SWAP4 SWAP2 SWAP4 PUSH2 0x183 JUMP JUMPDEST SWAP4 DUP5 SWAP4 DUP5 PUSH2 0x3E7 JUMP JUMPDEST SUB SWAP1 RETURN JUMPDEST PUSH2 0x189 JUMP JUMPDEST SWAP2 SWAP1 PUSH1 0x40 DUP4 DUP3 SUB SLT PUSH2 0x47B JUMPI DUP1 PUSH2 0x46F PUSH2 0x478 SWAP3 PUSH1 0x0 DUP7 ADD PUSH2 0x1EB JUMP JUMPDEST SWAP4 PUSH1 0x20 ADD PUSH2 0x1B0 JUMP JUMPDEST SWAP1 JUMP JUMPDEST PUSH2 0x18E JUMP JUMPDEST ISZERO ISZERO SWAP1 JUMP JUMPDEST PUSH2 0x48E SWAP1 PUSH2 0x480 JUMP JUMPDEST SWAP1 MSTORE JUMP JUMPDEST SWAP2 SWAP1 PUSH2 0x4A6 SWAP1 PUSH1 0x0 PUSH1 0x20 DUP6 ADD SWAP5 ADD SWAP1 PUSH2 0x485 JUMP JUMPDEST JUMP JUMPDEST CALLVALUE PUSH2 0x4D9 JUMPI PUSH2 0x4D5 PUSH2 0x4C4 PUSH2 0x4BE CALLDATASIZE PUSH1 0x4 PUSH2 0x452 JUMP JUMPDEST SWAP1 PUSH2 0x1459 JUMP JUMPDEST PUSH2 0x4CC PUSH2 0x183 JUMP JUMPDEST SWAP2 DUP3 SWAP2 DUP3 PUSH2 0x492 JUMP JUMPDEST SUB SWAP1 RETURN JUMPDEST PUSH2 0x189 JUMP JUMPDEST SHR SWAP1 JUMP JUMPDEST PUSH1 0x1 DUP1 PUSH1 0xA0 SHL SUB AND SWAP1 JUMP JUMPDEST PUSH2 0x4FD SWAP1 PUSH1 0x8 PUSH2 0x502 SWAP4 MUL PUSH2 0x4DE JUMP JUMPDEST PUSH2 0x4E2 JUMP JUMPDEST SWAP1 JUMP JUMPDEST SWAP1 PUSH2 0x510 SWAP2 SLOAD PUSH2 0x4ED JUMP JUMPDEST SWAP1 JUMP JUMPDEST PUSH2 0x520 PUSH1 0x7 PUSH1 0x0 SWAP1 PUSH2 0x505 JUMP JUMPDEST SWAP1 JUMP JUMPDEST PUSH2 0x52C SWAP1 PUSH2 0x1CA JUMP JUMPDEST SWAP1 MSTORE JUMP JUMPDEST SWAP2 SWAP1 PUSH2 0x544 SWAP1 PUSH1 0x0 PUSH1 0x20 DUP6 ADD SWAP5 ADD SWAP1 PUSH2 0x523 JUMP JUMPDEST JUMP JUMPDEST CALLVALUE PUSH2 0x576 JUMPI PUSH2 0x556 CALLDATASIZE PUSH1 0x4 PUSH2 0x2E6 JUMP JUMPDEST PUSH2 0x572 PUSH2 0x561 PUSH2 0x513 JUMP JUMPDEST PUSH2 0x569 PUSH2 0x183 JUMP JUMPDEST SWAP2 DUP3 SWAP2 DUP3 PUSH2 0x530 JUMP JUMPDEST SUB SWAP1 RETURN JUMPDEST PUSH2 0x189 JUMP JUMPDEST PUSH2 0x584 SWAP1 PUSH2 0x198 JUMP JUMPDEST SWAP1 MSTORE JUMP JUMPDEST SWAP2 SWAP1 PUSH2 0x59C SWAP1 PUSH1 0x0 PUSH1 0x20 DUP6 ADD SWAP5 ADD SWAP1 PUSH2 0x57B JUMP JUMPDEST JUMP JUMPDEST CALLVALUE PUSH2 0x5CE JUMPI PUSH2 0x5AE CALLDATASIZE PUSH1 0x4 PUSH2 0x2E6 JUMP JUMPDEST PUSH2 0x5CA PUSH2 0x5B9 PUSH2 0x149C JUMP JUMPDEST PUSH2 0x5C1 PUSH2 0x183 JUMP JUMPDEST SWAP2 DUP3 SWAP2 DUP3 PUSH2 0x588 JUMP JUMPDEST SUB SWAP1 RETURN JUMPDEST PUSH2 0x189 JUMP JUMPDEST SWAP1 SWAP2 PUSH1 0x60 DUP3 DUP5 SUB SLT PUSH2 0x609 JUMPI PUSH2 0x606 PUSH2 0x5EF DUP5 PUSH1 0x0 DUP6 ADD PUSH2 0x1EB JUMP JUMPDEST SWAP4 PUSH2 0x5FD DUP2 PUSH1 0x20 DUP7 ADD PUSH2 0x1EB JUMP JUMPDEST SWAP4 PUSH1 0x40 ADD PUSH2 0x1B0 JUMP JUMPDEST SWAP1 JUMP JUMPDEST PUSH2 0x18E JUMP JUMPDEST CALLVALUE PUSH2 0x63F JUMPI PUSH2 0x63B PUSH2 0x62A PUSH2 0x624 CALLDATASIZE PUSH1 0x4 PUSH2 0x5D3 JUMP JUMPDEST SWAP2 PUSH2 0x14B2 JUMP JUMPDEST PUSH2 0x632 PUSH2 0x183 JUMP JUMPDEST SWAP2 DUP3 SWAP2 DUP3 PUSH2 0x492 JUMP JUMPDEST SUB SWAP1 RETURN JUMPDEST PUSH2 0x189 JUMP JUMPDEST PUSH1 0xFF AND SWAP1 JUMP JUMPDEST PUSH2 0x653 SWAP1 PUSH2 0x644 JUMP JUMPDEST SWAP1 MSTORE JUMP JUMPDEST SWAP2 SWAP1 PUSH2 0x66B SWAP1 PUSH1 0x0 PUSH1 0x20 DUP6 ADD SWAP5 ADD SWAP1 PUSH2 0x64A JUMP JUMPDEST JUMP JUMPDEST CALLVALUE PUSH2 0x69D JUMPI PUSH2 0x67D CALLDATASIZE PUSH1 0x4 PUSH2 0x2E6 JUMP JUMPDEST PUSH2 0x699 PUSH2 0x688 PUSH2 0x1505 JUMP JUMPDEST PUSH2 0x690 PUSH2 0x183 JUMP JUMPDEST SWAP2 DUP3 SWAP2 DUP3 PUSH2 0x657 JUMP JUMPDEST SUB SWAP1 RETURN JUMPDEST PUSH2 0x189 JUMP JUMPDEST SWAP2 SWAP1 PUSH1 0x40 DUP4 DUP3 SUB SLT PUSH2 0x6CB JUMPI DUP1 PUSH2 0x6BF PUSH2 0x6C8 SWAP3 PUSH1 0x0 DUP7 ADD PUSH2 0x1EB JUMP JUMPDEST SWAP4 PUSH1 0x20 ADD PUSH2 0x1EB JUMP JUMPDEST SWAP1 JUMP JUMPDEST PUSH2 0x18E JUMP JUMPDEST CALLVALUE PUSH2 0x6FF JUMPI PUSH2 0x6E9 PUSH2 0x6E3 CALLDATASIZE PUSH1 0x4 PUSH2 0x6A2 JUMP JUMPDEST SWAP1 PUSH2 0x155F JUMP JUMPDEST PUSH2 0x6F1 PUSH2 0x183 JUMP JUMPDEST DUP1 PUSH2 0x6FB DUP2 PUSH2 0x2A9 JUMP JUMPDEST SUB SWAP1 RETURN JUMPDEST PUSH2 0x189 JUMP JUMPDEST SWAP1 JUMP JUMPDEST PUSH2 0x717 SWAP1 PUSH1 0x8 PUSH2 0x71C SWAP4 MUL PUSH2 0x4DE JUMP JUMPDEST PUSH2 0x704 JUMP JUMPDEST SWAP1 JUMP JUMPDEST SWAP1 PUSH2 0x72A SWAP2 SLOAD PUSH2 0x707 JUMP JUMPDEST SWAP1 JUMP JUMPDEST PUSH2 0x73A PUSH1 0xA PUSH1 0x0 SWAP1 PUSH2 0x71F JUMP JUMPDEST SWAP1 JUMP JUMPDEST CALLVALUE PUSH2 0x76D JUMPI PUSH2 0x74D CALLDATASIZE PUSH1 0x4 PUSH2 0x2E6 JUMP JUMPDEST PUSH2 0x769 PUSH2 0x758 PUSH2 0x72D JUMP JUMPDEST PUSH2 0x760 PUSH2 0x183 JUMP JUMPDEST SWAP2 DUP3 SWAP2 DUP3 PUSH2 0x588 JUMP JUMPDEST SUB SWAP1 RETURN JUMPDEST PUSH2 0x189 JUMP JUMPDEST PUSH2 0x77F PUSH1 0xB PUSH1 0x0 SWAP1 PUSH2 0x71F JUMP JUMPDEST SWAP1 JUMP JUMPDEST CALLVALUE PUSH2 0x7B2 JUMPI PUSH2 0x792 CALLDATASIZE PUSH1 0x4 PUSH2 0x2E6 JUMP JUMPDEST PUSH2 0x7AE PUSH2 0x79D PUSH2 0x772 JUMP JUMPDEST PUSH2 0x7A5 PUSH2 0x183 JUMP JUMPDEST SWAP2 DUP3 SWAP2 DUP3 PUSH2 0x588 JUMP JUMPDEST SUB SWAP1 RETURN JUMPDEST PUSH2 0x189 JUMP JUMPDEST SWAP1 PUSH1 0x20 DUP3 DUP3 SUB SLT PUSH2 0x7D1 JUMPI PUSH2 0x7CE SWAP2 PUSH1 0x0 ADD PUSH2 0x1EB JUMP JUMPDEST SWAP1 JUMP JUMPDEST PUSH2 0x18E JUMP JUMPDEST CALLVALUE PUSH2 0x806 JUMPI PUSH2 0x802 PUSH2 0x7F1 PUSH2 0x7EC CALLDATASIZE PUSH1 0x4 PUSH2 0x7B7 JUMP JUMPDEST PUSH2 0x19BF JUMP JUMPDEST PUSH2 0x7F9 PUSH2 0x183 JUMP JUMPDEST SWAP2 DUP3 SWAP2 DUP3 PUSH2 0x588 JUMP JUMPDEST SUB SWAP1 RETURN JUMPDEST PUSH2 0x189 JUMP JUMPDEST CALLVALUE PUSH2 0x83B JUMPI PUSH2 0x837 PUSH2 0x826 PUSH2 0x821 CALLDATASIZE PUSH1 0x4 PUSH2 0x7B7 JUMP JUMPDEST PUSH2 0x19EB JUMP JUMPDEST PUSH2 0x82E PUSH2 0x183 JUMP JUMPDEST SWAP2 DUP3 SWAP2 DUP3 PUSH2 0x588 JUMP JUMPDEST SUB SWAP1 RETURN JUMPDEST PUSH2 0x189 JUMP JUMPDEST PUSH2 0x84D PUSH1 0xC PUSH1 0x0 SWAP1 PUSH2 0x71F JUMP JUMPDEST SWAP1 JUMP JUMPDEST CALLVALUE PUSH2 0x880 JUMPI PUSH2 0x860 CALLDATASIZE PUSH1 0x4 PUSH2 0x2E6 JUMP JUMPDEST PUSH2 0x87C PUSH2 0x86B PUSH2 0x840 JUMP JUMPDEST PUSH2 0x873 PUSH2 0x183 JUMP JUMPDEST SWAP2 DUP3 SWAP2 DUP3 PUSH2 0x588 JUMP JUMPDEST SUB SWAP1 RETURN JUMPDEST PUSH2 0x189 JUMP JUMPDEST SWAP2 PUSH1 0x20 PUSH2 0x8A7 SWAP3 SWAP5 SWAP4 PUSH2 0x8A0 PUSH1 0x40 DUP3 ADD SWAP7 PUSH1 0x0 DUP4 ADD SWAP1 PUSH2 0x57B JUMP JUMPDEST ADD SWAP1 PUSH2 0x57B JUMP JUMPDEST JUMP JUMPDEST CALLVALUE PUSH2 0x8DA JUMPI PUSH2 0x8C1 PUSH2 0x8BC CALLDATASIZE PUSH1 0x4 PUSH2 0x7B7 JUMP JUMPDEST PUSH2 0x1E4C JUMP JUMPDEST SWAP1 PUSH2 0x8D6 PUSH2 0x8CD PUSH2 0x183 JUMP JUMPDEST SWAP3 DUP4 SWAP3 DUP4 PUSH2 0x885 JUMP JUMPDEST SUB SWAP1 RETURN JUMPDEST PUSH2 0x189 JUMP JUMPDEST CALLVALUE PUSH2 0x90F JUMPI PUSH2 0x8EF CALLDATASIZE PUSH1 0x4 PUSH2 0x2E6 JUMP JUMPDEST PUSH2 0x90B PUSH2 0x8FA PUSH2 0x1E6A JUMP JUMPDEST PUSH2 0x902 PUSH2 0x183 JUMP JUMPDEST SWAP2 DUP3 SWAP2 DUP3 PUSH2 0x363 JUMP JUMPDEST SUB SWAP1 RETURN JUMPDEST PUSH2 0x189 JUMP JUMPDEST CALLVALUE PUSH2 0x945 JUMPI PUSH2 0x941 PUSH2 0x930 PUSH2 0x92A CALLDATASIZE PUSH1 0x4 PUSH2 0x452 JUMP JUMPDEST SWAP1 PUSH2 0x1E80 JUMP JUMPDEST PUSH2 0x938 PUSH2 0x183 JUMP JUMPDEST SWAP2 DUP3 SWAP2 DUP3 PUSH2 0x492 JUMP JUMPDEST SUB SWAP1 RETURN JUMPDEST PUSH2 0x189 JUMP JUMPDEST SWAP1 JUMP JUMPDEST SWAP1 JUMP JUMPDEST PUSH2 0x964 PUSH2 0x95F PUSH2 0x969 SWAP3 PUSH2 0x94A JUMP JUMPDEST PUSH2 0x94D JUMP JUMPDEST PUSH2 0x198 JUMP JUMPDEST SWAP1 JUMP JUMPDEST PUSH2 0x977 PUSH2 0x3E8 PUSH2 0x950 JUMP JUMPDEST SWAP1 JUMP JUMPDEST PUSH2 0x982 PUSH2 0x96C JUMP JUMPDEST SWAP1 JUMP JUMPDEST CALLVALUE PUSH2 0x9B5 JUMPI PUSH2 0x995 CALLDATASIZE PUSH1 0x4 PUSH2 0x2E6 JUMP JUMPDEST PUSH2 0x9B1 PUSH2 0x9A0 PUSH2 0x97A JUMP JUMPDEST PUSH2 0x9A8 PUSH2 0x183 JUMP JUMPDEST SWAP2 DUP3 SWAP2 DUP3 PUSH2 0x588 JUMP JUMPDEST SUB SWAP1 RETURN JUMPDEST PUSH2 0x189 JUMP JUMPDEST PUSH2 0x9C7 PUSH1 0x6 PUSH1 0x0 SWAP1 PUSH2 0x505 JUMP JUMPDEST SWAP1 JUMP JUMPDEST CALLVALUE PUSH2 0x9FA JUMPI PUSH2 0x9DA CALLDATASIZE PUSH1 0x4 PUSH2 0x2E6 JUMP JUMPDEST PUSH2 0x9F6 PUSH2 0x9E5 PUSH2 0x9BA JUMP JUMPDEST PUSH2 0x9ED PUSH2 0x183 JUMP JUMPDEST SWAP2 DUP3 SWAP2 DUP3 PUSH2 0x530 JUMP JUMPDEST SUB SWAP1 RETURN JUMPDEST PUSH2 0x189 JUMP JUMPDEST PUSH2 0xA0C PUSH1 0x8 PUSH1 0x0 SWAP1 PUSH2 0x505 JUMP JUMPDEST SWAP1 JUMP JUMPDEST CALLVALUE PUSH2 0xA3F JUMPI PUSH2 0xA1F CALLDATASIZE PUSH1 0x4 PUSH2 0x2E6 JUMP JUMPDEST PUSH2 0xA3B PUSH2 0xA2A PUSH2 0x9FF JUMP JUMPDEST PUSH2 0xA32 PUSH2 0x183 JUMP JUMPDEST SWAP2 DUP3 SWAP2 DUP3 PUSH2 0x530 JUMP JUMPDEST SUB SWAP1 RETURN JUMPDEST PUSH2 0x189 JUMP JUMPDEST CALLVALUE PUSH2 0xA75 JUMPI PUSH2 0xA71 PUSH2 0xA60 PUSH2 0xA5A CALLDATASIZE PUSH1 0x4 PUSH2 0x6A2 JUMP JUMPDEST SWAP1 PUSH2 0x1EBA JUMP JUMPDEST PUSH2 0xA68 PUSH2 0x183 JUMP JUMPDEST SWAP2 DUP3 SWAP2 DUP3 PUSH2 0x588 JUMP JUMPDEST SUB SWAP1 RETURN JUMPDEST PUSH2 0x189 JUMP JUMPDEST CALLVALUE PUSH2 0xAA8 JUMPI PUSH2 0xA8A CALLDATASIZE PUSH1 0x4 PUSH2 0x2E6 JUMP JUMPDEST PUSH2 0xA92 PUSH2 0x204C JUMP JUMPDEST PUSH2 0xA9A PUSH2 0x183 JUMP JUMPDEST DUP1 PUSH2 0xAA4 DUP2 PUSH2 0x2A9 JUMP JUMPDEST SUB SWAP1 RETURN JUMPDEST PUSH2 0x189 JUMP JUMPDEST PUSH1 0x0 DUP1 REVERT JUMPDEST SWAP1 PUSH2 0xAC7 SWAP5 SWAP4 SWAP3 SWAP2 PUSH2 0xAC2 PUSH2 0x2082 JUMP JUMPDEST PUSH2 0xD11 JUMP JUMPDEST PUSH2 0xACF PUSH2 0x2107 JUMP JUMPDEST JUMP JUMPDEST SWAP1 JUMP JUMPDEST PUSH2 0xAE8 PUSH2 0xAE3 PUSH2 0xAED SWAP3 PUSH2 0xAD1 JUMP JUMPDEST PUSH2 0x94D JUMP JUMPDEST PUSH2 0x198 JUMP JUMPDEST SWAP1 JUMP JUMPDEST PUSH2 0xB04 PUSH2 0xAFF PUSH2 0xB09 SWAP3 PUSH2 0x3B1 JUMP JUMPDEST PUSH2 0x94D JUMP JUMPDEST PUSH2 0x198 JUMP JUMPDEST SWAP1 JUMP JUMPDEST PUSH1 0x0 SWAP1 JUMP JUMPDEST PUSH1 0x0 SHR SWAP1 JUMP JUMPDEST PUSH2 0xB23 PUSH2 0xB28 SWAP2 PUSH2 0xB11 JUMP JUMPDEST PUSH2 0x4E2 JUMP JUMPDEST SWAP1 JUMP JUMPDEST PUSH2 0xB35 SWAP1 SLOAD PUSH2 0xB17 JUMP JUMPDEST SWAP1 JUMP JUMPDEST PUSH2 0xB4C PUSH2 0xB47 PUSH2 0xB51 SWAP3 PUSH2 0x1BF JUMP JUMPDEST PUSH2 0x94D JUMP JUMPDEST PUSH2 0x1BF JUMP JUMPDEST SWAP1 JUMP JUMPDEST PUSH2 0xB5D SWAP1 PUSH2 0xB38 JUMP JUMPDEST SWAP1 JUMP JUMPDEST PUSH2 0xB69 SWAP1 PUSH2 0xB54 JUMP JUMPDEST SWAP1 JUMP JUMPDEST POP SWAP1 JUMP JUMPDEST PUSH2 0xB79 SWAP1 PUSH2 0xB38 JUMP JUMPDEST SWAP1 JUMP JUMPDEST PUSH2 0xB85 SWAP1 PUSH2 0xB70 JUMP JUMPDEST SWAP1 JUMP JUMPDEST PUSH2 0xB91 SWAP1 PUSH2 0xB70 JUMP JUMPDEST SWAP1 JUMP JUMPDEST PUSH4 0x4E487B71 PUSH1 0xE0 SHL PUSH1 0x0 MSTORE PUSH1 0x41 PUSH1 0x4 MSTORE PUSH1 0x24 PUSH1 0x0 REVERT JUMPDEST SWAP1 PUSH2 0xBB4 SWAP1 PUSH2 0x328 JUMP JUMPDEST DUP2 ADD SWAP1 DUP2 LT PUSH8 0xFFFFFFFFFFFFFFFF DUP3 GT OR PUSH2 0xBCE JUMPI PUSH1 0x40 MSTORE JUMP JUMPDEST PUSH2 0xB94 JUMP JUMPDEST PUSH1 0xE0 SHL SWAP1 JUMP JUMPDEST SWAP1 POP MLOAD SWAP1 PUSH2 0xBE6 DUP3 PUSH2 0x19B JUMP JUMPDEST JUMP JUMPDEST SWAP1 PUSH1 0x20 DUP3 DUP3 SUB SLT PUSH2 0xC02 JUMPI PUSH2 0xBFF SWAP2 PUSH1 0x0 ADD PUSH2 0xBD9 JUMP JUMPDEST SWAP1 JUMP JUMPDEST PUSH2 0x18E JUMP JUMPDEST PUSH2 0xC0F PUSH2 0x183 JUMP JUMPDEST RETURNDATASIZE PUSH1 0x0 DUP3 RETURNDATACOPY RETURNDATASIZE SWAP1 REVERT JUMPDEST PUSH4 0x4E487B71 PUSH1 0xE0 SHL PUSH1 0x0 MSTORE PUSH1 0x11 PUSH1 0x4 MSTORE PUSH1 0x24 PUSH1 0x0 REVERT JUMPDEST PUSH2 0xC3D PUSH2 0xC43 SWAP2 SWAP4 SWAP3 SWAP4 PUSH2 0x198 JUMP JUMPDEST SWAP3 PUSH2 0x198 JUMP JUMPDEST DUP3 SUB SWAP2 DUP3 GT PUSH2 0xC4E JUMPI JUMP JUMPDEST PUSH2 0xC18 JUMP JUMPDEST PUSH2 0xC62 PUSH2 0xC68 SWAP2 SWAP4 SWAP3 SWAP4 PUSH2 0x198 JUMP JUMPDEST SWAP3 PUSH2 0x198 JUMP JUMPDEST SWAP2 PUSH2 0xC74 DUP4 DUP3 MUL PUSH2 0x198 JUMP JUMPDEST SWAP3 DUP2 DUP5 DIV EQ SWAP1 ISZERO OR ISZERO PUSH2 0xC83 JUMPI JUMP JUMPDEST PUSH2 0xC18 JUMP JUMPDEST SWAP1 JUMP JUMPDEST PUSH2 0xC9F PUSH2 0xC9A PUSH2 0xCA4 SWAP3 PUSH2 0xC88 JUMP JUMPDEST PUSH2 0x94D JUMP JUMPDEST PUSH2 0x198 JUMP JUMPDEST SWAP1 JUMP JUMPDEST SWAP1 JUMP JUMPDEST PUSH2 0xCBE PUSH2 0xCB9 PUSH2 0xCC3 SWAP3 PUSH2 0xCA7 JUMP JUMPDEST PUSH2 0x94D JUMP JUMPDEST PUSH2 0x198 JUMP JUMPDEST SWAP1 JUMP JUMPDEST PUSH2 0xCCF SWAP1 PUSH2 0xB70 JUMP JUMPDEST SWAP1 JUMP JUMPDEST PUSH2 0xD08 PUSH2 0xD0F SWAP5 PUSH2 0xCFE PUSH1 0x60 SWAP5 SWAP9 SWAP8 SWAP6 PUSH2 0xCF4 PUSH1 0x80 DUP7 ADD SWAP11 PUSH1 0x0 DUP8 ADD SWAP1 PUSH2 0x57B JUMP JUMPDEST PUSH1 0x20 DUP6 ADD SWAP1 PUSH2 0x57B JUMP JUMPDEST PUSH1 0x40 DUP4 ADD SWAP1 PUSH2 0x57B JUMP JUMPDEST ADD SWAP1 PUSH2 0x57B JUMP JUMPDEST JUMP JUMPDEST SWAP1 SWAP4 SWAP2 SWAP3 DUP2 PUSH2 0xD29 PUSH2 0xD23 PUSH1 0x0 PUSH2 0xAD4 JUMP JUMPDEST SWAP2 PUSH2 0x198 JUMP JUMPDEST EQ DUP1 PUSH2 0x1224 JUMPI JUMPDEST PUSH2 0x1207 JUMPI PUSH2 0xD3C PUSH2 0x1416 JUMP JUMPDEST POP SWAP2 SWAP1 SWAP2 SWAP4 DUP4 PUSH2 0xD54 PUSH2 0xD4E DUP6 PUSH2 0xAF0 JUMP JUMPDEST SWAP2 PUSH2 0x198 JUMP JUMPDEST LT ISZERO DUP1 ISZERO PUSH2 0x11EC JUMPI JUMPDEST PUSH2 0x11CF JUMPI PUSH2 0xD69 PUSH2 0xB0C JUMP JUMPDEST POP PUSH2 0xD72 PUSH2 0xB0C JUMP JUMPDEST POP PUSH2 0xD7D PUSH1 0x7 PUSH2 0xB2B JUMP JUMPDEST PUSH2 0xD87 PUSH1 0x8 PUSH2 0xB2B JUMP JUMPDEST SWAP3 DUP8 PUSH2 0xD9B PUSH2 0xD95 DUP5 PUSH2 0x1CA JUMP JUMPDEST SWAP2 PUSH2 0x1CA JUMP JUMPDEST EQ DUP1 ISZERO PUSH2 0x11B5 JUMPI JUMPDEST PUSH2 0x1198 JUMPI PUSH2 0xE13 PUSH1 0x20 SWAP3 PUSH2 0xDF5 PUSH2 0xE4A SWAP6 PUSH2 0xE18 SWAP5 DUP11 PUSH2 0xDCC PUSH2 0xDC6 PUSH1 0x0 PUSH2 0xAD4 JUMP JUMPDEST SWAP2 PUSH2 0x198 JUMP JUMPDEST GT PUSH2 0x117E JUMPI JUMPDEST DUP14 DUP14 DUP2 PUSH2 0xDE8 PUSH2 0xDE2 PUSH1 0x0 PUSH2 0xAD4 JUMP JUMPDEST SWAP2 PUSH2 0x198 JUMP JUMPDEST GT PUSH2 0x1162 JUMPI JUMPDEST POP POP PUSH2 0xB6C JUMP JUMPDEST PUSH2 0xE08 PUSH2 0xE02 PUSH1 0x0 PUSH2 0xAD4 JUMP JUMPDEST SWAP2 PUSH2 0x198 JUMP JUMPDEST GT PUSH2 0x115D JUMPI JUMPDEST PUSH2 0xB60 JUMP JUMPDEST PUSH2 0xB7C JUMP JUMPDEST PUSH4 0x70A08231 SWAP1 PUSH2 0xE3F PUSH2 0xE2A ADDRESS PUSH2 0xB88 JUMP JUMPDEST SWAP3 PUSH2 0xE33 PUSH2 0x183 JUMP JUMPDEST SWAP6 DUP7 SWAP5 DUP6 SWAP4 DUP5 SWAP4 PUSH2 0xBD3 JUMP JUMPDEST DUP4 MSTORE PUSH1 0x4 DUP4 ADD PUSH2 0x530 JUMP JUMPDEST SUB SWAP2 GAS STATICCALL SWAP1 DUP2 ISZERO PUSH2 0x1158 JUMPI PUSH2 0xE76 PUSH2 0xE71 PUSH2 0xEA8 SWAP4 PUSH1 0x20 SWAP4 PUSH1 0x0 SWAP2 PUSH2 0x112B JUMPI JUMPDEST POP SWAP5 PUSH2 0xB60 JUMP JUMPDEST PUSH2 0xB7C JUMP JUMPDEST PUSH4 0x70A08231 SWAP1 PUSH2 0xE9D PUSH2 0xE88 ADDRESS PUSH2 0xB88 JUMP JUMPDEST SWAP3 PUSH2 0xE91 PUSH2 0x183 JUMP JUMPDEST SWAP6 DUP7 SWAP5 DUP6 SWAP4 DUP5 SWAP4 PUSH2 0xBD3 JUMP JUMPDEST DUP4 MSTORE PUSH1 0x4 DUP4 ADD PUSH2 0x530 JUMP JUMPDEST SUB SWAP2 GAS STATICCALL SWAP1 DUP2 ISZERO PUSH2 0x1126 JUMPI PUSH1 0x0 SWAP2 PUSH2 0x10F8 JUMPI JUMPDEST POP DUP2 PUSH2 0xEE1 PUSH2 0xEDB PUSH2 0xED6 DUP7 PUSH2 0xED1 DUP10 SWAP2 PUSH2 0xAF0 JUMP JUMPDEST PUSH2 0xC2E JUMP JUMPDEST PUSH2 0x198 JUMP JUMPDEST SWAP2 PUSH2 0x198 JUMP JUMPDEST GT PUSH1 0x0 EQ PUSH2 0x10E9 JUMPI PUSH2 0xF06 DUP3 PUSH2 0xF00 DUP6 PUSH2 0xEFB DUP9 SWAP2 PUSH2 0xAF0 JUMP JUMPDEST PUSH2 0xC2E JUMP JUMPDEST SWAP1 PUSH2 0xC2E JUMP JUMPDEST JUMPDEST SWAP5 DUP2 PUSH2 0xF2D PUSH2 0xF27 PUSH2 0xF22 DUP5 PUSH2 0xF1D DUP14 SWAP2 PUSH2 0xAF0 JUMP JUMPDEST PUSH2 0xC2E JUMP JUMPDEST PUSH2 0x198 JUMP JUMPDEST SWAP2 PUSH2 0x198 JUMP JUMPDEST GT PUSH1 0x0 EQ PUSH2 0x10DA JUMPI PUSH2 0xF52 DUP3 PUSH2 0xF4C DUP4 PUSH2 0xF47 DUP13 SWAP2 PUSH2 0xAF0 JUMP JUMPDEST PUSH2 0xC2E JUMP JUMPDEST SWAP1 PUSH2 0xC2E JUMP JUMPDEST JUMPDEST SWAP4 DUP7 PUSH2 0xF68 PUSH2 0xF62 PUSH1 0x0 PUSH2 0xAD4 JUMP JUMPDEST SWAP2 PUSH2 0x198 JUMP JUMPDEST EQ DUP1 PUSH2 0x10BF JUMPI JUMPDEST PUSH2 0x10A2 JUMPI PUSH2 0xFE0 PUSH2 0xFA8 PUSH2 0xF8E DUP7 PUSH2 0xF88 PUSH2 0x3E8 PUSH2 0x950 JUMP JUMPDEST SWAP1 PUSH2 0xC53 JUMP JUMPDEST PUSH2 0xFA2 DUP11 PUSH2 0xF9C PUSH1 0x3 PUSH2 0xC8B JUMP JUMPDEST SWAP1 PUSH2 0xC53 JUMP JUMPDEST SWAP1 PUSH2 0xC2E JUMP JUMPDEST PUSH2 0xFDA PUSH2 0xFC0 DUP7 PUSH2 0xFBA PUSH2 0x3E8 PUSH2 0x950 JUMP JUMPDEST SWAP1 PUSH2 0xC53 JUMP JUMPDEST PUSH2 0xFD4 DUP10 PUSH2 0xFCE PUSH1 0x3 PUSH2 0xC8B JUMP JUMPDEST SWAP1 PUSH2 0xC53 JUMP JUMPDEST SWAP1 PUSH2 0xC2E JUMP JUMPDEST SWAP1 PUSH2 0xC53 JUMP JUMPDEST PUSH2 0x1021 PUSH2 0x101B PUSH2 0x1016 PUSH2 0x1004 PUSH2 0xFF5 DUP7 PUSH2 0xAF0 JUMP JUMPDEST PUSH2 0xFFE DUP9 PUSH2 0xAF0 JUMP JUMPDEST SWAP1 PUSH2 0xC53 JUMP JUMPDEST PUSH2 0x1010 PUSH3 0xF4240 PUSH2 0xCAA JUMP JUMPDEST SWAP1 PUSH2 0xC53 JUMP JUMPDEST PUSH2 0x198 JUMP JUMPDEST SWAP2 PUSH2 0x198 JUMP JUMPDEST LT PUSH2 0x1085 JUMPI PUSH2 0x1033 SWAP4 SWAP3 SWAP1 SWAP2 SWAP3 PUSH2 0x2460 JUMP JUMPDEST PUSH2 0x1080 CALLER SWAP4 SWAP2 SWAP3 SWAP6 PUSH2 0x106E PUSH2 0x1068 PUSH32 0xD78AD95FA46C994B6551D0DA85FC275FE613CE37657FB8D5E3D130840159D822 SWAP7 PUSH2 0xCC6 JUMP JUMPDEST SWAP7 PUSH2 0xCC6 JUMP JUMPDEST SWAP7 PUSH2 0x1077 PUSH2 0x183 JUMP JUMPDEST SWAP5 DUP6 SWAP5 DUP6 PUSH2 0xCD2 JUMP JUMPDEST SUB SWAP1 LOG3 JUMP JUMPDEST PUSH1 0x0 PUSH4 0x2F62F0D9 PUSH1 0xE2 SHL DUP2 MSTORE DUP1 PUSH2 0x109E PUSH1 0x4 DUP3 ADD PUSH2 0x2A9 JUMP JUMPDEST SUB SWAP1 REVERT JUMPDEST PUSH1 0x0 PUSH4 0x98FB561 PUSH1 0xE0 SHL DUP2 MSTORE DUP1 PUSH2 0x10BB PUSH1 0x4 DUP3 ADD PUSH2 0x2A9 JUMP JUMPDEST SUB SWAP1 REVERT JUMPDEST POP DUP5 PUSH2 0x10D4 PUSH2 0x10CE PUSH1 0x0 PUSH2 0xAD4 JUMP JUMPDEST SWAP2 PUSH2 0x198 JUMP JUMPDEST EQ PUSH2 0xF6F JUMP JUMPDEST PUSH2 0x10E4 PUSH1 0x0 PUSH2 0xAD4 JUMP JUMPDEST PUSH2 0xF53 JUMP JUMPDEST PUSH2 0x10F3 PUSH1 0x0 PUSH2 0xAD4 JUMP JUMPDEST PUSH2 0xF07 JUMP JUMPDEST PUSH2 0x1119 SWAP2 POP PUSH1 0x20 RETURNDATASIZE DUP2 GT PUSH2 0x111F JUMPI JUMPDEST PUSH2 0x1111 DUP2 DUP4 PUSH2 0xBAA JUMP JUMPDEST DUP2 ADD SWAP1 PUSH2 0xBE8 JUMP JUMPDEST CODESIZE PUSH2 0xEBB JUMP JUMPDEST POP RETURNDATASIZE PUSH2 0x1107 JUMP JUMPDEST PUSH2 0xC07 JUMP JUMPDEST PUSH2 0x114B SWAP2 POP DUP5 RETURNDATASIZE DUP2 GT PUSH2 0x1151 JUMPI JUMPDEST PUSH2 0x1143 DUP2 DUP4 PUSH2 0xBAA JUMP JUMPDEST DUP2 ADD SWAP1 PUSH2 0xBE8 JUMP JUMPDEST CODESIZE PUSH2 0xE6A JUMP JUMPDEST POP RETURNDATASIZE PUSH2 0x1139 JUMP JUMPDEST PUSH2 0xC07 JUMP JUMPDEST PUSH2 0xE0E JUMP JUMPDEST PUSH2 0x1177 SWAP2 PUSH2 0x116F DUP13 PUSH2 0xB60 JUMP JUMPDEST SWAP2 SWAP1 SWAP2 PUSH2 0x2167 JUMP JUMPDEST DUP14 DUP14 PUSH2 0xDEE JUMP JUMPDEST PUSH2 0x1193 DUP14 PUSH2 0x118B DUP7 PUSH2 0xB60 JUMP JUMPDEST SWAP1 DUP14 SWAP2 PUSH2 0x2167 JUMP JUMPDEST PUSH2 0xDD2 JUMP JUMPDEST PUSH1 0x0 PUSH4 0x521F431 PUSH1 0xE3 SHL DUP2 MSTORE DUP1 PUSH2 0x11B1 PUSH1 0x4 DUP3 ADD PUSH2 0x2A9 JUMP JUMPDEST SUB SWAP1 REVERT JUMPDEST POP DUP8 PUSH2 0x11C9 PUSH2 0x11C3 DUP7 PUSH2 0x1CA JUMP JUMPDEST SWAP2 PUSH2 0x1CA JUMP JUMPDEST EQ PUSH2 0xDA3 JUMP JUMPDEST PUSH1 0x0 PUSH4 0xBB55FD27 PUSH1 0xE0 SHL DUP2 MSTORE DUP1 PUSH2 0x11E8 PUSH1 0x4 DUP3 ADD PUSH2 0x2A9 JUMP JUMPDEST SUB SWAP1 REVERT JUMPDEST POP DUP7 PUSH2 0x1200 PUSH2 0x11FA DUP8 PUSH2 0xAF0 JUMP JUMPDEST SWAP2 PUSH2 0x198 JUMP JUMPDEST LT ISZERO PUSH2 0xD5D JUMP JUMPDEST PUSH1 0x0 PUSH4 0x42301C23 PUSH1 0xE0 SHL DUP2 MSTORE DUP1 PUSH2 0x1220 PUSH1 0x4 DUP3 ADD PUSH2 0x2A9 JUMP JUMPDEST SUB SWAP1 REVERT JUMPDEST POP DUP5 PUSH2 0x1239 PUSH2 0x1233 PUSH1 0x0 PUSH2 0xAD4 JUMP JUMPDEST SWAP2 PUSH2 0x198 JUMP JUMPDEST EQ PUSH2 0xD30 JUMP JUMPDEST SWAP1 PUSH2 0x124C SWAP5 SWAP4 SWAP3 SWAP2 PUSH2 0xAB2 JUMP JUMPDEST JUMP JUMPDEST PUSH1 0x60 SWAP1 JUMP JUMPDEST PUSH4 0x4E487B71 PUSH1 0xE0 SHL PUSH1 0x0 MSTORE PUSH1 0x22 PUSH1 0x4 MSTORE PUSH1 0x24 PUSH1 0x0 REVERT JUMPDEST SWAP1 PUSH1 0x1 PUSH1 0x2 DUP4 DIV SWAP3 AND DUP1 ISZERO PUSH2 0x1289 JUMPI JUMPDEST PUSH1 0x20 DUP4 LT EQ PUSH2 0x1284 JUMPI JUMP JUMPDEST PUSH2 0x1253 JUMP JUMPDEST SWAP2 PUSH1 0x7F AND SWAP2 PUSH2 0x1279 JUMP JUMPDEST PUSH1 0x20 SWAP2 DUP2 MSTORE ADD SWAP1 JUMP JUMPDEST PUSH1 0x0 MSTORE PUSH1 0x20 PUSH1 0x0 KECCAK256 SWAP1 JUMP JUMPDEST SWAP1 PUSH1 0x0 SWAP3 SWAP2 DUP1 SLOAD SWAP1 PUSH2 0x12C2 PUSH2 0x12BB DUP4 PUSH2 0x1269 JUMP JUMPDEST DUP1 SWAP5 PUSH2 0x1293 JUMP JUMPDEST SWAP2 PUSH1 0x1 DUP2 AND SWAP1 DUP2 PUSH1 0x0 EQ PUSH2 0x131B JUMPI POP PUSH1 0x1 EQ PUSH2 0x12DE JUMPI JUMPDEST POP POP POP JUMP JUMPDEST PUSH2 0x12EB SWAP2 SWAP3 SWAP4 SWAP5 POP PUSH2 0x129C JUMP JUMPDEST SWAP2 PUSH1 0x0 SWAP3 JUMPDEST DUP2 DUP5 LT PUSH2 0x1303 JUMPI POP POP ADD SWAP1 CODESIZE DUP1 DUP1 PUSH2 0x12D9 JUMP JUMPDEST PUSH1 0x1 DUP2 PUSH1 0x20 SWAP3 SWAP6 SWAP4 SWAP6 SLOAD DUP5 DUP7 ADD MSTORE ADD SWAP2 ADD SWAP3 SWAP1 PUSH2 0x12F0 JUMP JUMPDEST SWAP3 SWAP5 SWAP6 POP POP POP PUSH1 0xFF NOT AND DUP3 MSTORE ISZERO ISZERO PUSH1 0x20 MUL ADD SWAP1 CODESIZE DUP1 DUP1 PUSH2 0x12D9 JUMP JUMPDEST SWAP1 PUSH2 0x1340 SWAP2 PUSH2 0x12A7 JUMP JUMPDEST SWAP1 JUMP JUMPDEST SWAP1 PUSH2 0x1363 PUSH2 0x135C SWAP3 PUSH2 0x1353 PUSH2 0x183 JUMP JUMPDEST SWAP4 DUP5 DUP1 SWAP3 PUSH2 0x1336 JUMP JUMPDEST SUB DUP4 PUSH2 0xBAA JUMP JUMPDEST JUMP JUMPDEST PUSH2 0x136E SWAP1 PUSH2 0x1343 JUMP JUMPDEST SWAP1 JUMP JUMPDEST PUSH2 0x1379 PUSH2 0x124E JUMP JUMPDEST POP PUSH2 0x1384 PUSH1 0x3 PUSH2 0x1365 JUMP JUMPDEST SWAP1 JUMP JUMPDEST PUSH1 0x0 SWAP1 JUMP JUMPDEST PUSH1 0x0 SWAP1 JUMP JUMPDEST PUSH14 0xFFFFFFFFFFFFFFFFFFFFFFFFFFFF AND SWAP1 JUMP JUMPDEST PUSH2 0x13B0 PUSH2 0x13B5 SWAP2 PUSH2 0xB11 JUMP JUMPDEST PUSH2 0x1391 JUMP JUMPDEST SWAP1 JUMP JUMPDEST PUSH2 0x13C2 SWAP1 SLOAD PUSH2 0x13A4 JUMP JUMPDEST SWAP1 JUMP JUMPDEST PUSH1 0x70 SHR SWAP1 JUMP JUMPDEST PUSH2 0x13D7 PUSH2 0x13DC SWAP2 PUSH2 0x13C5 JUMP JUMPDEST PUSH2 0x1391 JUMP JUMPDEST SWAP1 JUMP JUMPDEST PUSH2 0x13E9 SWAP1 SLOAD PUSH2 0x13CB JUMP JUMPDEST SWAP1 JUMP JUMPDEST PUSH4 0xFFFFFFFF AND SWAP1 JUMP JUMPDEST PUSH2 0x1401 PUSH2 0x1406 SWAP2 PUSH2 0x17D JUMP JUMPDEST PUSH2 0x13EC JUMP JUMPDEST SWAP1 JUMP JUMPDEST PUSH2 0x1413 SWAP1 SLOAD PUSH2 0x13F5 JUMP JUMPDEST SWAP1 JUMP JUMPDEST PUSH2 0x141E PUSH2 0x1387 JUMP JUMPDEST POP PUSH2 0x1427 PUSH2 0x1387 JUMP JUMPDEST POP PUSH2 0x1430 PUSH2 0x138C JUMP JUMPDEST POP PUSH2 0x143B PUSH1 0x9 PUSH2 0x13B8 JUMP JUMPDEST SWAP1 PUSH2 0x1446 PUSH1 0x9 PUSH2 0x13DF JUMP JUMPDEST SWAP1 PUSH2 0x1451 PUSH1 0x9 PUSH2 0x1409 JUMP JUMPDEST SWAP1 JUMP JUMPDEST PUSH1 0x0 SWAP1 JUMP JUMPDEST PUSH2 0x1476 SWAP2 PUSH2 0x1465 PUSH2 0x1454 JUMP JUMPDEST POP PUSH2 0x146E PUSH2 0x269C JUMP JUMPDEST SWAP2 SWAP1 SWAP2 PUSH2 0x26A9 JUMP JUMPDEST PUSH1 0x1 SWAP1 JUMP JUMPDEST PUSH2 0x1487 PUSH2 0x148C SWAP2 PUSH2 0xB11 JUMP JUMPDEST PUSH2 0x704 JUMP JUMPDEST SWAP1 JUMP JUMPDEST PUSH2 0x1499 SWAP1 SLOAD PUSH2 0x147B JUMP JUMPDEST SWAP1 JUMP JUMPDEST PUSH2 0x14A4 PUSH2 0xB0C JUMP JUMPDEST POP PUSH2 0x14AF PUSH1 0x2 PUSH2 0x148F JUMP JUMPDEST SWAP1 JUMP JUMPDEST SWAP2 PUSH2 0x14DC SWAP3 PUSH2 0x14BF PUSH2 0x1454 JUMP JUMPDEST POP PUSH2 0x14D4 PUSH2 0x14CB PUSH2 0x269C JUMP JUMPDEST DUP3 SWAP1 DUP5 SWAP2 PUSH2 0x26FA JUMP JUMPDEST SWAP2 SWAP1 SWAP2 PUSH2 0x2789 JUMP JUMPDEST PUSH1 0x1 SWAP1 JUMP JUMPDEST PUSH1 0x0 SWAP1 JUMP JUMPDEST SWAP1 JUMP JUMPDEST PUSH2 0x14FD PUSH2 0x14F8 PUSH2 0x1502 SWAP3 PUSH2 0x14E6 JUMP JUMPDEST PUSH2 0x94D JUMP JUMPDEST PUSH2 0x644 JUMP JUMPDEST SWAP1 JUMP JUMPDEST PUSH2 0x150D PUSH2 0x14E1 JUMP JUMPDEST POP PUSH2 0x1518 PUSH1 0x12 PUSH2 0x14E9 JUMP JUMPDEST SWAP1 JUMP JUMPDEST PUSH1 0x0 SHL SWAP1 JUMP JUMPDEST SWAP1 PUSH2 0x1532 PUSH1 0x1 DUP1 PUSH1 0xA0 SHL SUB SWAP2 PUSH2 0x151B JUMP JUMPDEST SWAP2 DUP2 NOT AND SWAP2 AND OR SWAP1 JUMP JUMPDEST SWAP1 JUMP JUMPDEST SWAP1 PUSH2 0x1554 PUSH2 0x154F PUSH2 0x155B SWAP3 PUSH2 0xCC6 JUMP JUMPDEST PUSH2 0x153C JUMP JUMPDEST DUP3 SLOAD PUSH2 0x1521 JUMP JUMPDEST SWAP1 SSTORE JUMP JUMPDEST SWAP1 CALLER PUSH2 0x157C PUSH2 0x1576 PUSH2 0x1571 PUSH1 0x6 PUSH2 0xB2B JUMP JUMPDEST PUSH2 0x1CA JUMP JUMPDEST SWAP2 PUSH2 0x1CA JUMP JUMPDEST SUB PUSH2 0x1598 JUMPI PUSH2 0x158F PUSH2 0x1596 SWAP3 PUSH1 0x7 PUSH2 0x153F JUMP JUMPDEST PUSH1 0x8 PUSH2 0x153F JUMP JUMPDEST JUMP JUMPDEST PUSH1 0x0 PUSH3 0x82B429 PUSH1 0xE8 SHL DUP2 MSTORE DUP1 PUSH2 0x15B0 PUSH1 0x4 DUP3 ADD PUSH2 0x2A9 JUMP JUMPDEST SUB SWAP1 REVERT JUMPDEST SWAP1 PUSH2 0x15C6 SWAP2 PUSH2 0x15C1 PUSH2 0x2082 JUMP JUMPDEST PUSH2 0x1687 JUMP JUMPDEST SWAP1 PUSH2 0x15CF PUSH2 0x2107 JUMP JUMPDEST JUMP JUMPDEST PUSH4 0x4E487B71 PUSH1 0xE0 SHL PUSH1 0x0 MSTORE PUSH1 0x12 PUSH1 0x4 MSTORE PUSH1 0x24 PUSH1 0x0 REVERT JUMPDEST PUSH2 0x15F3 PUSH2 0x15F9 SWAP2 PUSH2 0x198 JUMP JUMPDEST SWAP2 PUSH2 0x198 JUMP JUMPDEST SWAP1 DUP2 ISZERO PUSH2 0x1604 JUMPI DIV SWAP1 JUMP JUMPDEST PUSH2 0x15D1 JUMP JUMPDEST PUSH2 0x161D PUSH2 0x1618 PUSH2 0x1622 SWAP3 PUSH2 0xAD1 JUMP JUMPDEST PUSH2 0x94D JUMP JUMPDEST PUSH2 0x1BF JUMP JUMPDEST SWAP1 JUMP JUMPDEST PUSH2 0x162E SWAP1 PUSH2 0x1609 JUMP JUMPDEST SWAP1 JUMP JUMPDEST SWAP1 PUSH2 0x163E PUSH1 0x0 NOT SWAP2 PUSH2 0x151B JUMP JUMPDEST SWAP2 DUP2 NOT AND SWAP2 AND OR SWAP1 JUMP JUMPDEST PUSH2 0x165C PUSH2 0x1657 PUSH2 0x1661 SWAP3 PUSH2 0x198 JUMP JUMPDEST PUSH2 0x94D JUMP JUMPDEST PUSH2 0x198 JUMP JUMPDEST SWAP1 JUMP JUMPDEST SWAP1 JUMP JUMPDEST SWAP1 PUSH2 0x167C PUSH2 0x1677 PUSH2 0x1683 SWAP3 PUSH2 0x1648 JUMP JUMPDEST PUSH2 0x1664 JUMP JUMPDEST DUP3 SLOAD PUSH2 0x1631 JUMP JUMPDEST SWAP1 SSTORE JUMP JUMPDEST SWAP2 SWAP1 SWAP2 POP DUP2 PUSH2 0x16A6 PUSH2 0x16A0 PUSH2 0x169B ADDRESS PUSH2 0xB88 JUMP JUMPDEST PUSH2 0x1CA JUMP JUMPDEST SWAP2 PUSH2 0x1CA JUMP JUMPDEST EQ PUSH2 0x19A2 JUMPI PUSH2 0x16B3 PUSH2 0x1416 JUMP JUMPDEST POP SWAP3 SWAP1 SWAP3 SWAP1 PUSH2 0x1709 PUSH1 0x20 PUSH2 0x16D7 PUSH2 0x16D2 PUSH2 0x16CD PUSH1 0x7 PUSH2 0xB2B JUMP JUMPDEST PUSH2 0xB60 JUMP JUMPDEST PUSH2 0xB7C JUMP JUMPDEST PUSH4 0x70A08231 SWAP1 PUSH2 0x16FE PUSH2 0x16E9 ADDRESS PUSH2 0xB88 JUMP JUMPDEST SWAP3 PUSH2 0x16F2 PUSH2 0x183 JUMP JUMPDEST SWAP6 DUP7 SWAP5 DUP6 SWAP4 DUP5 SWAP4 PUSH2 0xBD3 JUMP JUMPDEST DUP4 MSTORE PUSH1 0x4 DUP4 ADD PUSH2 0x530 JUMP JUMPDEST SUB SWAP2 GAS STATICCALL SWAP1 DUP2 ISZERO PUSH2 0x199D JUMPI PUSH1 0x0 SWAP2 PUSH2 0x196F JUMPI JUMPDEST POP SWAP4 PUSH2 0x176F PUSH1 0x20 PUSH2 0x173D PUSH2 0x1738 PUSH2 0x1733 PUSH1 0x8 PUSH2 0xB2B JUMP JUMPDEST PUSH2 0xB60 JUMP JUMPDEST PUSH2 0xB7C JUMP JUMPDEST PUSH4 0x70A08231 SWAP1 PUSH2 0x1764 PUSH2 0x174F ADDRESS PUSH2 0xB88 JUMP JUMPDEST SWAP3 PUSH2 0x1758 PUSH2 0x183 JUMP JUMPDEST SWAP6 DUP7 SWAP5 DUP6 SWAP4 DUP5 SWAP4 PUSH2 0xBD3 JUMP JUMPDEST DUP4 MSTORE PUSH1 0x4 DUP4 ADD PUSH2 0x530 JUMP JUMPDEST SUB SWAP2 GAS STATICCALL SWAP1 DUP2 ISZERO PUSH2 0x196A JUMPI PUSH1 0x0 SWAP2 PUSH2 0x193C JUMPI JUMPDEST POP SWAP2 PUSH2 0x1797 DUP7 PUSH2 0x1791 DUP5 PUSH2 0xAF0 JUMP JUMPDEST SWAP1 PUSH2 0xC2E JUMP JUMPDEST SWAP3 PUSH2 0x17AB DUP2 PUSH2 0x17A5 DUP8 PUSH2 0xAF0 JUMP JUMPDEST SWAP1 PUSH2 0xC2E JUMP JUMPDEST SWAP5 PUSH2 0x17B7 DUP5 DUP3 SWAP1 PUSH2 0x289D JUMP JUMPDEST SWAP4 PUSH2 0x17C0 PUSH2 0x149C JUMP JUMPDEST DUP1 PUSH2 0x17D4 PUSH2 0x17CE PUSH1 0x0 PUSH2 0xAD4 JUMP JUMPDEST SWAP2 PUSH2 0x198 JUMP JUMPDEST EQ PUSH1 0x0 EQ PUSH2 0x18F3 JUMPI POP PUSH2 0x1801 PUSH2 0x17F3 PUSH2 0x17EE DUP9 DUP11 SWAP1 PUSH2 0xC53 JUMP JUMPDEST PUSH2 0x2AB3 JUMP JUMPDEST PUSH2 0x17FB PUSH2 0x96C JUMP JUMPDEST SWAP1 PUSH2 0xC2E JUMP JUMPDEST SWAP9 PUSH2 0x181D PUSH2 0x180F PUSH1 0x0 PUSH2 0x1625 JUMP JUMPDEST PUSH2 0x1817 PUSH2 0x96C JUMP JUMPDEST SWAP1 PUSH2 0x2B82 JUMP JUMPDEST JUMPDEST DUP10 PUSH2 0x1832 PUSH2 0x182C PUSH1 0x0 PUSH2 0xAD4 JUMP JUMPDEST SWAP2 PUSH2 0x198 JUMP JUMPDEST EQ PUSH2 0x18D6 JUMPI PUSH2 0x1845 PUSH2 0x184E SWAP6 DUP12 SWAP1 PUSH2 0x2B82 JUMP JUMPDEST SWAP3 SWAP1 SWAP2 SWAP3 PUSH2 0x2460 JUMP JUMPDEST PUSH2 0x189A JUMPI JUMPDEST CALLER SWAP1 SWAP2 PUSH2 0x1880 PUSH32 0x4C209B5FC8AD50758F13E2E1088BA56A560DFF690A1C6FEF26394F4C03821C4F SWAP3 PUSH2 0xCC6 JUMP JUMPDEST SWAP3 PUSH2 0x1895 PUSH2 0x188C PUSH2 0x183 JUMP JUMPDEST SWAP3 DUP4 SWAP3 DUP4 PUSH2 0x885 JUMP JUMPDEST SUB SWAP1 LOG2 JUMP JUMPDEST PUSH2 0x18D1 PUSH2 0x18CA PUSH2 0x18B2 PUSH2 0x18AD PUSH1 0x9 PUSH2 0x13B8 JUMP JUMPDEST PUSH2 0xAF0 JUMP JUMPDEST PUSH2 0x18C4 PUSH2 0x18BF PUSH1 0x9 PUSH2 0x13DF JUMP JUMPDEST PUSH2 0xAF0 JUMP JUMPDEST SWAP1 PUSH2 0xC53 JUMP JUMPDEST PUSH1 0xC PUSH2 0x1667 JUMP JUMPDEST PUSH2 0x1853 JUMP JUMPDEST PUSH1 0x0 PUSH4 0xBB55FD27 PUSH1 0xE0 SHL DUP2 MSTORE DUP1 PUSH2 0x18EF PUSH1 0x4 DUP3 ADD PUSH2 0x2A9 JUMP JUMPDEST SUB SWAP1 REVERT JUMPDEST PUSH2 0x1936 SWAP1 PUSH2 0x1930 PUSH2 0x1921 PUSH2 0x191A PUSH2 0x190B DUP12 DUP6 SWAP1 PUSH2 0xC53 JUMP JUMPDEST PUSH2 0x1914 DUP8 PUSH2 0xAF0 JUMP JUMPDEST SWAP1 PUSH2 0x15E7 JUMP JUMPDEST SWAP3 DUP12 PUSH2 0xC53 JUMP JUMPDEST PUSH2 0x192A DUP7 PUSH2 0xAF0 JUMP JUMPDEST SWAP1 PUSH2 0x15E7 JUMP JUMPDEST SWAP1 PUSH2 0x2A82 JUMP JUMPDEST SWAP9 PUSH2 0x181E JUMP JUMPDEST PUSH2 0x195D SWAP2 POP PUSH1 0x20 RETURNDATASIZE DUP2 GT PUSH2 0x1963 JUMPI JUMPDEST PUSH2 0x1955 DUP2 DUP4 PUSH2 0xBAA JUMP JUMPDEST DUP2 ADD SWAP1 PUSH2 0xBE8 JUMP JUMPDEST CODESIZE PUSH2 0x1782 JUMP JUMPDEST POP RETURNDATASIZE PUSH2 0x194B JUMP JUMPDEST PUSH2 0xC07 JUMP JUMPDEST PUSH2 0x1990 SWAP2 POP PUSH1 0x20 RETURNDATASIZE DUP2 GT PUSH2 0x1996 JUMPI JUMPDEST PUSH2 0x1988 DUP2 DUP4 PUSH2 0xBAA JUMP JUMPDEST DUP2 ADD SWAP1 PUSH2 0xBE8 JUMP JUMPDEST CODESIZE PUSH2 0x171C JUMP JUMPDEST POP RETURNDATASIZE PUSH2 0x197E JUMP JUMPDEST PUSH2 0xC07 JUMP JUMPDEST PUSH1 0x0 PUSH4 0x521F431 PUSH1 0xE3 SHL DUP2 MSTORE DUP1 PUSH2 0x19BB PUSH1 0x4 DUP3 ADD PUSH2 0x2A9 JUMP JUMPDEST SUB SWAP1 REVERT JUMPDEST PUSH2 0x19D0 SWAP1 PUSH2 0x19CB PUSH2 0xB0C JUMP JUMPDEST PUSH2 0x15B4 JUMP JUMPDEST SWAP1 JUMP JUMPDEST SWAP1 PUSH2 0x19DD SWAP1 PUSH2 0xCC6 JUMP JUMPDEST PUSH1 0x0 MSTORE PUSH1 0x20 MSTORE PUSH1 0x40 PUSH1 0x0 KECCAK256 SWAP1 JUMP JUMPDEST PUSH2 0x1A02 PUSH2 0x1A07 SWAP2 PUSH2 0x19FA PUSH2 0xB0C JUMP JUMPDEST POP PUSH1 0x0 PUSH2 0x19D3 JUMP JUMPDEST PUSH2 0x148F JUMP JUMPDEST SWAP1 JUMP JUMPDEST SWAP1 PUSH2 0x1A1D SWAP3 SWAP2 PUSH2 0x1A18 PUSH2 0x2082 JUMP JUMPDEST PUSH2 0x1A29 JUMP JUMPDEST SWAP1 SWAP2 PUSH2 0x1A27 PUSH2 0x2107 JUMP JUMPDEST JUMP JUMPDEST SWAP3 SWAP2 SWAP3 POP POP DUP2 PUSH2 0x1A49 PUSH2 0x1A43 PUSH2 0x1A3E ADDRESS PUSH2 0xB88 JUMP JUMPDEST PUSH2 0x1CA JUMP JUMPDEST SWAP2 PUSH2 0x1CA JUMP JUMPDEST EQ PUSH2 0x1E2F JUMPI PUSH2 0x1A56 PUSH2 0x1416 JUMP JUMPDEST POP SWAP2 SWAP1 SWAP2 SWAP3 PUSH2 0x1A65 PUSH1 0x7 PUSH2 0xB2B JUMP JUMPDEST PUSH2 0x1A6F PUSH1 0x8 PUSH2 0xB2B JUMP JUMPDEST SWAP1 PUSH2 0x1AB8 PUSH1 0x20 PUSH2 0x1A86 PUSH2 0x1A81 DUP5 PUSH2 0xB60 JUMP JUMPDEST PUSH2 0xB7C JUMP JUMPDEST PUSH4 0x70A08231 SWAP1 PUSH2 0x1AAD PUSH2 0x1A98 ADDRESS PUSH2 0xB88 JUMP JUMPDEST SWAP3 PUSH2 0x1AA1 PUSH2 0x183 JUMP JUMPDEST SWAP6 DUP7 SWAP5 DUP6 SWAP4 DUP5 SWAP4 PUSH2 0xBD3 JUMP JUMPDEST DUP4 MSTORE PUSH1 0x4 DUP4 ADD PUSH2 0x530 JUMP JUMPDEST SUB SWAP2 GAS STATICCALL SWAP1 DUP2 ISZERO PUSH2 0x1E2A JUMPI PUSH1 0x0 SWAP2 PUSH2 0x1DFC JUMPI JUMPDEST POP SWAP2 PUSH2 0x1B15 PUSH1 0x20 PUSH2 0x1AE3 PUSH2 0x1ADE DUP5 PUSH2 0xB60 JUMP JUMPDEST PUSH2 0xB7C JUMP JUMPDEST PUSH4 0x70A08231 SWAP1 PUSH2 0x1B0A PUSH2 0x1AF5 ADDRESS PUSH2 0xB88 JUMP JUMPDEST SWAP3 PUSH2 0x1AFE PUSH2 0x183 JUMP JUMPDEST SWAP6 DUP7 SWAP5 DUP6 SWAP4 DUP5 SWAP4 PUSH2 0xBD3 JUMP JUMPDEST DUP4 MSTORE PUSH1 0x4 DUP4 ADD PUSH2 0x530 JUMP JUMPDEST SUB SWAP2 GAS STATICCALL SWAP1 DUP2 ISZERO PUSH2 0x1DF7 JUMPI PUSH1 0x0 SWAP2 PUSH2 0x1DC9 JUMPI JUMPDEST POP SWAP7 PUSH2 0x1B3B PUSH2 0x1B36 ADDRESS PUSH2 0xB88 JUMP JUMPDEST PUSH2 0x19EB JUMP JUMPDEST SWAP7 PUSH2 0x1B76 PUSH2 0x1B4A DUP3 DUP5 SWAP1 PUSH2 0x289D JUMP JUMPDEST SWAP6 PUSH2 0x1B71 PUSH2 0x1B6A PUSH2 0x1B63 PUSH2 0x1B5C PUSH2 0x149C JUMP JUMPDEST SWAP4 DUP14 PUSH2 0xC53 JUMP JUMPDEST DUP4 SWAP1 PUSH2 0x15E7 JUMP JUMPDEST SWAP12 DUP12 PUSH2 0xC53 JUMP JUMPDEST PUSH2 0x15E7 JUMP JUMPDEST SWAP8 DUP10 PUSH2 0x1B8B PUSH2 0x1B85 PUSH1 0x0 PUSH2 0xAD4 JUMP JUMPDEST SWAP2 PUSH2 0x198 JUMP JUMPDEST EQ DUP1 ISZERO PUSH2 0x1DAE JUMPI JUMPDEST PUSH2 0x1D91 JUMPI PUSH2 0x1BEA PUSH2 0x1BE5 PUSH2 0x1C1C SWAP7 PUSH2 0x1BB5 PUSH1 0x20 SWAP5 PUSH2 0x1BB0 ADDRESS PUSH2 0xB88 JUMP JUMPDEST PUSH2 0x2BE4 JUMP JUMPDEST PUSH2 0x1BCB DUP14 PUSH2 0x1BC2 DUP4 PUSH2 0xB60 JUMP JUMPDEST SWAP1 DUP13 SWAP1 SWAP2 PUSH2 0x2167 JUMP JUMPDEST PUSH2 0x1BE0 PUSH2 0x1BD7 DUP9 PUSH2 0xB60 JUMP JUMPDEST DUP14 DUP13 SWAP1 SWAP2 PUSH2 0x2167 JUMP JUMPDEST PUSH2 0xB60 JUMP JUMPDEST PUSH2 0xB7C JUMP JUMPDEST PUSH4 0x70A08231 SWAP1 PUSH2 0x1C11 PUSH2 0x1BFC ADDRESS PUSH2 0xB88 JUMP JUMPDEST SWAP3 PUSH2 0x1C05 PUSH2 0x183 JUMP JUMPDEST SWAP9 DUP10 SWAP5 DUP6 SWAP4 DUP5 SWAP4 PUSH2 0xBD3 JUMP JUMPDEST DUP4 MSTORE PUSH1 0x4 DUP4 ADD PUSH2 0x530 JUMP JUMPDEST SUB SWAP2 GAS STATICCALL SWAP4 DUP5 ISZERO PUSH2 0x1D8C JUMPI PUSH2 0x1C48 PUSH2 0x1C43 PUSH2 0x1C7A SWAP7 PUSH1 0x20 SWAP4 PUSH1 0x0 SWAP2 PUSH2 0x1D5F JUMPI JUMPDEST POP SWAP6 PUSH2 0xB60 JUMP JUMPDEST PUSH2 0xB7C JUMP JUMPDEST PUSH4 0x70A08231 SWAP1 PUSH2 0x1C6F PUSH2 0x1C5A ADDRESS PUSH2 0xB88 JUMP JUMPDEST SWAP3 PUSH2 0x1C63 PUSH2 0x183 JUMP JUMPDEST SWAP9 DUP10 SWAP5 DUP6 SWAP4 DUP5 SWAP4 PUSH2 0xBD3 JUMP JUMPDEST DUP4 MSTORE PUSH1 0x4 DUP4 ADD PUSH2 0x530 JUMP JUMPDEST SUB SWAP2 GAS STATICCALL DUP1 ISZERO PUSH2 0x1D5A JUMPI PUSH2 0x1C99 SWAP5 PUSH1 0x0 SWAP2 PUSH2 0x1D2C JUMPI JUMPDEST POP SWAP1 SWAP2 SWAP3 PUSH2 0x2460 JUMP JUMPDEST PUSH2 0x1CF0 JUMPI JUMPDEST CALLER SWAP1 DUP5 SWAP2 DUP5 PUSH2 0x1CD6 PUSH2 0x1CD0 PUSH32 0xDCCD412F0B1252819CB1FD330B93224CA42612892BB3F4F789976E6D81936496 SWAP4 PUSH2 0xCC6 JUMP JUMPDEST SWAP4 PUSH2 0xCC6 JUMP JUMPDEST SWAP4 PUSH2 0x1CEB PUSH2 0x1CE2 PUSH2 0x183 JUMP JUMPDEST SWAP3 DUP4 SWAP3 DUP4 PUSH2 0x885 JUMP JUMPDEST SUB SWAP1 LOG3 JUMP JUMPDEST PUSH2 0x1D27 PUSH2 0x1D20 PUSH2 0x1D08 PUSH2 0x1D03 PUSH1 0x9 PUSH2 0x13B8 JUMP JUMPDEST PUSH2 0xAF0 JUMP JUMPDEST PUSH2 0x1D1A PUSH2 0x1D15 PUSH1 0x9 PUSH2 0x13DF JUMP JUMPDEST PUSH2 0xAF0 JUMP JUMPDEST SWAP1 PUSH2 0xC53 JUMP JUMPDEST PUSH1 0xC PUSH2 0x1667 JUMP JUMPDEST PUSH2 0x1C9E JUMP JUMPDEST PUSH2 0x1D4D SWAP2 POP PUSH1 0x20 RETURNDATASIZE DUP2 GT PUSH2 0x1D53 JUMPI JUMPDEST PUSH2 0x1D45 DUP2 DUP4 PUSH2 0xBAA JUMP JUMPDEST DUP2 ADD SWAP1 PUSH2 0xBE8 JUMP JUMPDEST CODESIZE PUSH2 0x1C90 JUMP JUMPDEST POP RETURNDATASIZE PUSH2 0x1D3B JUMP JUMPDEST PUSH2 0xC07 JUMP JUMPDEST PUSH2 0x1D7F SWAP2 POP DUP5 RETURNDATASIZE DUP2 GT PUSH2 0x1D85 JUMPI JUMPDEST PUSH2 0x1D77 DUP2 DUP4 PUSH2 0xBAA JUMP JUMPDEST DUP2 ADD SWAP1 PUSH2 0xBE8 JUMP JUMPDEST CODESIZE PUSH2 0x1C3C JUMP JUMPDEST POP RETURNDATASIZE PUSH2 0x1D6D JUMP JUMPDEST PUSH2 0xC07 JUMP JUMPDEST PUSH1 0x0 PUSH4 0x749383AD PUSH1 0xE0 SHL DUP2 MSTORE DUP1 PUSH2 0x1DAA PUSH1 0x4 DUP3 ADD PUSH2 0x2A9 JUMP JUMPDEST SUB SWAP1 REVERT JUMPDEST POP DUP9 PUSH2 0x1DC3 PUSH2 0x1DBD PUSH1 0x0 PUSH2 0xAD4 JUMP JUMPDEST SWAP2 PUSH2 0x198 JUMP JUMPDEST EQ PUSH2 0x1B93 JUMP JUMPDEST PUSH2 0x1DEA SWAP2 POP PUSH1 0x20 RETURNDATASIZE DUP2 GT PUSH2 0x1DF0 JUMPI JUMPDEST PUSH2 0x1DE2 DUP2 DUP4 PUSH2 0xBAA JUMP JUMPDEST DUP2 ADD SWAP1 PUSH2 0xBE8 JUMP JUMPDEST CODESIZE PUSH2 0x1B28 JUMP JUMPDEST POP RETURNDATASIZE PUSH2 0x1DD8 JUMP JUMPDEST PUSH2 0xC07 JUMP JUMPDEST PUSH2 0x1E1D SWAP2 POP PUSH1 0x20 RETURNDATASIZE DUP2 GT PUSH2 0x1E23 JUMPI JUMPDEST PUSH2 0x1E15 DUP2 DUP4 PUSH2 0xBAA JUMP JUMPDEST DUP2 ADD SWAP1 PUSH2 0xBE8 JUMP JUMPDEST CODESIZE PUSH2 0x1ACB JUMP JUMPDEST POP RETURNDATASIZE PUSH2 0x1E0B JUMP JUMPDEST PUSH2 0xC07 JUMP JUMPDEST PUSH1 0x0 PUSH4 0x521F431 PUSH1 0xE3 SHL DUP2 MSTORE DUP1 PUSH2 0x1E48 PUSH1 0x4 DUP3 ADD PUSH2 0x2A9 JUMP JUMPDEST SUB SWAP1 REVERT JUMPDEST PUSH2 0x1E66 SWAP1 PUSH2 0x1E58 PUSH2 0xB0C JUMP JUMPDEST PUSH2 0x1E60 PUSH2 0xB0C JUMP JUMPDEST SWAP1 PUSH2 0x1A0A JUMP JUMPDEST SWAP1 SWAP2 JUMP JUMPDEST PUSH2 0x1E72 PUSH2 0x124E JUMP JUMPDEST POP PUSH2 0x1E7D PUSH1 0x4 PUSH2 0x1365 JUMP JUMPDEST SWAP1 JUMP JUMPDEST PUSH2 0x1E9D SWAP2 PUSH2 0x1E8C PUSH2 0x1454 JUMP JUMPDEST POP PUSH2 0x1E95 PUSH2 0x269C JUMP JUMPDEST SWAP2 SWAP1 SWAP2 PUSH2 0x2789 JUMP JUMPDEST PUSH1 0x1 SWAP1 JUMP JUMPDEST SWAP1 PUSH2 0x1EAC SWAP1 PUSH2 0xCC6 JUMP JUMPDEST PUSH1 0x0 MSTORE PUSH1 0x20 MSTORE PUSH1 0x40 PUSH1 0x0 KECCAK256 SWAP1 JUMP JUMPDEST PUSH2 0x1EDF SWAP2 PUSH2 0x1ED5 PUSH2 0x1EDA SWAP3 PUSH2 0x1ECD PUSH2 0xB0C JUMP JUMPDEST POP PUSH1 0x1 PUSH2 0x1EA2 JUMP JUMPDEST PUSH2 0x19D3 JUMP JUMPDEST PUSH2 0x148F JUMP JUMPDEST SWAP1 JUMP JUMPDEST PUSH2 0x1EEA PUSH2 0x2082 JUMP JUMPDEST PUSH2 0x1EF2 PUSH2 0x1EFC JUMP JUMPDEST PUSH2 0x1EFA PUSH2 0x2107 JUMP JUMPDEST JUMP JUMPDEST PUSH2 0x1F4D PUSH1 0x20 PUSH2 0x1F1B PUSH2 0x1F16 PUSH2 0x1F11 PUSH1 0x7 PUSH2 0xB2B JUMP JUMPDEST PUSH2 0xB60 JUMP JUMPDEST PUSH2 0xB7C JUMP JUMPDEST PUSH4 0x70A08231 SWAP1 PUSH2 0x1F42 PUSH2 0x1F2D ADDRESS PUSH2 0xB88 JUMP JUMPDEST SWAP3 PUSH2 0x1F36 PUSH2 0x183 JUMP JUMPDEST SWAP6 DUP7 SWAP5 DUP6 SWAP4 DUP5 SWAP4 PUSH2 0xBD3 JUMP JUMPDEST DUP4 MSTORE PUSH1 0x4 DUP4 ADD PUSH2 0x530 JUMP JUMPDEST SUB SWAP2 GAS STATICCALL DUP1 ISZERO PUSH2 0x2047 JUMPI PUSH2 0x1FB2 SWAP2 PUSH1 0x0 SWAP2 PUSH2 0x2019 JUMPI JUMPDEST POP PUSH1 0x20 PUSH2 0x1F80 PUSH2 0x1F7B PUSH2 0x1F76 PUSH1 0x8 PUSH2 0xB2B JUMP JUMPDEST PUSH2 0xB60 JUMP JUMPDEST PUSH2 0xB7C JUMP JUMPDEST PUSH4 0x70A08231 SWAP1 PUSH2 0x1FA7 PUSH2 0x1F92 ADDRESS PUSH2 0xB88 JUMP JUMPDEST SWAP3 PUSH2 0x1F9B PUSH2 0x183 JUMP JUMPDEST SWAP7 DUP8 SWAP5 DUP6 SWAP4 DUP5 SWAP4 PUSH2 0xBD3 JUMP JUMPDEST DUP4 MSTORE PUSH1 0x4 DUP4 ADD PUSH2 0x530 JUMP JUMPDEST SUB SWAP2 GAS STATICCALL DUP1 ISZERO PUSH2 0x2014 JUMPI PUSH2 0x1FE4 SWAP3 PUSH1 0x0 SWAP2 PUSH2 0x1FE6 JUMPI JUMPDEST POP PUSH2 0x1FD3 PUSH1 0x9 PUSH2 0x13B8 JUMP JUMPDEST SWAP1 PUSH2 0x1FDE PUSH1 0x9 PUSH2 0x13DF JUMP JUMPDEST SWAP3 PUSH2 0x2460 JUMP JUMPDEST JUMP JUMPDEST PUSH2 0x2007 SWAP2 POP PUSH1 0x20 RETURNDATASIZE DUP2 GT PUSH2 0x200D JUMPI JUMPDEST PUSH2 0x1FFF DUP2 DUP4 PUSH2 0xBAA JUMP JUMPDEST DUP2 ADD SWAP1 PUSH2 0xBE8 JUMP JUMPDEST CODESIZE PUSH2 0x1FC8 JUMP JUMPDEST POP RETURNDATASIZE PUSH2 0x1FF5 JUMP JUMPDEST PUSH2 0xC07 JUMP JUMPDEST PUSH2 0x203A SWAP2 POP PUSH1 0x20 RETURNDATASIZE DUP2 GT PUSH2 0x2040 JUMPI JUMPDEST PUSH2 0x2032 DUP2 DUP4 PUSH2 0xBAA JUMP JUMPDEST DUP2 ADD SWAP1 PUSH2 0xBE8 JUMP JUMPDEST CODESIZE PUSH2 0x1F63 JUMP JUMPDEST POP RETURNDATASIZE PUSH2 0x2028 JUMP JUMPDEST PUSH2 0xC07 JUMP JUMPDEST PUSH2 0x2054 PUSH2 0x1EE2 JUMP JUMPDEST JUMP JUMPDEST SWAP1 JUMP JUMPDEST PUSH2 0x206D PUSH2 0x2068 PUSH2 0x2072 SWAP3 PUSH2 0x2056 JUMP JUMPDEST PUSH2 0x94D JUMP JUMPDEST PUSH2 0x198 JUMP JUMPDEST SWAP1 JUMP JUMPDEST PUSH2 0x207F PUSH1 0x2 PUSH2 0x2059 JUMP JUMPDEST SWAP1 JUMP JUMPDEST PUSH2 0x208C PUSH1 0x5 PUSH2 0x148F JUMP JUMPDEST PUSH2 0x20A5 PUSH2 0x209F PUSH2 0x209A PUSH2 0x2075 JUMP JUMPDEST PUSH2 0x198 JUMP JUMPDEST SWAP2 PUSH2 0x198 JUMP JUMPDEST EQ PUSH2 0x20BE JUMPI PUSH2 0x20BC PUSH2 0x20B5 PUSH2 0x2075 JUMP JUMPDEST PUSH1 0x5 PUSH2 0x1667 JUMP JUMPDEST JUMP JUMPDEST PUSH1 0x0 PUSH4 0x3EE5AEB5 PUSH1 0xE0 SHL DUP2 MSTORE DUP1 PUSH2 0x20D7 PUSH1 0x4 DUP3 ADD PUSH2 0x2A9 JUMP JUMPDEST SUB SWAP1 REVERT JUMPDEST SWAP1 JUMP JUMPDEST PUSH2 0x20F2 PUSH2 0x20ED PUSH2 0x20F7 SWAP3 PUSH2 0x20DB JUMP JUMPDEST PUSH2 0x94D JUMP JUMPDEST PUSH2 0x198 JUMP JUMPDEST SWAP1 JUMP JUMPDEST PUSH2 0x2104 PUSH1 0x1 PUSH2 0x20DE JUMP JUMPDEST SWAP1 JUMP JUMPDEST PUSH2 0x2119 PUSH2 0x2112 PUSH2 0x20FA JUMP JUMPDEST PUSH1 0x5 PUSH2 0x1667 JUMP JUMPDEST JUMP JUMPDEST PUSH4 0xFFFFFFFF PUSH1 0xE0 SHL AND SWAP1 JUMP JUMPDEST PUSH2 0x213B PUSH2 0x2136 PUSH2 0x2140 SWAP3 PUSH2 0x3D1 JUMP JUMPDEST PUSH2 0xBD3 JUMP JUMPDEST PUSH2 0x211B JUMP JUMPDEST SWAP1 JUMP JUMPDEST SWAP2 PUSH1 0x20 PUSH2 0x2165 SWAP3 SWAP5 SWAP4 PUSH2 0x215E PUSH1 0x40 DUP3 ADD SWAP7 PUSH1 0x0 DUP4 ADD SWAP1 PUSH2 0x523 JUMP JUMPDEST ADD SWAP1 PUSH2 0x57B JUMP JUMPDEST JUMP JUMPDEST SWAP1 PUSH2 0x21AE PUSH2 0x21B3 SWAP4 PUSH2 0x219F PUSH1 0x4 SWAP5 SWAP4 PUSH2 0x2186 PUSH4 0xA9059CBB SWAP2 SWAP4 SWAP2 PUSH2 0x2127 JUMP JUMPDEST SWAP3 PUSH2 0x218F PUSH2 0x183 JUMP JUMPDEST SWAP7 DUP8 SWAP5 PUSH1 0x20 DUP7 ADD SWAP1 DUP2 MSTORE ADD PUSH2 0x2143 JUMP JUMPDEST PUSH1 0x20 DUP3 ADD DUP2 SUB DUP3 MSTORE SUB DUP4 PUSH2 0xBAA JUMP JUMPDEST PUSH2 0x2C47 JUMP JUMPDEST JUMP JUMPDEST SWAP1 JUMP JUMPDEST PUSH2 0x21CC PUSH2 0x21C7 PUSH2 0x21D1 SWAP3 PUSH2 0x21B5 JUMP JUMPDEST PUSH2 0x94D JUMP JUMPDEST PUSH2 0x198 JUMP JUMPDEST SWAP1 JUMP JUMPDEST PUSH2 0x21E0 PUSH2 0x21E6 SWAP2 PUSH2 0x198 JUMP JUMPDEST SWAP2 PUSH2 0x198 JUMP JUMPDEST SWAP1 DUP2 ISZERO PUSH2 0x21F1 JUMPI MOD SWAP1 JUMP JUMPDEST PUSH2 0x15D1 JUMP JUMPDEST PUSH2 0x220A PUSH2 0x2205 PUSH2 0x220F SWAP3 PUSH2 0x198 JUMP JUMPDEST PUSH2 0x94D JUMP JUMPDEST PUSH2 0x3D1 JUMP JUMPDEST SWAP1 JUMP JUMPDEST PUSH2 0x221E PUSH2 0x2224 SWAP2 PUSH2 0x3D1 JUMP JUMPDEST SWAP2 PUSH2 0x3D1 JUMP JUMPDEST SWAP1 SUB SWAP1 PUSH4 0xFFFFFFFF DUP3 GT PUSH2 0x2234 JUMPI JUMP JUMPDEST PUSH2 0xC18 JUMP JUMPDEST PUSH2 0x224D PUSH2 0x2248 PUSH2 0x2252 SWAP3 PUSH2 0xAD1 JUMP JUMPDEST PUSH2 0x94D JUMP JUMPDEST PUSH2 0x3D1 JUMP JUMPDEST SWAP1 JUMP JUMPDEST PUSH2 0x2269 PUSH2 0x2264 PUSH2 0x226E SWAP3 PUSH2 0xAD1 JUMP JUMPDEST PUSH2 0x94D JUMP JUMPDEST PUSH2 0x3B1 JUMP JUMPDEST SWAP1 JUMP JUMPDEST PUSH1 0x1 DUP1 PUSH1 0xE0 SHL SUB AND SWAP1 JUMP JUMPDEST PUSH2 0x2290 PUSH2 0x228B PUSH2 0x2295 SWAP3 PUSH2 0x3B1 JUMP JUMPDEST PUSH2 0x94D JUMP JUMPDEST PUSH2 0x2271 JUMP JUMPDEST SWAP1 JUMP JUMPDEST PUSH2 0x22A4 PUSH2 0x22AA SWAP2 PUSH2 0x2271 JUMP JUMPDEST SWAP2 PUSH2 0x2271 JUMP JUMPDEST SWAP1 DUP2 ISZERO PUSH2 0x22B5 JUMPI DIV SWAP1 JUMP JUMPDEST PUSH2 0x15D1 JUMP JUMPDEST PUSH2 0x22CE PUSH2 0x22C9 PUSH2 0x22D3 SWAP3 PUSH2 0x2271 JUMP JUMPDEST PUSH2 0x94D JUMP JUMPDEST PUSH2 0x198 JUMP JUMPDEST SWAP1 JUMP JUMPDEST PUSH2 0x22EA PUSH2 0x22E5 PUSH2 0x22EF SWAP3 PUSH2 0x3D1 JUMP JUMPDEST PUSH2 0x94D JUMP JUMPDEST PUSH2 0x198 JUMP JUMPDEST SWAP1 JUMP JUMPDEST PUSH2 0x2301 PUSH2 0x2307 SWAP2 SWAP4 SWAP3 SWAP4 PUSH2 0x198 JUMP JUMPDEST SWAP3 PUSH2 0x198 JUMP JUMPDEST DUP3 ADD DUP1 SWAP3 GT PUSH2 0x2312 JUMPI JUMP JUMPDEST PUSH2 0xC18 JUMP JUMPDEST PUSH2 0x232B PUSH2 0x2326 PUSH2 0x2330 SWAP3 PUSH2 0x198 JUMP JUMPDEST PUSH2 0x94D JUMP JUMPDEST PUSH2 0x3B1 JUMP JUMPDEST SWAP1 JUMP JUMPDEST SWAP1 PUSH2 0x234C PUSH14 0xFFFFFFFFFFFFFFFFFFFFFFFFFFFF SWAP2 PUSH2 0x151B JUMP JUMPDEST SWAP2 DUP2 NOT AND SWAP2 AND OR SWAP1 JUMP JUMPDEST PUSH2 0x236A PUSH2 0x2365 PUSH2 0x236F SWAP3 PUSH2 0x3B1 JUMP JUMPDEST PUSH2 0x94D JUMP JUMPDEST PUSH2 0x3B1 JUMP JUMPDEST SWAP1 JUMP JUMPDEST SWAP1 JUMP JUMPDEST SWAP1 PUSH2 0x238A PUSH2 0x2385 PUSH2 0x2391 SWAP3 PUSH2 0x2356 JUMP JUMPDEST PUSH2 0x2372 JUMP JUMPDEST DUP3 SLOAD PUSH2 0x2333 JUMP JUMPDEST SWAP1 SSTORE JUMP JUMPDEST PUSH1 0x70 SHL SWAP1 JUMP JUMPDEST SWAP1 PUSH2 0x23B7 PUSH14 0xFFFFFFFFFFFFFFFFFFFFFFFFFFFF PUSH1 0x70 SHL SWAP2 PUSH2 0x2395 JUMP JUMPDEST SWAP2 DUP2 NOT AND SWAP2 AND OR SWAP1 JUMP JUMPDEST SWAP1 PUSH2 0x23D6 PUSH2 0x23D1 PUSH2 0x23DD SWAP3 PUSH2 0x2356 JUMP JUMPDEST PUSH2 0x2372 JUMP JUMPDEST DUP3 SLOAD PUSH2 0x239B JUMP JUMPDEST SWAP1 SSTORE JUMP JUMPDEST SWAP1 PUSH2 0x23F3 PUSH4 0xFFFFFFFF PUSH1 0xE0 SHL SWAP2 PUSH2 0xBD3 JUMP JUMPDEST SWAP2 DUP2 NOT AND SWAP2 AND OR SWAP1 JUMP JUMPDEST PUSH2 0x2411 PUSH2 0x240C PUSH2 0x2416 SWAP3 PUSH2 0x3D1 JUMP JUMPDEST PUSH2 0x94D JUMP JUMPDEST PUSH2 0x3D1 JUMP JUMPDEST SWAP1 JUMP JUMPDEST SWAP1 JUMP JUMPDEST SWAP1 PUSH2 0x2431 PUSH2 0x242C PUSH2 0x2438 SWAP3 PUSH2 0x23FD JUMP JUMPDEST PUSH2 0x2419 JUMP JUMPDEST DUP3 SLOAD PUSH2 0x23E1 JUMP JUMPDEST SWAP1 SSTORE JUMP JUMPDEST SWAP2 PUSH1 0x20 PUSH2 0x245E SWAP3 SWAP5 SWAP4 PUSH2 0x2457 PUSH1 0x40 DUP3 ADD SWAP7 PUSH1 0x0 DUP4 ADD SWAP1 PUSH2 0x3C4 JUMP JUMPDEST ADD SWAP1 PUSH2 0x3C4 JUMP JUMPDEST JUMP JUMPDEST SWAP1 SWAP3 DUP2 PUSH2 0x2483 PUSH2 0x247D PUSH14 0xFFFFFFFFFFFFFFFFFFFFFFFFFFFF PUSH2 0xAF0 JUMP JUMPDEST SWAP2 PUSH2 0x198 JUMP JUMPDEST GT DUP1 ISZERO PUSH2 0x266F JUMPI JUMPDEST PUSH2 0x2652 JUMPI PUSH2 0x251F SWAP4 PUSH2 0x250C PUSH2 0x2505 PUSH2 0x2518 SWAP5 PUSH2 0x2511 SWAP5 PUSH2 0x24C1 PUSH2 0x24BC TIMESTAMP PUSH2 0x24B6 PUSH5 0x100000000 PUSH2 0x21B8 JUMP JUMPDEST SWAP1 PUSH2 0x21D4 JUMP JUMPDEST PUSH2 0x21F6 JUMP JUMPDEST SWAP8 PUSH2 0x24D6 DUP10 PUSH2 0x24D0 PUSH1 0x9 PUSH2 0x1409 JUMP JUMPDEST SWAP1 PUSH2 0x2212 JUMP JUMPDEST SWAP2 DUP3 PUSH2 0x24EB PUSH2 0x24E5 PUSH1 0x0 PUSH2 0x2239 JUMP JUMPDEST SWAP2 PUSH2 0x3D1 JUMP JUMPDEST GT DUP1 PUSH2 0x2636 JUMPI JUMPDEST DUP1 PUSH2 0x261A JUMPI JUMPDEST PUSH2 0x256E JUMPI JUMPDEST POP POP POP PUSH2 0x2317 JUMP JUMPDEST PUSH1 0x9 PUSH2 0x2375 JUMP JUMPDEST PUSH2 0x2317 JUMP JUMPDEST PUSH1 0x9 PUSH2 0x23C1 JUMP JUMPDEST PUSH1 0x9 PUSH2 0x241C JUMP JUMPDEST PUSH2 0x2529 PUSH1 0x9 PUSH2 0x13B8 JUMP JUMPDEST PUSH2 0x2533 PUSH1 0x9 PUSH2 0x13DF JUMP JUMPDEST PUSH32 0x1C411E9A96E071241C2F21F7726B17AE89E3CAB4C78BE50E062B03A9FFFBBAD1 SWAP2 PUSH2 0x2569 PUSH2 0x2560 PUSH2 0x183 JUMP JUMPDEST SWAP3 DUP4 SWAP3 DUP4 PUSH2 0x243C JUMP JUMPDEST SUB SWAP1 LOG1 JUMP JUMPDEST PUSH2 0x2612 SWAP3 PUSH2 0x25F6 PUSH2 0x25F0 PUSH2 0x25EB DUP5 PUSH2 0x25E5 PUSH2 0x25DF PUSH2 0x260B SWAP9 PUSH2 0x25DA PUSH2 0x25D3 PUSH2 0x25C4 PUSH2 0x25B5 PUSH2 0x25B0 PUSH2 0x25A1 PUSH2 0x25FC SWAP15 PUSH2 0x2D5B JUMP JUMPDEST PUSH2 0x25AA DUP8 PUSH2 0x227C JUMP JUMPDEST SWAP1 PUSH2 0x2298 JUMP JUMPDEST PUSH2 0x22BA JUMP JUMPDEST PUSH2 0x25BE DUP13 PUSH2 0x22D6 JUMP JUMPDEST SWAP1 PUSH2 0xC53 JUMP JUMPDEST PUSH2 0x25CE PUSH1 0xA PUSH2 0x148F JUMP JUMPDEST PUSH2 0x22F2 JUMP JUMPDEST PUSH1 0xA PUSH2 0x1667 JUMP JUMPDEST PUSH2 0x2D5B JUMP JUMPDEST SWAP2 PUSH2 0x227C JUMP JUMPDEST SWAP1 PUSH2 0x2298 JUMP JUMPDEST PUSH2 0x22BA JUMP JUMPDEST SWAP2 PUSH2 0x22D6 JUMP JUMPDEST SWAP1 PUSH2 0xC53 JUMP JUMPDEST PUSH2 0x2606 PUSH1 0xB PUSH2 0x148F JUMP JUMPDEST PUSH2 0x22F2 JUMP JUMPDEST PUSH1 0xB PUSH2 0x1667 JUMP JUMPDEST CODESIZE DUP1 DUP1 PUSH2 0x24FD JUMP JUMPDEST POP DUP1 PUSH2 0x262F PUSH2 0x2629 PUSH1 0x0 PUSH2 0x2255 JUMP JUMPDEST SWAP2 PUSH2 0x3B1 JUMP JUMPDEST EQ ISZERO PUSH2 0x24F8 JUMP JUMPDEST POP DUP2 PUSH2 0x264B PUSH2 0x2645 PUSH1 0x0 PUSH2 0x2255 JUMP JUMPDEST SWAP2 PUSH2 0x3B1 JUMP JUMPDEST EQ ISZERO PUSH2 0x24F2 JUMP JUMPDEST PUSH1 0x0 PUSH4 0x1A93C689 PUSH1 0xE1 SHL DUP2 MSTORE DUP1 PUSH2 0x266B PUSH1 0x4 DUP3 ADD PUSH2 0x2A9 JUMP JUMPDEST SUB SWAP1 REVERT JUMPDEST POP DUP4 PUSH2 0x2691 PUSH2 0x268B PUSH14 0xFFFFFFFFFFFFFFFFFFFFFFFFFFFF PUSH2 0xAF0 JUMP JUMPDEST SWAP2 PUSH2 0x198 JUMP JUMPDEST GT PUSH2 0x248B JUMP JUMPDEST PUSH1 0x0 SWAP1 JUMP JUMPDEST PUSH2 0x26A4 PUSH2 0x2697 JUMP JUMPDEST POP CALLER SWAP1 JUMP JUMPDEST SWAP2 PUSH2 0x26B7 SWAP3 SWAP2 PUSH1 0x1 SWAP3 PUSH2 0x2D86 JUMP JUMPDEST JUMP JUMPDEST PUSH1 0x40 SWAP1 PUSH2 0x26E3 PUSH2 0x26EA SWAP5 SWAP7 SWAP6 SWAP4 SWAP7 PUSH2 0x26D9 PUSH1 0x60 DUP5 ADD SWAP9 PUSH1 0x0 DUP6 ADD SWAP1 PUSH2 0x523 JUMP JUMPDEST PUSH1 0x20 DUP4 ADD SWAP1 PUSH2 0x57B JUMP JUMPDEST ADD SWAP1 PUSH2 0x57B JUMP JUMPDEST JUMP JUMPDEST SWAP1 PUSH2 0x26F7 SWAP2 SUB PUSH2 0x198 JUMP JUMPDEST SWAP1 JUMP JUMPDEST SWAP3 SWAP2 SWAP3 PUSH2 0x2708 DUP2 DUP4 SWAP1 PUSH2 0x1EBA JUMP JUMPDEST SWAP1 DUP2 PUSH2 0x271E PUSH2 0x2718 PUSH1 0x0 NOT PUSH2 0x198 JUMP JUMPDEST SWAP2 PUSH2 0x198 JUMP JUMPDEST LT PUSH2 0x272B JUMPI JUMPDEST POP POP POP SWAP1 POP JUMP JUMPDEST DUP2 PUSH2 0x273E PUSH2 0x2738 DUP8 PUSH2 0x198 JUMP JUMPDEST SWAP2 PUSH2 0x198 JUMP JUMPDEST LT PUSH2 0x2765 JUMPI PUSH2 0x275C SWAP4 SWAP5 PUSH2 0x2753 SWAP2 SWAP4 SWAP3 PUSH2 0x26EC JUMP JUMPDEST SWAP1 PUSH1 0x0 SWAP3 PUSH2 0x2D86 JUMP JUMPDEST DUP1 CODESIZE DUP1 DUP1 PUSH2 0x2724 JUMP JUMPDEST POP PUSH2 0x2785 DUP5 SWAP3 SWAP2 SWAP3 PUSH1 0x0 SWAP4 DUP5 SWAP4 PUSH4 0x7DC7A0D9 PUSH1 0xE1 SHL DUP6 MSTORE PUSH1 0x4 DUP6 ADD PUSH2 0x26B9 JUMP JUMPDEST SUB SWAP1 REVERT JUMPDEST SWAP2 DUP3 PUSH2 0x27A6 PUSH2 0x27A0 PUSH2 0x279B PUSH1 0x0 PUSH2 0x1625 JUMP JUMPDEST PUSH2 0x1CA JUMP JUMPDEST SWAP2 PUSH2 0x1CA JUMP JUMPDEST EQ PUSH2 0x2803 JUMPI DUP2 PUSH2 0x27C7 PUSH2 0x27C1 PUSH2 0x27BC PUSH1 0x0 PUSH2 0x1625 JUMP JUMPDEST PUSH2 0x1CA JUMP JUMPDEST SWAP2 PUSH2 0x1CA JUMP JUMPDEST EQ PUSH2 0x27DA JUMPI PUSH2 0x27D8 SWAP3 SWAP2 SWAP1 SWAP2 PUSH2 0x2EA9 JUMP JUMPDEST JUMP JUMPDEST PUSH2 0x27FF PUSH2 0x27E7 PUSH1 0x0 PUSH2 0x1625 JUMP JUMPDEST PUSH1 0x0 SWAP2 DUP3 SWAP2 PUSH4 0xEC442F05 PUSH1 0xE0 SHL DUP4 MSTORE PUSH1 0x4 DUP4 ADD PUSH2 0x530 JUMP JUMPDEST SUB SWAP1 REVERT JUMPDEST PUSH2 0x2828 PUSH2 0x2810 PUSH1 0x0 PUSH2 0x1625 JUMP JUMPDEST PUSH1 0x0 SWAP2 DUP3 SWAP2 PUSH4 0x4B637E8F PUSH1 0xE1 SHL DUP4 MSTORE PUSH1 0x4 DUP4 ADD PUSH2 0x530 JUMP JUMPDEST SUB SWAP1 REVERT JUMPDEST PUSH2 0x2835 SWAP1 PUSH2 0xB38 JUMP JUMPDEST SWAP1 JUMP JUMPDEST PUSH2 0x2841 SWAP1 PUSH2 0x282C JUMP JUMPDEST SWAP1 JUMP JUMPDEST PUSH2 0x284D SWAP1 PUSH2 0xB70 JUMP JUMPDEST SWAP1 JUMP JUMPDEST SWAP1 POP MLOAD SWAP1 PUSH2 0x285D DUP3 PUSH2 0x1D6 JUMP JUMPDEST JUMP JUMPDEST SWAP1 PUSH1 0x20 DUP3 DUP3 SUB SLT PUSH2 0x2879 JUMPI PUSH2 0x2876 SWAP2 PUSH1 0x0 ADD PUSH2 0x2850 JUMP JUMPDEST SWAP1 JUMP JUMPDEST PUSH2 0x18E JUMP JUMPDEST SWAP1 JUMP JUMPDEST PUSH2 0x2895 PUSH2 0x2890 PUSH2 0x289A SWAP3 PUSH2 0x287E JUMP JUMPDEST PUSH2 0x94D JUMP JUMPDEST PUSH2 0x198 JUMP JUMPDEST SWAP1 JUMP JUMPDEST SWAP2 SWAP1 PUSH2 0x28A7 PUSH2 0x1454 JUMP JUMPDEST POP PUSH2 0x28DD PUSH1 0x20 PUSH2 0x28C7 PUSH2 0x28C2 PUSH2 0x28BD PUSH1 0x6 PUSH2 0xB2B JUMP JUMPDEST PUSH2 0x2838 JUMP JUMPDEST PUSH2 0x2844 JUMP JUMPDEST PUSH4 0x17E7E58 SWAP1 PUSH2 0x28D5 PUSH2 0x183 JUMP JUMPDEST SWAP4 DUP5 SWAP3 PUSH2 0xBD3 JUMP JUMPDEST DUP3 MSTORE DUP2 DUP1 PUSH2 0x28ED PUSH1 0x4 DUP3 ADD PUSH2 0x2A9 JUMP JUMPDEST SUB SWAP2 GAS STATICCALL SWAP1 DUP2 ISZERO PUSH2 0x2A7D JUMPI PUSH1 0x0 SWAP2 PUSH2 0x2A4F JUMPI JUMPDEST POP SWAP1 DUP2 PUSH2 0x291E PUSH2 0x2918 PUSH2 0x2913 PUSH1 0x0 PUSH2 0x1625 JUMP JUMPDEST PUSH2 0x1CA JUMP JUMPDEST SWAP2 PUSH2 0x1CA JUMP JUMPDEST EQ ISZERO SWAP4 PUSH2 0x292B PUSH1 0xC PUSH2 0x148F JUMP JUMPDEST SWAP2 DUP6 PUSH1 0x0 EQ PUSH2 0x2A14 JUMPI DUP3 PUSH2 0x2948 PUSH2 0x2942 PUSH1 0x0 PUSH2 0xAD4 JUMP JUMPDEST SWAP2 PUSH2 0x198 JUMP JUMPDEST SUB PUSH2 0x2955 JUMPI JUMPDEST POP POP POP POP JUMPDEST JUMP JUMPDEST PUSH2 0x2977 PUSH2 0x297C SWAP2 PUSH2 0x2971 PUSH2 0x296B PUSH2 0x2982 SWAP6 PUSH2 0xAF0 JUMP JUMPDEST SWAP2 PUSH2 0xAF0 JUMP JUMPDEST SWAP1 PUSH2 0xC53 JUMP JUMPDEST PUSH2 0x2AB3 JUMP JUMPDEST SWAP2 PUSH2 0x2AB3 JUMP JUMPDEST SWAP1 DUP1 PUSH2 0x2996 PUSH2 0x2990 DUP5 PUSH2 0x198 JUMP JUMPDEST SWAP2 PUSH2 0x198 JUMP JUMPDEST GT PUSH2 0x29A2 JUMPI JUMPDEST DUP1 PUSH2 0x294E JUMP JUMPDEST PUSH2 0x29DE PUSH2 0x29E4 SWAP3 PUSH2 0x29D9 PUSH2 0x29C8 PUSH2 0x29B7 PUSH2 0x149C JUMP JUMPDEST PUSH2 0x29C2 DUP7 DUP6 SWAP1 PUSH2 0xC2E JUMP JUMPDEST SWAP1 PUSH2 0xC53 JUMP JUMPDEST SWAP4 PUSH2 0x29D3 PUSH1 0x5 PUSH2 0x2881 JUMP JUMPDEST SWAP1 PUSH2 0xC53 JUMP JUMPDEST PUSH2 0x22F2 JUMP JUMPDEST SWAP1 PUSH2 0x15E7 JUMP JUMPDEST DUP1 PUSH2 0x29F8 PUSH2 0x29F2 PUSH1 0x0 PUSH2 0xAD4 JUMP JUMPDEST SWAP2 PUSH2 0x198 JUMP JUMPDEST GT PUSH2 0x2A04 JUMPI JUMPDEST DUP1 PUSH2 0x299C JUMP JUMPDEST PUSH2 0x2A0D SWAP2 PUSH2 0x2B82 JUMP JUMPDEST CODESIZE DUP1 PUSH2 0x29FE JUMP JUMPDEST POP POP SWAP1 POP PUSH2 0x2A2B PUSH2 0x2A25 PUSH1 0x0 PUSH2 0xAD4 JUMP JUMPDEST SWAP2 PUSH2 0x198 JUMP JUMPDEST SUB PUSH2 0x2A36 JUMPI JUMPDEST PUSH2 0x2953 JUMP JUMPDEST PUSH2 0x2A4A PUSH2 0x2A43 PUSH1 0x0 PUSH2 0xAD4 JUMP JUMPDEST PUSH1 0xC PUSH2 0x1667 JUMP JUMPDEST PUSH2 0x2A31 JUMP JUMPDEST PUSH2 0x2A70 SWAP2 POP PUSH1 0x20 RETURNDATASIZE DUP2 GT PUSH2 0x2A76 JUMPI JUMPDEST PUSH2 0x2A68 DUP2 DUP4 PUSH2 0xBAA JUMP JUMPDEST DUP2 ADD SWAP1 PUSH2 0x285F JUMP JUMPDEST CODESIZE PUSH2 0x2900 JUMP JUMPDEST POP RETURNDATASIZE PUSH2 0x2A5E JUMP JUMPDEST PUSH2 0xC07 JUMP JUMPDEST SWAP1 PUSH2 0x2A8B PUSH2 0xB0C JUMP JUMPDEST POP DUP2 PUSH2 0x2A9F PUSH2 0x2A99 DUP4 PUSH2 0x198 JUMP JUMPDEST SWAP2 PUSH2 0x198 JUMP JUMPDEST LT PUSH1 0x0 EQ PUSH2 0x2AAC JUMPI POP JUMPDEST SWAP1 JUMP JUMPDEST SWAP1 POP PUSH2 0x2AA9 JUMP JUMPDEST PUSH2 0x2ABB PUSH2 0xB0C JUMP JUMPDEST DUP2 PUSH2 0x2ACF PUSH2 0x2AC9 PUSH1 0x3 PUSH2 0xC8B JUMP JUMPDEST SWAP2 PUSH2 0x198 JUMP JUMPDEST GT PUSH1 0x0 EQ PUSH2 0x2B50 JUMPI POP DUP1 PUSH2 0x2B00 PUSH2 0x2AF0 DUP4 PUSH2 0x2AEA PUSH1 0x2 PUSH2 0x2059 JUMP JUMPDEST SWAP1 PUSH2 0x15E7 JUMP JUMPDEST PUSH2 0x2AFA PUSH1 0x1 PUSH2 0x20DE JUMP JUMPDEST SWAP1 PUSH2 0x22F2 JUMP JUMPDEST SWAP1 JUMPDEST DUP2 PUSH2 0x2B15 PUSH2 0x2B0F DUP4 PUSH2 0x198 JUMP JUMPDEST SWAP2 PUSH2 0x198 JUMP JUMPDEST LT ISZERO PUSH2 0x2B49 JUMPI POP PUSH2 0x2B43 PUSH2 0x2B33 DUP3 PUSH2 0x2B2E DUP6 DUP3 SWAP1 PUSH2 0x15E7 JUMP JUMPDEST PUSH2 0x22F2 JUMP JUMPDEST PUSH2 0x2B3D PUSH1 0x2 PUSH2 0x2059 JUMP JUMPDEST SWAP1 PUSH2 0x15E7 JUMP JUMPDEST SWAP1 PUSH2 0x2B02 JUMP JUMPDEST SWAP3 SWAP2 POP POP JUMPDEST JUMP JUMPDEST SWAP2 SWAP1 PUSH2 0x2B65 PUSH2 0x2B5F PUSH1 0x0 PUSH2 0xAD4 JUMP JUMPDEST SWAP2 PUSH2 0x198 JUMP JUMPDEST SUB PUSH2 0x2B70 JUMPI JUMPDEST PUSH2 0x2B4E JUMP JUMPDEST SWAP1 POP PUSH2 0x2B7C PUSH1 0x1 PUSH2 0x20DE JUMP JUMPDEST SWAP1 PUSH2 0x2B6B JUMP JUMPDEST DUP1 PUSH2 0x2B9E PUSH2 0x2B98 PUSH2 0x2B93 PUSH1 0x0 PUSH2 0x1625 JUMP JUMPDEST PUSH2 0x1CA JUMP JUMPDEST SWAP2 PUSH2 0x1CA JUMP JUMPDEST EQ PUSH2 0x2BBB JUMPI PUSH2 0x2BB9 SWAP2 PUSH2 0x2BB1 PUSH1 0x0 PUSH2 0x1625 JUMP JUMPDEST SWAP2 SWAP1 SWAP2 PUSH2 0x2EA9 JUMP JUMPDEST JUMP JUMPDEST PUSH2 0x2BE0 PUSH2 0x2BC8 PUSH1 0x0 PUSH2 0x1625 JUMP JUMPDEST PUSH1 0x0 SWAP2 DUP3 SWAP2 PUSH4 0xEC442F05 PUSH1 0xE0 SHL DUP4 MSTORE PUSH1 0x4 DUP4 ADD PUSH2 0x530 JUMP JUMPDEST SUB SWAP1 REVERT JUMPDEST SWAP1 DUP2 PUSH2 0x2C01 PUSH2 0x2BFB PUSH2 0x2BF6 PUSH1 0x0 PUSH2 0x1625 JUMP JUMPDEST PUSH2 0x1CA JUMP JUMPDEST SWAP2 PUSH2 0x1CA JUMP JUMPDEST EQ PUSH2 0x2C1E JUMPI PUSH2 0x2C1C SWAP2 SWAP1 PUSH2 0x2C15 PUSH1 0x0 PUSH2 0x1625 JUMP JUMPDEST SWAP1 SWAP2 PUSH2 0x2EA9 JUMP JUMPDEST JUMP JUMPDEST PUSH2 0x2C43 PUSH2 0x2C2B PUSH1 0x0 PUSH2 0x1625 JUMP JUMPDEST PUSH1 0x0 SWAP2 DUP3 SWAP2 PUSH4 0x4B637E8F PUSH1 0xE1 SHL DUP4 MSTORE PUSH1 0x4 DUP4 ADD PUSH2 0x530 JUMP JUMPDEST SUB SWAP1 REVERT JUMPDEST SWAP1 PUSH1 0x0 PUSH1 0x20 SWAP2 PUSH2 0x2C55 PUSH2 0xB0C JUMP JUMPDEST POP PUSH2 0x2C5E PUSH2 0xB0C JUMP JUMPDEST POP DUP3 DUP2 MLOAD SWAP2 ADD DUP3 DUP6 GAS CALL ISZERO PUSH2 0x2CF6 JUMPI RETURNDATASIZE PUSH1 0x0 MLOAD SWAP1 PUSH2 0x2C85 PUSH2 0x2C7F PUSH1 0x0 PUSH2 0xAD4 JUMP JUMPDEST SWAP2 PUSH2 0x198 JUMP JUMPDEST EQ PUSH1 0x0 EQ PUSH2 0x2CDC JUMPI POP PUSH2 0x2C97 DUP2 PUSH2 0xB7C JUMP JUMPDEST EXTCODESIZE PUSH2 0x2CAB PUSH2 0x2CA5 PUSH1 0x0 PUSH2 0xAD4 JUMP JUMPDEST SWAP2 PUSH2 0x198 JUMP JUMPDEST EQ JUMPDEST PUSH2 0x2CB4 JUMPI POP JUMP JUMPDEST PUSH2 0x2CC0 PUSH2 0x2CD8 SWAP2 PUSH2 0xB7C JUMP JUMPDEST PUSH1 0x0 SWAP2 DUP3 SWAP2 PUSH4 0x5274AFE7 PUSH1 0xE0 SHL DUP4 MSTORE PUSH1 0x4 DUP4 ADD PUSH2 0x530 JUMP JUMPDEST SUB SWAP1 REVERT JUMPDEST PUSH2 0x2CEF PUSH2 0x2CE9 PUSH1 0x1 PUSH2 0x20DE JUMP JUMPDEST SWAP2 PUSH2 0x198 JUMP JUMPDEST EQ ISZERO PUSH2 0x2CAD JUMP JUMPDEST PUSH1 0x40 MLOAD RETURNDATASIZE PUSH1 0x0 DUP3 RETURNDATACOPY RETURNDATASIZE SWAP1 REVERT JUMPDEST PUSH1 0x0 SWAP1 JUMP JUMPDEST SWAP1 JUMP JUMPDEST PUSH2 0x2D1E PUSH2 0x2D19 PUSH2 0x2D23 SWAP3 PUSH2 0x2D07 JUMP JUMPDEST PUSH2 0x94D JUMP JUMPDEST PUSH2 0x2271 JUMP JUMPDEST SWAP1 JUMP JUMPDEST PUSH2 0x2D35 PUSH2 0x2D3B SWAP2 SWAP4 SWAP3 SWAP4 PUSH2 0x2271 JUMP JUMPDEST SWAP3 PUSH2 0x2271 JUMP JUMPDEST SWAP2 PUSH2 0x2D47 DUP4 DUP3 MUL PUSH2 0x2271 JUMP JUMPDEST SWAP3 DUP2 DUP5 DIV EQ SWAP1 ISZERO OR ISZERO PUSH2 0x2D56 JUMPI JUMP JUMPDEST PUSH2 0xC18 JUMP JUMPDEST PUSH2 0x2D70 PUSH2 0x2D83 SWAP2 PUSH2 0x2D6A PUSH2 0x2D02 JUMP JUMPDEST POP PUSH2 0x227C JUMP JUMPDEST PUSH2 0x2D7D PUSH1 0x1 PUSH1 0x70 SHL PUSH2 0x2D0A JUMP JUMPDEST SWAP1 PUSH2 0x2D26 JUMP JUMPDEST SWAP1 JUMP JUMPDEST SWAP1 SWAP3 DUP2 PUSH2 0x2DA4 PUSH2 0x2D9E PUSH2 0x2D99 PUSH1 0x0 PUSH2 0x1625 JUMP JUMPDEST PUSH2 0x1CA JUMP JUMPDEST SWAP2 PUSH2 0x1CA JUMP JUMPDEST EQ PUSH2 0x2E72 JUMPI DUP4 PUSH2 0x2DC5 PUSH2 0x2DBF PUSH2 0x2DBA PUSH1 0x0 PUSH2 0x1625 JUMP JUMPDEST PUSH2 0x1CA JUMP JUMPDEST SWAP2 PUSH2 0x1CA JUMP JUMPDEST EQ PUSH2 0x2E49 JUMPI PUSH2 0x2DE9 DUP4 PUSH2 0x2DE4 PUSH2 0x2DDD PUSH1 0x1 DUP7 SWAP1 PUSH2 0x1EA2 JUMP JUMPDEST DUP8 SWAP1 PUSH2 0x19D3 JUMP JUMPDEST PUSH2 0x1667 JUMP JUMPDEST PUSH2 0x2DF3 JUMPI JUMPDEST POP POP POP JUMP JUMPDEST SWAP2 SWAP1 SWAP2 PUSH2 0x2E3E PUSH2 0x2E2C PUSH2 0x2E26 PUSH32 0x8C5BE1E5EBEC7D5BD14F71427D1E84F3DD0314C0F7B2291E5B200AC8C7C3B925 SWAP4 PUSH2 0xCC6 JUMP JUMPDEST SWAP4 PUSH2 0xCC6 JUMP JUMPDEST SWAP4 PUSH2 0x2E35 PUSH2 0x183 JUMP JUMPDEST SWAP2 DUP3 SWAP2 DUP3 PUSH2 0x588 JUMP JUMPDEST SUB SWAP1 LOG3 CODESIZE DUP1 DUP1 PUSH2 0x2DEE JUMP JUMPDEST PUSH2 0x2E6E PUSH2 0x2E56 PUSH1 0x0 PUSH2 0x1625 JUMP JUMPDEST PUSH1 0x0 SWAP2 DUP3 SWAP2 PUSH4 0x4A1406B1 PUSH1 0xE1 SHL DUP4 MSTORE PUSH1 0x4 DUP4 ADD PUSH2 0x530 JUMP JUMPDEST SUB SWAP1 REVERT JUMPDEST PUSH2 0x2E97 PUSH2 0x2E7F PUSH1 0x0 PUSH2 0x1625 JUMP JUMPDEST PUSH1 0x0 SWAP2 DUP3 SWAP2 PUSH4 0xE602DF05 PUSH1 0xE0 SHL DUP4 MSTORE PUSH1 0x4 DUP4 ADD PUSH2 0x530 JUMP JUMPDEST SUB SWAP1 REVERT JUMPDEST SWAP1 PUSH2 0x2EA6 SWAP2 ADD PUSH2 0x198 JUMP JUMPDEST SWAP1 JUMP JUMPDEST SWAP2 SWAP1 SWAP2 DUP1 PUSH2 0x2EC8 PUSH2 0x2EC2 PUSH2 0x2EBD PUSH1 0x0 PUSH2 0x1625 JUMP JUMPDEST PUSH2 0x1CA JUMP JUMPDEST SWAP2 PUSH2 0x1CA JUMP JUMPDEST EQ PUSH1 0x0 EQ PUSH2 0x2FAD JUMPI PUSH2 0x2EED PUSH2 0x2EE6 DUP4 PUSH2 0x2EE1 PUSH1 0x2 PUSH2 0x148F JUMP JUMPDEST PUSH2 0x22F2 JUMP JUMPDEST PUSH1 0x2 PUSH2 0x1667 JUMP JUMPDEST JUMPDEST DUP3 PUSH2 0x2F0A PUSH2 0x2F04 PUSH2 0x2EFF PUSH1 0x0 PUSH2 0x1625 JUMP JUMPDEST PUSH2 0x1CA JUMP JUMPDEST SWAP2 PUSH2 0x1CA JUMP JUMPDEST EQ PUSH1 0x0 EQ PUSH2 0x2F80 JUMPI PUSH2 0x2F2F PUSH2 0x2F28 DUP4 PUSH2 0x2F23 PUSH1 0x2 PUSH2 0x148F JUMP JUMPDEST PUSH2 0x26EC JUMP JUMPDEST PUSH1 0x2 PUSH2 0x1667 JUMP JUMPDEST JUMPDEST SWAP2 SWAP1 SWAP2 PUSH2 0x2F7B PUSH2 0x2F69 PUSH2 0x2F63 PUSH32 0xDDF252AD1BE2C89B69C2B068FC378DAA952BA7F163C4A11628F55A4DF523B3EF SWAP4 PUSH2 0xCC6 JUMP JUMPDEST SWAP4 PUSH2 0xCC6 JUMP JUMPDEST SWAP4 PUSH2 0x2F72 PUSH2 0x183 JUMP JUMPDEST SWAP2 DUP3 SWAP2 DUP3 PUSH2 0x588 JUMP JUMPDEST SUB SWAP1 LOG3 JUMP JUMPDEST PUSH2 0x2FA8 DUP3 PUSH2 0x2FA2 PUSH2 0x2F93 PUSH1 0x0 DUP8 SWAP1 PUSH2 0x19D3 JUMP JUMPDEST SWAP2 PUSH2 0x2F9D DUP4 PUSH2 0x148F JUMP JUMPDEST PUSH2 0x2E9B JUMP JUMPDEST SWAP1 PUSH2 0x1667 JUMP JUMPDEST PUSH2 0x2F30 JUMP JUMPDEST PUSH2 0x2FC1 PUSH2 0x2FBC PUSH1 0x0 DUP4 SWAP1 PUSH2 0x19D3 JUMP JUMPDEST PUSH2 0x148F JUMP JUMPDEST DUP1 PUSH2 0x2FD4 PUSH2 0x2FCE DUP6 PUSH2 0x198 JUMP JUMPDEST SWAP2 PUSH2 0x198 JUMP JUMPDEST LT PUSH2 0x2FFD JUMPI PUSH2 0x2FE7 PUSH2 0x2FF8 SWAP2 DUP5 SWAP1 PUSH2 0x26EC JUMP JUMPDEST PUSH2 0x2FF3 PUSH1 0x0 DUP5 SWAP1 PUSH2 0x19D3 JUMP JUMPDEST PUSH2 0x1667 JUMP JUMPDEST PUSH2 0x2EEE JUMP JUMPDEST SWAP1 PUSH2 0x301C SWAP1 SWAP2 SWAP3 PUSH1 0x0 SWAP4 DUP5 SWAP4 PUSH4 0x391434E3 PUSH1 0xE2 SHL DUP6 MSTORE PUSH1 0x4 DUP6 ADD PUSH2 0x26B9 JUMP JUMPDEST SUB SWAP1 REVERT INVALID LOG2 PUSH5 0x6970667358 0x22 SLT KECCAK256 PUSH5 0x6CEE990F1E NOT SELFDESTRUCT GT PUSH19 0xEB103AA2F85CDDED62859D16FE970FD983953F EXTCALL DUP15 PUSH2 0x6473 PUSH16 0x6C634300081E00330000000000000000 "
        },
        "methodIdentifiers": {
          "MINIMUM_LIQUIDITY()": "ba9a7a56",
          "allowance(address,address)": "dd62ed3e",
          "approve(address,uint256)": "095ea7b3",
          "balanceOf(address)": "70a08231",
          "burn(address)": "89afcb44",
          "decimals()": "313ce567",
          "factory()": "c45a0155",
          "getReserves()": "0902f1ac",
          "initialize(address,address)": "485cc955",
          "kLast()": "7464fc3d",
          "mint(address)": "6a627842",
          "name()": "06fdde03",
          "price0CumulativeLast()": "5909c0d5",
          "price1CumulativeLast()": "5a3d5493",
          "swap(uint256,uint256,address,bytes)": "022c0d9f",
          "symbol()": "95d89b41",
          "sync()": "fff6cae9",
          "token0()": "0dfe1681",
          "token1()": "d21220a7",
          "totalSupply()": "18160ddd",
          "transfer(address,uint256)": "a9059cbb",
          "transferFrom(address,address,uint256)": "23b872dd"
        }
      }
    }
  }
}