{
  "contracts/DexPair.sol": {
    "DexPair": {
      "abi": [
        {
          "inputs": [],
          "stateMutability": "nonpayable",
          "type": "constructor"
        },
        {
          "inputs": [
            {
              "internalType": "address",
              "name": "spender",
              "type": "address"
            },
            {
              "internalType": "uint256",
              "name": "allowance",
              "type": "uint256"
            },
            {
              "internalType": "uint256",
              "name": "needed",
              "type": "uint256"
            }
          ],
          "name": "ERC20InsufficientAllowance",
          "type": "error"
        },
        {
          "inputs": [
            {
              "internalType": "address",
              "name": "sender",
              "type": "address"
            },
            {
              "internalType": "uint256",
              "name": "balance",
              "type": "uint256"
            },
            {
              "internalType": "uint256",
              "name": "needed",
              "type": "uint256"
            }
          ],
          "name": "ERC20InsufficientBalance",
          "type": "error"
        },
        {
          "inputs": [
            {
              "internalType": "address",
              "name": "approver",
              "type": "address"
            }
          ],
          "name": "ERC20InvalidApprover",
          "type": "error"
        },
        {
          "inputs": [
            {
              "internalType": "address",
              "name": "receiver",
              "type": "address"
            }
          ],
          "name": "ERC20InvalidReceiver",
          "type": "error"
        },
        {
          "inputs": [
            {
              "internalType": "address",
              "name": "sender",
              "type": "address"
            }
          ],
          "name": "ERC20InvalidSender",
          "type": "error"
        },
        {
          "inputs": [
            {
              "internalType": "address",
              "name": "spender",
              "type": "address"
            }
          ],
          "name": "ERC20InvalidSpender",
          "type": "error"
        },
        {
          "inputs": [],
          "name": "InsufficientInputAmount",
          "type": "error"
        },
        {
          "inputs": [],
          "name": "InsufficientLiquidity",
          "type": "error"
        },
        {
          "inputs": [],
          "name": "InsufficientLiquidityBurned",
          "type": "error"
        },
        {
          "inputs": [],
          "name": "InsufficientOutputAmount",
          "type": "error"
        },
        {
          "inputs": [],
          "name": "InvalidK",
          "type": "error"
        },
        {
          "inputs": [],
          "name": "InvalidTo",
          "type": "error"
        },
        {
          "inputs": [],
          "name": "Overflow",
          "type": "error"
        },
        {
          "inputs": [],
          "name": "ReentrancyGuardReentrantCall",
          "type": "error"
        },
        {
          "inputs": [
            {
              "internalType": "address",
              "name": "token",
              "type": "address"
            }
          ],
          "name": "SafeERC20FailedOperation",
          "type": "error"
        },
        {
          "inputs": [],
          "name": "Unauthorized",
          "type": "error"
        },
        {
          "anonymous": false,
          "inputs": [
            {
              "indexed": true,
              "internalType": "address",
              "name": "owner",
              "type": "address"
            },
            {
              "indexed": true,
              "internalType": "address",
              "name": "spender",
              "type": "address"
            },
            {
              "indexed": false,
              "internalType": "uint256",
              "name": "value",
              "type": "uint256"
            }
          ],
          "name": "Approval",
          "type": "event"
        },
        {
          "anonymous": false,
          "inputs": [
            {
              "indexed": true,
              "internalType": "address",
              "name": "sender",
              "type": "address"
            },
            {
              "indexed": false,
              "internalType": "uint256",
              "name": "amount0",
              "type": "uint256"
            },
            {
              "indexed": false,
              "internalType": "uint256",
              "name": "amount1",
              "type": "uint256"
            },
            {
              "indexed": true,
              "internalType": "address",
              "name": "to",
              "type": "address"
            }
          ],
          "name": "Burn",
          "type": "event"
        },
        {
          "anonymous": false,
          "inputs": [
            {
              "indexed": true,
              "internalType": "address",
              "name": "sender",
              "type": "address"
            },
            {
              "indexed": false,
              "internalType": "uint256",
              "name": "amount0",
              "type": "uint256"
            },
            {
              "indexed": false,
              "internalType": "uint256",
              "name": "amount1",
              "type": "uint256"
            }
          ],
          "name": "Mint",
          "type": "event"
        },
        {
          "anonymous": false,
          "inputs": [
            {
              "indexed": true,
              "internalType": "address",
              "name": "sender",
              "type": "address"
            },
            {
              "indexed": false,
              "internalType": "uint256",
              "name": "amount0In",
              "type": "uint256"
            },
            {
              "indexed": false,
              "internalType": "uint256",
              "name": "amount1In",
              "type": "uint256"
            },
            {
              "indexed": false,
              "internalType": "uint256",
              "name": "amount0Out",
              "type": "uint256"
            },
            {
              "indexed": false,
              "internalType": "uint256",
              "name": "amount1Out",
              "type": "uint256"
            },
            {
              "indexed": true,
              "internalType": "address",
              "name": "to",
              "type": "address"
            }
          ],
          "name": "Swap",
          "type": "event"
        },
        {
          "anonymous": false,
          "inputs": [
            {
              "indexed": false,
              "internalType": "uint112",
              "name": "reserve0",
              "type": "uint112"
            },
            {
              "indexed": false,
              "internalType": "uint112",
              "name": "reserve1",
              "type": "uint112"
            }
          ],
          "name": "Sync",
          "type": "event"
        },
        {
          "anonymous": false,
          "inputs": [
            {
              "indexed": true,
              "internalType": "address",
              "name": "from",
              "type": "address"
            },
            {
              "indexed": true,
              "internalType": "address",
              "name": "to",
              "type": "address"
            },
            {
              "indexed": false,
              "internalType": "uint256",
              "name": "value",
              "type": "uint256"
            }
          ],
          "name": "Transfer",
          "type": "event"
        },
        {
          "inputs": [],
          "name": "MINIMUM_LIQUIDITY",
          "outputs": [
            {
              "internalType": "uint256",
              "name": "",
              "type": "uint256"
            }
          ],
          "stateMutability": "view",
          "type": "function"
        },
        {
          "inputs": [
            {
              "internalType": "address",
              "name": "owner",
              "type": "address"
            },
            {
              "internalType": "address",
              "name": "spender",
              "type": "address"
            }
          ],
          "name": "allowance",
          "outputs": [
            {
              "internalType": "uint256",
              "name": "",
              "type": "uint256"
            }
          ],
          "stateMutability": "view",
          "type": "function"
        },
        {
          "inputs": [
            {
              "internalType": "address",
              "name": "spender",
              "type": "address"
            },
            {
              "internalType": "uint256",
              "name": "value",
              "type": "uint256"
            }
          ],
          "name": "approve",
          "outputs": [
            {
              "internalType": "bool",
              "name": "",
              "type": "bool"
            }
          ],
          "stateMutability": "nonpayable",
          "type": "function"
        },
        {
          "inputs": [
            {
              "internalType": "address",
              "name": "account",
              "type": "address"
            }
          ],
          "name": "balanceOf",
          "outputs": [
            {
              "internalType": "uint256",
              "name": "",
              "type": "uint256"
            }
          ],
          "stateMutability": "view",
          "type": "function"
        },
        {
          "inputs": [
            {
              "internalType": "address",
              "name": "to",
              "type": "address"
            }
          ],
          "name": "burn",
          "outputs": [
            {
              "internalType": "uint256",
              "name": "amount0",
              "type": "uint256"
            },
            {
              "internalType": "uint256",
              "name": "amount1",
              "type": "uint256"
            }
          ],
          "stateMutability": "nonpayable",
          "type": "function"
        },
        {
          "inputs": [],
          "name": "decimals",
          "outputs": [
            {
              "internalType": "uint8",
              "name": "",
              "type": "uint8"
            }
          ],
          "stateMutability": "view",
          "type": "function"
        },
        {
          "inputs": [],
          "name": "factory",
          "outputs": [
            {
              "internalType": "address",
              "name": "",
              "type": "address"
            }
          ],
          "stateMutability": "view",
          "type": "function"
        },
        {
          "inputs": [],
          "name": "getReserves",
          "outputs": [
            {
              "internalType": "uint112",
              "name": "_reserve0",
              "type": "uint112"
            },
            {
              "internalType": "uint112",
              "name": "_reserve1",
              "type": "uint112"
            },
            {
              "internalType": "uint32",
              "name": "_blockTimestampLast",
              "type": "uint32"
            }
          ],
          "stateMutability": "view",
          "type": "function"
        },
        {
          "inputs": [
            {
              "internalType": "address",
              "name": "_token0",
              "type": "address"
            },
            {
              "internalType": "address",
              "name": "_token1",
              "type": "address"
            }
          ],
          "name": "initialize",
          "outputs": [],
          "stateMutability": "nonpayable",
          "type": "function"
        },
        {
          "inputs": [],
          "name": "kLast",
          "outputs": [
            {
              "internalType": "uint256",
              "name": "",
              "type": "uint256"
            }
          ],
          "stateMutability": "view",
          "type": "function"
        },
        {
          "inputs": [
            {
              "internalType": "address",
              "name": "to",
              "type": "address"
            }
          ],
          "name": "mint",
          "outputs": [
            {
              "internalType": "uint256",
              "name": "liquidity",
              "type": "uint256"
            }
          ],
          "stateMutability": "nonpayable",
          "type": "function"
        },
        {
          "inputs": [],
          "name": "name",
          "outputs": [
            {
              "internalType": "string",
              "name": "",
              "type": "string"
            }
          ],
          "stateMutability": "view",
          "type": "function"
        },
        {
          "inputs": [],
          "name": "price0CumulativeLast",
          "outputs": [
            {
              "internalType": "uint256",
              "name": "",
              "type": "uint256"
            }
          ],
          "stateMutability": "view",
          "type": "function"
        },
        {
          "inputs": [],
          "name": "price1CumulativeLast",
          "outputs": [
            {
              "internalType": "uint256",
              "name": "",
              "type": "uint256"
            }
          ],
          "stateMutability": "view",
          "type": "function"
        },
        {
          "inputs": [
            {
              "internalType": "uint256",
              "name": "amount0Out",
              "type": "uint256"
            },
            {
              "internalType": "uint256",
              "name": "amount1Out",
              "type": "uint256"
            },
            {
              "internalType": "address",
              "name": "to",
              "type": "address"
            },
            {
              "internalType": "bytes",
              "name": "data",
              "type": "bytes"
            }
          ],
          "name": "swap",
          "outputs": [],
          "stateMutability": "nonpayable",
          "type": "function"
        },
        {
          "inputs": [],
          "name": "symbol",
          "outputs": [
            {
              "internalType": "string",
              "name": "",
              "type": "string"
            }
          ],
          "stateMutability": "view",
          "type": "function"
        },
        {
          "inputs": [],
          "name": "sync",
          "outputs": [],
          "stateMutability": "nonpayable",
          "type": "function"
        },
        {
          "inputs": [],
          "name": "token0",
          "outputs": [
            {
              "internalType": "address",
              "name": "",
              "type": "address"
            }
          ],
          "stateMutability": "view",
          "type": "function"
        },
        {
          "inputs": [],
          "name": "token1",
          "outputs": [
            {
              "internalType": "address",
              "name": "",
              "type": "address"
            }
          ],
          "stateMutability": "view",
          "type": "function"
        },
        {
          "inputs": [],
          "name": "totalSupply",
          "outputs": [
            {
              "internalType": "uint256",
              "name": "",
              "type": "uint256"
            }
          ],
          "stateMutability": "view",
          "type": "function"
        },
        {
          "inputs": [
            {
              "internalType": "address",
              "name": "to",
              "type": "address"
            },
            {
              "internalType": "uint256",
              "name": "value",
              "type": "uint256"
            }
          ],
          "name": "transfer",
          "outputs": [
            {
              "internalType": "bool",
              "name": "",
              "type": "bool"
            }
          ],
          "stateMutability": "nonpayable",
          "type": "function"
        },
        {
          "inputs": [
            {
              "internalType": "address",
              "name": "from",
              "type": "address"
            },
            {
              "internalType": "address",
              "name": "to",
              "type": "address"
            },
            {
              "internalType": "uint256",
              "name": "value",
              "type": "uint256"
            }
          ],
          "name": "transferFrom",
          "outputs": [
            {
              "internalType": "bool",
              "name": "",
              "type": "bool"
            }
          ],
          "stateMutability": "nonpayable",
          "type": "function"
        }
      ],
      "evm": {
        "bytecode": {
          "linkReferences": {},
          "object": "608060405234610027576100116101e9565b61001961002c565b613082610507823961308290f35b610032565b60405190565b600080fd5b601f801991011690565b634e487b7160e01b600052604160045260246000fd5b9061006190610037565b810190811060018060401b0382111761007957604052565b610041565b9061009161008a61002c565b9283610057565b565b60018060401b0381116100af576100ab602091610037565b0190565b610041565b906100c66100c183610093565b61007e565b918252565b60007f444558204c5020546f6b656e0000000000000000000000000000000000000000910152565b6100fd600c6100b4565b9061010a602083016100cb565b565b6101146100f3565b90565b60007f4445582d4c500000000000000000000000000000000000000000000000000000910152565b61014960066100b4565b9061015660208301610117565b565b61016061013f565b90565b60001b90565b9061017a60018060a01b0391610163565b9181191691161790565b60018060a01b031690565b90565b6101a66101a16101ab92610184565b61018f565b610184565b90565b6101b790610192565b90565b6101c3906101ae565b90565b90565b906101de6101d96101e5926101ba565b6101c6565b8254610169565b9055565b6102026101f461010c565b6101fc610158565b90610294565b61020d3360066101c9565b565b90565b90565b61022961022461022e9261020f565b61018f565b610212565b90565b61023b6001610215565b90565b9061024b60001991610163565b9181191691161790565b61026961026461026e92610212565b61018f565b610212565b90565b90565b9061028961028461029092610255565b610271565b825461023e565b9055565b9061029e916104ee565b6102b06102a9610231565b6005610274565b565b5190565b634e487b7160e01b600052602260045260246000fd5b90600160028304921680156102ec575b60208310146102e757565b6102b6565b91607f16916102dc565b600052602060002090565b601f602091010490565b1b90565b9190600861032b9102916103256000198461030b565b9261030b565b9181191691161790565b919061034b61034661035393610255565b610271565b90835461030f565b9055565b600090565b61036e91610368610357565b91610335565b565b5b81811061037c575050565b8061038a600060019361035c565b01610371565b9190601f81116103a0575b505050565b6103ac6103d1936102f6565b9060206103b884610301565b830193106103d9575b6103ca90610301565b0190610370565b38808061039b565b91506103ca819290506103c1565b1c90565b906103fc90600019906008026103e7565b191690565b8161040b916103eb565b906002021790565b9061041d816102b2565b9060018060401b0382116104dd5761043f8261043985546102cc565b85610390565b602090601f83116001146104745791809161046393600092610468575b5050610401565b90555b565b9091500151388061045c565b601f19831691610483856102f6565b9260005b8181106104c5575091600293918560019694106104ab575b50505002019055610466565b6104bb910151601f8416906103eb565b905538808061049f565b91936020600181928787015181550195019201610487565b610041565b906104ec91610413565b565b906104fd6105049260036104e2565b60046104e2565b56fe60806040526004361015610013575b610aad565b61001e60003561017d565b8063022c0d9f1461017857806306fdde03146101735780630902f1ac1461016e578063095ea7b3146101695780630dfe16811461016457806318160ddd1461015f57806323b872dd1461015a578063313ce56714610155578063485cc955146101505780635909c0d51461014b5780635a3d5493146101465780636a6278421461014157806370a082311461013c5780637464fc3d1461013757806389afcb441461013257806395d89b411461012d578063a9059cbb14610128578063ba9a7a5614610123578063c45a01551461011e578063d21220a714610119578063dd62ed3e146101145763fff6cae90361000e57610a7a565b610a44565b610a0f565b6109ca565b610985565b610914565b6108df565b6108a9565b610850565b61080b565b6107d6565b610782565b61073d565b6106d0565b61066d565b61060e565b61059e565b610546565b6104a8565b61041a565b61037c565b6102af565b60e01c90565b60405190565b600080fd5b600080fd5b600080fd5b90565b6101a481610198565b036101ab57565b600080fd5b905035906101bd8261019b565b565b60018060a01b031690565b6101d3906101bf565b90565b6101df816101ca565b036101e657565b600080fd5b905035906101f8826101d6565b565b600080fd5b600080fd5b600080fd5b909182601f830112156102435781359167ffffffffffffffff831161023e57602001926001830284011161023957565b610204565b6101ff565b6101fa565b906080828203126102a45761026081600084016101b0565b9261026e82602085016101b0565b9261027c83604083016101eb565b92606082013567ffffffffffffffff811161029f5761029b9201610209565b9091565b610193565b61018e565b60000190565b346102e1576102cb6102c2366004610248565b9392909261123f565b6102d3610183565b806102dd816102a9565b0390f35b610189565b60009103126102f157565b61018e565b5190565b60209181520190565b60005b838110610317575050906000910152565b806020918301518185015201610306565b601f801991011690565b61035161035a60209361035f93610348816102f6565b938480936102fa565b95869101610303565b610328565b0190565b6103799160208201916000818403910152610332565b90565b346103ac5761038c3660046102e6565b6103a8610397611371565b61039f610183565b91829182610363565b0390f35b610189565b6dffffffffffffffffffffffffffff1690565b6103cd906103b1565b9052565b63ffffffff1690565b6103e3906103d1565b9052565b6040906104116104189496959396610407606084019860008501906103c4565b60208301906103c4565b01906103da565b565b3461044d5761042a3660046102e6565b610449610435611416565b610440939193610183565b938493846103e7565b0390f35b610189565b919060408382031261047b578061046f61047892600086016101eb565b936020016101b0565b90565b61018e565b151590565b61048e90610480565b9052565b91906104a690600060208501940190610485565b565b346104d9576104d56104c46104be366004610452565b90611459565b6104cc610183565b91829182610492565b0390f35b610189565b1c90565b60018060a01b031690565b6104fd90600861050293026104de565b6104e2565b90565b9061051091546104ed565b90565b6105206007600090610505565b90565b61052c906101ca565b9052565b919061054490600060208501940190610523565b565b34610576576105563660046102e6565b610572610561610513565b610569610183565b91829182610530565b0390f35b610189565b61058490610198565b9052565b919061059c9060006020850194019061057b565b565b346105ce576105ae3660046102e6565b6105ca6105b961149c565b6105c1610183565b91829182610588565b0390f35b610189565b9091606082840312610609576106066105ef84600085016101eb565b936105fd81602086016101eb565b936040016101b0565b90565b61018e565b3461063f5761063b61062a6106243660046105d3565b916114b2565b610632610183565b91829182610492565b0390f35b610189565b60ff1690565b61065390610644565b9052565b919061066b9060006020850194019061064a565b565b3461069d5761067d3660046102e6565b610699610688611505565b610690610183565b91829182610657565b0390f35b610189565b91906040838203126106cb57806106bf6106c892600086016101eb565b936020016101eb565b90565b61018e565b346106ff576106e96106e33660046106a2565b9061155f565b6106f1610183565b806106fb816102a9565b0390f35b610189565b90565b61071790600861071c93026104de565b610704565b90565b9061072a9154610707565b90565b61073a600a60009061071f565b90565b3461076d5761074d3660046102e6565b61076961075861072d565b610760610183565b91829182610588565b0390f35b610189565b61077f600b60009061071f565b90565b346107b2576107923660046102e6565b6107ae61079d610772565b6107a5610183565b91829182610588565b0390f35b610189565b906020828203126107d1576107ce916000016101eb565b90565b61018e565b34610806576108026107f16107ec3660046107b7565b6119c3565b6107f9610183565b91829182610588565b0390f35b610189565b3461083b576108376108266108213660046107b7565b6119ef565b61082e610183565b91829182610588565b0390f35b610189565b61084d600c60009061071f565b90565b34610880576108603660046102e6565b61087c61086b610840565b610873610183565b91829182610588565b0390f35b610189565b9160206108a79294936108a06040820196600083019061057b565b019061057b565b565b346108da576108c16108bc3660046107b7565b611e50565b906108d66108cd610183565b92839283610885565b0390f35b610189565b3461090f576108ef3660046102e6565b61090b6108fa611e6e565b610902610183565b91829182610363565b0390f35b610189565b346109455761094161093061092a366004610452565b90611e84565b610938610183565b91829182610492565b0390f35b610189565b90565b90565b61096461095f6109699261094a565b61094d565b610198565b90565b6109776103e8610950565b90565b61098261096c565b90565b346109b5576109953660046102e6565b6109b16109a061097a565b6109a8610183565b91829182610588565b0390f35b610189565b6109c76006600090610505565b90565b346109fa576109da3660046102e6565b6109f66109e56109ba565b6109ed610183565b91829182610530565b0390f35b610189565b610a0c6008600090610505565b90565b34610a3f57610a1f3660046102e6565b610a3b610a2a6109ff565b610a32610183565b91829182610530565b0390f35b610189565b34610a7557610a71610a60610a5a3660046106a2565b90611ebe565b610a68610183565b91829182610588565b0390f35b610189565b34610aa857610a8a3660046102e6565b610a92612050565b610a9a610183565b80610aa4816102a9565b0390f35b610189565b600080fd5b90610ac794939291610ac2612086565b610d11565b610acf61210b565b565b90565b610ae8610ae3610aed92610ad1565b61094d565b610198565b90565b610b04610aff610b09926103b1565b61094d565b610198565b90565b600090565b60001c90565b610b23610b2891610b11565b6104e2565b90565b610b359054610b17565b90565b610b4c610b47610b51926101bf565b61094d565b6101bf565b90565b610b5d90610b38565b90565b610b6990610b54565b90565b5090565b610b7990610b38565b90565b610b8590610b70565b90565b610b9190610b70565b90565b634e487b7160e01b600052604160045260246000fd5b90610bb490610328565b810190811067ffffffffffffffff821117610bce57604052565b610b94565b60e01b90565b90505190610be68261019b565b565b90602082820312610c0257610bff91600001610bd9565b90565b61018e565b610c0f610183565b3d6000823e3d90fd5b634e487b7160e01b600052601160045260246000fd5b610c3d610c4391939293610198565b92610198565b8203918211610c4e57565b610c18565b610c62610c6891939293610198565b92610198565b91610c74838202610198565b928184041490151715610c8357565b610c18565b90565b610c9f610c9a610ca492610c88565b61094d565b610198565b90565b90565b610cbe610cb9610cc392610ca7565b61094d565b610198565b90565b610ccf90610b70565b90565b610d08610d0f94610cfe606094989795610cf4608086019a600087019061057b565b602085019061057b565b604083019061057b565b019061057b565b565b9093919281610d29610d236000610ad4565b91610198565b1480611224575b61120757610d3c611416565b509190919383610d54610d4e85610af0565b91610198565b101580156111ec575b6111cf57610d69610b0c565b50610d72610b0c565b50610d7d6007610b2b565b610d876008610b2b565b9287610d9b610d95846101ca565b916101ca565b1480156111b5575b61119857610e13602092610df5610e4a95610e18948a610dcc610dc66000610ad4565b91610198565b1161117e575b8d8d81610de8610de26000610ad4565b91610198565b11611162575b5050610b6c565b610e08610e026000610ad4565b91610198565b1161115d575b610b60565b610b7c565b6370a0823190610e3f610e2a30610b88565b92610e33610183565b95869485938493610bd3565b835260048301610530565b03915afa90811561115857610e76610e71610ea89360209360009161112b575b5094610b60565b610b7c565b6370a0823190610e9d610e8830610b88565b92610e91610183565b95869485938493610bd3565b835260048301610530565b03915afa908115611126576000916110f8575b5081610ee1610edb610ed686610ed18991610af0565b610c2e565b610198565b91610198565b116000146110e957610f0682610f0085610efb8891610af0565b610c2e565b90610c2e565b5b9481610f2d610f27610f2284610f1d8d91610af0565b610c2e565b610198565b91610198565b116000146110da57610f5282610f4c83610f478c91610af0565b610c2e565b90610c2e565b5b9386610f68610f626000610ad4565b91610198565b14806110bf575b6110a257610fe0610fa8610f8e86610f886103e8610950565b90610c53565b610fa28a610f9c6003610c8b565b90610c53565b90610c2e565b610fda610fc086610fba6103e8610950565b90610c53565b610fd489610fce6003610c8b565b90610c53565b90610c2e565b90610c53565b61102161101b611016611004610ff586610af0565b610ffe88610af0565b90610c53565b611010620f4240610caa565b90610c53565b610198565b91610198565b10611085576110339392909192612464565b611080339391929561106e6110687fd78ad95fa46c994b6551d0da85fc275fe613ce37657fb8d5e3d130840159d82296610cc6565b96610cc6565b96611077610183565b94859485610cd2565b0390a3565b6000632f62f0d960e21b81528061109e600482016102a9565b0390fd5b600063098fb56160e01b8152806110bb600482016102a9565b0390fd5b50846110d46110ce6000610ad4565b91610198565b14610f6f565b6110e46000610ad4565b610f53565b6110f36000610ad4565b610f07565b611119915060203d811161111f575b6111118183610baa565b810190610be8565b38610ebb565b503d611107565b610c07565b61114b9150843d8111611151575b6111438183610baa565b810190610be8565b38610e6a565b503d611139565b610c07565b610e0e565b6111779161116f8c610b60565b91909161216b565b8d8d610dee565b6111938d61118b86610b60565b908d9161216b565b610dd2565b6000630521f43160e31b8152806111b1600482016102a9565b0390fd5b50876111c96111c3866101ca565b916101ca565b14610da3565b600063bb55fd2760e01b8152806111e8600482016102a9565b0390fd5b50866112006111fa87610af0565b91610198565b1015610d5d565b60006342301c2360e01b815280611220600482016102a9565b0390fd5b50846112396112336000610ad4565b91610198565b14610d30565b9061124c94939291610ab2565b565b606090565b634e487b7160e01b600052602260045260246000fd5b9060016002830492168015611289575b602083101461128457565b611253565b91607f1691611279565b60209181520190565b600052602060002090565b90600092918054906112c26112bb83611269565b8094611293565b9160018116908160001461131b57506001146112de575b505050565b6112eb919293945061129c565b916000925b81841061130357505001903880806112d9565b600181602092959395548486015201910192906112f0565b92949550505060ff19168252151560200201903880806112d9565b90611340916112a7565b90565b9061136361135c92611353610183565b93848092611336565b0383610baa565b565b61136e90611343565b90565b61137961124e565b506113846003611365565b90565b600090565b600090565b6dffffffffffffffffffffffffffff1690565b6113b06113b591610b11565b611391565b90565b6113c290546113a4565b90565b60701c90565b6113d76113dc916113c5565b611391565b90565b6113e990546113cb565b90565b63ffffffff1690565b6114016114069161017d565b6113ec565b90565b61141390546113f5565b90565b61141e611387565b50611427611387565b5061143061138c565b5061143b60096113b8565b9061144660096113df565b906114516009611409565b90565b600090565b61147691611465611454565b5061146e6126a0565b9190916126ad565b600190565b61148761148c91610b11565b610704565b90565b611499905461147b565b90565b6114a4610b0c565b506114af600261148f565b90565b916114dc926114bf611454565b506114d46114cb6126a0565b829084916126fe565b9190916127b5565b600190565b600090565b90565b6114fd6114f8611502926114e6565b61094d565b610644565b90565b61150d6114e1565b5061151860126114e9565b90565b60001b90565b9061153260018060a01b039161151b565b9181191691161790565b90565b9061155461154f61155b92610cc6565b61153c565b8254611521565b9055565b903361157c6115766115716006610b2b565b6101ca565b916101ca565b036115985761158f61159692600761153f565b600861153f565b565b60006282b42960e81b8152806115b0600482016102a9565b0390fd5b906115c6916115c1612086565b61168a565b906115cf61210b565b565b634e487b7160e01b600052601260045260246000fd5b6115f36115f991610198565b91610198565b908115611604570490565b6115d1565b90565b61162061161b61162592611609565b61094d565b6101bf565b90565b6116319061160c565b90565b906116416000199161151b565b9181191691161790565b61165f61165a61166492610198565b61094d565b610198565b90565b90565b9061167f61167a6116869261164b565b611667565b8254611634565b9055565b91909150816116a96116a361169e30610b88565b6101ca565b916101ca565b146119a6576116b6611416565b509290929061170c60206116da6116d56116d06007610b2b565b610b60565b610b7c565b6370a08231906117016116ec30610b88565b926116f5610183565b95869485938493610bd3565b835260048301610530565b03915afa9081156119a157600091611973575b5093611772602061174061173b6117366008610b2b565b610b60565b610b7c565b6370a082319061176761175230610b88565b9261175b610183565b95869485938493610bd3565b835260048301610530565b03915afa90811561196e57600091611940575b509161179a8661179484610af0565b90610c2e565b926117ae816117a887610af0565b90610c2e565b946117ba8482906128c9565b936117c361149c565b806117d76117d16000610ad4565b91610198565b146000146118f757506118046117f66117f1888a90610c53565b612adf565b6117fe61096c565b90610c2e565b9861182161181361dead611628565b61181b61096c565b90612bae565b5b896118366118306000610ad4565b91610198565b146118da57611849611852958b90612bae565b92909192612464565b61189e575b3390916118847f4c209b5fc8ad50758f13e2e1088ba56a560dff690a1c6fef26394f4c03821c4f92610cc6565b92611899611890610183565b92839283610885565b0390a2565b6118d56118ce6118b66118b160096113b8565b610af0565b6118c86118c360096113df565b610af0565b90610c53565b600c61166a565b611857565b600063bb55fd2760e01b8152806118f3600482016102a9565b0390fd5b61193a9061193461192561191e61190f8b8590610c53565b61191887610af0565b906115e7565b928b610c53565b61192e86610af0565b906115e7565b90612aae565b98611822565b611961915060203d8111611967575b6119598183610baa565b810190610be8565b38611785565b503d61194f565b610c07565b611994915060203d811161199a575b61198c8183610baa565b810190610be8565b3861171f565b503d611982565b610c07565b6000630521f43160e31b8152806119bf600482016102a9565b0390fd5b6119d4906119cf610b0c565b6115b4565b90565b906119e190610cc6565b600052602052604060002090565b611a06611a0b916119fe610b0c565b5060006119d7565b61148f565b90565b90611a219291611a1c612086565b611a2d565b9091611a2b61210b565b565b929192505081611a4d611a47611a4230610b88565b6101ca565b916101ca565b14611e3357611a5a611416565b5091909192611a696007610b2b565b611a736008610b2b565b90611abc6020611a8a611a8584610b60565b610b7c565b6370a0823190611ab1611a9c30610b88565b92611aa5610183565b95869485938493610bd3565b835260048301610530565b03915afa908115611e2e57600091611e00575b5091611b196020611ae7611ae284610b60565b610b7c565b6370a0823190611b0e611af930610b88565b92611b02610183565b95869485938493610bd3565b835260048301610530565b03915afa908115611dfb57600091611dcd575b5096611b3f611b3a30610b88565b6119ef565b96611b7a611b4e8284906128c9565b95611b75611b6e611b67611b6061149c565b938d610c53565b83906115e7565b9b8b610c53565b6115e7565b9789611b8f611b896000610ad4565b91610198565b148015611db2575b611d9557611bee611be9611c2096611bb9602094611bb430610b88565b612c10565b611bcf8d611bc683610b60565b908c909161216b565b611be4611bdb88610b60565b8d8c909161216b565b610b60565b610b7c565b6370a0823190611c15611c0030610b88565b92611c09610183565b98899485938493610bd3565b835260048301610530565b03915afa938415611d9057611c4c611c47611c7e96602093600091611d63575b5095610b60565b610b7c565b6370a0823190611c73611c5e30610b88565b92611c67610183565b98899485938493610bd3565b835260048301610530565b03915afa8015611d5e57611c9d94600091611d30575b50909192612464565b611cf4575b3390849184611cda611cd47fdccd412f0b1252819cb1fd330b93224ca42612892bb3f4f789976e6d8193649693610cc6565b93610cc6565b93611cef611ce6610183565b92839283610885565b0390a3565b611d2b611d24611d0c611d0760096113b8565b610af0565b611d1e611d1960096113df565b610af0565b90610c53565b600c61166a565b611ca2565b611d51915060203d8111611d57575b611d498183610baa565b810190610be8565b38611c94565b503d611d3f565b610c07565b611d839150843d8111611d89575b611d7b8183610baa565b810190610be8565b38611c40565b503d611d71565b610c07565b600063749383ad60e01b815280611dae600482016102a9565b0390fd5b5088611dc7611dc16000610ad4565b91610198565b14611b97565b611dee915060203d8111611df4575b611de68183610baa565b810190610be8565b38611b2c565b503d611ddc565b610c07565b611e21915060203d8111611e27575b611e198183610baa565b810190610be8565b38611acf565b503d611e0f565b610c07565b6000630521f43160e31b815280611e4c600482016102a9565b0390fd5b611e6a90611e5c610b0c565b611e64610b0c565b90611a0e565b9091565b611e7661124e565b50611e816004611365565b90565b611ea191611e90611454565b50611e996126a0565b9190916127b5565b600190565b90611eb090610cc6565b600052602052604060002090565b611ee391611ed9611ede92611ed1610b0c565b506001611ea6565b6119d7565b61148f565b90565b611eee612086565b611ef6611f00565b611efe61210b565b565b611f516020611f1f611f1a611f156007610b2b565b610b60565b610b7c565b6370a0823190611f46611f3130610b88565b92611f3a610183565b95869485938493610bd3565b835260048301610530565b03915afa801561204b57611fb69160009161201d575b506020611f84611f7f611f7a6008610b2b565b610b60565b610b7c565b6370a0823190611fab611f9630610b88565b92611f9f610183565b96879485938493610bd3565b835260048301610530565b03915afa801561201857611fe892600091611fea575b50611fd760096113b8565b90611fe260096113df565b92612464565b565b61200b915060203d8111612011575b6120038183610baa565b810190610be8565b38611fcc565b503d611ff9565b610c07565b61203e915060203d8111612044575b6120368183610baa565b810190610be8565b38611f67565b503d61202c565b610c07565b612058611ee6565b565b90565b61207161206c6120769261205a565b61094d565b610198565b90565b612083600261205d565b90565b612090600561148f565b6120a96120a361209e612079565b610198565b91610198565b146120c2576120c06120b9612079565b600561166a565b565b6000633ee5aeb560e01b8152806120db600482016102a9565b0390fd5b90565b6120f66120f16120fb926120df565b61094d565b610198565b90565b61210860016120e2565b90565b61211d6121166120fe565b600561166a565b565b63ffffffff60e01b1690565b61213f61213a612144926103d1565b610bd3565b61211f565b90565b91602061216992949361216260408201966000830190610523565b019061057b565b565b906121b26121b7936121a36004949361218a63a9059cbb91939161212b565b92612193610183565b9687946020860190815201612147565b60208201810382520383610baa565b612c73565b565b90565b6121d06121cb6121d5926121b9565b61094d565b610198565b90565b6121e46121ea91610198565b91610198565b9081156121f5570690565b6115d1565b61220e61220961221392610198565b61094d565b6103d1565b90565b612222612228916103d1565b916103d1565b90039063ffffffff821161223857565b610c18565b61225161224c61225692610ad1565b61094d565b6103d1565b90565b61226d61226861227292610ad1565b61094d565b6103b1565b90565b60018060e01b031690565b61229461228f612299926103b1565b61094d565b612275565b90565b6122a86122ae91612275565b91612275565b9081156122b9570490565b6115d1565b6122d26122cd6122d792612275565b61094d565b610198565b90565b6122ee6122e96122f3926103d1565b61094d565b610198565b90565b61230561230b91939293610198565b92610198565b820180921161231657565b610c18565b61232f61232a61233492610198565b61094d565b6103b1565b90565b906123506dffffffffffffffffffffffffffff9161151b565b9181191691161790565b61236e612369612373926103b1565b61094d565b6103b1565b90565b90565b9061238e6123896123959261235a565b612376565b8254612337565b9055565b60701b90565b906123bb6dffffffffffffffffffffffffffff60701b91612399565b9181191691161790565b906123da6123d56123e19261235a565b612376565b825461239f565b9055565b906123f763ffffffff60e01b91610bd3565b9181191691161790565b61241561241061241a926103d1565b61094d565b6103d1565b90565b90565b9061243561243061243c92612401565b61241d565b82546123e5565b9055565b91602061246292949361245b604082019660008301906103c4565b01906103c4565b565b9092816124876124816dffffffffffffffffffffffffffff610af0565b91610198565b118015612673575b612656576125239361251061250961251c94612515946124c56124c0426124ba6401000000006121bc565b906121d8565b6121fa565b976124da896124d46009611409565b90612216565b91826124ef6124e9600061223d565b916103d1565b118061263a575b8061261e575b612572575b50505061231b565b6009612379565b61231b565b60096123c5565b6009612420565b61252d60096113b8565b61253760096113df565b7f1c411e9a96e071241c2f21f7726b17ae89e3cab4c78be50e062b03a9fffbbad19161256d612564610183565b92839283612440565b0390a1565b612616926125fa6125f46125ef846125e96125e361260f986125de6125d76125c86125b96125b46125a56126009e612d87565b6125ae87612280565b9061229c565b6122be565b6125c28c6122da565b90610c53565b6125d2600a61148f565b6122f6565b600a61166a565b612d87565b91612280565b9061229c565b6122be565b916122da565b90610c53565b61260a600b61148f565b6122f6565b600b61166a565b388080612501565b508061263361262d6000612259565b916103b1565b14156124fc565b508161264f6126496000612259565b916103b1565b14156124f6565b6000631a93c68960e11b81528061266f600482016102a9565b0390fd5b508361269561268f6dffffffffffffffffffffffffffff610af0565b91610198565b1161248f565b600090565b6126a861269b565b503390565b916126bb9291600192612db2565b565b6040906126e76126ee94969593966126dd60608401986000850190610523565b602083019061057b565b019061057b565b565b906126fb9103610198565b90565b92919261270c818390611ebe565b908161272261271c600019610198565b91610198565b1061272f575b5050509050565b8161274261273c87610198565b91610198565b106127695761276093946127579193926126f0565b90600092612db2565b80388080612728565b50612789849291926000938493637dc7a0d960e11b8552600485016126bd565b0390fd5b6127a161279c6127a692610ad1565b61094d565b6101bf565b90565b6127b29061278d565b90565b91826127d26127cc6127c760006127a9565b6101ca565b916101ca565b1461282f57816127f36127ed6127e860006127a9565b6101ca565b916101ca565b146128065761280492919091612ed5565b565b61282b61281360006127a9565b600091829163ec442f0560e01b835260048301610530565b0390fd5b61285461283c60006127a9565b6000918291634b637e8f60e11b835260048301610530565b0390fd5b61286190610b38565b90565b61286d90612858565b90565b61287990610b70565b90565b90505190612889826101d6565b565b906020828203126128a5576128a29160000161287c565b90565b61018e565b90565b6128c16128bc6128c6926128aa565b61094d565b610198565b90565b91906128d3611454565b5061290960206128f36128ee6128e96006610b2b565b612864565b612870565b63017e7e5890612901610183565b938492610bd3565b82528180612919600482016102a9565b03915afa908115612aa957600091612a7b575b50908161294a61294461293f60006127a9565b6101ca565b916101ca565b141593612957600c61148f565b9185600014612a40578261297461296e6000610ad4565b91610198565b03612981575b505050505b565b6129a36129a89161299d6129976129ae95610af0565b91610af0565b90610c53565b612adf565b91612adf565b90806129c26129bc84610198565b91610198565b116129ce575b8061297a565b612a0a612a1092612a056129f46129e361149c565b6129ee868590610c2e565b90610c53565b936129ff60056128ad565b90610c53565b6122f6565b906115e7565b80612a24612a1e6000610ad4565b91610198565b11612a30575b806129c8565b612a3991612bae565b3880612a2a565b50509050612a57612a516000610ad4565b91610198565b03612a62575b61297f565b612a76612a6f6000610ad4565b600c61166a565b612a5d565b612a9c915060203d8111612aa2575b612a948183610baa565b81019061288b565b3861292c565b503d612a8a565b610c07565b90612ab7610b0c565b5081612acb612ac583610198565b91610198565b10600014612ad857505b90565b9050612ad5565b612ae7610b0c565b81612afb612af56003610c8b565b91610198565b11600014612b7c575080612b2c612b1c83612b16600261205d565b906115e7565b612b2660016120e2565b906122f6565b905b81612b41612b3b83610198565b91610198565b1015612b755750612b6f612b5f82612b5a8582906115e7565b6122f6565b612b69600261205d565b906115e7565b90612b2e565b929150505b565b9190612b91612b8b6000610ad4565b91610198565b03612b9c575b612b7a565b9050612ba860016120e2565b90612b97565b80612bca612bc4612bbf60006127a9565b6101ca565b916101ca565b14612be757612be591612bdd60006127a9565b919091612ed5565b565b612c0c612bf460006127a9565b600091829163ec442f0560e01b835260048301610530565b0390fd5b9081612c2d612c27612c2260006127a9565b6101ca565b916101ca565b14612c4a57612c489190612c4160006127a9565b9091612ed5565b565b612c6f612c5760006127a9565b6000918291634b637e8f60e11b835260048301610530565b0390fd5b906000602091612c81610b0c565b50612c8a610b0c565b50828151910182855af115612d22573d60005190612cb1612cab6000610ad4565b91610198565b14600014612d085750612cc381610b7c565b3b612cd7612cd16000610ad4565b91610198565b145b612ce05750565b612cec612d0491610b7c565b6000918291635274afe760e01b835260048301610530565b0390fd5b612d1b612d1560016120e2565b91610198565b1415612cd9565b6040513d6000823e3d90fd5b600090565b90565b612d4a612d45612d4f92612d33565b61094d565b612275565b90565b612d61612d6791939293612275565b92612275565b91612d73838202612275565b928184041490151715612d8257565b610c18565b612d9c612daf91612d96612d2e565b50612280565b612da9600160701b612d36565b90612d52565b90565b909281612dd0612dca612dc560006127a9565b6101ca565b916101ca565b14612e9e5783612df1612deb612de660006127a9565b6101ca565b916101ca565b14612e7557612e1583612e10612e0960018690611ea6565b87906119d7565b61166a565b612e1f575b505050565b919091612e6a612e58612e527f8c5be1e5ebec7d5bd14f71427d1e84f3dd0314c0f7b2291e5b200ac8c7c3b92593610cc6565b93610cc6565b93612e61610183565b91829182610588565b0390a3388080612e1a565b612e9a612e8260006127a9565b6000918291634a1406b160e11b835260048301610530565b0390fd5b612ec3612eab60006127a9565b600091829163e602df0560e01b835260048301610530565b0390fd5b90612ed29101610198565b90565b91909180612ef4612eee612ee960006127a9565b6101ca565b916101ca565b14600014612fd957612f19612f1283612f0d600261148f565b6122f6565b600261166a565b5b82612f36612f30612f2b60006127a9565b6101ca565b916101ca565b14600014612fac57612f5b612f5483612f4f600261148f565b6126f0565b600261166a565b5b919091612fa7612f95612f8f7fddf252ad1be2c89b69c2b068fc378daa952ba7f163c4a11628f55a4df523b3ef93610cc6565b93610cc6565b93612f9e610183565b91829182610588565b0390a3565b612fd482612fce612fbf600087906119d7565b91612fc98361148f565b612ec7565b9061166a565b612f5c565b612fed612fe8600083906119d7565b61148f565b80613000612ffa85610198565b91610198565b10613029576130136130249184906126f0565b61301f600084906119d7565b61166a565b612f1a565b90613048909192600093849363391434e360e21b8552600485016126bd565b0390fdfea26469706673582212205bfd44fd13409b42551b4ec8d02c5dd3513b06c86e2916dfd23d0310b6ddc88064736f6c634300081e0033",
          "opcodes": "PUSH1 0x80 PUSH1 0x40 MSTORE CALLVALUE PUSH2 0x27 JUMPI PUSH2 0x11 PUSH2 0x1E9 JUMP JUMPDEST PUSH2 0x19 PUSH2 0x2C JUMP JUMPDEST PUSH2 0x3082 PUSH2 0x507 DUP3 CODECOPY PUSH2 0x3082 SWAP1 RETURN JUMPDEST PUSH2 0x32 JUMP JUMPDEST PUSH1 0x40 MLOAD SWAP1 JUMP JUMPDEST PUSH1 0x0 DUP1 REVERT JUMPDEST PUSH1 0x1F DUP1 NOT SWAP2 ADD AND SWAP1 JUMP JUMPDEST PUSH4 0x4E487B71 PUSH1 0xE0 SHL PUSH1 0x0 MSTORE PUSH1 0x41 PUSH1 0x4 MSTORE PUSH1 0x24 PUSH1 0x0 REVERT JUMPDEST SWAP1 PUSH2 0x61 SWAP1 PUSH2 0x37 JUMP JUMPDEST DUP2 ADD SWAP1 DUP2 LT PUSH1 0x1 DUP1 PUSH1 0x40 SHL SUB DUP3 GT OR PUSH2 0x79 JUMPI PUSH1 0x40 MSTORE JUMP JUMPDEST PUSH2 0x41 JUMP JUMPDEST SWAP1 PUSH2 0x91 PUSH2 0x8A PUSH2 0x2C JUMP JUMPDEST SWAP3 DUP4 PUSH2 0x57 JUMP JUMPDEST JUMP JUMPDEST PUSH1 0x1 DUP1 PUSH1 0x40 SHL SUB DUP2 GT PUSH2 0xAF JUMPI PUSH2 0xAB PUSH1 0x20 SWAP2 PUSH2 0x37 JUMP JUMPDEST ADD SWAP1 JUMP JUMPDEST PUSH2 0x41 JUMP JUMPDEST SWAP1 PUSH2 0xC6 PUSH2 0xC1 DUP4 PUSH2 0x93 JUMP JUMPDEST PUSH2 0x7E JUMP JUMPDEST SWAP2 DUP3 MSTORE JUMP JUMPDEST PUSH1 0x0 PUSH32 0x444558204C5020546F6B656E0000000000000000000000000000000000000000 SWAP2 ADD MSTORE JUMP JUMPDEST PUSH2 0xFD PUSH1 0xC PUSH2 0xB4 JUMP JUMPDEST SWAP1 PUSH2 0x10A PUSH1 0x20 DUP4 ADD PUSH2 0xCB JUMP JUMPDEST JUMP JUMPDEST PUSH2 0x114 PUSH2 0xF3 JUMP JUMPDEST SWAP1 JUMP JUMPDEST PUSH1 0x0 PUSH32 0x4445582D4C500000000000000000000000000000000000000000000000000000 SWAP2 ADD MSTORE JUMP JUMPDEST PUSH2 0x149 PUSH1 0x6 PUSH2 0xB4 JUMP JUMPDEST SWAP1 PUSH2 0x156 PUSH1 0x20 DUP4 ADD PUSH2 0x117 JUMP JUMPDEST JUMP JUMPDEST PUSH2 0x160 PUSH2 0x13F JUMP JUMPDEST SWAP1 JUMP JUMPDEST PUSH1 0x0 SHL SWAP1 JUMP JUMPDEST SWAP1 PUSH2 0x17A PUSH1 0x1 DUP1 PUSH1 0xA0 SHL SUB SWAP2 PUSH2 0x163 JUMP JUMPDEST SWAP2 DUP2 NOT AND SWAP2 AND OR SWAP1 JUMP JUMPDEST PUSH1 0x1 DUP1 PUSH1 0xA0 SHL SUB AND SWAP1 JUMP JUMPDEST SWAP1 JUMP JUMPDEST PUSH2 0x1A6 PUSH2 0x1A1 PUSH2 0x1AB SWAP3 PUSH2 0x184 JUMP JUMPDEST PUSH2 0x18F JUMP JUMPDEST PUSH2 0x184 JUMP JUMPDEST SWAP1 JUMP JUMPDEST PUSH2 0x1B7 SWAP1 PUSH2 0x192 JUMP JUMPDEST SWAP1 JUMP JUMPDEST PUSH2 0x1C3 SWAP1 PUSH2 0x1AE JUMP JUMPDEST SWAP1 JUMP JUMPDEST SWAP1 JUMP JUMPDEST SWAP1 PUSH2 0x1DE PUSH2 0x1D9 PUSH2 0x1E5 SWAP3 PUSH2 0x1BA JUMP JUMPDEST PUSH2 0x1C6 JUMP JUMPDEST DUP3 SLOAD PUSH2 0x169 JUMP JUMPDEST SWAP1 SSTORE JUMP JUMPDEST PUSH2 0x202 PUSH2 0x1F4 PUSH2 0x10C JUMP JUMPDEST PUSH2 0x1FC PUSH2 0x158 JUMP JUMPDEST SWAP1 PUSH2 0x294 JUMP JUMPDEST PUSH2 0x20D CALLER PUSH1 0x6 PUSH2 0x1C9 JUMP JUMPDEST JUMP JUMPDEST SWAP1 JUMP JUMPDEST SWAP1 JUMP JUMPDEST PUSH2 0x229 PUSH2 0x224 PUSH2 0x22E SWAP3 PUSH2 0x20F JUMP JUMPDEST PUSH2 0x18F JUMP JUMPDEST PUSH2 0x212 JUMP JUMPDEST SWAP1 JUMP JUMPDEST PUSH2 0x23B PUSH1 0x1 PUSH2 0x215 JUMP JUMPDEST SWAP1 JUMP JUMPDEST SWAP1 PUSH2 0x24B PUSH1 0x0 NOT SWAP2 PUSH2 0x163 JUMP JUMPDEST SWAP2 DUP2 NOT AND SWAP2 AND OR SWAP1 JUMP JUMPDEST PUSH2 0x269 PUSH2 0x264 PUSH2 0x26E SWAP3 PUSH2 0x212 JUMP JUMPDEST PUSH2 0x18F JUMP JUMPDEST PUSH2 0x212 JUMP JUMPDEST SWAP1 JUMP JUMPDEST SWAP1 JUMP JUMPDEST SWAP1 PUSH2 0x289 PUSH2 0x284 PUSH2 0x290 SWAP3 PUSH2 0x255 JUMP JUMPDEST PUSH2 0x271 JUMP JUMPDEST DUP3 SLOAD PUSH2 0x23E JUMP JUMPDEST SWAP1 SSTORE JUMP JUMPDEST SWAP1 PUSH2 0x29E SWAP2 PUSH2 0x4EE JUMP JUMPDEST PUSH2 0x2B0 PUSH2 0x2A9 PUSH2 0x231 JUMP JUMPDEST PUSH1 0x5 PUSH2 0x274 JUMP JUMPDEST JUMP JUMPDEST MLOAD SWAP1 JUMP JUMPDEST PUSH4 0x4E487B71 PUSH1 0xE0 SHL PUSH1 0x0 MSTORE PUSH1 0x22 PUSH1 0x4 MSTORE PUSH1 0x24 PUSH1 0x0 REVERT JUMPDEST SWAP1 PUSH1 0x1 PUSH1 0x2 DUP4 DIV SWAP3 AND DUP1 ISZERO PUSH2 0x2EC JUMPI JUMPDEST PUSH1 0x20 DUP4 LT EQ PUSH2 0x2E7 JUMPI JUMP JUMPDEST PUSH2 0x2B6 JUMP JUMPDEST SWAP2 PUSH1 0x7F AND SWAP2 PUSH2 0x2DC JUMP JUMPDEST PUSH1 0x0 MSTORE PUSH1 0x20 PUSH1 0x0 KECCAK256 SWAP1 JUMP JUMPDEST PUSH1 0x1F PUSH1 0x20 SWAP2 ADD DIV SWAP1 JUMP JUMPDEST SHL SWAP1 JUMP JUMPDEST SWAP2 SWAP1 PUSH1 0x8 PUSH2 0x32B SWAP2 MUL SWAP2 PUSH2 0x325 PUSH1 0x0 NOT DUP5 PUSH2 0x30B JUMP JUMPDEST SWAP3 PUSH2 0x30B JUMP JUMPDEST SWAP2 DUP2 NOT AND SWAP2 AND OR SWAP1 JUMP JUMPDEST SWAP2 SWAP1 PUSH2 0x34B PUSH2 0x346 PUSH2 0x353 SWAP4 PUSH2 0x255 JUMP JUMPDEST PUSH2 0x271 JUMP JUMPDEST SWAP1 DUP4 SLOAD PUSH2 0x30F JUMP JUMPDEST SWAP1 SSTORE JUMP JUMPDEST PUSH1 0x0 SWAP1 JUMP JUMPDEST PUSH2 0x36E SWAP2 PUSH2 0x368 PUSH2 0x357 JUMP JUMPDEST SWAP2 PUSH2 0x335 JUMP JUMPDEST JUMP JUMPDEST JUMPDEST DUP2 DUP2 LT PUSH2 0x37C JUMPI POP POP JUMP JUMPDEST DUP1 PUSH2 0x38A PUSH1 0x0 PUSH1 0x1 SWAP4 PUSH2 0x35C JUMP JUMPDEST ADD PUSH2 0x371 JUMP JUMPDEST SWAP2 SWAP1 PUSH1 0x1F DUP2 GT PUSH2 0x3A0 JUMPI JUMPDEST POP POP POP JUMP JUMPDEST PUSH2 0x3AC PUSH2 0x3D1 SWAP4 PUSH2 0x2F6 JUMP JUMPDEST SWAP1 PUSH1 0x20 PUSH2 0x3B8 DUP5 PUSH2 0x301 JUMP JUMPDEST DUP4 ADD SWAP4 LT PUSH2 0x3D9 JUMPI JUMPDEST PUSH2 0x3CA SWAP1 PUSH2 0x301 JUMP JUMPDEST ADD SWAP1 PUSH2 0x370 JUMP JUMPDEST CODESIZE DUP1 DUP1 PUSH2 0x39B JUMP JUMPDEST SWAP2 POP PUSH2 0x3CA DUP2 SWAP3 SWAP1 POP PUSH2 0x3C1 JUMP JUMPDEST SHR SWAP1 JUMP JUMPDEST SWAP1 PUSH2 0x3FC SWAP1 PUSH1 0x0 NOT SWAP1 PUSH1 0x8 MUL PUSH2 0x3E7 JUMP JUMPDEST NOT AND SWAP1 JUMP JUMPDEST DUP2 PUSH2 0x40B SWAP2 PUSH2 0x3EB JUMP JUMPDEST SWAP1 PUSH1 0x2 MUL OR SWAP1 JUMP JUMPDEST SWAP1 PUSH2 0x41D DUP2 PUSH2 0x2B2 JUMP JUMPDEST SWAP1 PUSH1 0x1 DUP1 PUSH1 0x40 SHL SUB DUP3 GT PUSH2 0x4DD JUMPI PUSH2 0x43F DUP3 PUSH2 0x439 DUP6 SLOAD PUSH2 0x2CC JUMP JUMPDEST DUP6 PUSH2 0x390 JUMP JUMPDEST PUSH1 0x20 SWAP1 PUSH1 0x1F DUP4 GT PUSH1 0x1 EQ PUSH2 0x474 JUMPI SWAP2 DUP1 SWAP2 PUSH2 0x463 SWAP4 PUSH1 0x0 SWAP3 PUSH2 0x468 JUMPI JUMPDEST POP POP PUSH2 0x401 JUMP JUMPDEST SWAP1 SSTORE JUMPDEST JUMP JUMPDEST SWAP1 SWAP2 POP ADD MLOAD CODESIZE DUP1 PUSH2 0x45C JUMP JUMPDEST PUSH1 0x1F NOT DUP4 AND SWAP2 PUSH2 0x483 DUP6 PUSH2 0x2F6 JUMP JUMPDEST SWAP3 PUSH1 0x0 JUMPDEST DUP2 DUP2 LT PUSH2 0x4C5 JUMPI POP SWAP2 PUSH1 0x2 SWAP4 SWAP2 DUP6 PUSH1 0x1 SWAP7 SWAP5 LT PUSH2 0x4AB JUMPI JUMPDEST POP POP POP MUL ADD SWAP1 SSTORE PUSH2 0x466 JUMP JUMPDEST PUSH2 0x4BB SWAP2 ADD MLOAD PUSH1 0x1F DUP5 AND SWAP1 PUSH2 0x3EB JUMP JUMPDEST SWAP1 SSTORE CODESIZE DUP1 DUP1 PUSH2 0x49F JUMP JUMPDEST SWAP2 SWAP4 PUSH1 0x20 PUSH1 0x1 DUP2 SWAP3 DUP8 DUP8 ADD MLOAD DUP2 SSTORE ADD SWAP6 ADD SWAP3 ADD PUSH2 0x487 JUMP JUMPDEST PUSH2 0x41 JUMP JUMPDEST SWAP1 PUSH2 0x4EC SWAP2 PUSH2 0x413 JUMP JUMPDEST JUMP JUMPDEST SWAP1 PUSH2 0x4FD PUSH2 0x504 SWAP3 PUSH1 0x3 PUSH2 0x4E2 JUMP JUMPDEST PUSH1 0x4 PUSH2 0x4E2 JUMP JUMPDEST JUMP INVALID PUSH1 0x80 PUSH1 0x40 MSTORE PUSH1 0x4 CALLDATASIZE LT ISZERO PUSH2 0x13 JUMPI JUMPDEST PUSH2 0xAAD JUMP JUMPDEST PUSH2 0x1E PUSH1 0x0 CALLDATALOAD PUSH2 0x17D JUMP JUMPDEST DUP1 PUSH4 0x22C0D9F EQ PUSH2 0x178 JUMPI DUP1 PUSH4 0x6FDDE03 EQ PUSH2 0x173 JUMPI DUP1 PUSH4 0x902F1AC EQ PUSH2 0x16E JUMPI DUP1 PUSH4 0x95EA7B3 EQ PUSH2 0x169 JUMPI DUP1 PUSH4 0xDFE1681 EQ PUSH2 0x164 JUMPI DUP1 PUSH4 0x18160DDD EQ PUSH2 0x15F JUMPI DUP1 PUSH4 0x23B872DD EQ PUSH2 0x15A JUMPI DUP1 PUSH4 0x313CE567 EQ PUSH2 0x155 JUMPI DUP1 PUSH4 0x485CC955 EQ PUSH2 0x150 JUMPI DUP1 PUSH4 0x5909C0D5 EQ PUSH2 0x14B JUMPI DUP1 PUSH4 0x5A3D5493 EQ PUSH2 0x146 JUMPI DUP1 PUSH4 0x6A627842 EQ PUSH2 0x141 JUMPI DUP1 PUSH4 0x70A08231 EQ PUSH2 0x13C JUMPI DUP1 PUSH4 0x7464FC3D EQ PUSH2 0x137 JUMPI DUP1 PUSH4 0x89AFCB44 EQ PUSH2 0x132 JUMPI DUP1 PUSH4 0x95D89B41 EQ PUSH2 0x12D JUMPI DUP1 PUSH4 0xA9059CBB EQ PUSH2 0x128 JUMPI DUP1 PUSH4 0xBA9A7A56 EQ PUSH2 0x123 JUMPI DUP1 PUSH4 0xC45A0155 EQ PUSH2 0x11E JUMPI DUP1 PUSH4 0xD21220A7 EQ PUSH2 0x119 JUMPI DUP1 PUSH4 0xDD62ED3E EQ PUSH2 0x114 JUMPI PUSH4 0xFFF6CAE9 SUB PUSH2 0xE JUMPI PUSH2 0xA7A JUMP JUMPDEST PUSH2 0xA44 JUMP JUMPDEST PUSH2 0xA0F JUMP JUMPDEST PUSH2 0x9CA JUMP JUMPDEST PUSH2 0x985 JUMP JUMPDEST PUSH2 0x914 JUMP JUMPDEST PUSH2 0x8DF JUMP JUMPDEST PUSH2 0x8A9 JUMP JUMPDEST PUSH2 0x850 JUMP JUMPDEST PUSH2 0x80B JUMP JUMPDEST PUSH2 0x7D6 JUMP JUMPDEST PUSH2 0x782 JUMP JUMPDEST PUSH2 0x73D JUMP JUMPDEST PUSH2 0x6D0 JUMP JUMPDEST PUSH2 0x66D JUMP JUMPDEST PUSH2 0x60E JUMP JUMPDEST PUSH2 0x59E JUMP JUMPDEST PUSH2 0x546 JUMP JUMPDEST PUSH2 0x4A8 JUMP JUMPDEST PUSH2 0x41A JUMP JUMPDEST PUSH2 0x37C JUMP JUMPDEST PUSH2 0x2AF JUMP JUMPDEST PUSH1 0xE0 SHR SWAP1 JUMP JUMPDEST PUSH1 0x40 MLOAD SWAP1 JUMP JUMPDEST PUSH1 0x0 DUP1 REVERT JUMPDEST PUSH1 0x0 DUP1 REVERT JUMPDEST PUSH1 0x0 DUP1 REVERT JUMPDEST SWAP1 JUMP JUMPDEST PUSH2 0x1A4 DUP2 PUSH2 0x198 JUMP JUMPDEST SUB PUSH2 0x1AB JUMPI JUMP JUMPDEST PUSH1 0x0 DUP1 REVERT JUMPDEST SWAP1 POP CALLDATALOAD SWAP1 PUSH2 0x1BD DUP3 PUSH2 0x19B JUMP JUMPDEST JUMP JUMPDEST PUSH1 0x1 DUP1 PUSH1 0xA0 SHL SUB AND SWAP1 JUMP JUMPDEST PUSH2 0x1D3 SWAP1 PUSH2 0x1BF JUMP JUMPDEST SWAP1 JUMP JUMPDEST PUSH2 0x1DF DUP2 PUSH2 0x1CA JUMP JUMPDEST SUB PUSH2 0x1E6 JUMPI JUMP JUMPDEST PUSH1 0x0 DUP1 REVERT JUMPDEST SWAP1 POP CALLDATALOAD SWAP1 PUSH2 0x1F8 DUP3 PUSH2 0x1D6 JUMP JUMPDEST JUMP JUMPDEST PUSH1 0x0 DUP1 REVERT JUMPDEST PUSH1 0x0 DUP1 REVERT JUMPDEST PUSH1 0x0 DUP1 REVERT JUMPDEST SWAP1 SWAP2 DUP3 PUSH1 0x1F DUP4 ADD SLT ISZERO PUSH2 0x243 JUMPI DUP2 CALLDATALOAD SWAP2 PUSH8 0xFFFFFFFFFFFFFFFF DUP4 GT PUSH2 0x23E JUMPI PUSH1 0x20 ADD SWAP3 PUSH1 0x1 DUP4 MUL DUP5 ADD GT PUSH2 0x239 JUMPI JUMP JUMPDEST PUSH2 0x204 JUMP JUMPDEST PUSH2 0x1FF JUMP JUMPDEST PUSH2 0x1FA JUMP JUMPDEST SWAP1 PUSH1 0x80 DUP3 DUP3 SUB SLT PUSH2 0x2A4 JUMPI PUSH2 0x260 DUP2 PUSH1 0x0 DUP5 ADD PUSH2 0x1B0 JUMP JUMPDEST SWAP3 PUSH2 0x26E DUP3 PUSH1 0x20 DUP6 ADD PUSH2 0x1B0 JUMP JUMPDEST SWAP3 PUSH2 0x27C DUP4 PUSH1 0x40 DUP4 ADD PUSH2 0x1EB JUMP JUMPDEST SWAP3 PUSH1 0x60 DUP3 ADD CALLDATALOAD PUSH8 0xFFFFFFFFFFFFFFFF DUP2 GT PUSH2 0x29F JUMPI PUSH2 0x29B SWAP3 ADD PUSH2 0x209 JUMP JUMPDEST SWAP1 SWAP2 JUMP JUMPDEST PUSH2 0x193 JUMP JUMPDEST PUSH2 0x18E JUMP JUMPDEST PUSH1 0x0 ADD SWAP1 JUMP JUMPDEST CALLVALUE PUSH2 0x2E1 JUMPI PUSH2 0x2CB PUSH2 0x2C2 CALLDATASIZE PUSH1 0x4 PUSH2 0x248 JUMP JUMPDEST SWAP4 SWAP3 SWAP1 SWAP3 PUSH2 0x123F JUMP JUMPDEST PUSH2 0x2D3 PUSH2 0x183 JUMP JUMPDEST DUP1 PUSH2 0x2DD DUP2 PUSH2 0x2A9 JUMP JUMPDEST SUB SWAP1 RETURN JUMPDEST PUSH2 0x189 JUMP JUMPDEST PUSH1 0x0 SWAP2 SUB SLT PUSH2 0x2F1 JUMPI JUMP JUMPDEST PUSH2 0x18E JUMP JUMPDEST MLOAD SWAP1 JUMP JUMPDEST PUSH1 0x20 SWAP2 DUP2 MSTORE ADD SWAP1 JUMP JUMPDEST PUSH1 0x0 JUMPDEST DUP4 DUP2 LT PUSH2 0x317 JUMPI POP POP SWAP1 PUSH1 0x0 SWAP2 ADD MSTORE JUMP JUMPDEST DUP1 PUSH1 0x20 SWAP2 DUP4 ADD MLOAD DUP2 DUP6 ADD MSTORE ADD PUSH2 0x306 JUMP JUMPDEST PUSH1 0x1F DUP1 NOT SWAP2 ADD AND SWAP1 JUMP JUMPDEST PUSH2 0x351 PUSH2 0x35A PUSH1 0x20 SWAP4 PUSH2 0x35F SWAP4 PUSH2 0x348 DUP2 PUSH2 0x2F6 JUMP JUMPDEST SWAP4 DUP5 DUP1 SWAP4 PUSH2 0x2FA JUMP JUMPDEST SWAP6 DUP7 SWAP2 ADD PUSH2 0x303 JUMP JUMPDEST PUSH2 0x328 JUMP JUMPDEST ADD SWAP1 JUMP JUMPDEST PUSH2 0x379 SWAP2 PUSH1 0x20 DUP3 ADD SWAP2 PUSH1 0x0 DUP2 DUP5 SUB SWAP2 ADD MSTORE PUSH2 0x332 JUMP JUMPDEST SWAP1 JUMP JUMPDEST CALLVALUE PUSH2 0x3AC JUMPI PUSH2 0x38C CALLDATASIZE PUSH1 0x4 PUSH2 0x2E6 JUMP JUMPDEST PUSH2 0x3A8 PUSH2 0x397 PUSH2 0x1371 JUMP JUMPDEST PUSH2 0x39F PUSH2 0x183 JUMP JUMPDEST SWAP2 DUP3 SWAP2 DUP3 PUSH2 0x363 JUMP JUMPDEST SUB SWAP1 RETURN JUMPDEST PUSH2 0x189 JUMP JUMPDEST PUSH14 0xFFFFFFFFFFFFFFFFFFFFFFFFFFFF AND SWAP1 JUMP JUMPDEST PUSH2 0x3CD SWAP1 PUSH2 0x3B1 JUMP JUMPDEST SWAP1 MSTORE JUMP JUMPDEST PUSH4 0xFFFFFFFF AND SWAP1 JUMP JUMPDEST PUSH2 0x3E3 SWAP1 PUSH2 0x3D1 JUMP JUMPDEST SWAP1 MSTORE JUMP JUMPDEST PUSH1 0x40 SWAP1 PUSH2 0x411 PUSH2 0x418 SWAP5 SWAP7 SWAP6 SWAP4 SWAP7 PUSH2 0x407 PUSH1 0x60 DUP5 ADD SWAP9 PUSH1 0x0 DUP6 ADD SWAP1 PUSH2 0x3C4 JUMP JUMPDEST PUSH1 0x20 DUP4 ADD SWAP1 PUSH2 0x3C4 JUMP JUMPDEST ADD SWAP1 PUSH2 0x3DA JUMP JUMPDEST JUMP JUMPDEST CALLVALUE PUSH2 0x44D JUMPI PUSH2 0x42A CALLDATASIZE PUSH1 0x4 PUSH2 0x2E6 JUMP JUMPDEST PUSH2 0x449 PUSH2 0x435 PUSH2 0x1416 JUMP JUMPDEST PUSH2 0x440 SWAP4 SWAP2 SWAP4 PUSH2 0x183 JUMP JUMPDEST SWAP4 DUP5 SWAP4 DUP5 PUSH2 0x3E7 JUMP JUMPDEST SUB SWAP1 RETURN JUMPDEST PUSH2 0x189 JUMP JUMPDEST SWAP2 SWAP1 PUSH1 0x40 DUP4 DUP3 SUB SLT PUSH2 0x47B JUMPI DUP1 PUSH2 0x46F PUSH2 0x478 SWAP3 PUSH1 0x0 DUP7 ADD PUSH2 0x1EB JUMP JUMPDEST SWAP4 PUSH1 0x20 ADD PUSH2 0x1B0 JUMP JUMPDEST SWAP1 JUMP JUMPDEST PUSH2 0x18E JUMP JUMPDEST ISZERO ISZERO SWAP1 JUMP JUMPDEST PUSH2 0x48E SWAP1 PUSH2 0x480 JUMP JUMPDEST SWAP1 MSTORE JUMP JUMPDEST SWAP2 SWAP1 PUSH2 0x4A6 SWAP1 PUSH1 0x0 PUSH1 0x20 DUP6 ADD SWAP5 ADD SWAP1 PUSH2 0x485 JUMP JUMPDEST JUMP JUMPDEST CALLVALUE PUSH2 0x4D9 JUMPI PUSH2 0x4D5 PUSH2 0x4C4 PUSH2 0x4BE CALLDATASIZE PUSH1 0x4 PUSH2 0x452 JUMP JUMPDEST SWAP1 PUSH2 0x1459 JUMP JUMPDEST PUSH2 0x4CC PUSH2 0x183 JUMP JUMPDEST SWAP2 DUP3 SWAP2 DUP3 PUSH2 0x492 JUMP JUMPDEST SUB SWAP1 RETURN JUMPDEST PUSH2 0x189 JUMP JUMPDEST SHR SWAP1 JUMP JUMPDEST PUSH1 0x1 DUP1 PUSH1 0xA0 SHL SUB AND SWAP1 JUMP JUMPDEST PUSH2 0x4FD SWAP1 PUSH1 0x8 PUSH2 0x502 SWAP4 MUL PUSH2 0x4DE JUMP JUMPDEST PUSH2 0x4E2 JUMP JUMPDEST SWAP1 JUMP JUMPDEST SWAP1 PUSH2 0x510 SWAP2 SLOAD PUSH2 0x4ED JUMP JUMPDEST SWAP1 JUMP JUMPDEST PUSH2 0x520 PUSH1 0x7 PUSH1 0x0 SWAP1 PUSH2 0x505 JUMP JUMPDEST SWAP1 JUMP JUMPDEST PUSH2 0x52C SWAP1 PUSH2 0x1CA JUMP JUMPDEST SWAP1 MSTORE JUMP JUMPDEST SWAP2 SWAP1 PUSH2 0x544 SWAP1 PUSH1 0x0 PUSH1 0x20 DUP6 ADD SWAP5 ADD SWAP1 PUSH2 0x523 JUMP JUMPDEST JUMP JUMPDEST CALLVALUE PUSH2 0x576 JUMPI PUSH2 0x556 CALLDATASIZE PUSH1 0x4 PUSH2 0x2E6 JUMP JUMPDEST PUSH2 0x572 PUSH2 0x561 PUSH2 0x513 JUMP JUMPDEST PUSH2 0x569 PUSH2 0x183 JUMP JUMPDEST SWAP2 DUP3 SWAP2 DUP3 PUSH2 0x530 JUMP JUMPDEST SUB SWAP1 RETURN JUMPDEST PUSH2 0x189 JUMP JUMPDEST PUSH2 0x584 SWAP1 PUSH2 0x198 JUMP JUMPDEST SWAP1 MSTORE JUMP JUMPDEST SWAP2 SWAP1 PUSH2 0x59C SWAP1 PUSH1 0x0 PUSH1 0x20 DUP6 ADD SWAP5 ADD SWAP1 PUSH2 0x57B JUMP JUMPDEST JUMP JUMPDEST CALLVALUE PUSH2 0x5CE JUMPI PUSH2 0x5AE CALLDATASIZE PUSH1 0x4 PUSH2 0x2E6 JUMP JUMPDEST PUSH2 0x5CA PUSH2 0x5B9 PUSH2 0x149C JUMP JUMPDEST PUSH2 0x5C1 PUSH2 0x183 JUMP JUMPDEST SWAP2 DUP3 SWAP2 DUP3 PUSH2 0x588 JUMP JUMPDEST SUB SWAP1 RETURN JUMPDEST PUSH2 0x189 JUMP JUMPDEST SWAP1 SWAP2 PUSH1 0x60 DUP3 DUP5 SUB SLT PUSH2 0x609 JUMPI PUSH2 0x606 PUSH2 0x5EF DUP5 PUSH1 0x0 DUP6 ADD PUSH2 0x1EB JUMP JUMPDEST SWAP4 PUSH2 0x5FD DUP2 PUSH1 0x20 DUP7 ADD PUSH2 0x1EB JUMP JUMPDEST SWAP4 PUSH1 0x40 ADD PUSH2 0x1B0 JUMP JUMPDEST SWAP1 JUMP JUMPDEST PUSH2 0x18E JUMP JUMPDEST CALLVALUE PUSH2 0x63F JUMPI PUSH2 0x63B PUSH2 0x62A PUSH2 0x624 CALLDATASIZE PUSH1 0x4 PUSH2 0x5D3 JUMP JUMPDEST SWAP2 PUSH2 0x14B2 JUMP JUMPDEST PUSH2 0x632 PUSH2 0x183 JUMP JUMPDEST SWAP2 DUP3 SWAP2 DUP3 PUSH2 0x492 JUMP JUMPDEST SUB SWAP1 RETURN JUMPDEST PUSH2 0x189 JUMP JUMPDEST PUSH1 0xFF AND SWAP1 JUMP JUMPDEST PUSH2 0x653 SWAP1 PUSH2 0x644 JUMP JUMPDEST SWAP1 MSTORE JUMP JUMPDEST SWAP2 SWAP1 PUSH2 0x66B SWAP1 PUSH1 0x0 PUSH1 0x20 DUP6 ADD SWAP5 ADD SWAP1 PUSH2 0x64A JUMP JUMPDEST JUMP JUMPDEST CALLVALUE PUSH2 0x69D JUMPI PUSH2 0x67D CALLDATASIZE PUSH1 0x4 PUSH2 0x2E6 JUMP JUMPDEST PUSH2 0x699 PUSH2 0x688 PUSH2 0x1505 JUMP JUMPDEST PUSH2 0x690 PUSH2 0x183 JUMP JUMPDEST SWAP2 DUP3 SWAP2 DUP3 PUSH2 0x657 JUMP JUMPDEST SUB SWAP1 RETURN JUMPDEST PUSH2 0x189 JUMP JUMPDEST SWAP2 SWAP1 PUSH1 0x40 DUP4 DUP3 SUB SLT PUSH2 0x6CB JUMPI DUP1 PUSH2 0x6BF PUSH2 0x6C8 SWAP3 PUSH1 0x0 DUP7 ADD PUSH2 0x1EB JUMP JUMPDEST SWAP4 PUSH1 0x20 ADD PUSH2 0x1EB JUMP JUMPDEST SWAP1 JUMP JUMPDEST PUSH2 0x18E JUMP JUMPDEST CALLVALUE PUSH2 0x6FF JUMPI PUSH2 0x6E9 PUSH2 0x6E3 CALLDATASIZE PUSH1 0x4 PUSH2 0x6A2 JUMP JUMPDEST SWAP1 PUSH2 0x155F JUMP JUMPDEST PUSH2 0x6F1 PUSH2 0x183 JUMP JUMPDEST DUP1 PUSH2 0x6FB DUP2 PUSH2 0x2A9 JUMP JUMPDEST SUB SWAP1 RETURN JUMPDEST PUSH2 0x189 JUMP JUMPDEST SWAP1 JUMP JUMPDEST PUSH2 0x717 SWAP1 PUSH1 0x8 PUSH2 0x71C SWAP4 MUL PUSH2 0x4DE JUMP JUMPDEST PUSH2 0x704 JUMP JUMPDEST SWAP1 JUMP JUMPDEST SWAP1 PUSH2 0x72A SWAP2 SLOAD PUSH2 0x707 JUMP JUMPDEST SWAP1 JUMP JUMPDEST PUSH2 0x73A PUSH1 0xA PUSH1 0x0 SWAP1 PUSH2 0x71F JUMP JUMPDEST SWAP1 JUMP JUMPDEST CALLVALUE PUSH2 0x76D JUMPI PUSH2 0x74D CALLDATASIZE PUSH1 0x4 PUSH2 0x2E6 JUMP JUMPDEST PUSH2 0x769 PUSH2 0x758 PUSH2 0x72D JUMP JUMPDEST PUSH2 0x760 PUSH2 0x183 JUMP JUMPDEST SWAP2 DUP3 SWAP2 DUP3 PUSH2 0x588 JUMP JUMPDEST SUB SWAP1 RETURN JUMPDEST PUSH2 0x189 JUMP JUMPDEST PUSH2 0x77F PUSH1 0xB PUSH1 0x0 SWAP1 PUSH2 0x71F JUMP JUMPDEST SWAP1 JUMP JUMPDEST CALLVALUE PUSH2 0x7B2 JUMPI PUSH2 0x792 CALLDATASIZE PUSH1 0x4 PUSH2 0x2E6 JUMP JUMPDEST PUSH2 0x7AE PUSH2 0x79D PUSH2 0x772 JUMP JUMPDEST PUSH2 0x7A5 PUSH2 0x183 JUMP JUMPDEST SWAP2 DUP3 SWAP2 DUP3 PUSH2 0x588 JUMP JUMPDEST SUB SWAP1 RETURN JUMPDEST PUSH2 0x189 JUMP JUMPDEST SWAP1 PUSH1 0x20 DUP3 DUP3 SUB SLT PUSH2 0x7D1 JUMPI PUSH2 0x7CE SWAP2 PUSH1 0x0 ADD PUSH2 0x1EB JUMP JUMPDEST SWAP1 JUMP JUMPDEST PUSH2 0x18E JUMP JUMPDEST CALLVALUE PUSH2 0x806 JUMPI PUSH2 0x802 PUSH2 0x7F1 PUSH2 0x7EC CALLDATASIZE PUSH1 0x4 PUSH2 0x7B7 JUMP JUMPDEST PUSH2 0x19C3 JUMP JUMPDEST PUSH2 0x7F9 PUSH2 0x183 JUMP JUMPDEST SWAP2 DUP3 SWAP2 DUP3 PUSH2 0x588 JUMP JUMPDEST SUB SWAP1 RETURN JUMPDEST PUSH2 0x189 JUMP JUMPDEST CALLVALUE PUSH2 0x83B JUMPI PUSH2 0x837 PUSH2 0x826 PUSH2 0x821 CALLDATASIZE PUSH1 0x4 PUSH2 0x7B7 JUMP JUMPDEST PUSH2 0x19EF JUMP JUMPDEST PUSH2 0x82E PUSH2 0x183 JUMP JUMPDEST SWAP2 DUP3 SWAP2 DUP3 PUSH2 0x588 JUMP JUMPDEST SUB SWAP1 RETURN JUMPDEST PUSH2 0x189 JUMP JUMPDEST PUSH2 0x84D PUSH1 0xC PUSH1 0x0 SWAP1 PUSH2 0x71F JUMP JUMPDEST SWAP1 JUMP JUMPDEST CALLVALUE PUSH2 0x880 JUMPI PUSH2 0x860 CALLDATASIZE PUSH1 0x4 PUSH2 0x2E6 JUMP JUMPDEST PUSH2 0x87C PUSH2 0x86B PUSH2 0x840 JUMP JUMPDEST PUSH2 0x873 PUSH2 0x183 JUMP JUMPDEST SWAP2 DUP3 SWAP2 DUP3 PUSH2 0x588 JUMP JUMPDEST SUB SWAP1 RETURN JUMPDEST PUSH2 0x189 JUMP JUMPDEST SWAP2 PUSH1 0x20 PUSH2 0x8A7 SWAP3 SWAP5 SWAP4 PUSH2 0x8A0 PUSH1 0x40 DUP3 ADD SWAP7 PUSH1 0x0 DUP4 ADD SWAP1 PUSH2 0x57B JUMP JUMPDEST ADD SWAP1 PUSH2 0x57B JUMP JUMPDEST JUMP JUMPDEST CALLVALUE PUSH2 0x8DA JUMPI PUSH2 0x8C1 PUSH2 0x8BC CALLDATASIZE PUSH1 0x4 PUSH2 0x7B7 JUMP JUMPDEST PUSH2 0x1E50 JUMP JUMPDEST SWAP1 PUSH2 0x8D6 PUSH2 0x8CD PUSH2 0x183 JUMP JUMPDEST SWAP3 DUP4 SWAP3 DUP4 PUSH2 0x885 JUMP JUMPDEST SUB SWAP1 RETURN JUMPDEST PUSH2 0x189 JUMP JUMPDEST CALLVALUE PUSH2 0x90F JUMPI PUSH2 0x8EF CALLDATASIZE PUSH1 0x4 PUSH2 0x2E6 JUMP JUMPDEST PUSH2 0x90B PUSH2 0x8FA PUSH2 0x1E6E JUMP JUMPDEST PUSH2 0x902 PUSH2 0x183 JUMP JUMPDEST SWAP2 DUP3 SWAP2 DUP3 PUSH2 0x363 JUMP JUMPDEST SUB SWAP1 RETURN JUMPDEST PUSH2 0x189 JUMP JUMPDEST CALLVALUE PUSH2 0x945 JUMPI PUSH2 0x941 PUSH2 0x930 PUSH2 0x92A CALLDATASIZE PUSH1 0x4 PUSH2 0x452 JUMP JUMPDEST SWAP1 PUSH2 0x1E84 JUMP JUMPDEST PUSH2 0x938 PUSH2 0x183 JUMP JUMPDEST SWAP2 DUP3 SWAP2 DUP3 PUSH2 0x492 JUMP JUMPDEST SUB SWAP1 RETURN JUMPDEST PUSH2 0x189 JUMP JUMPDEST SWAP1 JUMP JUMPDEST SWAP1 JUMP JUMPDEST PUSH2 0x964 PUSH2 0x95F PUSH2 0x969 SWAP3 PUSH2 0x94A JUMP JUMPDEST PUSH2 0x94D JUMP JUMPDEST PUSH2 0x198 JUMP JUMPDEST SWAP1 JUMP JUMPDEST PUSH2 0x977 PUSH2 0x3E8 PUSH2 0x950 JUMP JUMPDEST SWAP1 JUMP JUMPDEST PUSH2 0x982 PUSH2 0x96C JUMP JUMPDEST SWAP1 JUMP JUMPDEST CALLVALUE PUSH2 0x9B5 JUMPI PUSH2 0x995 CALLDATASIZE PUSH1 0x4 PUSH2 0x2E6 JUMP JUMPDEST PUSH2 0x9B1 PUSH2 0x9A0 PUSH2 0x97A JUMP JUMPDEST PUSH2 0x9A8 PUSH2 0x183 JUMP JUMPDEST SWAP2 DUP3 SWAP2 DUP3 PUSH2 0x588 JUMP JUMPDEST SUB SWAP1 RETURN JUMPDEST PUSH2 0x189 JUMP JUMPDEST PUSH2 0x9C7 PUSH1 0x6 PUSH1 0x0 SWAP1 PUSH2 0x505 JUMP JUMPDEST SWAP1 JUMP JUMPDEST CALLVALUE PUSH2 0x9FA JUMPI PUSH2 0x9DA CALLDATASIZE PUSH1 0x4 PUSH2 0x2E6 JUMP JUMPDEST PUSH2 0x9F6 PUSH2 0x9E5 PUSH2 0x9BA JUMP JUMPDEST PUSH2 0x9ED PUSH2 0x183 JUMP JUMPDEST SWAP2 DUP3 SWAP2 DUP3 PUSH2 0x530 JUMP JUMPDEST SUB SWAP1 RETURN JUMPDEST PUSH2 0x189 JUMP JUMPDEST PUSH2 0xA0C PUSH1 0x8 PUSH1 0x0 SWAP1 PUSH2 0x505 JUMP JUMPDEST SWAP1 JUMP JUMPDEST CALLVALUE PUSH2 0xA3F JUMPI PUSH2 0xA1F CALLDATASIZE PUSH1 0x4 PUSH2 0x2E6 JUMP JUMPDEST PUSH2 0xA3B PUSH2 0xA2A PUSH2 0x9FF JUMP JUMPDEST PUSH2 0xA32 PUSH2 0x183 JUMP JUMPDEST SWAP2 DUP3 SWAP2 DUP3 PUSH2 0x530 JUMP JUMPDEST SUB SWAP1 RETURN JUMPDEST PUSH2 0x189 JUMP JUMPDEST CALLVALUE PUSH2 0xA75 JUMPI PUSH2 0xA71 PUSH2 0xA60 PUSH2 0xA5A CALLDATASIZE PUSH1 0x4 PUSH2 0x6A2 JUMP JUMPDEST SWAP1 PUSH2 0x1EBE JUMP JUMPDEST PUSH2 0xA68 PUSH2 0x183 JUMP JUMPDEST SWAP2 DUP3 SWAP2 DUP3 PUSH2 0x588 JUMP JUMPDEST SUB SWAP1 RETURN JUMPDEST PUSH2 0x189 JUMP JUMPDEST CALLVALUE PUSH2 0xAA8 JUMPI PUSH2 0xA8A CALLDATASIZE PUSH1 0x4 PUSH2 0x2E6 JUMP JUMPDEST PUSH2 0xA92 PUSH2 0x2050 JUMP JUMPDEST PUSH2 0xA9A PUSH2 0x183 JUMP JUMPDEST DUP1 PUSH2 0xAA4 DUP2 PUSH2 0x2A9 JUMP JUMPDEST SUB SWAP1 RETURN JUMPDEST PUSH2 0x189 JUMP JUMPDEST PUSH1 0x0 DUP1 REVERT JUMPDEST SWAP1 PUSH2 0xAC7 SWAP5 SWAP4 SWAP3 SWAP2 PUSH2 0xAC2 PUSH2 0x2086 JUMP JUMPDEST PUSH2 0xD11 JUMP JUMPDEST PUSH2 0xACF PUSH2 0x210B JUMP JUMPDEST JUMP JUMPDEST SWAP1 JUMP JUMPDEST PUSH2 0xAE8 PUSH2 0xAE3 PUSH2 0xAED SWAP3 PUSH2 0xAD1 JUMP JUMPDEST PUSH2 0x94D JUMP JUMPDEST PUSH2 0x198 JUMP JUMPDEST SWAP1 JUMP JUMPDEST PUSH2 0xB04 PUSH2 0xAFF PUSH2 0xB09 SWAP3 PUSH2 0x3B1 JUMP JUMPDEST PUSH2 0x94D JUMP JUMPDEST PUSH2 0x198 JUMP JUMPDEST SWAP1 JUMP JUMPDEST PUSH1 0x0 SWAP1 JUMP JUMPDEST PUSH1 0x0 SHR SWAP1 JUMP JUMPDEST PUSH2 0xB23 PUSH2 0xB28 SWAP2 PUSH2 0xB11 JUMP JUMPDEST PUSH2 0x4E2 JUMP JUMPDEST SWAP1 JUMP JUMPDEST PUSH2 0xB35 SWAP1 SLOAD PUSH2 0xB17 JUMP JUMPDEST SWAP1 JUMP JUMPDEST PUSH2 0xB4C PUSH2 0xB47 PUSH2 0xB51 SWAP3 PUSH2 0x1BF JUMP JUMPDEST PUSH2 0x94D JUMP JUMPDEST PUSH2 0x1BF JUMP JUMPDEST SWAP1 JUMP JUMPDEST PUSH2 0xB5D SWAP1 PUSH2 0xB38 JUMP JUMPDEST SWAP1 JUMP JUMPDEST PUSH2 0xB69 SWAP1 PUSH2 0xB54 JUMP JUMPDEST SWAP1 JUMP JUMPDEST POP SWAP1 JUMP JUMPDEST PUSH2 0xB79 SWAP1 PUSH2 0xB38 JUMP JUMPDEST SWAP1 JUMP JUMPDEST PUSH2 0xB85 SWAP1 PUSH2 0xB70 JUMP JUMPDEST SWAP1 JUMP JUMPDEST PUSH2 0xB91 SWAP1 PUSH2 0xB70 JUMP JUMPDEST SWAP1 JUMP JUMPDEST PUSH4 0x4E487B71 PUSH1 0xE0 SHL PUSH1 0x0 MSTORE PUSH1 0x41 PUSH1 0x4 MSTORE PUSH1 0x24 PUSH1 0x0 REVERT JUMPDEST SWAP1 PUSH2 0xBB4 SWAP1 PUSH2 0x328 JUMP JUMPDEST DUP2 ADD SWAP1 DUP2 LT PUSH8 0xFFFFFFFFFFFFFFFF DUP3 GT OR PUSH2 0xBCE JUMPI PUSH1 0x40 MSTORE JUMP JUMPDEST PUSH2 0xB94 JUMP JUMPDEST PUSH1 0xE0 SHL SWAP1 JUMP JUMPDEST SWAP1 POP MLOAD SWAP1 PUSH2 0xBE6 DUP3 PUSH2 0x19B JUMP JUMPDEST JUMP JUMPDEST SWAP1 PUSH1 0x20 DUP3 DUP3 SUB SLT PUSH2 0xC02 JUMPI PUSH2 0xBFF SWAP2 PUSH1 0x0 ADD PUSH2 0xBD9 JUMP JUMPDEST SWAP1 JUMP JUMPDEST PUSH2 0x18E JUMP JUMPDEST PUSH2 0xC0F PUSH2 0x183 JUMP JUMPDEST RETURNDATASIZE PUSH1 0x0 DUP3 RETURNDATACOPY RETURNDATASIZE SWAP1 REVERT JUMPDEST PUSH4 0x4E487B71 PUSH1 0xE0 SHL PUSH1 0x0 MSTORE PUSH1 0x11 PUSH1 0x4 MSTORE PUSH1 0x24 PUSH1 0x0 REVERT JUMPDEST PUSH2 0xC3D PUSH2 0xC43 SWAP2 SWAP4 SWAP3 SWAP4 PUSH2 0x198 JUMP JUMPDEST SWAP3 PUSH2 0x198 JUMP JUMPDEST DUP3 SUB SWAP2 DUP3 GT PUSH2 0xC4E JUMPI JUMP JUMPDEST PUSH2 0xC18 JUMP JUMPDEST PUSH2 0xC62 PUSH2 0xC68 SWAP2 SWAP4 SWAP3 SWAP4 PUSH2 0x198 JUMP JUMPDEST SWAP3 PUSH2 0x198 JUMP JUMPDEST SWAP2 PUSH2 0xC74 DUP4 DUP3 MUL PUSH2 0x198 JUMP JUMPDEST SWAP3 DUP2 DUP5 DIV EQ SWAP1 ISZERO OR ISZERO PUSH2 0xC83 JUMPI JUMP JUMPDEST PUSH2 0xC18 JUMP JUMPDEST SWAP1 JUMP JUMPDEST PUSH2 0xC9F PUSH2 0xC9A PUSH2 0xCA4 SWAP3 PUSH2 0xC88 JUMP JUMPDEST PUSH2 0x94D JUMP JUMPDEST PUSH2 0x198 JUMP JUMPDEST SWAP1 JUMP JUMPDEST SWAP1 JUMP JUMPDEST PUSH2 0xCBE PUSH2 0xCB9 PUSH2 0xCC3 SWAP3 PUSH2 0xCA7 JUMP JUMPDEST PUSH2 0x94D JUMP JUMPDEST PUSH2 0x198 JUMP JUMPDEST SWAP1 JUMP JUMPDEST PUSH2 0xCCF SWAP1 PUSH2 0xB70 JUMP JUMPDEST SWAP1 JUMP JUMPDEST PUSH2 0xD08 PUSH2 0xD0F SWAP5 PUSH2 0xCFE PUSH1 0x60 SWAP5 SWAP9 SWAP8 SWAP6 PUSH2 0xCF4 PUSH1 0x80 DUP7 ADD SWAP11 PUSH1 0x0 DUP8 ADD SWAP1 PUSH2 0x57B JUMP JUMPDEST PUSH1 0x20 DUP6 ADD SWAP1 PUSH2 0x57B JUMP JUMPDEST PUSH1 0x40 DUP4 ADD SWAP1 PUSH2 0x57B JUMP JUMPDEST ADD SWAP1 PUSH2 0x57B JUMP JUMPDEST JUMP JUMPDEST SWAP1 SWAP4 SWAP2 SWAP3 DUP2 PUSH2 0xD29 PUSH2 0xD23 PUSH1 0x0 PUSH2 0xAD4 JUMP JUMPDEST SWAP2 PUSH2 0x198 JUMP JUMPDEST EQ DUP1 PUSH2 0x1224 JUMPI JUMPDEST PUSH2 0x1207 JUMPI PUSH2 0xD3C PUSH2 0x1416 JUMP JUMPDEST POP SWAP2 SWAP1 SWAP2 SWAP4 DUP4 PUSH2 0xD54 PUSH2 0xD4E DUP6 PUSH2 0xAF0 JUMP JUMPDEST SWAP2 PUSH2 0x198 JUMP JUMPDEST LT ISZERO DUP1 ISZERO PUSH2 0x11EC JUMPI JUMPDEST PUSH2 0x11CF JUMPI PUSH2 0xD69 PUSH2 0xB0C JUMP JUMPDEST POP PUSH2 0xD72 PUSH2 0xB0C JUMP JUMPDEST POP PUSH2 0xD7D PUSH1 0x7 PUSH2 0xB2B JUMP JUMPDEST PUSH2 0xD87 PUSH1 0x8 PUSH2 0xB2B JUMP JUMPDEST SWAP3 DUP8 PUSH2 0xD9B PUSH2 0xD95 DUP5 PUSH2 0x1CA JUMP JUMPDEST SWAP2 PUSH2 0x1CA JUMP JUMPDEST EQ DUP1 ISZERO PUSH2 0x11B5 JUMPI JUMPDEST PUSH2 0x1198 JUMPI PUSH2 0xE13 PUSH1 0x20 SWAP3 PUSH2 0xDF5 PUSH2 0xE4A SWAP6 PUSH2 0xE18 SWAP5 DUP11 PUSH2 0xDCC PUSH2 0xDC6 PUSH1 0x0 PUSH2 0xAD4 JUMP JUMPDEST SWAP2 PUSH2 0x198 JUMP JUMPDEST GT PUSH2 0x117E JUMPI JUMPDEST DUP14 DUP14 DUP2 PUSH2 0xDE8 PUSH2 0xDE2 PUSH1 0x0 PUSH2 0xAD4 JUMP JUMPDEST SWAP2 PUSH2 0x198 JUMP JUMPDEST GT PUSH2 0x1162 JUMPI JUMPDEST POP POP PUSH2 0xB6C JUMP JUMPDEST PUSH2 0xE08 PUSH2 0xE02 PUSH1 0x0 PUSH2 0xAD4 JUMP JUMPDEST SWAP2 PUSH2 0x198 JUMP JUMPDEST GT PUSH2 0x115D JUMPI JUMPDEST PUSH2 0xB60 JUMP JUMPDEST PUSH2 0xB7C JUMP JUMPDEST PUSH4 0x70A08231 SWAP1 PUSH2 0xE3F PUSH2 0xE2A ADDRESS PUSH2 0xB88 JUMP JUMPDEST SWAP3 PUSH2 0xE33 PUSH2 0x183 JUMP JUMPDEST SWAP6 DUP7 SWAP5 DUP6 SWAP4 DUP5 SWAP4 PUSH2 0xBD3 JUMP JUMPDEST DUP4 MSTORE PUSH1 0x4 DUP4 ADD PUSH2 0x530 JUMP JUMPDEST SUB SWAP2 GAS STATICCALL SWAP1 DUP2 ISZERO PUSH2 0x1158 JUMPI PUSH2 0xE76 PUSH2 0xE71 PUSH2 0xEA8 SWAP4 PUSH1 0x20 SWAP4 PUSH1 0x0 SWAP2 PUSH2 0x112B JUMPI JUMPDEST POP SWAP5 PUSH2 0xB60 JUMP JUMPDEST PUSH2 0xB7C JUMP JUMPDEST PUSH4 0x70A08231 SWAP1 PUSH2 0xE9D PUSH2 0xE88 ADDRESS PUSH2 0xB88 JUMP JUMPDEST SWAP3 PUSH2 0xE91 PUSH2 0x183 JUMP JUMPDEST SWAP6 DUP7 SWAP5 DUP6 SWAP4 DUP5 SWAP4 PUSH2 0xBD3 JUMP JUMPDEST DUP4 MSTORE PUSH1 0x4 DUP4 ADD PUSH2 0x530 JUMP JUMPDEST SUB SWAP2 GAS STATICCALL SWAP1 DUP2 ISZERO PUSH2 0x1126 JUMPI PUSH1 0x0 SWAP2 PUSH2 0x10F8 JUMPI JUMPDEST POP DUP2 PUSH2 0xEE1 PUSH2 0xEDB PUSH2 0xED6 DUP7 PUSH2 0xED1 DUP10 SWAP2 PUSH2 0xAF0 JUMP JUMPDEST PUSH2 0xC2E JUMP JUMPDEST PUSH2 0x198 JUMP JUMPDEST SWAP2 PUSH2 0x198 JUMP JUMPDEST GT PUSH1 0x0 EQ PUSH2 0x10E9 JUMPI PUSH2 0xF06 DUP3 PUSH2 0xF00 DUP6 PUSH2 0xEFB DUP9 SWAP2 PUSH2 0xAF0 JUMP JUMPDEST PUSH2 0xC2E JUMP JUMPDEST SWAP1 PUSH2 0xC2E JUMP JUMPDEST JUMPDEST SWAP5 DUP2 PUSH2 0xF2D PUSH2 0xF27 PUSH2 0xF22 DUP5 PUSH2 0xF1D DUP14 SWAP2 PUSH2 0xAF0 JUMP JUMPDEST PUSH2 0xC2E JUMP JUMPDEST PUSH2 0x198 JUMP JUMPDEST SWAP2 PUSH2 0x198 JUMP JUMPDEST GT PUSH1 0x0 EQ PUSH2 0x10DA JUMPI PUSH2 0xF52 DUP3 PUSH2 0xF4C DUP4 PUSH2 0xF47 DUP13 SWAP2 PUSH2 0xAF0 JUMP JUMPDEST PUSH2 0xC2E JUMP JUMPDEST SWAP1 PUSH2 0xC2E JUMP JUMPDEST JUMPDEST SWAP4 DUP7 PUSH2 0xF68 PUSH2 0xF62 PUSH1 0x0 PUSH2 0xAD4 JUMP JUMPDEST SWAP2 PUSH2 0x198 JUMP JUMPDEST EQ DUP1 PUSH2 0x10BF JUMPI JUMPDEST PUSH2 0x10A2 JUMPI PUSH2 0xFE0 PUSH2 0xFA8 PUSH2 0xF8E DUP7 PUSH2 0xF88 PUSH2 0x3E8 PUSH2 0x950 JUMP JUMPDEST SWAP1 PUSH2 0xC53 JUMP JUMPDEST PUSH2 0xFA2 DUP11 PUSH2 0xF9C PUSH1 0x3 PUSH2 0xC8B JUMP JUMPDEST SWAP1 PUSH2 0xC53 JUMP JUMPDEST SWAP1 PUSH2 0xC2E JUMP JUMPDEST PUSH2 0xFDA PUSH2 0xFC0 DUP7 PUSH2 0xFBA PUSH2 0x3E8 PUSH2 0x950 JUMP JUMPDEST SWAP1 PUSH2 0xC53 JUMP JUMPDEST PUSH2 0xFD4 DUP10 PUSH2 0xFCE PUSH1 0x3 PUSH2 0xC8B JUMP JUMPDEST SWAP1 PUSH2 0xC53 JUMP JUMPDEST SWAP1 PUSH2 0xC2E JUMP JUMPDEST SWAP1 PUSH2 0xC53 JUMP JUMPDEST PUSH2 0x1021 PUSH2 0x101B PUSH2 0x1016 PUSH2 0x1004 PUSH2 0xFF5 DUP7 PUSH2 0xAF0 JUMP JUMPDEST PUSH2 0xFFE DUP9 PUSH2 0xAF0 JUMP JUMPDEST SWAP1 PUSH2 0xC53 JUMP JUMPDEST PUSH2 0x1010 PUSH3 0xF4240 PUSH2 0xCAA JUMP JUMPDEST SWAP1 PUSH2 0xC53 JUMP JUMPDEST PUSH2 0x198 JUMP JUMPDEST SWAP2 PUSH2 0x198 JUMP JUMPDEST LT PUSH2 0x1085 JUMPI PUSH2 0x1033 SWAP4 SWAP3 SWAP1 SWAP2 SWAP3 PUSH2 0x2464 JUMP JUMPDEST PUSH2 0x1080 CALLER SWAP4 SWAP2 SWAP3 SWAP6 PUSH2 0x106E PUSH2 0x1068 PUSH32 0xD78AD95FA46C994B6551D0DA85FC275FE613CE37657FB8D5E3D130840159D822 SWAP7 PUSH2 0xCC6 JUMP JUMPDEST SWAP7 PUSH2 0xCC6 JUMP JUMPDEST SWAP7 PUSH2 0x1077 PUSH2 0x183 JUMP JUMPDEST SWAP5 DUP6 SWAP5 DUP6 PUSH2 0xCD2 JUMP JUMPDEST SUB SWAP1 LOG3 JUMP JUMPDEST PUSH1 0x0 PUSH4 0x2F62F0D9 PUSH1 0xE2 SHL DUP2 MSTORE DUP1 PUSH2 0x109E PUSH1 0x4 DUP3 ADD PUSH2 0x2A9 JUMP JUMPDEST SUB SWAP1 REVERT JUMPDEST PUSH1 0x0 PUSH4 0x98FB561 PUSH1 0xE0 SHL DUP2 MSTORE DUP1 PUSH2 0x10BB PUSH1 0x4 DUP3 ADD PUSH2 0x2A9 JUMP JUMPDEST SUB SWAP1 REVERT JUMPDEST POP DUP5 PUSH2 0x10D4 PUSH2 0x10CE PUSH1 0x0 PUSH2 0xAD4 JUMP JUMPDEST SWAP2 PUSH2 0x198 JUMP JUMPDEST EQ PUSH2 0xF6F JUMP JUMPDEST PUSH2 0x10E4 PUSH1 0x0 PUSH2 0xAD4 JUMP JUMPDEST PUSH2 0xF53 JUMP JUMPDEST PUSH2 0x10F3 PUSH1 0x0 PUSH2 0xAD4 JUMP JUMPDEST PUSH2 0xF07 JUMP JUMPDEST PUSH2 0x1119 SWAP2 POP PUSH1 0x20 RETURNDATASIZE DUP2 GT PUSH2 0x111F JUMPI JUMPDEST PUSH2 0x1111 DUP2 DUP4 PUSH2 0xBAA JUMP JUMPDEST DUP2 ADD SWAP1 PUSH2 0xBE8 JUMP JUMPDEST CODESIZE PUSH2 0xEBB JUMP JUMPDEST POP RETURNDATASIZE PUSH2 0x1107 JUMP JUMPDEST PUSH2 0xC07 JUMP JUMPDEST PUSH2 0x114B SWAP2 POP DUP5 RETURNDATASIZE DUP2 GT PUSH2 0x1151 JUMPI JUMPDEST PUSH2 0x1143 DUP2 DUP4 PUSH2 0xBAA JUMP JUMPDEST DUP2 ADD SWAP1 PUSH2 0xBE8 JUMP JUMPDEST CODESIZE PUSH2 0xE6A JUMP JUMPDEST POP RETURNDATASIZE PUSH2 0x1139 JUMP JUMPDEST PUSH2 0xC07 JUMP JUMPDEST PUSH2 0xE0E JUMP JUMPDEST PUSH2 0x1177 SWAP2 PUSH2 0x116F DUP13 PUSH2 0xB60 JUMP JUMPDEST SWAP2 SWAP1 SWAP2 PUSH2 0x216B JUMP JUMPDEST DUP14 DUP14 PUSH2 0xDEE JUMP JUMPDEST PUSH2 0x1193 DUP14 PUSH2 0x118B DUP7 PUSH2 0xB60 JUMP JUMPDEST SWAP1 DUP14 SWAP2 PUSH2 0x216B JUMP JUMPDEST PUSH2 0xDD2 JUMP JUMPDEST PUSH1 0x0 PUSH4 0x521F431 PUSH1 0xE3 SHL DUP2 MSTORE DUP1 PUSH2 0x11B1 PUSH1 0x4 DUP3 ADD PUSH2 0x2A9 JUMP JUMPDEST SUB SWAP1 REVERT JUMPDEST POP DUP8 PUSH2 0x11C9 PUSH2 0x11C3 DUP7 PUSH2 0x1CA JUMP JUMPDEST SWAP2 PUSH2 0x1CA JUMP JUMPDEST EQ PUSH2 0xDA3 JUMP JUMPDEST PUSH1 0x0 PUSH4 0xBB55FD27 PUSH1 0xE0 SHL DUP2 MSTORE DUP1 PUSH2 0x11E8 PUSH1 0x4 DUP3 ADD PUSH2 0x2A9 JUMP JUMPDEST SUB SWAP1 REVERT JUMPDEST POP DUP7 PUSH2 0x1200 PUSH2 0x11FA DUP8 PUSH2 0xAF0 JUMP JUMPDEST SWAP2 PUSH2 0x198 JUMP JUMPDEST LT ISZERO PUSH2 0xD5D JUMP JUMPDEST PUSH1 0x0 PUSH4 0x42301C23 PUSH1 0xE0 SHL DUP2 MSTORE DUP1 PUSH2 0x1220 PUSH1 0x4 DUP3 ADD PUSH2 0x2A9 JUMP JUMPDEST SUB SWAP1 REVERT JUMPDEST POP DUP5 PUSH2 0x1239 PUSH2 0x1233 PUSH1 0x0 PUSH2 0xAD4 JUMP JUMPDEST SWAP2 PUSH2 0x198 JUMP JUMPDEST EQ PUSH2 0xD30 JUMP JUMPDEST SWAP1 PUSH2 0x124C SWAP5 SWAP4 SWAP3 SWAP2 PUSH2 0xAB2 JUMP JUMPDEST JUMP JUMPDEST PUSH1 0x60 SWAP1 JUMP JUMPDEST PUSH4 0x4E487B71 PUSH1 0xE0 SHL PUSH1 0x0 MSTORE PUSH1 0x22 PUSH1 0x4 MSTORE PUSH1 0x24 PUSH1 0x0 REVERT JUMPDEST SWAP1 PUSH1 0x1 PUSH1 0x2 DUP4 DIV SWAP3 AND DUP1 ISZERO PUSH2 0x1289 JUMPI JUMPDEST PUSH1 0x20 DUP4 LT EQ PUSH2 0x1284 JUMPI JUMP JUMPDEST PUSH2 0x1253 JUMP JUMPDEST SWAP2 PUSH1 0x7F AND SWAP2 PUSH2 0x1279 JUMP JUMPDEST PUSH1 0x20 SWAP2 DUP2 MSTORE ADD SWAP1 JUMP JUMPDEST PUSH1 0x0 MSTORE PUSH1 0x20 PUSH1 0x0 KECCAK256 SWAP1 JUMP JUMPDEST SWAP1 PUSH1 0x0 SWAP3 SWAP2 DUP1 SLOAD SWAP1 PUSH2 0x12C2 PUSH2 0x12BB DUP4 PUSH2 0x1269 JUMP JUMPDEST DUP1 SWAP5 PUSH2 0x1293 JUMP JUMPDEST SWAP2 PUSH1 0x1 DUP2 AND SWAP1 DUP2 PUSH1 0x0 EQ PUSH2 0x131B JUMPI POP PUSH1 0x1 EQ PUSH2 0x12DE JUMPI JUMPDEST POP POP POP JUMP JUMPDEST PUSH2 0x12EB SWAP2 SWAP3 SWAP4 SWAP5 POP PUSH2 0x129C JUMP JUMPDEST SWAP2 PUSH1 0x0 SWAP3 JUMPDEST DUP2 DUP5 LT PUSH2 0x1303 JUMPI POP POP ADD SWAP1 CODESIZE DUP1 DUP1 PUSH2 0x12D9 JUMP JUMPDEST PUSH1 0x1 DUP2 PUSH1 0x20 SWAP3 SWAP6 SWAP4 SWAP6 SLOAD DUP5 DUP7 ADD MSTORE ADD SWAP2 ADD SWAP3 SWAP1 PUSH2 0x12F0 JUMP JUMPDEST SWAP3 SWAP5 SWAP6 POP POP POP PUSH1 0xFF NOT AND DUP3 MSTORE ISZERO ISZERO PUSH1 0x20 MUL ADD SWAP1 CODESIZE DUP1 DUP1 PUSH2 0x12D9 JUMP JUMPDEST SWAP1 PUSH2 0x1340 SWAP2 PUSH2 0x12A7 JUMP JUMPDEST SWAP1 JUMP JUMPDEST SWAP1 PUSH2 0x1363 PUSH2 0x135C SWAP3 PUSH2 0x1353 PUSH2 0x183 JUMP JUMPDEST SWAP4 DUP5 DUP1 SWAP3 PUSH2 0x1336 JUMP JUMPDEST SUB DUP4 PUSH2 0xBAA JUMP JUMPDEST JUMP JUMPDEST PUSH2 0x136E SWAP1 PUSH2 0x1343 JUMP JUMPDEST SWAP1 JUMP JUMPDEST PUSH2 0x1379 PUSH2 0x124E JUMP JUMPDEST POP PUSH2 0x1384 PUSH1 0x3 PUSH2 0x1365 JUMP JUMPDEST SWAP1 JUMP JUMPDEST PUSH1 0x0 SWAP1 JUMP JUMPDEST PUSH1 0x0 SWAP1 JUMP JUMPDEST PUSH14 0xFFFFFFFFFFFFFFFFFFFFFFFFFFFF AND SWAP1 JUMP JUMPDEST PUSH2 0x13B0 PUSH2 0x13B5 SWAP2 PUSH2 0xB11 JUMP JUMPDEST PUSH2 0x1391 JUMP JUMPDEST SWAP1 JUMP JUMPDEST PUSH2 0x13C2 SWAP1 SLOAD PUSH2 0x13A4 JUMP JUMPDEST SWAP1 JUMP JUMPDEST PUSH1 0x70 SHR SWAP1 JUMP JUMPDEST PUSH2 0x13D7 PUSH2 0x13DC SWAP2 PUSH2 0x13C5 JUMP JUMPDEST PUSH2 0x1391 JUMP JUMPDEST SWAP1 JUMP JUMPDEST PUSH2 0x13E9 SWAP1 SLOAD PUSH2 0x13CB JUMP JUMPDEST SWAP1 JUMP JUMPDEST PUSH4 0xFFFFFFFF AND SWAP1 JUMP JUMPDEST PUSH2 0x1401 PUSH2 0x1406 SWAP2 PUSH2 0x17D JUMP JUMPDEST PUSH2 0x13EC JUMP JUMPDEST SWAP1 JUMP JUMPDEST PUSH2 0x1413 SWAP1 SLOAD PUSH2 0x13F5 JUMP JUMPDEST SWAP1 JUMP JUMPDEST PUSH2 0x141E PUSH2 0x1387 JUMP JUMPDEST POP PUSH2 0x1427 PUSH2 0x1387 JUMP JUMPDEST POP PUSH2 0x1430 PUSH2 0x138C JUMP JUMPDEST POP PUSH2 0x143B PUSH1 0x9 PUSH2 0x13B8 JUMP JUMPDEST SWAP1 PUSH2 0x1446 PUSH1 0x9 PUSH2 0x13DF JUMP JUMPDEST SWAP1 PUSH2 0x1451 PUSH1 0x9 PUSH2 0x1409 JUMP JUMPDEST SWAP1 JUMP JUMPDEST PUSH1 0x0 SWAP1 JUMP JUMPDEST PUSH2 0x1476 SWAP2 PUSH2 0x1465 PUSH2 0x1454 JUMP JUMPDEST POP PUSH2 0x146E PUSH2 0x26A0 JUMP JUMPDEST SWAP2 SWAP1 SWAP2 PUSH2 0x26AD JUMP JUMPDEST PUSH1 0x1 SWAP1 JUMP JUMPDEST PUSH2 0x1487 PUSH2 0x148C SWAP2 PUSH2 0xB11 JUMP JUMPDEST PUSH2 0x704 JUMP JUMPDEST SWAP1 JUMP JUMPDEST PUSH2 0x1499 SWAP1 SLOAD PUSH2 0x147B JUMP JUMPDEST SWAP1 JUMP JUMPDEST PUSH2 0x14A4 PUSH2 0xB0C JUMP JUMPDEST POP PUSH2 0x14AF PUSH1 0x2 PUSH2 0x148F JUMP JUMPDEST SWAP1 JUMP JUMPDEST SWAP2 PUSH2 0x14DC SWAP3 PUSH2 0x14BF PUSH2 0x1454 JUMP JUMPDEST POP PUSH2 0x14D4 PUSH2 0x14CB PUSH2 0x26A0 JUMP JUMPDEST DUP3 SWAP1 DUP5 SWAP2 PUSH2 0x26FE JUMP JUMPDEST SWAP2 SWAP1 SWAP2 PUSH2 0x27B5 JUMP JUMPDEST PUSH1 0x1 SWAP1 JUMP JUMPDEST PUSH1 0x0 SWAP1 JUMP JUMPDEST SWAP1 JUMP JUMPDEST PUSH2 0x14FD PUSH2 0x14F8 PUSH2 0x1502 SWAP3 PUSH2 0x14E6 JUMP JUMPDEST PUSH2 0x94D JUMP JUMPDEST PUSH2 0x644 JUMP JUMPDEST SWAP1 JUMP JUMPDEST PUSH2 0x150D PUSH2 0x14E1 JUMP JUMPDEST POP PUSH2 0x1518 PUSH1 0x12 PUSH2 0x14E9 JUMP JUMPDEST SWAP1 JUMP JUMPDEST PUSH1 0x0 SHL SWAP1 JUMP JUMPDEST SWAP1 PUSH2 0x1532 PUSH1 0x1 DUP1 PUSH1 0xA0 SHL SUB SWAP2 PUSH2 0x151B JUMP JUMPDEST SWAP2 DUP2 NOT AND SWAP2 AND OR SWAP1 JUMP JUMPDEST SWAP1 JUMP JUMPDEST SWAP1 PUSH2 0x1554 PUSH2 0x154F PUSH2 0x155B SWAP3 PUSH2 0xCC6 JUMP JUMPDEST PUSH2 0x153C JUMP JUMPDEST DUP3 SLOAD PUSH2 0x1521 JUMP JUMPDEST SWAP1 SSTORE JUMP JUMPDEST SWAP1 CALLER PUSH2 0x157C PUSH2 0x1576 PUSH2 0x1571 PUSH1 0x6 PUSH2 0xB2B JUMP JUMPDEST PUSH2 0x1CA JUMP JUMPDEST SWAP2 PUSH2 0x1CA JUMP JUMPDEST SUB PUSH2 0x1598 JUMPI PUSH2 0x158F PUSH2 0x1596 SWAP3 PUSH1 0x7 PUSH2 0x153F JUMP JUMPDEST PUSH1 0x8 PUSH2 0x153F JUMP JUMPDEST JUMP JUMPDEST PUSH1 0x0 PUSH3 0x82B429 PUSH1 0xE8 SHL DUP2 MSTORE DUP1 PUSH2 0x15B0 PUSH1 0x4 DUP3 ADD PUSH2 0x2A9 JUMP JUMPDEST SUB SWAP1 REVERT JUMPDEST SWAP1 PUSH2 0x15C6 SWAP2 PUSH2 0x15C1 PUSH2 0x2086 JUMP JUMPDEST PUSH2 0x168A JUMP JUMPDEST SWAP1 PUSH2 0x15CF PUSH2 0x210B JUMP JUMPDEST JUMP JUMPDEST PUSH4 0x4E487B71 PUSH1 0xE0 SHL PUSH1 0x0 MSTORE PUSH1 0x12 PUSH1 0x4 MSTORE PUSH1 0x24 PUSH1 0x0 REVERT JUMPDEST PUSH2 0x15F3 PUSH2 0x15F9 SWAP2 PUSH2 0x198 JUMP JUMPDEST SWAP2 PUSH2 0x198 JUMP JUMPDEST SWAP1 DUP2 ISZERO PUSH2 0x1604 JUMPI DIV SWAP1 JUMP JUMPDEST PUSH2 0x15D1 JUMP JUMPDEST SWAP1 JUMP JUMPDEST PUSH2 0x1620 PUSH2 0x161B PUSH2 0x1625 SWAP3 PUSH2 0x1609 JUMP JUMPDEST PUSH2 0x94D JUMP JUMPDEST PUSH2 0x1BF JUMP JUMPDEST SWAP1 JUMP JUMPDEST PUSH2 0x1631 SWAP1 PUSH2 0x160C JUMP JUMPDEST SWAP1 JUMP JUMPDEST SWAP1 PUSH2 0x1641 PUSH1 0x0 NOT SWAP2 PUSH2 0x151B JUMP JUMPDEST SWAP2 DUP2 NOT AND SWAP2 AND OR SWAP1 JUMP JUMPDEST PUSH2 0x165F PUSH2 0x165A PUSH2 0x1664 SWAP3 PUSH2 0x198 JUMP JUMPDEST PUSH2 0x94D JUMP JUMPDEST PUSH2 0x198 JUMP JUMPDEST SWAP1 JUMP JUMPDEST SWAP1 JUMP JUMPDEST SWAP1 PUSH2 0x167F PUSH2 0x167A PUSH2 0x1686 SWAP3 PUSH2 0x164B JUMP JUMPDEST PUSH2 0x1667 JUMP JUMPDEST DUP3 SLOAD PUSH2 0x1634 JUMP JUMPDEST SWAP1 SSTORE JUMP JUMPDEST SWAP2 SWAP1 SWAP2 POP DUP2 PUSH2 0x16A9 PUSH2 0x16A3 PUSH2 0x169E ADDRESS PUSH2 0xB88 JUMP JUMPDEST PUSH2 0x1CA JUMP JUMPDEST SWAP2 PUSH2 0x1CA JUMP JUMPDEST EQ PUSH2 0x19A6 JUMPI PUSH2 0x16B6 PUSH2 0x1416 JUMP JUMPDEST POP SWAP3 SWAP1 SWAP3 SWAP1 PUSH2 0x170C PUSH1 0x20 PUSH2 0x16DA PUSH2 0x16D5 PUSH2 0x16D0 PUSH1 0x7 PUSH2 0xB2B JUMP JUMPDEST PUSH2 0xB60 JUMP JUMPDEST PUSH2 0xB7C JUMP JUMPDEST PUSH4 0x70A08231 SWAP1 PUSH2 0x1701 PUSH2 0x16EC ADDRESS PUSH2 0xB88 JUMP JUMPDEST SWAP3 PUSH2 0x16F5 PUSH2 0x183 JUMP JUMPDEST SWAP6 DUP7 SWAP5 DUP6 SWAP4 DUP5 SWAP4 PUSH2 0xBD3 JUMP JUMPDEST DUP4 MSTORE PUSH1 0x4 DUP4 ADD PUSH2 0x530 JUMP JUMPDEST SUB SWAP2 GAS STATICCALL SWAP1 DUP2 ISZERO PUSH2 0x19A1 JUMPI PUSH1 0x0 SWAP2 PUSH2 0x1973 JUMPI JUMPDEST POP SWAP4 PUSH2 0x1772 PUSH1 0x20 PUSH2 0x1740 PUSH2 0x173B PUSH2 0x1736 PUSH1 0x8 PUSH2 0xB2B JUMP JUMPDEST PUSH2 0xB60 JUMP JUMPDEST PUSH2 0xB7C JUMP JUMPDEST PUSH4 0x70A08231 SWAP1 PUSH2 0x1767 PUSH2 0x1752 ADDRESS PUSH2 0xB88 JUMP JUMPDEST SWAP3 PUSH2 0x175B PUSH2 0x183 JUMP JUMPDEST SWAP6 DUP7 SWAP5 DUP6 SWAP4 DUP5 SWAP4 PUSH2 0xBD3 JUMP JUMPDEST DUP4 MSTORE PUSH1 0x4 DUP4 ADD PUSH2 0x530 JUMP JUMPDEST SUB SWAP2 GAS STATICCALL SWAP1 DUP2 ISZERO PUSH2 0x196E JUMPI PUSH1 0x0 SWAP2 PUSH2 0x1940 JUMPI JUMPDEST POP SWAP2 PUSH2 0x179A DUP7 PUSH2 0x1794 DUP5 PUSH2 0xAF0 JUMP JUMPDEST SWAP1 PUSH2 0xC2E JUMP JUMPDEST SWAP3 PUSH2 0x17AE DUP2 PUSH2 0x17A8 DUP8 PUSH2 0xAF0 JUMP JUMPDEST SWAP1 PUSH2 0xC2E JUMP JUMPDEST SWAP5 PUSH2 0x17BA DUP5 DUP3 SWAP1 PUSH2 0x28C9 JUMP JUMPDEST SWAP4 PUSH2 0x17C3 PUSH2 0x149C JUMP JUMPDEST DUP1 PUSH2 0x17D7 PUSH2 0x17D1 PUSH1 0x0 PUSH2 0xAD4 JUMP JUMPDEST SWAP2 PUSH2 0x198 JUMP JUMPDEST EQ PUSH1 0x0 EQ PUSH2 0x18F7 JUMPI POP PUSH2 0x1804 PUSH2 0x17F6 PUSH2 0x17F1 DUP9 DUP11 SWAP1 PUSH2 0xC53 JUMP JUMPDEST PUSH2 0x2ADF JUMP JUMPDEST PUSH2 0x17FE PUSH2 0x96C JUMP JUMPDEST SWAP1 PUSH2 0xC2E JUMP JUMPDEST SWAP9 PUSH2 0x1821 PUSH2 0x1813 PUSH2 0xDEAD PUSH2 0x1628 JUMP JUMPDEST PUSH2 0x181B PUSH2 0x96C JUMP JUMPDEST SWAP1 PUSH2 0x2BAE JUMP JUMPDEST JUMPDEST DUP10 PUSH2 0x1836 PUSH2 0x1830 PUSH1 0x0 PUSH2 0xAD4 JUMP JUMPDEST SWAP2 PUSH2 0x198 JUMP JUMPDEST EQ PUSH2 0x18DA JUMPI PUSH2 0x1849 PUSH2 0x1852 SWAP6 DUP12 SWAP1 PUSH2 0x2BAE JUMP JUMPDEST SWAP3 SWAP1 SWAP2 SWAP3 PUSH2 0x2464 JUMP JUMPDEST PUSH2 0x189E JUMPI JUMPDEST CALLER SWAP1 SWAP2 PUSH2 0x1884 PUSH32 0x4C209B5FC8AD50758F13E2E1088BA56A560DFF690A1C6FEF26394F4C03821C4F SWAP3 PUSH2 0xCC6 JUMP JUMPDEST SWAP3 PUSH2 0x1899 PUSH2 0x1890 PUSH2 0x183 JUMP JUMPDEST SWAP3 DUP4 SWAP3 DUP4 PUSH2 0x885 JUMP JUMPDEST SUB SWAP1 LOG2 JUMP JUMPDEST PUSH2 0x18D5 PUSH2 0x18CE PUSH2 0x18B6 PUSH2 0x18B1 PUSH1 0x9 PUSH2 0x13B8 JUMP JUMPDEST PUSH2 0xAF0 JUMP JUMPDEST PUSH2 0x18C8 PUSH2 0x18C3 PUSH1 0x9 PUSH2 0x13DF JUMP JUMPDEST PUSH2 0xAF0 JUMP JUMPDEST SWAP1 PUSH2 0xC53 JUMP JUMPDEST PUSH1 0xC PUSH2 0x166A JUMP JUMPDEST PUSH2 0x1857 JUMP JUMPDEST PUSH1 0x0 PUSH4 0xBB55FD27 PUSH1 0xE0 SHL DUP2 MSTORE DUP1 PUSH2 0x18F3 PUSH1 0x4 DUP3 ADD PUSH2 0x2A9 JUMP JUMPDEST SUB SWAP1 REVERT JUMPDEST PUSH2 0x193A SWAP1 PUSH2 0x1934 PUSH2 0x1925 PUSH2 0x191E PUSH2 0x190F DUP12 DUP6 SWAP1 PUSH2 0xC53 JUMP JUMPDEST PUSH2 0x1918 DUP8 PUSH2 0xAF0 JUMP JUMPDEST SWAP1 PUSH2 0x15E7 JUMP JUMPDEST SWAP3 DUP12 PUSH2 0xC53 JUMP JUMPDEST PUSH2 0x192E DUP7 PUSH2 0xAF0 JUMP JUMPDEST SWAP1 PUSH2 0x15E7 JUMP JUMPDEST SWAP1 PUSH2 0x2AAE JUMP JUMPDEST SWAP9 PUSH2 0x1822 JUMP JUMPDEST PUSH2 0x1961 SWAP2 POP PUSH1 0x20 RETURNDATASIZE DUP2 GT PUSH2 0x1967 JUMPI JUMPDEST PUSH2 0x1959 DUP2 DUP4 PUSH2 0xBAA JUMP JUMPDEST DUP2 ADD SWAP1 PUSH2 0xBE8 JUMP JUMPDEST CODESIZE PUSH2 0x1785 JUMP JUMPDEST POP RETURNDATASIZE PUSH2 0x194F JUMP JUMPDEST PUSH2 0xC07 JUMP JUMPDEST PUSH2 0x1994 SWAP2 POP PUSH1 0x20 RETURNDATASIZE DUP2 GT PUSH2 0x199A JUMPI JUMPDEST PUSH2 0x198C DUP2 DUP4 PUSH2 0xBAA JUMP JUMPDEST DUP2 ADD SWAP1 PUSH2 0xBE8 JUMP JUMPDEST CODESIZE PUSH2 0x171F JUMP JUMPDEST POP RETURNDATASIZE PUSH2 0x1982 JUMP JUMPDEST PUSH2 0xC07 JUMP JUMPDEST PUSH1 0x0 PUSH4 0x521F431 PUSH1 0xE3 SHL DUP2 MSTORE DUP1 PUSH2 0x19BF PUSH1 0x4 DUP3 ADD PUSH2 0x2A9 JUMP JUMPDEST SUB SWAP1 REVERT JUMPDEST PUSH2 0x19D4 SWAP1 PUSH2 0x19CF PUSH2 0xB0C JUMP JUMPDEST PUSH2 0x15B4 JUMP JUMPDEST SWAP1 JUMP JUMPDEST SWAP1 PUSH2 0x19E1 SWAP1 PUSH2 0xCC6 JUMP JUMPDEST PUSH1 0x0 MSTORE PUSH1 0x20 MSTORE PUSH1 0x40 PUSH1 0x0 KECCAK256 SWAP1 JUMP JUMPDEST PUSH2 0x1A06 PUSH2 0x1A0B SWAP2 PUSH2 0x19FE PUSH2 0xB0C JUMP JUMPDEST POP PUSH1 0x0 PUSH2 0x19D7 JUMP JUMPDEST PUSH2 0x148F JUMP JUMPDEST SWAP1 JUMP JUMPDEST SWAP1 PUSH2 0x1A21 SWAP3 SWAP2 PUSH2 0x1A1C PUSH2 0x2086 JUMP JUMPDEST PUSH2 0x1A2D JUMP JUMPDEST SWAP1 SWAP2 PUSH2 0x1A2B PUSH2 0x210B JUMP JUMPDEST JUMP JUMPDEST SWAP3 SWAP2 SWAP3 POP POP DUP2 PUSH2 0x1A4D PUSH2 0x1A47 PUSH2 0x1A42 ADDRESS PUSH2 0xB88 JUMP JUMPDEST PUSH2 0x1CA JUMP JUMPDEST SWAP2 PUSH2 0x1CA JUMP JUMPDEST EQ PUSH2 0x1E33 JUMPI PUSH2 0x1A5A PUSH2 0x1416 JUMP JUMPDEST POP SWAP2 SWAP1 SWAP2 SWAP3 PUSH2 0x1A69 PUSH1 0x7 PUSH2 0xB2B JUMP JUMPDEST PUSH2 0x1A73 PUSH1 0x8 PUSH2 0xB2B JUMP JUMPDEST SWAP1 PUSH2 0x1ABC PUSH1 0x20 PUSH2 0x1A8A PUSH2 0x1A85 DUP5 PUSH2 0xB60 JUMP JUMPDEST PUSH2 0xB7C JUMP JUMPDEST PUSH4 0x70A08231 SWAP1 PUSH2 0x1AB1 PUSH2 0x1A9C ADDRESS PUSH2 0xB88 JUMP JUMPDEST SWAP3 PUSH2 0x1AA5 PUSH2 0x183 JUMP JUMPDEST SWAP6 DUP7 SWAP5 DUP6 SWAP4 DUP5 SWAP4 PUSH2 0xBD3 JUMP JUMPDEST DUP4 MSTORE PUSH1 0x4 DUP4 ADD PUSH2 0x530 JUMP JUMPDEST SUB SWAP2 GAS STATICCALL SWAP1 DUP2 ISZERO PUSH2 0x1E2E JUMPI PUSH1 0x0 SWAP2 PUSH2 0x1E00 JUMPI JUMPDEST POP SWAP2 PUSH2 0x1B19 PUSH1 0x20 PUSH2 0x1AE7 PUSH2 0x1AE2 DUP5 PUSH2 0xB60 JUMP JUMPDEST PUSH2 0xB7C JUMP JUMPDEST PUSH4 0x70A08231 SWAP1 PUSH2 0x1B0E PUSH2 0x1AF9 ADDRESS PUSH2 0xB88 JUMP JUMPDEST SWAP3 PUSH2 0x1B02 PUSH2 0x183 JUMP JUMPDEST SWAP6 DUP7 SWAP5 DUP6 SWAP4 DUP5 SWAP4 PUSH2 0xBD3 JUMP JUMPDEST DUP4 MSTORE PUSH1 0x4 DUP4 ADD PUSH2 0x530 JUMP JUMPDEST SUB SWAP2 GAS STATICCALL SWAP1 DUP2 ISZERO PUSH2 0x1DFB JUMPI PUSH1 0x0 SWAP2 PUSH2 0x1DCD JUMPI JUMPDEST POP SWAP7 PUSH2 0x1B3F PUSH2 0x1B3A ADDRESS PUSH2 0xB88 JUMP JUMPDEST PUSH2 0x19EF JUMP JUMPDEST SWAP7 PUSH2 0x1B7A PUSH2 0x1B4E DUP3 DUP5 SWAP1 PUSH2 0x28C9 JUMP JUMPDEST SWAP6 PUSH2 0x1B75 PUSH2 0x1B6E PUSH2 0x1B67 PUSH2 0x1B60 PUSH2 0x149C JUMP JUMPDEST SWAP4 DUP14 PUSH2 0xC53 JUMP JUMPDEST DUP4 SWAP1 PUSH2 0x15E7 JUMP JUMPDEST SWAP12 DUP12 PUSH2 0xC53 JUMP JUMPDEST PUSH2 0x15E7 JUMP JUMPDEST SWAP8 DUP10 PUSH2 0x1B8F PUSH2 0x1B89 PUSH1 0x0 PUSH2 0xAD4 JUMP JUMPDEST SWAP2 PUSH2 0x198 JUMP JUMPDEST EQ DUP1 ISZERO PUSH2 0x1DB2 JUMPI JUMPDEST PUSH2 0x1D95 JUMPI PUSH2 0x1BEE PUSH2 0x1BE9 PUSH2 0x1C20 SWAP7 PUSH2 0x1BB9 PUSH1 0x20 SWAP5 PUSH2 0x1BB4 ADDRESS PUSH2 0xB88 JUMP JUMPDEST PUSH2 0x2C10 JUMP JUMPDEST PUSH2 0x1BCF DUP14 PUSH2 0x1BC6 DUP4 PUSH2 0xB60 JUMP JUMPDEST SWAP1 DUP13 SWAP1 SWAP2 PUSH2 0x216B JUMP JUMPDEST PUSH2 0x1BE4 PUSH2 0x1BDB DUP9 PUSH2 0xB60 JUMP JUMPDEST DUP14 DUP13 SWAP1 SWAP2 PUSH2 0x216B JUMP JUMPDEST PUSH2 0xB60 JUMP JUMPDEST PUSH2 0xB7C JUMP JUMPDEST PUSH4 0x70A08231 SWAP1 PUSH2 0x1C15 PUSH2 0x1C00 ADDRESS PUSH2 0xB88 JUMP JUMPDEST SWAP3 PUSH2 0x1C09 PUSH2 0x183 JUMP JUMPDEST SWAP9 DUP10 SWAP5 DUP6 SWAP4 DUP5 SWAP4 PUSH2 0xBD3 JUMP JUMPDEST DUP4 MSTORE PUSH1 0x4 DUP4 ADD PUSH2 0x530 JUMP JUMPDEST SUB SWAP2 GAS STATICCALL SWAP4 DUP5 ISZERO PUSH2 0x1D90 JUMPI PUSH2 0x1C4C PUSH2 0x1C47 PUSH2 0x1C7E SWAP7 PUSH1 0x20 SWAP4 PUSH1 0x0 SWAP2 PUSH2 0x1D63 JUMPI JUMPDEST POP SWAP6 PUSH2 0xB60 JUMP JUMPDEST PUSH2 0xB7C JUMP JUMPDEST PUSH4 0x70A08231 SWAP1 PUSH2 0x1C73 PUSH2 0x1C5E ADDRESS PUSH2 0xB88 JUMP JUMPDEST SWAP3 PUSH2 0x1C67 PUSH2 0x183 JUMP JUMPDEST SWAP9 DUP10 SWAP5 DUP6 SWAP4 DUP5 SWAP4 PUSH2 0xBD3 JUMP JUMPDEST DUP4 MSTORE PUSH1 0x4 DUP4 ADD PUSH2 0x530 JUMP JUMPDEST SUB SWAP2 GAS STATICCALL DUP1 ISZERO PUSH2 0x1D5E JUMPI PUSH2 0x1C9D SWAP5 PUSH1 0x0 SWAP2 PUSH2 0x1D30 JUMPI JUMPDEST POP SWAP1 SWAP2 SWAP3 PUSH2 0x2464 JUMP JUMPDEST PUSH2 0x1CF4 JUMPI JUMPDEST CALLER SWAP1 DUP5 SWAP2 DUP5 PUSH2 0x1CDA PUSH2 0x1CD4 PUSH32 0xDCCD412F0B1252819CB1FD330B93224CA42612892BB3F4F789976E6D81936496 SWAP4 PUSH2 0xCC6 JUMP JUMPDEST SWAP4 PUSH2 0xCC6 JUMP JUMPDEST SWAP4 PUSH2 0x1CEF PUSH2 0x1CE6 PUSH2 0x183 JUMP JUMPDEST SWAP3 DUP4 SWAP3 DUP4 PUSH2 0x885 JUMP JUMPDEST SUB SWAP1 LOG3 JUMP JUMPDEST PUSH2 0x1D2B PUSH2 0x1D24 PUSH2 0x1D0C PUSH2 0x1D07 PUSH1 0x9 PUSH2 0x13B8 JUMP JUMPDEST PUSH2 0xAF0 JUMP JUMPDEST PUSH2 0x1D1E PUSH2 0x1D19 PUSH1 0x9 PUSH2 0x13DF JUMP JUMPDEST PUSH2 0xAF0 JUMP JUMPDEST SWAP1 PUSH2 0xC53 JUMP JUMPDEST PUSH1 0xC PUSH2 0x166A JUMP JUMPDEST PUSH2 0x1CA2 JUMP JUMPDEST PUSH2 0x1D51 SWAP2 POP PUSH1 0x20 RETURNDATASIZE DUP2 GT PUSH2 0x1D57 JUMPI JUMPDEST PUSH2 0x1D49 DUP2 DUP4 PUSH2 0xBAA JUMP JUMPDEST DUP2 ADD SWAP1 PUSH2 0xBE8 JUMP JUMPDEST CODESIZE PUSH2 0x1C94 JUMP JUMPDEST POP RETURNDATASIZE PUSH2 0x1D3F JUMP JUMPDEST PUSH2 0xC07 JUMP JUMPDEST PUSH2 0x1D83 SWAP2 POP DUP5 RETURNDATASIZE DUP2 GT PUSH2 0x1D89 JUMPI JUMPDEST PUSH2 0x1D7B DUP2 DUP4 PUSH2 0xBAA JUMP JUMPDEST DUP2 ADD SWAP1 PUSH2 0xBE8 JUMP JUMPDEST CODESIZE PUSH2 0x1C40 JUMP JUMPDEST POP RETURNDATASIZE PUSH2 0x1D71 JUMP JUMPDEST PUSH2 0xC07 JUMP JUMPDEST PUSH1 0x0 PUSH4 0x749383AD PUSH1 0xE0 SHL DUP2 MSTORE DUP1 PUSH2 0x1DAE PUSH1 0x4 DUP3 ADD PUSH2 0x2A9 JUMP JUMPDEST SUB SWAP1 REVERT JUMPDEST POP DUP9 PUSH2 0x1DC7 PUSH2 0x1DC1 PUSH1 0x0 PUSH2 0xAD4 JUMP JUMPDEST SWAP2 PUSH2 0x198 JUMP JUMPDEST EQ PUSH2 0x1B97 JUMP JUMPDEST PUSH2 0x1DEE SWAP2 POP PUSH1 0x20 RETURNDATASIZE DUP2 GT PUSH2 0x1DF4 JUMPI JUMPDEST PUSH2 0x1DE6 DUP2 DUP4 PUSH2 0xBAA JUMP JUMPDEST DUP2 ADD SWAP1 PUSH2 0xBE8 JUMP JUMPDEST CODESIZE PUSH2 0x1B2C JUMP JUMPDEST POP RETURNDATASIZE PUSH2 0x1DDC JUMP JUMPDEST PUSH2 0xC07 JUMP JUMPDEST PUSH2 0x1E21 SWAP2 POP PUSH1 0x20 RETURNDATASIZE DUP2 GT PUSH2 0x1E27 JUMPI JUMPDEST PUSH2 0x1E19 DUP2 DUP4 PUSH2 0xBAA JUMP JUMPDEST DUP2 ADD SWAP1 PUSH2 0xBE8 JUMP JUMPDEST CODESIZE PUSH2 0x1ACF JUMP JUMPDEST POP RETURNDATASIZE PUSH2 0x1E0F JUMP JUMPDEST PUSH2 0xC07 JUMP JUMPDEST PUSH1 0x0 PUSH4 0x521F431 PUSH1 0xE3 SHL DUP2 MSTORE DUP1 PUSH2 0x1E4C PUSH1 0x4 DUP3 ADD PUSH2 0x2A9 JUMP JUMPDEST SUB SWAP1 REVERT JUMPDEST PUSH2 0x1E6A SWAP1 PUSH2 0x1E5C PUSH2 0xB0C JUMP JUMPDEST PUSH2 0x1E64 PUSH2 0xB0C JUMP JUMPDEST SWAP1 PUSH2 0x1A0E JUMP JUMPDEST SWAP1 SWAP2 JUMP JUMPDEST PUSH2 0x1E76 PUSH2 0x124E JUMP JUMPDEST POP PUSH2 0x1E81 PUSH1 0x4 PUSH2 0x1365 JUMP JUMPDEST SWAP1 JUMP JUMPDEST PUSH2 0x1EA1 SWAP2 PUSH2 0x1E90 PUSH2 0x1454 JUMP JUMPDEST POP PUSH2 0x1E99 PUSH2 0x26A0 JUMP JUMPDEST SWAP2 SWAP1 SWAP2 PUSH2 0x27B5 JUMP JUMPDEST PUSH1 0x1 SWAP1 JUMP JUMPDEST SWAP1 PUSH2 0x1EB0 SWAP1 PUSH2 0xCC6 JUMP JUMPDEST PUSH1 0x0 MSTORE PUSH1 0x20 MSTORE PUSH1 0x40 PUSH1 0x0 KECCAK256 SWAP1 JUMP JUMPDEST PUSH2 0x1EE3 SWAP2 PUSH2 0x1ED9 PUSH2 0x1EDE SWAP3 PUSH2 0x1ED1 PUSH2 0xB0C JUMP JUMPDEST POP PUSH1 0x1 PUSH2 0x1EA6 JUMP JUMPDEST PUSH2 0x19D7 JUMP JUMPDEST PUSH2 0x148F JUMP JUMPDEST SWAP1 JUMP JUMPDEST PUSH2 0x1EEE PUSH2 0x2086 JUMP JUMPDEST PUSH2 0x1EF6 PUSH2 0x1F00 JUMP JUMPDEST PUSH2 0x1EFE PUSH2 0x210B JUMP JUMPDEST JUMP JUMPDEST PUSH2 0x1F51 PUSH1 0x20 PUSH2 0x1F1F PUSH2 0x1F1A PUSH2 0x1F15 PUSH1 0x7 PUSH2 0xB2B JUMP JUMPDEST PUSH2 0xB60 JUMP JUMPDEST PUSH2 0xB7C JUMP JUMPDEST PUSH4 0x70A08231 SWAP1 PUSH2 0x1F46 PUSH2 0x1F31 ADDRESS PUSH2 0xB88 JUMP JUMPDEST SWAP3 PUSH2 0x1F3A PUSH2 0x183 JUMP JUMPDEST SWAP6 DUP7 SWAP5 DUP6 SWAP4 DUP5 SWAP4 PUSH2 0xBD3 JUMP JUMPDEST DUP4 MSTORE PUSH1 0x4 DUP4 ADD PUSH2 0x530 JUMP JUMPDEST SUB SWAP2 GAS STATICCALL DUP1 ISZERO PUSH2 0x204B JUMPI PUSH2 0x1FB6 SWAP2 PUSH1 0x0 SWAP2 PUSH2 0x201D JUMPI JUMPDEST POP PUSH1 0x20 PUSH2 0x1F84 PUSH2 0x1F7F PUSH2 0x1F7A PUSH1 0x8 PUSH2 0xB2B JUMP JUMPDEST PUSH2 0xB60 JUMP JUMPDEST PUSH2 0xB7C JUMP JUMPDEST PUSH4 0x70A08231 SWAP1 PUSH2 0x1FAB PUSH2 0x1F96 ADDRESS PUSH2 0xB88 JUMP JUMPDEST SWAP3 PUSH2 0x1F9F PUSH2 0x183 JUMP JUMPDEST SWAP7 DUP8 SWAP5 DUP6 SWAP4 DUP5 SWAP4 PUSH2 0xBD3 JUMP JUMPDEST DUP4 MSTORE PUSH1 0x4 DUP4 ADD PUSH2 0x530 JUMP JUMPDEST SUB SWAP2 GAS STATICCALL DUP1 ISZERO PUSH2 0x2018 JUMPI PUSH2 0x1FE8 SWAP3 PUSH1 0x0 SWAP2 PUSH2 0x1FEA JUMPI JUMPDEST POP PUSH2 0x1FD7 PUSH1 0x9 PUSH2 0x13B8 JUMP JUMPDEST SWAP1 PUSH2 0x1FE2 PUSH1 0x9 PUSH2 0x13DF JUMP JUMPDEST SWAP3 PUSH2 0x2464 JUMP JUMPDEST JUMP JUMPDEST PUSH2 0x200B SWAP2 POP PUSH1 0x20 RETURNDATASIZE DUP2 GT PUSH2 0x2011 JUMPI JUMPDEST PUSH2 0x2003 DUP2 DUP4 PUSH2 0xBAA JUMP JUMPDEST DUP2 ADD SWAP1 PUSH2 0xBE8 JUMP JUMPDEST CODESIZE PUSH2 0x1FCC JUMP JUMPDEST POP RETURNDATASIZE PUSH2 0x1FF9 JUMP JUMPDEST PUSH2 0xC07 JUMP JUMPDEST PUSH2 0x203E SWAP2 POP PUSH1 0x20 RETURNDATASIZE DUP2 GT PUSH2 0x2044 JUMPI JUMPDEST PUSH2 0x2036 DUP2 DUP4 PUSH2 0xBAA JUMP JUMPDEST DUP2 ADD SWAP1 PUSH2 0xBE8 JUMP JUMPDEST CODESIZE PUSH2 0x1F67 JUMP JUMPDEST POP RETURNDATASIZE PUSH2 0x202C JUMP JUMPDEST PUSH2 0xC07 JUMP JUMPDEST PUSH2 0x2058 PUSH2 0x1EE6 JUMP JUMPDEST JUMP JUMPDEST SWAP1 JUMP JUMPDEST PUSH2 0x2071 PUSH2 0x206C PUSH2 0x2076 SWAP3 PUSH2 0x205A JUMP JUMPDEST PUSH2 0x94D JUMP JUMPDEST PUSH2 0x198 JUMP JUMPDEST SWAP1 JUMP JUMPDEST PUSH2 0x2083 PUSH1 0x2 PUSH2 0x205D JUMP JUMPDEST SWAP1 JUMP JUMPDEST PUSH2 0x2090 PUSH1 0x5 PUSH2 0x148F JUMP JUMPDEST PUSH2 0x20A9 PUSH2 0x20A3 PUSH2 0x209E PUSH2 0x2079 JUMP JUMPDEST PUSH2 0x198 JUMP JUMPDEST SWAP2 PUSH2 0x198 JUMP JUMPDEST EQ PUSH2 0x20C2 JUMPI PUSH2 0x20C0 PUSH2 0x20B9 PUSH2 0x2079 JUMP JUMPDEST PUSH1 0x5 PUSH2 0x166A JUMP JUMPDEST JUMP JUMPDEST PUSH1 0x0 PUSH4 0x3EE5AEB5 PUSH1 0xE0 SHL DUP2 MSTORE DUP1 PUSH2 0x20DB PUSH1 0x4 DUP3 ADD PUSH2 0x2A9 JUMP JUMPDEST SUB SWAP1 REVERT JUMPDEST SWAP1 JUMP JUMPDEST PUSH2 0x20F6 PUSH2 0x20F1 PUSH2 0x20FB SWAP3 PUSH2 0x20DF JUMP JUMPDEST PUSH2 0x94D JUMP JUMPDEST PUSH2 0x198 JUMP JUMPDEST SWAP1 JUMP JUMPDEST PUSH2 0x2108 PUSH1 0x1 PUSH2 0x20E2 JUMP JUMPDEST SWAP1 JUMP JUMPDEST PUSH2 0x211D PUSH2 0x2116 PUSH2 0x20FE JUMP JUMPDEST PUSH1 0x5 PUSH2 0x166A JUMP JUMPDEST JUMP JUMPDEST PUSH4 0xFFFFFFFF PUSH1 0xE0 SHL AND SWAP1 JUMP JUMPDEST PUSH2 0x213F PUSH2 0x213A PUSH2 0x2144 SWAP3 PUSH2 0x3D1 JUMP JUMPDEST PUSH2 0xBD3 JUMP JUMPDEST PUSH2 0x211F JUMP JUMPDEST SWAP1 JUMP JUMPDEST SWAP2 PUSH1 0x20 PUSH2 0x2169 SWAP3 SWAP5 SWAP4 PUSH2 0x2162 PUSH1 0x40 DUP3 ADD SWAP7 PUSH1 0x0 DUP4 ADD SWAP1 PUSH2 0x523 JUMP JUMPDEST ADD SWAP1 PUSH2 0x57B JUMP JUMPDEST JUMP JUMPDEST SWAP1 PUSH2 0x21B2 PUSH2 0x21B7 SWAP4 PUSH2 0x21A3 PUSH1 0x4 SWAP5 SWAP4 PUSH2 0x218A PUSH4 0xA9059CBB SWAP2 SWAP4 SWAP2 PUSH2 0x212B JUMP JUMPDEST SWAP3 PUSH2 0x2193 PUSH2 0x183 JUMP JUMPDEST SWAP7 DUP8 SWAP5 PUSH1 0x20 DUP7 ADD SWAP1 DUP2 MSTORE ADD PUSH2 0x2147 JUMP JUMPDEST PUSH1 0x20 DUP3 ADD DUP2 SUB DUP3 MSTORE SUB DUP4 PUSH2 0xBAA JUMP JUMPDEST PUSH2 0x2C73 JUMP JUMPDEST JUMP JUMPDEST SWAP1 JUMP JUMPDEST PUSH2 0x21D0 PUSH2 0x21CB PUSH2 0x21D5 SWAP3 PUSH2 0x21B9 JUMP JUMPDEST PUSH2 0x94D JUMP JUMPDEST PUSH2 0x198 JUMP JUMPDEST SWAP1 JUMP JUMPDEST PUSH2 0x21E4 PUSH2 0x21EA SWAP2 PUSH2 0x198 JUMP JUMPDEST SWAP2 PUSH2 0x198 JUMP JUMPDEST SWAP1 DUP2 ISZERO PUSH2 0x21F5 JUMPI MOD SWAP1 JUMP JUMPDEST PUSH2 0x15D1 JUMP JUMPDEST PUSH2 0x220E PUSH2 0x2209 PUSH2 0x2213 SWAP3 PUSH2 0x198 JUMP JUMPDEST PUSH2 0x94D JUMP JUMPDEST PUSH2 0x3D1 JUMP JUMPDEST SWAP1 JUMP JUMPDEST PUSH2 0x2222 PUSH2 0x2228 SWAP2 PUSH2 0x3D1 JUMP JUMPDEST SWAP2 PUSH2 0x3D1 JUMP JUMPDEST SWAP1 SUB SWAP1 PUSH4 0xFFFFFFFF DUP3 GT PUSH2 0x2238 JUMPI JUMP JUMPDEST PUSH2 0xC18 JUMP JUMPDEST PUSH2 0x2251 PUSH2 0x224C PUSH2 0x2256 SWAP3 PUSH2 0xAD1 JUMP JUMPDEST PUSH2 0x94D JUMP JUMPDEST PUSH2 0x3D1 JUMP JUMPDEST SWAP1 JUMP JUMPDEST PUSH2 0x226D PUSH2 0x2268 PUSH2 0x2272 SWAP3 PUSH2 0xAD1 JUMP JUMPDEST PUSH2 0x94D JUMP JUMPDEST PUSH2 0x3B1 JUMP JUMPDEST SWAP1 JUMP JUMPDEST PUSH1 0x1 DUP1 PUSH1 0xE0 SHL SUB AND SWAP1 JUMP JUMPDEST PUSH2 0x2294 PUSH2 0x228F PUSH2 0x2299 SWAP3 PUSH2 0x3B1 JUMP JUMPDEST PUSH2 0x94D JUMP JUMPDEST PUSH2 0x2275 JUMP JUMPDEST SWAP1 JUMP JUMPDEST PUSH2 0x22A8 PUSH2 0x22AE SWAP2 PUSH2 0x2275 JUMP JUMPDEST SWAP2 PUSH2 0x2275 JUMP JUMPDEST SWAP1 DUP2 ISZERO PUSH2 0x22B9 JUMPI DIV SWAP1 JUMP JUMPDEST PUSH2 0x15D1 JUMP JUMPDEST PUSH2 0x22D2 PUSH2 0x22CD PUSH2 0x22D7 SWAP3 PUSH2 0x2275 JUMP JUMPDEST PUSH2 0x94D JUMP JUMPDEST PUSH2 0x198 JUMP JUMPDEST SWAP1 JUMP JUMPDEST PUSH2 0x22EE PUSH2 0x22E9 PUSH2 0x22F3 SWAP3 PUSH2 0x3D1 JUMP JUMPDEST PUSH2 0x94D JUMP JUMPDEST PUSH2 0x198 JUMP JUMPDEST SWAP1 JUMP JUMPDEST PUSH2 0x2305 PUSH2 0x230B SWAP2 SWAP4 SWAP3 SWAP4 PUSH2 0x198 JUMP JUMPDEST SWAP3 PUSH2 0x198 JUMP JUMPDEST DUP3 ADD DUP1 SWAP3 GT PUSH2 0x2316 JUMPI JUMP JUMPDEST PUSH2 0xC18 JUMP JUMPDEST PUSH2 0x232F PUSH2 0x232A PUSH2 0x2334 SWAP3 PUSH2 0x198 JUMP JUMPDEST PUSH2 0x94D JUMP JUMPDEST PUSH2 0x3B1 JUMP JUMPDEST SWAP1 JUMP JUMPDEST SWAP1 PUSH2 0x2350 PUSH14 0xFFFFFFFFFFFFFFFFFFFFFFFFFFFF SWAP2 PUSH2 0x151B JUMP JUMPDEST SWAP2 DUP2 NOT AND SWAP2 AND OR SWAP1 JUMP JUMPDEST PUSH2 0x236E PUSH2 0x2369 PUSH2 0x2373 SWAP3 PUSH2 0x3B1 JUMP JUMPDEST PUSH2 0x94D JUMP JUMPDEST PUSH2 0x3B1 JUMP JUMPDEST SWAP1 JUMP JUMPDEST SWAP1 JUMP JUMPDEST SWAP1 PUSH2 0x238E PUSH2 0x2389 PUSH2 0x2395 SWAP3 PUSH2 0x235A JUMP JUMPDEST PUSH2 0x2376 JUMP JUMPDEST DUP3 SLOAD PUSH2 0x2337 JUMP JUMPDEST SWAP1 SSTORE JUMP JUMPDEST PUSH1 0x70 SHL SWAP1 JUMP JUMPDEST SWAP1 PUSH2 0x23BB PUSH14 0xFFFFFFFFFFFFFFFFFFFFFFFFFFFF PUSH1 0x70 SHL SWAP2 PUSH2 0x2399 JUMP JUMPDEST SWAP2 DUP2 NOT AND SWAP2 AND OR SWAP1 JUMP JUMPDEST SWAP1 PUSH2 0x23DA PUSH2 0x23D5 PUSH2 0x23E1 SWAP3 PUSH2 0x235A JUMP JUMPDEST PUSH2 0x2376 JUMP JUMPDEST DUP3 SLOAD PUSH2 0x239F JUMP JUMPDEST SWAP1 SSTORE JUMP JUMPDEST SWAP1 PUSH2 0x23F7 PUSH4 0xFFFFFFFF PUSH1 0xE0 SHL SWAP2 PUSH2 0xBD3 JUMP JUMPDEST SWAP2 DUP2 NOT AND SWAP2 AND OR SWAP1 JUMP JUMPDEST PUSH2 0x2415 PUSH2 0x2410 PUSH2 0x241A SWAP3 PUSH2 0x3D1 JUMP JUMPDEST PUSH2 0x94D JUMP JUMPDEST PUSH2 0x3D1 JUMP JUMPDEST SWAP1 JUMP JUMPDEST SWAP1 JUMP JUMPDEST SWAP1 PUSH2 0x2435 PUSH2 0x2430 PUSH2 0x243C SWAP3 PUSH2 0x2401 JUMP JUMPDEST PUSH2 0x241D JUMP JUMPDEST DUP3 SLOAD PUSH2 0x23E5 JUMP JUMPDEST SWAP1 SSTORE JUMP JUMPDEST SWAP2 PUSH1 0x20 PUSH2 0x2462 SWAP3 SWAP5 SWAP4 PUSH2 0x245B PUSH1 0x40 DUP3 ADD SWAP7 PUSH1 0x0 DUP4 ADD SWAP1 PUSH2 0x3C4 JUMP JUMPDEST ADD SWAP1 PUSH2 0x3C4 JUMP JUMPDEST JUMP JUMPDEST SWAP1 SWAP3 DUP2 PUSH2 0x2487 PUSH2 0x2481 PUSH14 0xFFFFFFFFFFFFFFFFFFFFFFFFFFFF PUSH2 0xAF0 JUMP JUMPDEST SWAP2 PUSH2 0x198 JUMP JUMPDEST GT DUP1 ISZERO PUSH2 0x2673 JUMPI JUMPDEST PUSH2 0x2656 JUMPI PUSH2 0x2523 SWAP4 PUSH2 0x2510 PUSH2 0x2509 PUSH2 0x251C SWAP5 PUSH2 0x2515 SWAP5 PUSH2 0x24C5 PUSH2 0x24C0 TIMESTAMP PUSH2 0x24BA PUSH5 0x100000000 PUSH2 0x21BC JUMP JUMPDEST SWAP1 PUSH2 0x21D8 JUMP JUMPDEST PUSH2 0x21FA JUMP JUMPDEST SWAP8 PUSH2 0x24DA DUP10 PUSH2 0x24D4 PUSH1 0x9 PUSH2 0x1409 JUMP JUMPDEST SWAP1 PUSH2 0x2216 JUMP JUMPDEST SWAP2 DUP3 PUSH2 0x24EF PUSH2 0x24E9 PUSH1 0x0 PUSH2 0x223D JUMP JUMPDEST SWAP2 PUSH2 0x3D1 JUMP JUMPDEST GT DUP1 PUSH2 0x263A JUMPI JUMPDEST DUP1 PUSH2 0x261E JUMPI JUMPDEST PUSH2 0x2572 JUMPI JUMPDEST POP POP POP PUSH2 0x231B JUMP JUMPDEST PUSH1 0x9 PUSH2 0x2379 JUMP JUMPDEST PUSH2 0x231B JUMP JUMPDEST PUSH1 0x9 PUSH2 0x23C5 JUMP JUMPDEST PUSH1 0x9 PUSH2 0x2420 JUMP JUMPDEST PUSH2 0x252D PUSH1 0x9 PUSH2 0x13B8 JUMP JUMPDEST PUSH2 0x2537 PUSH1 0x9 PUSH2 0x13DF JUMP JUMPDEST PUSH32 0x1C411E9A96E071241C2F21F7726B17AE89E3CAB4C78BE50E062B03A9FFFBBAD1 SWAP2 PUSH2 0x256D PUSH2 0x2564 PUSH2 0x183 JUMP JUMPDEST SWAP3 DUP4 SWAP3 DUP4 PUSH2 0x2440 JUMP JUMPDEST SUB SWAP1 LOG1 JUMP JUMPDEST PUSH2 0x2616 SWAP3 PUSH2 0x25FA PUSH2 0x25F4 PUSH2 0x25EF DUP5 PUSH2 0x25E9 PUSH2 0x25E3 PUSH2 0x260F SWAP9 PUSH2 0x25DE PUSH2 0x25D7 PUSH2 0x25C8 PUSH2 0x25B9 PUSH2 0x25B4 PUSH2 0x25A5 PUSH2 0x2600 SWAP15 PUSH2 0x2D87 JUMP JUMPDEST PUSH2 0x25AE DUP8 PUSH2 0x2280 JUMP JUMPDEST SWAP1 PUSH2 0x229C JUMP JUMPDEST PUSH2 0x22BE JUMP JUMPDEST PUSH2 0x25C2 DUP13 PUSH2 0x22DA JUMP JUMPDEST SWAP1 PUSH2 0xC53 JUMP JUMPDEST PUSH2 0x25D2 PUSH1 0xA PUSH2 0x148F JUMP JUMPDEST PUSH2 0x22F6 JUMP JUMPDEST PUSH1 0xA PUSH2 0x166A JUMP JUMPDEST PUSH2 0x2D87 JUMP JUMPDEST SWAP2 PUSH2 0x2280 JUMP JUMPDEST SWAP1 PUSH2 0x229C JUMP JUMPDEST PUSH2 0x22BE JUMP JUMPDEST SWAP2 PUSH2 0x22DA JUMP JUMPDEST SWAP1 PUSH2 0xC53 JUMP JUMPDEST PUSH2 0x260A PUSH1 0xB PUSH2 0x148F JUMP JUMPDEST PUSH2 0x22F6 JUMP JUMPDEST PUSH1 0xB PUSH2 0x166A JUMP JUMPDEST CODESIZE DUP1 DUP1 PUSH2 0x2501 JUMP JUMPDEST POP DUP1 PUSH2 0x2633 PUSH2 0x262D PUSH1 0x0 PUSH2 0x2259 JUMP JUMPDEST SWAP2 PUSH2 0x3B1 JUMP JUMPDEST EQ ISZERO PUSH2 0x24FC JUMP JUMPDEST POP DUP2 PUSH2 0x264F PUSH2 0x2649 PUSH1 0x0 PUSH2 0x2259 JUMP JUMPDEST SWAP2 PUSH2 0x3B1 JUMP JUMPDEST EQ ISZERO PUSH2 0x24F6 JUMP JUMPDEST PUSH1 0x0 PUSH4 0x1A93C689 PUSH1 0xE1 SHL DUP2 MSTORE DUP1 PUSH2 0x266F PUSH1 0x4 DUP3 ADD PUSH2 0x2A9 JUMP JUMPDEST SUB SWAP1 REVERT JUMPDEST POP DUP4 PUSH2 0x2695 PUSH2 0x268F PUSH14 0xFFFFFFFFFFFFFFFFFFFFFFFFFFFF PUSH2 0xAF0 JUMP JUMPDEST SWAP2 PUSH2 0x198 JUMP JUMPDEST GT PUSH2 0x248F JUMP JUMPDEST PUSH1 0x0 SWAP1 JUMP JUMPDEST PUSH2 0x26A8 PUSH2 0x269B JUMP JUMPDEST POP CALLER SWAP1 JUMP JUMPDEST SWAP2 PUSH2 0x26BB SWAP3 SWAP2 PUSH1 0x1 SWAP3 PUSH2 0x2DB2 JUMP JUMPDEST JUMP JUMPDEST PUSH1 0x40 SWAP1 PUSH2 0x26E7 PUSH2 0x26EE SWAP5 SWAP7 SWAP6 SWAP4 SWAP7 PUSH2 0x26DD PUSH1 0x60 DUP5 ADD SWAP9 PUSH1 0x0 DUP6 ADD SWAP1 PUSH2 0x523 JUMP JUMPDEST PUSH1 0x20 DUP4 ADD SWAP1 PUSH2 0x57B JUMP JUMPDEST ADD SWAP1 PUSH2 0x57B JUMP JUMPDEST JUMP JUMPDEST SWAP1 PUSH2 0x26FB SWAP2 SUB PUSH2 0x198 JUMP JUMPDEST SWAP1 JUMP JUMPDEST SWAP3 SWAP2 SWAP3 PUSH2 0x270C DUP2 DUP4 SWAP1 PUSH2 0x1EBE JUMP JUMPDEST SWAP1 DUP2 PUSH2 0x2722 PUSH2 0x271C PUSH1 0x0 NOT PUSH2 0x198 JUMP JUMPDEST SWAP2 PUSH2 0x198 JUMP JUMPDEST LT PUSH2 0x272F JUMPI JUMPDEST POP POP POP SWAP1 POP JUMP JUMPDEST DUP2 PUSH2 0x2742 PUSH2 0x273C DUP8 PUSH2 0x198 JUMP JUMPDEST SWAP2 PUSH2 0x198 JUMP JUMPDEST LT PUSH2 0x2769 JUMPI PUSH2 0x2760 SWAP4 SWAP5 PUSH2 0x2757 SWAP2 SWAP4 SWAP3 PUSH2 0x26F0 JUMP JUMPDEST SWAP1 PUSH1 0x0 SWAP3 PUSH2 0x2DB2 JUMP JUMPDEST DUP1 CODESIZE DUP1 DUP1 PUSH2 0x2728 JUMP JUMPDEST POP PUSH2 0x2789 DUP5 SWAP3 SWAP2 SWAP3 PUSH1 0x0 SWAP4 DUP5 SWAP4 PUSH4 0x7DC7A0D9 PUSH1 0xE1 SHL DUP6 MSTORE PUSH1 0x4 DUP6 ADD PUSH2 0x26BD JUMP JUMPDEST SUB SWAP1 REVERT JUMPDEST PUSH2 0x27A1 PUSH2 0x279C PUSH2 0x27A6 SWAP3 PUSH2 0xAD1 JUMP JUMPDEST PUSH2 0x94D JUMP JUMPDEST PUSH2 0x1BF JUMP JUMPDEST SWAP1 JUMP JUMPDEST PUSH2 0x27B2 SWAP1 PUSH2 0x278D JUMP JUMPDEST SWAP1 JUMP JUMPDEST SWAP2 DUP3 PUSH2 0x27D2 PUSH2 0x27CC PUSH2 0x27C7 PUSH1 0x0 PUSH2 0x27A9 JUMP JUMPDEST PUSH2 0x1CA JUMP JUMPDEST SWAP2 PUSH2 0x1CA JUMP JUMPDEST EQ PUSH2 0x282F JUMPI DUP2 PUSH2 0x27F3 PUSH2 0x27ED PUSH2 0x27E8 PUSH1 0x0 PUSH2 0x27A9 JUMP JUMPDEST PUSH2 0x1CA JUMP JUMPDEST SWAP2 PUSH2 0x1CA JUMP JUMPDEST EQ PUSH2 0x2806 JUMPI PUSH2 0x2804 SWAP3 SWAP2 SWAP1 SWAP2 PUSH2 0x2ED5 JUMP JUMPDEST JUMP JUMPDEST PUSH2 0x282B PUSH2 0x2813 PUSH1 0x0 PUSH2 0x27A9 JUMP JUMPDEST PUSH1 0x0 SWAP2 DUP3 SWAP2 PUSH4 0xEC442F05 PUSH1 0xE0 SHL DUP4 MSTORE PUSH1 0x4 DUP4 ADD PUSH2 0x530 JUMP JUMPDEST SUB SWAP1 REVERT JUMPDEST PUSH2 0x2854 PUSH2 0x283C PUSH1 0x0 PUSH2 0x27A9 JUMP JUMPDEST PUSH1 0x0 SWAP2 DUP3 SWAP2 PUSH4 0x4B637E8F PUSH1 0xE1 SHL DUP4 MSTORE PUSH1 0x4 DUP4 ADD PUSH2 0x530 JUMP JUMPDEST SUB SWAP1 REVERT JUMPDEST PUSH2 0x2861 SWAP1 PUSH2 0xB38 JUMP JUMPDEST SWAP1 JUMP JUMPDEST PUSH2 0x286D SWAP1 PUSH2 0x2858 JUMP JUMPDEST SWAP1 JUMP JUMPDEST PUSH2 0x2879 SWAP1 PUSH2 0xB70 JUMP JUMPDEST SWAP1 JUMP JUMPDEST SWAP1 POP MLOAD SWAP1 PUSH2 0x2889 DUP3 PUSH2 0x1D6 JUMP JUMPDEST JUMP JUMPDEST SWAP1 PUSH1 0x20 DUP3 DUP3 SUB SLT PUSH2 0x28A5 JUMPI PUSH2 0x28A2 SWAP2 PUSH1 0x0 ADD PUSH2 0x287C JUMP JUMPDEST SWAP1 JUMP JUMPDEST PUSH2 0x18E JUMP JUMPDEST SWAP1 JUMP JUMPDEST PUSH2 0x28C1 PUSH2 0x28BC PUSH2 0x28C6 SWAP3 PUSH2 0x28AA JUMP JUMPDEST PUSH2 0x94D JUMP JUMPDEST PUSH2 0x198 JUMP JUMPDEST SWAP1 JUMP JUMPDEST SWAP2 SWAP1 PUSH2 0x28D3 PUSH2 0x1454 JUMP JUMPDEST POP PUSH2 0x2909 PUSH1 0x20 PUSH2 0x28F3 PUSH2 0x28EE PUSH2 0x28E9 PUSH1 0x6 PUSH2 0xB2B JUMP JUMPDEST PUSH2 0x2864 JUMP JUMPDEST PUSH2 0x2870 JUMP JUMPDEST PUSH4 0x17E7E58 SWAP1 PUSH2 0x2901 PUSH2 0x183 JUMP JUMPDEST SWAP4 DUP5 SWAP3 PUSH2 0xBD3 JUMP JUMPDEST DUP3 MSTORE DUP2 DUP1 PUSH2 0x2919 PUSH1 0x4 DUP3 ADD PUSH2 0x2A9 JUMP JUMPDEST SUB SWAP2 GAS STATICCALL SWAP1 DUP2 ISZERO PUSH2 0x2AA9 JUMPI PUSH1 0x0 SWAP2 PUSH2 0x2A7B JUMPI JUMPDEST POP SWAP1 DUP2 PUSH2 0x294A PUSH2 0x2944 PUSH2 0x293F PUSH1 0x0 PUSH2 0x27A9 JUMP JUMPDEST PUSH2 0x1CA JUMP JUMPDEST SWAP2 PUSH2 0x1CA JUMP JUMPDEST EQ ISZERO SWAP4 PUSH2 0x2957 PUSH1 0xC PUSH2 0x148F JUMP JUMPDEST SWAP2 DUP6 PUSH1 0x0 EQ PUSH2 0x2A40 JUMPI DUP3 PUSH2 0x2974 PUSH2 0x296E PUSH1 0x0 PUSH2 0xAD4 JUMP JUMPDEST SWAP2 PUSH2 0x198 JUMP JUMPDEST SUB PUSH2 0x2981 JUMPI JUMPDEST POP POP POP POP JUMPDEST JUMP JUMPDEST PUSH2 0x29A3 PUSH2 0x29A8 SWAP2 PUSH2 0x299D PUSH2 0x2997 PUSH2 0x29AE SWAP6 PUSH2 0xAF0 JUMP JUMPDEST SWAP2 PUSH2 0xAF0 JUMP JUMPDEST SWAP1 PUSH2 0xC53 JUMP JUMPDEST PUSH2 0x2ADF JUMP JUMPDEST SWAP2 PUSH2 0x2ADF JUMP JUMPDEST SWAP1 DUP1 PUSH2 0x29C2 PUSH2 0x29BC DUP5 PUSH2 0x198 JUMP JUMPDEST SWAP2 PUSH2 0x198 JUMP JUMPDEST GT PUSH2 0x29CE JUMPI JUMPDEST DUP1 PUSH2 0x297A JUMP JUMPDEST PUSH2 0x2A0A PUSH2 0x2A10 SWAP3 PUSH2 0x2A05 PUSH2 0x29F4 PUSH2 0x29E3 PUSH2 0x149C JUMP JUMPDEST PUSH2 0x29EE DUP7 DUP6 SWAP1 PUSH2 0xC2E JUMP JUMPDEST SWAP1 PUSH2 0xC53 JUMP JUMPDEST SWAP4 PUSH2 0x29FF PUSH1 0x5 PUSH2 0x28AD JUMP JUMPDEST SWAP1 PUSH2 0xC53 JUMP JUMPDEST PUSH2 0x22F6 JUMP JUMPDEST SWAP1 PUSH2 0x15E7 JUMP JUMPDEST DUP1 PUSH2 0x2A24 PUSH2 0x2A1E PUSH1 0x0 PUSH2 0xAD4 JUMP JUMPDEST SWAP2 PUSH2 0x198 JUMP JUMPDEST GT PUSH2 0x2A30 JUMPI JUMPDEST DUP1 PUSH2 0x29C8 JUMP JUMPDEST PUSH2 0x2A39 SWAP2 PUSH2 0x2BAE JUMP JUMPDEST CODESIZE DUP1 PUSH2 0x2A2A JUMP JUMPDEST POP POP SWAP1 POP PUSH2 0x2A57 PUSH2 0x2A51 PUSH1 0x0 PUSH2 0xAD4 JUMP JUMPDEST SWAP2 PUSH2 0x198 JUMP JUMPDEST SUB PUSH2 0x2A62 JUMPI JUMPDEST PUSH2 0x297F JUMP JUMPDEST PUSH2 0x2A76 PUSH2 0x2A6F PUSH1 0x0 PUSH2 0xAD4 JUMP JUMPDEST PUSH1 0xC PUSH2 0x166A JUMP JUMPDEST PUSH2 0x2A5D JUMP JUMPDEST PUSH2 0x2A9C SWAP2 POP PUSH1 0x20 RETURNDATASIZE DUP2 GT PUSH2 0x2AA2 JUMPI JUMPDEST PUSH2 0x2A94 DUP2 DUP4 PUSH2 0xBAA JUMP JUMPDEST DUP2 ADD SWAP1 PUSH2 0x288B JUMP JUMPDEST CODESIZE PUSH2 0x292C JUMP JUMPDEST POP RETURNDATASIZE PUSH2 0x2A8A JUMP JUMPDEST PUSH2 0xC07 JUMP JUMPDEST SWAP1 PUSH2 0x2AB7 PUSH2 0xB0C JUMP JUMPDEST POP DUP2 PUSH2 0x2ACB PUSH2 0x2AC5 DUP4 PUSH2 0x198 JUMP JUMPDEST SWAP2 PUSH2 0x198 JUMP JUMPDEST LT PUSH1 0x0 EQ PUSH2 0x2AD8 JUMPI POP JUMPDEST SWAP1 JUMP JUMPDEST SWAP1 POP PUSH2 0x2AD5 JUMP JUMPDEST PUSH2 0x2AE7 PUSH2 0xB0C JUMP JUMPDEST DUP2 PUSH2 0x2AFB PUSH2 0x2AF5 PUSH1 0x3 PUSH2 0xC8B JUMP JUMPDEST SWAP2 PUSH2 0x198 JUMP JUMPDEST GT PUSH1 0x0 EQ PUSH2 0x2B7C JUMPI POP DUP1 PUSH2 0x2B2C PUSH2 0x2B1C DUP4 PUSH2 0x2B16 PUSH1 0x2 PUSH2 0x205D JUMP JUMPDEST SWAP1 PUSH2 0x15E7 JUMP JUMPDEST PUSH2 0x2B26 PUSH1 0x1 PUSH2 0x20E2 JUMP JUMPDEST SWAP1 PUSH2 0x22F6 JUMP JUMPDEST SWAP1 JUMPDEST DUP2 PUSH2 0x2B41 PUSH2 0x2B3B DUP4 PUSH2 0x198 JUMP JUMPDEST SWAP2 PUSH2 0x198 JUMP JUMPDEST LT ISZERO PUSH2 0x2B75 JUMPI POP PUSH2 0x2B6F PUSH2 0x2B5F DUP3 PUSH2 0x2B5A DUP6 DUP3 SWAP1 PUSH2 0x15E7 JUMP JUMPDEST PUSH2 0x22F6 JUMP JUMPDEST PUSH2 0x2B69 PUSH1 0x2 PUSH2 0x205D JUMP JUMPDEST SWAP1 PUSH2 0x15E7 JUMP JUMPDEST SWAP1 PUSH2 0x2B2E JUMP JUMPDEST SWAP3 SWAP2 POP POP JUMPDEST JUMP JUMPDEST SWAP2 SWAP1 PUSH2 0x2B91 PUSH2 0x2B8B PUSH1 0x0 PUSH2 0xAD4 JUMP JUMPDEST SWAP2 PUSH2 0x198 JUMP JUMPDEST SUB PUSH2 0x2B9C JUMPI JUMPDEST PUSH2 0x2B7A JUMP JUMPDEST SWAP1 POP PUSH2 0x2BA8 PUSH1 0x1 PUSH2 0x20E2 JUMP JUMPDEST SWAP1 PUSH2 0x2B97 JUMP JUMPDEST DUP1 PUSH2 0x2BCA PUSH2 0x2BC4 PUSH2 0x2BBF PUSH1 0x0 PUSH2 0x27A9 JUMP JUMPDEST PUSH2 0x1CA JUMP JUMPDEST SWAP2 PUSH2 0x1CA JUMP JUMPDEST EQ PUSH2 0x2BE7 JUMPI PUSH2 0x2BE5 SWAP2 PUSH2 0x2BDD PUSH1 0x0 PUSH2 0x27A9 JUMP JUMPDEST SWAP2 SWAP1 SWAP2 PUSH2 0x2ED5 JUMP JUMPDEST JUMP JUMPDEST PUSH2 0x2C0C PUSH2 0x2BF4 PUSH1 0x0 PUSH2 0x27A9 JUMP JUMPDEST PUSH1 0x0 SWAP2 DUP3 SWAP2 PUSH4 0xEC442F05 PUSH1 0xE0 SHL DUP4 MSTORE PUSH1 0x4 DUP4 ADD PUSH2 0x530 JUMP JUMPDEST SUB SWAP1 REVERT JUMPDEST SWAP1 DUP2 PUSH2 0x2C2D PUSH2 0x2C27 PUSH2 0x2C22 PUSH1 0x0 PUSH2 0x27A9 JUMP JUMPDEST PUSH2 0x1CA JUMP JUMPDEST SWAP2 PUSH2 0x1CA JUMP JUMPDEST EQ PUSH2 0x2C4A JUMPI PUSH2 0x2C48 SWAP2 SWAP1 PUSH2 0x2C41 PUSH1 0x0 PUSH2 0x27A9 JUMP JUMPDEST SWAP1 SWAP2 PUSH2 0x2ED5 JUMP JUMPDEST JUMP JUMPDEST PUSH2 0x2C6F PUSH2 0x2C57 PUSH1 0x0 PUSH2 0x27A9 JUMP JUMPDEST PUSH1 0x0 SWAP2 DUP3 SWAP2 PUSH4 0x4B637E8F PUSH1 0xE1 SHL DUP4 MSTORE PUSH1 0x4 DUP4 ADD PUSH2 0x530 JUMP JUMPDEST SUB SWAP1 REVERT JUMPDEST SWAP1 PUSH1 0x0 PUSH1 0x20 SWAP2 PUSH2 0x2C81 PUSH2 0xB0C JUMP JUMPDEST POP PUSH2 0x2C8A PUSH2 0xB0C JUMP JUMPDEST POP DUP3 DUP2 MLOAD SWAP2 ADD DUP3 DUP6 GAS CALL ISZERO PUSH2 0x2D22 JUMPI RETURNDATASIZE PUSH1 0x0 MLOAD SWAP1 PUSH2 0x2CB1 PUSH2 0x2CAB PUSH1 0x0 PUSH2 0xAD4 JUMP JUMPDEST SWAP2 PUSH2 0x198 JUMP JUMPDEST EQ PUSH1 0x0 EQ PUSH2 0x2D08 JUMPI POP PUSH2 0x2CC3 DUP2 PUSH2 0xB7C JUMP JUMPDEST EXTCODESIZE PUSH2 0x2CD7 PUSH2 0x2CD1 PUSH1 0x0 PUSH2 0xAD4 JUMP JUMPDEST SWAP2 PUSH2 0x198 JUMP JUMPDEST EQ JUMPDEST PUSH2 0x2CE0 JUMPI POP JUMP JUMPDEST PUSH2 0x2CEC PUSH2 0x2D04 SWAP2 PUSH2 0xB7C JUMP JUMPDEST PUSH1 0x0 SWAP2 DUP3 SWAP2 PUSH4 0x5274AFE7 PUSH1 0xE0 SHL DUP4 MSTORE PUSH1 0x4 DUP4 ADD PUSH2 0x530 JUMP JUMPDEST SUB SWAP1 REVERT JUMPDEST PUSH2 0x2D1B PUSH2 0x2D15 PUSH1 0x1 PUSH2 0x20E2 JUMP JUMPDEST SWAP2 PUSH2 0x198 JUMP JUMPDEST EQ ISZERO PUSH2 0x2CD9 JUMP JUMPDEST PUSH1 0x40 MLOAD RETURNDATASIZE PUSH1 0x0 DUP3 RETURNDATACOPY RETURNDATASIZE SWAP1 REVERT JUMPDEST PUSH1 0x0 SWAP1 JUMP JUMPDEST SWAP1 JUMP JUMPDEST PUSH2 0x2D4A PUSH2 0x2D45 PUSH2 0x2D4F SWAP3 PUSH2 0x2D33 JUMP JUMPDEST PUSH2 0x94D JUMP JUMPDEST PUSH2 0x2275 JUMP JUMPDEST SWAP1 JUMP JUMPDEST PUSH2 0x2D61 PUSH2 0x2D67 SWAP2 SWAP4 SWAP3 SWAP4 PUSH2 0x2275 JUMP JUMPDEST SWAP3 PUSH2 0x2275 JUMP JUMPDEST SWAP2 PUSH2 0x2D73 DUP4 DUP3 MUL PUSH2 0x2275 JUMP JUMPDEST SWAP3 DUP2 DUP5 DIV EQ SWAP1 ISZERO OR ISZERO PUSH2 0x2D82 JUMPI JUMP JUMPDEST PUSH2 0xC18 JUMP JUMPDEST PUSH2 0x2D9C PUSH2 0x2DAF SWAP2 PUSH2 0x2D96 PUSH2 0x2D2E JUMP JUMPDEST POP PUSH2 0x2280 JUMP JUMPDEST PUSH2 0x2DA9 PUSH1 0x1 PUSH1 0x70 SHL PUSH2 0x2D36 JUMP JUMPDEST SWAP1 PUSH2 0x2D52 JUMP JUMPDEST SWAP1 JUMP JUMPDEST SWAP1 SWAP3 DUP2 PUSH2 0x2DD0 PUSH2 0x2DCA PUSH2 0x2DC5 PUSH1 0x0 PUSH2 0x27A9 JUMP JUMPDEST PUSH2 0x1CA JUMP JUMPDEST SWAP2 PUSH2 0x1CA JUMP JUMPDEST EQ PUSH2 0x2E9E JUMPI DUP4 PUSH2 0x2DF1 PUSH2 0x2DEB PUSH2 0x2DE6 PUSH1 0x0 PUSH2 0x27A9 JUMP JUMPDEST PUSH2 0x1CA JUMP JUMPDEST SWAP2 PUSH2 0x1CA JUMP JUMPDEST EQ PUSH2 0x2E75 JUMPI PUSH2 0x2E15 DUP4 PUSH2 0x2E10 PUSH2 0x2E09 PUSH1 0x1 DUP7 SWAP1 PUSH2 0x1EA6 JUMP JUMPDEST DUP8 SWAP1 PUSH2 0x19D7 JUMP JUMPDEST PUSH2 0x166A JUMP JUMPDEST PUSH2 0x2E1F JUMPI JUMPDEST POP POP POP JUMP JUMPDEST SWAP2 SWAP1 SWAP2 PUSH2 0x2E6A PUSH2 0x2E58 PUSH2 0x2E52 PUSH32 0x8C5BE1E5EBEC7D5BD14F71427D1E84F3DD0314C0F7B2291E5B200AC8C7C3B925 SWAP4 PUSH2 0xCC6 JUMP JUMPDEST SWAP4 PUSH2 0xCC6 JUMP JUMPDEST SWAP4 PUSH2 0x2E61 PUSH2 0x183 JUMP JUMPDEST SWAP2 DUP3 SWAP2 DUP3 PUSH2 0x588 JUMP JUMPDEST SUB SWAP1 LOG3 CODESIZE DUP1 DUP1 PUSH2 0x2E1A JUMP JUMPDEST PUSH2 0x2E9A PUSH2 0x2E82 PUSH1 0x0 PUSH2 0x27A9 JUMP JUMPDEST PUSH1 0x0 SWAP2 DUP3 SWAP2 PUSH4 0x4A1406B1 PUSH1 0xE1 SHL DUP4 MSTORE PUSH1 0x4 DUP4 ADD PUSH2 0x530 JUMP JUMPDEST SUB SWAP1 REVERT JUMPDEST PUSH2 0x2EC3 PUSH2 0x2EAB PUSH1 0x0 PUSH2 0x27A9 JUMP JUMPDEST PUSH1 0x0 SWAP2 DUP3 SWAP2 PUSH4 0xE602DF05 PUSH1 0xE0 SHL DUP4 MSTORE PUSH1 0x4 DUP4 ADD PUSH2 0x530 JUMP JUMPDEST SUB SWAP1 REVERT JUMPDEST SWAP1 PUSH2 0x2ED2 SWAP2 ADD PUSH2 0x198 JUMP JUMPDEST SWAP1 JUMP JUMPDEST SWAP2 SWAP1 SWAP2 DUP1 PUSH2 0x2EF4 PUSH2 0x2EEE PUSH2 0x2EE9 PUSH1 0x0 PUSH2 0x27A9 JUMP JUMPDEST PUSH2 0x1CA JUMP JUMPDEST SWAP2 PUSH2 0x1CA JUMP JUMPDEST EQ PUSH1 0x0 EQ PUSH2 0x2FD9 JUMPI PUSH2 0x2F19 PUSH2 0x2F12 DUP4 PUSH2 0x2F0D PUSH1 0x2 PUSH2 0x148F JUMP JUMPDEST PUSH2 0x22F6 JUMP JUMPDEST PUSH1 0x2 PUSH2 0x166A JUMP JUMPDEST JUMPDEST DUP3 PUSH2 0x2F36 PUSH2 0x2F30 PUSH2 0x2F2B PUSH1 0x0 PUSH2 0x27A9 JUMP JUMPDEST PUSH2 0x1CA JUMP JUMPDEST SWAP2 PUSH2 0x1CA JUMP JUMPDEST EQ PUSH1 0x0 EQ PUSH2 0x2FAC JUMPI PUSH2 0x2F5B PUSH2 0x2F54 DUP4 PUSH2 0x2F4F PUSH1 0x2 PUSH2 0x148F JUMP JUMPDEST PUSH2 0x26F0 JUMP JUMPDEST PUSH1 0x2 PUSH2 0x166A JUMP JUMPDEST JUMPDEST SWAP2 SWAP1 SWAP2 PUSH2 0x2FA7 PUSH2 0x2F95 PUSH2 0x2F8F PUSH32 0xDDF252AD1BE2C89B69C2B068FC378DAA952BA7F163C4A11628F55A4DF523B3EF SWAP4 PUSH2 0xCC6 JUMP JUMPDEST SWAP4 PUSH2 0xCC6 JUMP JUMPDEST SWAP4 PUSH2 0x2F9E PUSH2 0x183 JUMP JUMPDEST SWAP2 DUP3 SWAP2 DUP3 PUSH2 0x588 JUMP JUMPDEST SUB SWAP1 LOG3 JUMP JUMPDEST PUSH2 0x2FD4 DUP3 PUSH2 0x2FCE PUSH2 0x2FBF PUSH1 0x0 DUP8 SWAP1 PUSH2 0x19D7 JUMP JUMPDEST SWAP2 PUSH2 0x2FC9 DUP4 PUSH2 0x148F JUMP JUMPDEST PUSH2 0x2EC7 JUMP JUMPDEST SWAP1 PUSH2 0x166A JUMP JUMPDEST PUSH2 0x2F5C JUMP JUMPDEST PUSH2 0x2FED PUSH2 0x2FE8 PUSH1 0x0 DUP4 SWAP1 PUSH2 0x19D7 JUMP JUMPDEST PUSH2 0x148F JUMP JUMPDEST DUP1 PUSH2 0x3000 PUSH2 0x2FFA DUP6 PUSH2 0x198 JUMP JUMPDEST SWAP2 PUSH2 0x198 JUMP JUMPDEST LT PUSH2 0x3029 JUMPI PUSH2 0x3013 PUSH2 0x3024 SWAP2 DUP5 SWAP1 PUSH2 0x26F0 JUMP JUMPDEST PUSH2 0x301F PUSH1 0x0 DUP5 SWAP1 PUSH2 0x19D7 JUMP JUMPDEST PUSH2 0x166A JUMP JUMPDEST PUSH2 0x2F1A JUMP JUMPDEST SWAP1 PUSH2 0x3048 SWAP1 SWAP2 SWAP3 PUSH1 0x0 SWAP4 DUP5 SWAP4 PUSH4 0x391434E3 PUSH1 0xE2 SHL DUP6 MSTORE PUSH1 0x4 DUP6 ADD PUSH2 0x26BD JUMP JUMPDEST SUB SWAP1 REVERT INVALID LOG2 PUSH5 0x6970667358 0x22 SLT KECCAK256 JUMPDEST REVERT PREVRANDAO REVERT SGT BLOCKHASH SWAP12 TIMESTAMP SSTORE SHL 0x4E 0xC8 0xD0 0x2C TSTORE 0xD3 MLOAD EXTCODESIZE MOD 0xC8 PUSH15 0x2916DFD23D0310B6DDC88064736F6C PUSH4 0x4300081E STOP CALLER "
        },
        "methodIdentifiers": {
          "MINIMUM_LIQUIDITY()": "ba9a7a56",
          "allowance(address,address)": "dd62ed3e",
          "approve(address,uint256)": "095ea7b3",
          "balanceOf(address)": "70a08231",
          "burn(address)": "89afcb44",
          "decimals()": "313ce567",
          "factory()": "c45a0155",
          "getReserves()": "0902f1ac",
          "initialize(address,address)": "485cc955",
          "kLast()": "7464fc3d",
          "mint(address)": "6a627842",
          "name()": "06fdde03",
          "price0CumulativeLast()": "5909c0d5",
          "price1CumulativeLast()": "5a3d5493",
          "swap(uint256,uint256,address,bytes)": "022c0d9f",
          "symbol()": "95d89b41",
          "sync()": "fff6cae9",
          "token0()": "0dfe1681",
          "token1()": "d21220a7",
          "totalSupply()": "18160ddd",
          "transfer(address,uint256)": "a9059cbb",
          "transferFrom(address,address,uint256)": "23b872dd"
        }
      }
    }
  }
}