{
  "contracts/DexRouter.sol": {
    "DexRouter": {
      "abi": [
        {
          "inputs": [
            {
              "internalType": "address",
              "name": "factoryAddress",
              "type": "address"
            }
          ],
          "stateMutability": "nonpayable",
          "type": "constructor"
        },
        {
          "inputs": [],
          "name": "DeadlineExpired",
          "type": "error"
        },
        {
          "inputs": [],
          "name": "ExcessiveInputAmount",
          "type": "error"
        },
        {
          "inputs": [],
          "name": "IdenticalTokens",
          "type": "error"
        },
        {
          "inputs": [],
          "name": "InsufficientAAmount",
          "type": "error"
        },
        {
          "inputs": [],
          "name": "InsufficientBAmount",
          "type": "error"
        },
        {
          "inputs": [],
          "name": "InsufficientOutputAmount",
          "type": "error"
        },
        {
          "inputs": [],
          "name": "InvalidInputAmount",
          "type": "error"
        },
        {
          "inputs": [],
          "name": "InvalidPath",
          "type": "error"
        },
        {
          "inputs": [],
          "name": "PairDoesNotExist",
          "type": "error"
        },
        {
          "inputs": [],
          "name": "ReentrancyGuardReentrantCall",
          "type": "error"
        },
        {
          "inputs": [
            {
              "internalType": "address",
              "name": "token",
              "type": "address"
            }
          ],
          "name": "SafeERC20FailedOperation",
          "type": "error"
        },
        {
          "inputs": [],
          "name": "ZeroAddress",
          "type": "error"
        },
        {
          "inputs": [],
          "name": "FACTORY",
          "outputs": [
            {
              "internalType": "address",
              "name": "",
              "type": "address"
            }
          ],
          "stateMutability": "view",
          "type": "function"
        },
        {
          "inputs": [
            {
              "internalType": "address",
              "name": "tokenA",
              "type": "address"
            },
            {
              "internalType": "address",
              "name": "tokenB",
              "type": "address"
            },
            {
              "internalType": "uint256",
              "name": "amountADesired",
              "type": "uint256"
            },
            {
              "internalType": "uint256",
              "name": "amountBDesired",
              "type": "uint256"
            },
            {
              "internalType": "uint256",
              "name": "amountAMin",
              "type": "uint256"
            },
            {
              "internalType": "uint256",
              "name": "amountBMin",
              "type": "uint256"
            },
            {
              "internalType": "address",
              "name": "to",
              "type": "address"
            },
            {
              "internalType": "uint256",
              "name": "deadline",
              "type": "uint256"
            }
          ],
          "name": "addLiquidity",
          "outputs": [
            {
              "internalType": "uint256",
              "name": "amountA",
              "type": "uint256"
            },
            {
              "internalType": "uint256",
              "name": "amountB",
              "type": "uint256"
            },
            {
              "internalType": "uint256",
              "name": "liquidity",
              "type": "uint256"
            }
          ],
          "stateMutability": "nonpayable",
          "type": "function"
        },
        {
          "inputs": [
            {
              "internalType": "uint256",
              "name": "amountOut",
              "type": "uint256"
            },
            {
              "internalType": "uint256",
              "name": "reserveIn",
              "type": "uint256"
            },
            {
              "internalType": "uint256",
              "name": "reserveOut",
              "type": "uint256"
            }
          ],
          "name": "getAmountIn",
          "outputs": [
            {
              "internalType": "uint256",
              "name": "amountIn",
              "type": "uint256"
            }
          ],
          "stateMutability": "pure",
          "type": "function"
        },
        {
          "inputs": [
            {
              "internalType": "uint256",
              "name": "amountIn",
              "type": "uint256"
            },
            {
              "internalType": "uint256",
              "name": "reserveIn",
              "type": "uint256"
            },
            {
              "internalType": "uint256",
              "name": "reserveOut",
              "type": "uint256"
            }
          ],
          "name": "getAmountOut",
          "outputs": [
            {
              "internalType": "uint256",
              "name": "amountOut",
              "type": "uint256"
            }
          ],
          "stateMutability": "pure",
          "type": "function"
        },
        {
          "inputs": [
            {
              "internalType": "uint256",
              "name": "amountOut",
              "type": "uint256"
            },
            {
              "internalType": "address[]",
              "name": "path",
              "type": "address[]"
            }
          ],
          "name": "getAmountsIn",
          "outputs": [
            {
              "internalType": "uint256[]",
              "name": "amounts",
              "type": "uint256[]"
            }
          ],
          "stateMutability": "view",
          "type": "function"
        },
        {
          "inputs": [
            {
              "internalType": "uint256",
              "name": "amountIn",
              "type": "uint256"
            },
            {
              "internalType": "address[]",
              "name": "path",
              "type": "address[]"
            }
          ],
          "name": "getAmountsOut",
          "outputs": [
            {
              "internalType": "uint256[]",
              "name": "amounts",
              "type": "uint256[]"
            }
          ],
          "stateMutability": "view",
          "type": "function"
        },
        {
          "inputs": [
            {
              "internalType": "address",
              "name": "tokenA",
              "type": "address"
            },
            {
              "internalType": "address",
              "name": "tokenB",
              "type": "address"
            }
          ],
          "name": "getReserves",
          "outputs": [
            {
              "internalType": "uint256",
              "name": "reserveA",
              "type": "uint256"
            },
            {
              "internalType": "uint256",
              "name": "reserveB",
              "type": "uint256"
            }
          ],
          "stateMutability": "view",
          "type": "function"
        },
        {
          "inputs": [
            {
              "internalType": "address",
              "name": "tokenA",
              "type": "address"
            },
            {
              "internalType": "address",
              "name": "tokenB",
              "type": "address"
            },
            {
              "internalType": "uint256",
              "name": "liquidity",
              "type": "uint256"
            },
            {
              "internalType": "uint256",
              "name": "amountAMin",
              "type": "uint256"
            },
            {
              "internalType": "uint256",
              "name": "amountBMin",
              "type": "uint256"
            },
            {
              "internalType": "address",
              "name": "to",
              "type": "address"
            },
            {
              "internalType": "uint256",
              "name": "deadline",
              "type": "uint256"
            }
          ],
          "name": "removeLiquidity",
          "outputs": [
            {
              "internalType": "uint256",
              "name": "amountA",
              "type": "uint256"
            },
            {
              "internalType": "uint256",
              "name": "amountB",
              "type": "uint256"
            }
          ],
          "stateMutability": "nonpayable",
          "type": "function"
        },
        {
          "inputs": [
            {
              "internalType": "uint256",
              "name": "amountIn",
              "type": "uint256"
            },
            {
              "internalType": "uint256",
              "name": "amountOutMin",
              "type": "uint256"
            },
            {
              "internalType": "address[]",
              "name": "path",
              "type": "address[]"
            },
            {
              "internalType": "address",
              "name": "to",
              "type": "address"
            },
            {
              "internalType": "uint256",
              "name": "deadline",
              "type": "uint256"
            }
          ],
          "name": "swapExactTokensForTokens",
          "outputs": [
            {
              "internalType": "uint256[]",
              "name": "amounts",
              "type": "uint256[]"
            }
          ],
          "stateMutability": "nonpayable",
          "type": "function"
        },
        {
          "inputs": [
            {
              "internalType": "uint256",
              "name": "amountOut",
              "type": "uint256"
            },
            {
              "internalType": "uint256",
              "name": "amountInMax",
              "type": "uint256"
            },
            {
              "internalType": "address[]",
              "name": "path",
              "type": "address[]"
            },
            {
              "internalType": "address",
              "name": "to",
              "type": "address"
            },
            {
              "internalType": "uint256",
              "name": "deadline",
              "type": "uint256"
            }
          ],
          "name": "swapTokensForExactTokens",
          "outputs": [
            {
              "internalType": "uint256[]",
              "name": "amounts",
              "type": "uint256[]"
            }
          ],
          "stateMutability": "nonpayable",
          "type": "function"
        }
      ],
      "evm": {
        "bytecode": {
          "linkReferences": {},
          "object": "60a06040523461007757610019610014610142565b610197565b61002161007c565b6128af61028282396080518181816103fc01528181610ef30152818161121f0152818161147d0152818161190c01528181611b7901528181611ccb015281816121f00152818161228f015261250101526128af90f35b610082565b60405190565b600080fd5b601f801991011690565b634e487b7160e01b600052604160045260246000fd5b906100b190610087565b810190811060018060401b038211176100c957604052565b610091565b906100e16100da61007c565b92836100a7565b565b600080fd5b60018060a01b031690565b6100fc906100e8565b90565b610108816100f3565b0361010f57565b600080fd5b90505190610121826100ff565b565b9060208282031261013d5761013a91600001610114565b90565b6100e3565b610160612b3180380380610155816100ce565b928339810190610123565b90565b90565b90565b61017d61017861018292610163565b610166565b6100e8565b90565b61018e90610169565b90565b60000190565b61019f61026d565b806101bb6101b56101b06000610185565b6100f3565b916100f3565b146101c557608052565b600063d92e233d60e01b8152806101de60048201610191565b0390fd5b90565b90565b6101fc6101f7610201926101e2565b610166565b6101e5565b90565b61020e60016101e8565b90565b60001b90565b9061022460001991610211565b9181191691161790565b61024261023d610247926101e5565b610166565b6101e5565b90565b90565b9061026261025d6102699261022e565b61024a565b8254610217565b9055565b61027f610278610204565b600061024d565b56fe60806040526004361015610013575b61083d565b61001e6000356100bd565b8063054d50d4146100b85780631f00ca74146100b35780632dd31000146100ae57806338ed1739146100a957806385f8c259146100a45780638803dbee1461009f578063baa2abde1461009a578063d06ca61f14610095578063d52bb6f4146100905763e8e337000361000e576107fb565b61070f565b6106ab565b61066e565b61059d565b610567565b61052b565b610441565b6103b4565b61015d565b60e01c90565b60405190565b600080fd5b600080fd5b600080fd5b90565b6100e4816100d8565b036100eb57565b600080fd5b905035906100fd826100db565b565b90916060828403126101355761013261011b84600085016100f0565b9361012981602086016100f0565b936040016100f0565b90565b6100ce565b610143906100d8565b9052565b919061015b9060006020850194019061013a565b565b3461018e5761018a6101796101733660046100ff565b91610955565b6101816100c3565b91829182610147565b0390f35b6100c9565b600080fd5b601f801991011690565b634e487b7160e01b600052604160045260246000fd5b906101c290610198565b810190811067ffffffffffffffff8211176101dc57604052565b6101a2565b906101f46101ed6100c3565b92836101b8565b565b67ffffffffffffffff811161020e5760208091020190565b6101a2565b600080fd5b60018060a01b031690565b61022c90610218565b90565b61023881610223565b0361023f57565b600080fd5b905035906102518261022f565b565b90929192610268610263826101f6565b6101e1565b93818552602080860192028301928184116102a557915b83831061028c5750505050565b6020809161029a8486610244565b81520192019161027f565b610213565b9080601f830112156102c8578160206102c593359101610253565b90565b610193565b91909160408184031261030e576102e783600083016100f0565b92602082013567ffffffffffffffff81116103095761030692016102aa565b90565b6100d3565b6100ce565b5190565b60209181520190565b60200190565b61032f906100d8565b9052565b9061034081602093610326565b0190565b60200190565b9061036761036161035a84610313565b8093610317565b92610320565b9060005b8181106103785750505090565b90919261039161038b6001928651610333565b94610344565b910191909161036b565b6103b1916020820191600081840391015261034a565b90565b346103e5576103e16103d06103ca3660046102cd565b90610b9c565b6103d86100c3565b9182918261039b565b0390f35b6100c9565b60009103126103f557565b6100ce565b7f000000000000000000000000000000000000000000000000000000000000000090565b61042790610223565b9052565b919061043f9060006020850194019061041e565b565b34610471576104513660046103ea565b61046d61045c6103fa565b6104646100c3565b9182918261042b565b0390f35b6100c9565b600080fd5b909182601f830112156104b55781359167ffffffffffffffff83116104b05760200192602083028401116104ab57565b610213565b610476565b610193565b9060a082820312610526576104d281600084016100f0565b926104e082602085016100f0565b9260408101359167ffffffffffffffff8311610521576105058461051e94840161047b565b9390946105158160608601610244565b936080016100f0565b90565b6100d3565b6100ce565b346105625761055e61054d6105413660046104ba565b9493909392919261102b565b6105556100c3565b9182918261039b565b0390f35b6100c9565b346105985761059461058361057d3660046100ff565b91611044565b61058b6100c3565b91829182610147565b0390f35b6100c9565b346105d4576105d06105bf6105b33660046104ba565b94939093929192611357565b6105c76100c3565b9182918261039b565b0390f35b6100c9565b60e081830312610645576105f08260008301610244565b926105fe8360208401610244565b9261060c81604085016100f0565b9261061a82606083016100f0565b9261064261062b84608085016100f0565b936106398160a08601610244565b9360c0016100f0565b90565b6100ce565b91602061066c9294936106656040820196600083019061013a565b019061013a565b565b346106a65761068d6106813660046105d9565b959490949391936116a6565b906106a26106996100c3565b9283928361064a565b0390f35b6100c9565b346106dc576106d86106c76106c13660046102cd565b906116d9565b6106cf6100c3565b9182918261039b565b0390f35b6100c9565b919060408382031261070a57806106fe6107079260008601610244565b93602001610244565b90565b6100ce565b34610741576107286107223660046106e1565b906118e2565b9061073d6107346100c3565b9283928361064a565b0390f35b6100c9565b9190610100838203126107c3576107608160008501610244565b9261076e8260208301610244565b9261077c83604084016100f0565b9261078a81606085016100f0565b9261079882608083016100f0565b926107c06107a98460a085016100f0565b936107b78160c08601610244565b9360e0016100f0565b90565b6100ce565b6040906107f26107f994969593966107e86060840198600085019061013a565b602083019061013a565b019061013a565b565b3461083857610834610820610811366004610746565b96959095949194939293611dcc565b61082b9391936100c3565b938493846107c8565b0390f35b6100c9565b600080fd5b600090565b90565b90565b61086161085c61086692610847565b61084a565b6100d8565b90565b60000190565b90565b61088661088161088b9261086f565b61084a565b6100d8565b90565b634e487b7160e01b600052601160045260246000fd5b6108b36108b9919392936100d8565b926100d8565b916108c58382026100d8565b9281840414901517156108d457565b61088e565b90565b6108f06108eb6108f5926108d9565b61084a565b6100d8565b90565b61090761090d919392936100d8565b926100d8565b820180921161091857565b61088e565b634e487b7160e01b600052601260045260246000fd5b61093f610945916100d8565b916100d8565b908115610950570490565b61091d565b61095d610842565b508061097261096c600061084d565b916100d8565b14610a18578161098b610985600061084d565b916100d8565b1480156109fd575b6109e0576109dd926109d26109c06109b96109d7946109b36103e5610872565b906108a4565b92836108a4565b936109cc6103e86108dc565b906108a4565b6108f8565b90610933565b90565b60006342301c2360e01b8152806109f960048201610869565b0390fd5b5082610a12610a0c600061084d565b916100d8565b14610993565b600063340dabef60e01b815280610a3160048201610869565b0390fd5b606090565b5190565b90565b610a55610a50610a5a92610a3e565b61084a565b6100d8565b90565b67ffffffffffffffff8111610a755760208091020190565b6101a2565b90610a8c610a8783610a5d565b6101e1565b918252565b369037565b90610abb610aa383610a7a565b92602080610ab18693610a5d565b9201910390610a91565b565b90565b610ad4610acf610ad992610abd565b61084a565b6100d8565b90565b610aeb610af1919392936100d8565b926100d8565b8203918211610afc57565b61088e565b634e487b7160e01b600052603260045260246000fd5b90610b2182610313565b811015610b32576020809102010190565b610b01565b90610b41906100d8565b9052565b610b4e906100d8565b60008114610b5d576001900390565b61088e565b90610b6c82610a3a565b811015610b7d576020809102010190565b610b01565b610b8c9051610223565b90565b610b9990516100d8565b90565b9190610ba6610a35565b50610bb081610a3a565b610bc3610bbd6002610a41565b916100d8565b10610cdb57610c0a610bdc610bd783610a3a565b610a96565b93610c058591610bfe610bee88610313565b610bf86001610ac0565b90610adc565b9092610b17565b610b37565b610c26610c1682610a3a565b610c206001610ac0565b90610adc565b5b80610c3b610c35600061084d565b916100d8565b1115610cd757610cd290610ccd610ca8610c8d610c74610c6f87610c6987610c636001610ac0565b90610adc565b90610b62565b610b82565b610c87610c82888790610b62565b610b82565b906118e2565b610ca0610c9b8a8790610b17565b610b8f565b919091611044565b610cc88791610cc185610cbb6001610ac0565b90610adc565b9092610b17565b610b37565b610b45565b610c27565b5050565b60006320db826760e01b815280610cf460048201610869565b0390fd5b95949392919085610d12610d0c42926100d8565b916100d8565b11610d2357610d2096610d40565b90565b6000631ab7da6b60e01b815280610d3c60048201610869565b0390fd5b90610d57969594939291610d52611e8d565b610e64565b90610d60611ef3565b565b610d6d913691610253565b90565b9190811015610d80576020020190565b610b01565b35610d8f8161022f565b90565b610da6610da1610dab92610218565b61084a565b610218565b90565b610db790610d92565b90565b610dc390610dae565b90565b610dcf90610d92565b90565b610ddb90610dc6565b90565b610de790610d92565b90565b610df390610dde565b90565b600080fd5b60e01b90565b90505190610e0e8261022f565b565b90602082820312610e2a57610e2791600001610e01565b90565b6100ce565b916020610e51929493610e4a6040820196600083019061041e565b019061041e565b565b610e5b6100c3565b3d6000823e3d90fd5b610e7d9297965050610e77838590610d62565b906116d9565b94610ebe610eb8610eb2610ead89610ea7610e978c610313565b610ea16001610ac0565b90610adc565b90610b17565b610b8f565b926100d8565b916100d8565b1061100e57610ee8610ee3610ede8385610ed8600061084d565b91610d70565b610d85565b610dba565b923390610f1c610f177f0000000000000000000000000000000000000000000000000000000000000000610dd2565b610dea565b602063e6a4390591610f41610f3c8789610f36600061084d565b91610d70565b610d85565b90610f7a610f62610f5d898b610f576001610ac0565b91610d70565b610d85565b94610f85610f6e6100c3565b96879586948594610dfb565b845260048401610e2f565b03915afa95861561100957610fd796610fd194610fc793600092610fd9575b50610fc1610fbc8c610fb6600061084d565b90610b17565b610b8f565b92611f6e565b8692939093610d62565b906120db565b565b610ffb91925060203d8111611002575b610ff381836101b8565b810190610e10565b9038610fa4565b503d610fe9565b610e53565b60006342301c2360e01b81528061102760048201610869565b0390fd5b90611041959493929161103c610a35565b610cf8565b90565b9161104d610842565b508261106261105c600061084d565b916100d8565b1461111b578161107b611075600061084d565b916100d8565b148015611100575b6110e3576110ca6110b96110e0946110b36110a26110d09683906108a4565b6110ad6103e86108dc565b906108a4565b93610adc565b6110c46103e5610872565b906108a4565b90610933565b6110da6001610ac0565b906108f8565b90565b600063340dabef60e01b8152806110fc60048201610869565b0390fd5b508061111561110f600061084d565b916100d8565b14611083565b60006342301c2360e01b81528061113460048201610869565b0390fd5b9594939291908561115261114c42926100d8565b916100d8565b116111635761116096611180565b90565b6000631ab7da6b60e01b81528061117c60048201610869565b0390fd5b90611197969594939291611192611e8d565b6111a2565b906111a0611ef3565b565b6111bb92979650506111b5838590610d62565b90610b9c565b946111ea6111e46111de6111d9896111d3600061084d565b90610b17565b610b8f565b926100d8565b916100d8565b1161133a5761121461120f61120a8385611204600061084d565b91610d70565b610d85565b610dba565b9233906112486112437f0000000000000000000000000000000000000000000000000000000000000000610dd2565b610dea565b602063e6a439059161126d6112688789611262600061084d565b91610d70565b610d85565b906112a661128e611289898b6112836001610ac0565b91610d70565b610d85565b946112b161129a6100c3565b96879586948594610dfb565b845260048401610e2f565b03915afa95861561133557611303966112fd946112f393600092611305575b506112ed6112e88c6112e2600061084d565b90610b17565b610b8f565b92611f6e565b8692939093610d62565b906120db565b565b61132791925060203d811161132e575b61131f81836101b8565b810190610e10565b90386112d0565b503d611315565b610e53565b600063e1b0da4f60e01b81528061135360048201610869565b0390fd5b9061136d9594939291611368610a35565b611138565b90565b97969594939291908761138c61138642926100d8565b916100d8565b1161139e5761139a986113bb565b9091565b6000631ab7da6b60e01b8152806113b760048201610869565b0390fd5b906113d498979695949392916113cf611e8d565b611469565b90916113de611ef3565b565b6113f46113ef6113f992610847565b61084a565b610218565b90565b611405906113e0565b90565b61141190610d92565b90565b61141d90611408565b90565b61142990610dde565b90565b90505190611439826100db565b565b91906040838203126114645780611458611461926000860161142c565b9360200161142c565b90565b6100ce565b9091939297509795939750506114a66114a17f0000000000000000000000000000000000000000000000000000000000000000610dd2565b610dea565b602063e6a439059184906114cc8a946114d76114c06100c3565b96879586948594610dfb565b845260048401610e2f565b03915afa9081156116a157600091611673575b5092836115086115026114fd60006113fc565b610223565b91610223565b146116565761153a6115358561153060409561152661156399610dba565b9033849192611f6e565b611414565b611420565b61155860006389afcb4461154c6100c3565b97889586948593610dfb565b83526004830161042b565b03925af1801561165157600080939091611614575b5061159161158b61159792949784612436565b50610223565b91610223565b1460001461160f57925b92936115b66115b086926100d8565b916100d8565b106115f2576115ce6115c884926100d8565b916100d8565b106115d557565b600063ef71d09160e01b8152806115ee60048201610869565b0390fd5b6000638dc525d160e01b81528061160b60048201610869565b0390fd5b6115a1565b61158b935061159791506116416115919160403d811161164a575b61163981836101b8565b81019061143b565b94509150611578565b503d61162f565b610e53565b600063317f12fd60e21b81528061166f60048201610869565b0390fd5b611694915060203d811161169a575b61168c81836101b8565b810190610e10565b386114ea565b503d611682565b610e53565b906116c69695949392916116b8610842565b6116c0610842565b90611370565b9091565b60016116d691016100d8565b90565b91906116e3610a35565b506116ed81610a3a565b6117006116fa6002610a41565b916100d8565b1061180a5761173361171961171483610a3a565b610a96565b9361172e85611728600061084d565b90610b17565b610b37565b61173b610842565b5b8061176a61176461175f61174f86610a3a565b6117596001610ac0565b90610adc565b6100d8565b916100d8565b101561180657611801906117fc6117d76117bc61179061178b878690610b62565b610b82565b6117b66117b1886117ab886117a56001610ac0565b906108f8565b90610b62565b610b82565b906118e2565b6117cf6117ca8a8790610b17565b610b8f565b919091610955565b6117f787916117f0856117ea6001610ac0565b906108f8565b9092610b17565b610b37565b6116ca565b61173c565b5050565b60006320db826760e01b81528061182360048201610869565b0390fd5b6dffffffffffffffffffffffffffff1690565b61184381611827565b0361184a57565b600080fd5b9050519061185c8261183a565b565b63ffffffff1690565b6118708161185e565b0361187757565b600080fd5b9050519061188982611867565b565b90916060828403126118c1576118be6118a7846000850161184f565b936118b5816020860161184f565b9360400161187c565b90565b6100ce565b6118da6118d56118df92611827565b61084a565b6100d8565b90565b906118eb610842565b506118f4610842565b50611900828290612436565b509060206119356119307f0000000000000000000000000000000000000000000000000000000000000000610dd2565b610dea565b9163e6a439059261195986929461196461194d6100c3565b96879586948594610dfb565b845260048401610e2f565b03915afa908115611ab657600091611a88575b50908161199561198f61198a60006113fc565b610223565b91610223565b14611a6b5760606119b06119ab6119c694611414565b611420565b630902f1ac906119be6100c3565b948592610dfb565b825281806119d660048201610869565b03915afa8015611a6657600080939091611a24575b50611a0b611a046119fe611a11936118c6565b946118c6565b9492610223565b91610223565b14600014611a1f57905b9091565b611a1b565b6119fe9350611a119150611a04611a54611a0b9260603d8111611a5f575b611a4c81836101b8565b81019061188b565b5095509250506119eb565b503d611a42565b610e53565b505050600090611a85611a7f60009361084d565b9261084d565b90565b611aa9915060203d8111611aaf575b611aa181836101b8565b810190610e10565b38611977565b503d611a97565b610e53565b9998979695949392919089611ad9611ad342926100d8565b916100d8565b11611aec57611ae79a611b09565b909192565b6000631ab7da6b60e01b815280611b0560048201610869565b0390fd5b90611b249a999897969594939291611b1f611e8d565b611b50565b909192611b2f611ef3565b565b90602082820312611b4b57611b489160000161142c565b90565b6100ce565b611b6e97949b999a50979495929750505085938990919293946124e1565b939094611ba2611b9d7f0000000000000000000000000000000000000000000000000000000000000000610dd2565b610dea565b602063e6a43905918590611bc88594611bd3611bbc6100c3565b96879586948594610dfb565b845260048401610e2f565b03915afa908115611dc757600091611d99575b509283611c04611bfe611bf960006113fc565b610223565b91610223565b14611cc0575b611c48611c7694611c43611c3960209695611c34611c2a611c4d97610dba565b8d33879192611f6e565b610dba565b3383908b92611f6e565b611414565b611420565b611c6b6000636a627842611c5f6100c3565b96879586948593610dfb565b83526004830161042b565b03925af1908115611cbb57600091611c8d575b5090565b611cae915060203d8111611cb4575b611ca681836101b8565b810190611b31565b38611c89565b503d611c9c565b610e53565b925090611cf4611cef7f0000000000000000000000000000000000000000000000000000000000000000610dd2565b610dea565b602063c9c65396918590611d1c60008795611d27611d106100c3565b97889687958694610dfb565b845260048401610e2f565b03925af1928315611d9457611c7694611c43611c39611c4893611c34611c2a602099611c4d98600091611d67575b509a5050509596505050915050611c0a565b611d8791508b3d8111611d8d575b611d7f81836101b8565b810190610e10565b38611d55565b503d611d75565b610e53565b611dba915060203d8111611dc0575b611db281836101b8565b810190610e10565b38611be6565b503d611da8565b610e53565b90611df597969594939291611ddf610842565b611de7610842565b611def610842565b91611abb565b909192565b60001c90565b90565b611e0f611e1491611dfa565b611e00565b90565b611e219054611e03565b90565b611e2e6002610a41565b90565b60001b90565b90611e4460001991611e31565b9181191691161790565b611e62611e5d611e67926100d8565b61084a565b6100d8565b90565b90565b90611e82611e7d611e8992611e4e565b611e6a565b8254611e37565b9055565b611e976000611e17565b611eb0611eaa611ea5611e24565b6100d8565b916100d8565b14611ec957611ec7611ec0611e24565b6000611e6d565b565b6000633ee5aeb560e01b815280611ee260048201610869565b0390fd5b611ef06001610ac0565b90565b611f05611efe611ee6565b6000611e6d565b565b611f1090610dde565b90565b63ffffffff60e01b1690565b611f33611f2e611f389261185e565b610dfb565b611f13565b90565b604090611f65611f6c9496959396611f5b6060840198600085019061041e565b602083019061041e565b019061013a565b565b600492611fa8611fbc9593611fb79394611f8f6323b872dd92949192611f1f565b93611f986100c3565b9788956020870190815201611f3b565b602082018103825203836101b8565b612712565b565b67ffffffffffffffff8111611fdc57611fd8602091610198565b0190565b6101a2565b90611ff3611fee83611fbe565b6101e1565b918252565b369037565b9061202261200a83611fe1565b926020806120188693611fbe565b9201910390611ff8565b565b600091031261202f57565b6100ce565b5190565b60209181520190565b60005b838110612055575050906000910152565b806020918301518185015201612044565b61208561208e6020936120939361207c81612034565b93848093612038565b95869101612041565b610198565b0190565b90926120cb906120c16120d896946120b76080860197600087019061013a565b602085019061013a565b604083019061041e565b6060818403910152612066565b90565b9092916120e6610842565b5b8061211561210f61210a6120fa89610a3a565b6121046001610ac0565b90610adc565b6100d8565b916100d8565b101561242a5761212e612129868390610b62565b610b82565b906121556121508761214a846121446001610ac0565b906108f8565b90610b62565b610b82565b91612161818490612436565b50906121896121848761217e866121786001610ac0565b906108f8565b90610b17565b610b8f565b9161219d6121978392610223565b91610223565b1460001461241a576121af600061084d565b5b9190836121e06121da6121d56121c58d610a3a565b6121cf6002610a41565b90610adc565b6100d8565b916100d8565b10600014612412576122196122147f0000000000000000000000000000000000000000000000000000000000000000610dd2565b610dea565b60208a63e6a439059261226461224c6122478b946122418c61223b6002610a41565b906108f8565b90610b62565b610b82565b9461226f6122586100c3565b96879586948594610dfb565b845260048401610e2f565b03915afa801561240d576020916000916123e0575b505b956122b86122b37f0000000000000000000000000000000000000000000000000000000000000000610dd2565b610dea565b6122da63e6a439059492946122e56122ce6100c3565b96879586948594610dfb565b845260048401610e2f565b03915afa9081156123db5761230b91612306916000916123ad575b50611414565b611420565b63022c0d9f929194612325612320600061084d565b611ffd565b823b156123a857600094612357869261234c946123406100c3565b9a8b9889978896610dfb565b865260048601612097565b03925af19182156123a35761237192612376575b506116ca565b6120e7565b6123969060003d811161239c575b61238e81836101b8565b810190612024565b3861236b565b503d612384565b610e53565b610df6565b6123ce915060203d81116123d4575b6123c681836101b8565b810190610e10565b38612300565b503d6123bc565b610e53565b6124009150823d8111612406575b6123f881836101b8565b810190610e10565b38612284565b503d6123ee565b610e53565b602086612286565b612424600061084d565b916121b0565b5050509050565b600090565b61243e612431565b50612447612431565b508061245b61245584610223565b91610223565b146124c4578061247361246d84610223565b91610223565b106000146124bf57905b90918261249b61249561249060006113fc565b610223565b91610223565b146124a257565b600063d92e233d60e01b8152806124bb60048201610869565b0390fd5b61247d565b6000635c6d7b7360e01b8152806124dd60048201610869565b0390fd5b9094919392946124ef610842565b506124f8610842565b5061252a6125257f0000000000000000000000000000000000000000000000000000000000000000610dd2565b610dea565b602063e6a43905918490612550859461255b6125446100c3565b96879586948594610dfb565b845260048401610e2f565b03915afa90811561270d576000916126df575b5061258a61258461257f60006113fc565b610223565b91610223565b1460001461259a5750505050915b565b6125a3916118e2565b929092836125ba6125b4600061084d565b916100d8565b14806126c4575b6000146125d35750505050915b612598565b6125e385969394968783916127cd565b95866125f76125f1866100d8565b916100d8565b1115600014612640575050505061261761261184926100d8565b916100d8565b1061262357915b6125ce565b600063ef71d09160e01b81528061263c60048201610869565b0390fd5b90919350826126539396509190916127cd565b9161266761266184926100d8565b916100d8565b116126a75761267f61267983926100d8565b916100d8565b1061268a579161261e565b6000638dc525d160e01b8152806126a360048201610869565b0390fd5b600063e1b0da4f60e01b8152806126c060048201610869565b0390fd5b50806126d96126d3600061084d565b916100d8565b146125c1565b612700915060203d8111612706575b6126f881836101b8565b810190610e10565b3861256e565b503d6126ee565b610e53565b906000602091612720610842565b50612729610842565b50828151910182855af1156127c1573d6000519061275061274a600061084d565b916100d8565b146000146127a7575061276281611f07565b3b612776612770600061084d565b916100d8565b145b61277f5750565b61278b6127a391611f07565b6000918291635274afe760e01b83526004830161042b565b0390fd5b6127ba6127b46001610ac0565b916100d8565b1415612778565b6040513d6000823e3d90fd5b6127d5610842565b50806127ea6127e4600061084d565b916100d8565b1461285c57816128036127fd600061084d565b916100d8565b148015612841575b612824576128219261281c916108a4565b610933565b90565b60006342301c2360e01b81528061283d60048201610869565b0390fd5b5082612856612850600061084d565b916100d8565b1461280b565b6000638dc525d160e01b81528061287560048201610869565b0390fdfea264697066735822122079c13c1e76957798084965add50180a01d312ae3270ac94d95e5385781d6c10964736f6c634300081e0033",
          "opcodes": "PUSH1 0xA0 PUSH1 0x40 MSTORE CALLVALUE PUSH2 0x77 JUMPI PUSH2 0x19 PUSH2 0x14 PUSH2 0x142 JUMP JUMPDEST PUSH2 0x197 JUMP JUMPDEST PUSH2 0x21 PUSH2 0x7C JUMP JUMPDEST PUSH2 0x28AF PUSH2 0x282 DUP3 CODECOPY PUSH1 0x80 MLOAD DUP2 DUP2 DUP2 PUSH2 0x3FC ADD MSTORE DUP2 DUP2 PUSH2 0xEF3 ADD MSTORE DUP2 DUP2 PUSH2 0x121F ADD MSTORE DUP2 DUP2 PUSH2 0x147D ADD MSTORE DUP2 DUP2 PUSH2 0x190C ADD MSTORE DUP2 DUP2 PUSH2 0x1B79 ADD MSTORE DUP2 DUP2 PUSH2 0x1CCB ADD MSTORE DUP2 DUP2 PUSH2 0x21F0 ADD MSTORE DUP2 DUP2 PUSH2 0x228F ADD MSTORE PUSH2 0x2501 ADD MSTORE PUSH2 0x28AF SWAP1 RETURN JUMPDEST PUSH2 0x82 JUMP JUMPDEST PUSH1 0x40 MLOAD SWAP1 JUMP JUMPDEST PUSH1 0x0 DUP1 REVERT JUMPDEST PUSH1 0x1F DUP1 NOT SWAP2 ADD AND SWAP1 JUMP JUMPDEST PUSH4 0x4E487B71 PUSH1 0xE0 SHL PUSH1 0x0 MSTORE PUSH1 0x41 PUSH1 0x4 MSTORE PUSH1 0x24 PUSH1 0x0 REVERT JUMPDEST SWAP1 PUSH2 0xB1 SWAP1 PUSH2 0x87 JUMP JUMPDEST DUP2 ADD SWAP1 DUP2 LT PUSH1 0x1 DUP1 PUSH1 0x40 SHL SUB DUP3 GT OR PUSH2 0xC9 JUMPI PUSH1 0x40 MSTORE JUMP JUMPDEST PUSH2 0x91 JUMP JUMPDEST SWAP1 PUSH2 0xE1 PUSH2 0xDA PUSH2 0x7C JUMP JUMPDEST SWAP3 DUP4 PUSH2 0xA7 JUMP JUMPDEST JUMP JUMPDEST PUSH1 0x0 DUP1 REVERT JUMPDEST PUSH1 0x1 DUP1 PUSH1 0xA0 SHL SUB AND SWAP1 JUMP JUMPDEST PUSH2 0xFC SWAP1 PUSH2 0xE8 JUMP JUMPDEST SWAP1 JUMP JUMPDEST PUSH2 0x108 DUP2 PUSH2 0xF3 JUMP JUMPDEST SUB PUSH2 0x10F JUMPI JUMP JUMPDEST PUSH1 0x0 DUP1 REVERT JUMPDEST SWAP1 POP MLOAD SWAP1 PUSH2 0x121 DUP3 PUSH2 0xFF JUMP JUMPDEST JUMP JUMPDEST SWAP1 PUSH1 0x20 DUP3 DUP3 SUB SLT PUSH2 0x13D JUMPI PUSH2 0x13A SWAP2 PUSH1 0x0 ADD PUSH2 0x114 JUMP JUMPDEST SWAP1 JUMP JUMPDEST PUSH2 0xE3 JUMP JUMPDEST PUSH2 0x160 PUSH2 0x2B31 DUP1 CODESIZE SUB DUP1 PUSH2 0x155 DUP2 PUSH2 0xCE JUMP JUMPDEST SWAP3 DUP4 CODECOPY DUP2 ADD SWAP1 PUSH2 0x123 JUMP JUMPDEST SWAP1 JUMP JUMPDEST SWAP1 JUMP JUMPDEST SWAP1 JUMP JUMPDEST PUSH2 0x17D PUSH2 0x178 PUSH2 0x182 SWAP3 PUSH2 0x163 JUMP JUMPDEST PUSH2 0x166 JUMP JUMPDEST PUSH2 0xE8 JUMP JUMPDEST SWAP1 JUMP JUMPDEST PUSH2 0x18E SWAP1 PUSH2 0x169 JUMP JUMPDEST SWAP1 JUMP JUMPDEST PUSH1 0x0 ADD SWAP1 JUMP JUMPDEST PUSH2 0x19F PUSH2 0x26D JUMP JUMPDEST DUP1 PUSH2 0x1BB PUSH2 0x1B5 PUSH2 0x1B0 PUSH1 0x0 PUSH2 0x185 JUMP JUMPDEST PUSH2 0xF3 JUMP JUMPDEST SWAP2 PUSH2 0xF3 JUMP JUMPDEST EQ PUSH2 0x1C5 JUMPI PUSH1 0x80 MSTORE JUMP JUMPDEST PUSH1 0x0 PUSH4 0xD92E233D PUSH1 0xE0 SHL DUP2 MSTORE DUP1 PUSH2 0x1DE PUSH1 0x4 DUP3 ADD PUSH2 0x191 JUMP JUMPDEST SUB SWAP1 REVERT JUMPDEST SWAP1 JUMP JUMPDEST SWAP1 JUMP JUMPDEST PUSH2 0x1FC PUSH2 0x1F7 PUSH2 0x201 SWAP3 PUSH2 0x1E2 JUMP JUMPDEST PUSH2 0x166 JUMP JUMPDEST PUSH2 0x1E5 JUMP JUMPDEST SWAP1 JUMP JUMPDEST PUSH2 0x20E PUSH1 0x1 PUSH2 0x1E8 JUMP JUMPDEST SWAP1 JUMP JUMPDEST PUSH1 0x0 SHL SWAP1 JUMP JUMPDEST SWAP1 PUSH2 0x224 PUSH1 0x0 NOT SWAP2 PUSH2 0x211 JUMP JUMPDEST SWAP2 DUP2 NOT AND SWAP2 AND OR SWAP1 JUMP JUMPDEST PUSH2 0x242 PUSH2 0x23D PUSH2 0x247 SWAP3 PUSH2 0x1E5 JUMP JUMPDEST PUSH2 0x166 JUMP JUMPDEST PUSH2 0x1E5 JUMP JUMPDEST SWAP1 JUMP JUMPDEST SWAP1 JUMP JUMPDEST SWAP1 PUSH2 0x262 PUSH2 0x25D PUSH2 0x269 SWAP3 PUSH2 0x22E JUMP JUMPDEST PUSH2 0x24A JUMP JUMPDEST DUP3 SLOAD PUSH2 0x217 JUMP JUMPDEST SWAP1 SSTORE JUMP JUMPDEST PUSH2 0x27F PUSH2 0x278 PUSH2 0x204 JUMP JUMPDEST PUSH1 0x0 PUSH2 0x24D JUMP JUMPDEST JUMP INVALID PUSH1 0x80 PUSH1 0x40 MSTORE PUSH1 0x4 CALLDATASIZE LT ISZERO PUSH2 0x13 JUMPI JUMPDEST PUSH2 0x83D JUMP JUMPDEST PUSH2 0x1E PUSH1 0x0 CALLDATALOAD PUSH2 0xBD JUMP JUMPDEST DUP1 PUSH4 0x54D50D4 EQ PUSH2 0xB8 JUMPI DUP1 PUSH4 0x1F00CA74 EQ PUSH2 0xB3 JUMPI DUP1 PUSH4 0x2DD31000 EQ PUSH2 0xAE JUMPI DUP1 PUSH4 0x38ED1739 EQ PUSH2 0xA9 JUMPI DUP1 PUSH4 0x85F8C259 EQ PUSH2 0xA4 JUMPI DUP1 PUSH4 0x8803DBEE EQ PUSH2 0x9F JUMPI DUP1 PUSH4 0xBAA2ABDE EQ PUSH2 0x9A JUMPI DUP1 PUSH4 0xD06CA61F EQ PUSH2 0x95 JUMPI DUP1 PUSH4 0xD52BB6F4 EQ PUSH2 0x90 JUMPI PUSH4 0xE8E33700 SUB PUSH2 0xE JUMPI PUSH2 0x7FB JUMP JUMPDEST PUSH2 0x70F JUMP JUMPDEST PUSH2 0x6AB JUMP JUMPDEST PUSH2 0x66E JUMP JUMPDEST PUSH2 0x59D JUMP JUMPDEST PUSH2 0x567 JUMP JUMPDEST PUSH2 0x52B JUMP JUMPDEST PUSH2 0x441 JUMP JUMPDEST PUSH2 0x3B4 JUMP JUMPDEST PUSH2 0x15D JUMP JUMPDEST PUSH1 0xE0 SHR SWAP1 JUMP JUMPDEST PUSH1 0x40 MLOAD SWAP1 JUMP JUMPDEST PUSH1 0x0 DUP1 REVERT JUMPDEST PUSH1 0x0 DUP1 REVERT JUMPDEST PUSH1 0x0 DUP1 REVERT JUMPDEST SWAP1 JUMP JUMPDEST PUSH2 0xE4 DUP2 PUSH2 0xD8 JUMP JUMPDEST SUB PUSH2 0xEB JUMPI JUMP JUMPDEST PUSH1 0x0 DUP1 REVERT JUMPDEST SWAP1 POP CALLDATALOAD SWAP1 PUSH2 0xFD DUP3 PUSH2 0xDB JUMP JUMPDEST JUMP JUMPDEST SWAP1 SWAP2 PUSH1 0x60 DUP3 DUP5 SUB SLT PUSH2 0x135 JUMPI PUSH2 0x132 PUSH2 0x11B DUP5 PUSH1 0x0 DUP6 ADD PUSH2 0xF0 JUMP JUMPDEST SWAP4 PUSH2 0x129 DUP2 PUSH1 0x20 DUP7 ADD PUSH2 0xF0 JUMP JUMPDEST SWAP4 PUSH1 0x40 ADD PUSH2 0xF0 JUMP JUMPDEST SWAP1 JUMP JUMPDEST PUSH2 0xCE JUMP JUMPDEST PUSH2 0x143 SWAP1 PUSH2 0xD8 JUMP JUMPDEST SWAP1 MSTORE JUMP JUMPDEST SWAP2 SWAP1 PUSH2 0x15B SWAP1 PUSH1 0x0 PUSH1 0x20 DUP6 ADD SWAP5 ADD SWAP1 PUSH2 0x13A JUMP JUMPDEST JUMP JUMPDEST CALLVALUE PUSH2 0x18E JUMPI PUSH2 0x18A PUSH2 0x179 PUSH2 0x173 CALLDATASIZE PUSH1 0x4 PUSH2 0xFF JUMP JUMPDEST SWAP2 PUSH2 0x955 JUMP JUMPDEST PUSH2 0x181 PUSH2 0xC3 JUMP JUMPDEST SWAP2 DUP3 SWAP2 DUP3 PUSH2 0x147 JUMP JUMPDEST SUB SWAP1 RETURN JUMPDEST PUSH2 0xC9 JUMP JUMPDEST PUSH1 0x0 DUP1 REVERT JUMPDEST PUSH1 0x1F DUP1 NOT SWAP2 ADD AND SWAP1 JUMP JUMPDEST PUSH4 0x4E487B71 PUSH1 0xE0 SHL PUSH1 0x0 MSTORE PUSH1 0x41 PUSH1 0x4 MSTORE PUSH1 0x24 PUSH1 0x0 REVERT JUMPDEST SWAP1 PUSH2 0x1C2 SWAP1 PUSH2 0x198 JUMP JUMPDEST DUP2 ADD SWAP1 DUP2 LT PUSH8 0xFFFFFFFFFFFFFFFF DUP3 GT OR PUSH2 0x1DC JUMPI PUSH1 0x40 MSTORE JUMP JUMPDEST PUSH2 0x1A2 JUMP JUMPDEST SWAP1 PUSH2 0x1F4 PUSH2 0x1ED PUSH2 0xC3 JUMP JUMPDEST SWAP3 DUP4 PUSH2 0x1B8 JUMP JUMPDEST JUMP JUMPDEST PUSH8 0xFFFFFFFFFFFFFFFF DUP2 GT PUSH2 0x20E JUMPI PUSH1 0x20 DUP1 SWAP2 MUL ADD SWAP1 JUMP JUMPDEST PUSH2 0x1A2 JUMP JUMPDEST PUSH1 0x0 DUP1 REVERT JUMPDEST PUSH1 0x1 DUP1 PUSH1 0xA0 SHL SUB AND SWAP1 JUMP JUMPDEST PUSH2 0x22C SWAP1 PUSH2 0x218 JUMP JUMPDEST SWAP1 JUMP JUMPDEST PUSH2 0x238 DUP2 PUSH2 0x223 JUMP JUMPDEST SUB PUSH2 0x23F JUMPI JUMP JUMPDEST PUSH1 0x0 DUP1 REVERT JUMPDEST SWAP1 POP CALLDATALOAD SWAP1 PUSH2 0x251 DUP3 PUSH2 0x22F JUMP JUMPDEST JUMP JUMPDEST SWAP1 SWAP3 SWAP2 SWAP3 PUSH2 0x268 PUSH2 0x263 DUP3 PUSH2 0x1F6 JUMP JUMPDEST PUSH2 0x1E1 JUMP JUMPDEST SWAP4 DUP2 DUP6 MSTORE PUSH1 0x20 DUP1 DUP7 ADD SWAP3 MUL DUP4 ADD SWAP3 DUP2 DUP5 GT PUSH2 0x2A5 JUMPI SWAP2 JUMPDEST DUP4 DUP4 LT PUSH2 0x28C JUMPI POP POP POP POP JUMP JUMPDEST PUSH1 0x20 DUP1 SWAP2 PUSH2 0x29A DUP5 DUP7 PUSH2 0x244 JUMP JUMPDEST DUP2 MSTORE ADD SWAP3 ADD SWAP2 PUSH2 0x27F JUMP JUMPDEST PUSH2 0x213 JUMP JUMPDEST SWAP1 DUP1 PUSH1 0x1F DUP4 ADD SLT ISZERO PUSH2 0x2C8 JUMPI DUP2 PUSH1 0x20 PUSH2 0x2C5 SWAP4 CALLDATALOAD SWAP2 ADD PUSH2 0x253 JUMP JUMPDEST SWAP1 JUMP JUMPDEST PUSH2 0x193 JUMP JUMPDEST SWAP2 SWAP1 SWAP2 PUSH1 0x40 DUP2 DUP5 SUB SLT PUSH2 0x30E JUMPI PUSH2 0x2E7 DUP4 PUSH1 0x0 DUP4 ADD PUSH2 0xF0 JUMP JUMPDEST SWAP3 PUSH1 0x20 DUP3 ADD CALLDATALOAD PUSH8 0xFFFFFFFFFFFFFFFF DUP2 GT PUSH2 0x309 JUMPI PUSH2 0x306 SWAP3 ADD PUSH2 0x2AA JUMP JUMPDEST SWAP1 JUMP JUMPDEST PUSH2 0xD3 JUMP JUMPDEST PUSH2 0xCE JUMP JUMPDEST MLOAD SWAP1 JUMP JUMPDEST PUSH1 0x20 SWAP2 DUP2 MSTORE ADD SWAP1 JUMP JUMPDEST PUSH1 0x20 ADD SWAP1 JUMP JUMPDEST PUSH2 0x32F SWAP1 PUSH2 0xD8 JUMP JUMPDEST SWAP1 MSTORE JUMP JUMPDEST SWAP1 PUSH2 0x340 DUP2 PUSH1 0x20 SWAP4 PUSH2 0x326 JUMP JUMPDEST ADD SWAP1 JUMP JUMPDEST PUSH1 0x20 ADD SWAP1 JUMP JUMPDEST SWAP1 PUSH2 0x367 PUSH2 0x361 PUSH2 0x35A DUP5 PUSH2 0x313 JUMP JUMPDEST DUP1 SWAP4 PUSH2 0x317 JUMP JUMPDEST SWAP3 PUSH2 0x320 JUMP JUMPDEST SWAP1 PUSH1 0x0 JUMPDEST DUP2 DUP2 LT PUSH2 0x378 JUMPI POP POP POP SWAP1 JUMP JUMPDEST SWAP1 SWAP2 SWAP3 PUSH2 0x391 PUSH2 0x38B PUSH1 0x1 SWAP3 DUP7 MLOAD PUSH2 0x333 JUMP JUMPDEST SWAP5 PUSH2 0x344 JUMP JUMPDEST SWAP2 ADD SWAP2 SWAP1 SWAP2 PUSH2 0x36B JUMP JUMPDEST PUSH2 0x3B1 SWAP2 PUSH1 0x20 DUP3 ADD SWAP2 PUSH1 0x0 DUP2 DUP5 SUB SWAP2 ADD MSTORE PUSH2 0x34A JUMP JUMPDEST SWAP1 JUMP JUMPDEST CALLVALUE PUSH2 0x3E5 JUMPI PUSH2 0x3E1 PUSH2 0x3D0 PUSH2 0x3CA CALLDATASIZE PUSH1 0x4 PUSH2 0x2CD JUMP JUMPDEST SWAP1 PUSH2 0xB9C JUMP JUMPDEST PUSH2 0x3D8 PUSH2 0xC3 JUMP JUMPDEST SWAP2 DUP3 SWAP2 DUP3 PUSH2 0x39B JUMP JUMPDEST SUB SWAP1 RETURN JUMPDEST PUSH2 0xC9 JUMP JUMPDEST PUSH1 0x0 SWAP2 SUB SLT PUSH2 0x3F5 JUMPI JUMP JUMPDEST PUSH2 0xCE JUMP JUMPDEST PUSH32 0x0 SWAP1 JUMP JUMPDEST PUSH2 0x427 SWAP1 PUSH2 0x223 JUMP JUMPDEST SWAP1 MSTORE JUMP JUMPDEST SWAP2 SWAP1 PUSH2 0x43F SWAP1 PUSH1 0x0 PUSH1 0x20 DUP6 ADD SWAP5 ADD SWAP1 PUSH2 0x41E JUMP JUMPDEST JUMP JUMPDEST CALLVALUE PUSH2 0x471 JUMPI PUSH2 0x451 CALLDATASIZE PUSH1 0x4 PUSH2 0x3EA JUMP JUMPDEST PUSH2 0x46D PUSH2 0x45C PUSH2 0x3FA JUMP JUMPDEST PUSH2 0x464 PUSH2 0xC3 JUMP JUMPDEST SWAP2 DUP3 SWAP2 DUP3 PUSH2 0x42B JUMP JUMPDEST SUB SWAP1 RETURN JUMPDEST PUSH2 0xC9 JUMP JUMPDEST PUSH1 0x0 DUP1 REVERT JUMPDEST SWAP1 SWAP2 DUP3 PUSH1 0x1F DUP4 ADD SLT ISZERO PUSH2 0x4B5 JUMPI DUP2 CALLDATALOAD SWAP2 PUSH8 0xFFFFFFFFFFFFFFFF DUP4 GT PUSH2 0x4B0 JUMPI PUSH1 0x20 ADD SWAP3 PUSH1 0x20 DUP4 MUL DUP5 ADD GT PUSH2 0x4AB JUMPI JUMP JUMPDEST PUSH2 0x213 JUMP JUMPDEST PUSH2 0x476 JUMP JUMPDEST PUSH2 0x193 JUMP JUMPDEST SWAP1 PUSH1 0xA0 DUP3 DUP3 SUB SLT PUSH2 0x526 JUMPI PUSH2 0x4D2 DUP2 PUSH1 0x0 DUP5 ADD PUSH2 0xF0 JUMP JUMPDEST SWAP3 PUSH2 0x4E0 DUP3 PUSH1 0x20 DUP6 ADD PUSH2 0xF0 JUMP JUMPDEST SWAP3 PUSH1 0x40 DUP2 ADD CALLDATALOAD SWAP2 PUSH8 0xFFFFFFFFFFFFFFFF DUP4 GT PUSH2 0x521 JUMPI PUSH2 0x505 DUP5 PUSH2 0x51E SWAP5 DUP5 ADD PUSH2 0x47B JUMP JUMPDEST SWAP4 SWAP1 SWAP5 PUSH2 0x515 DUP2 PUSH1 0x60 DUP7 ADD PUSH2 0x244 JUMP JUMPDEST SWAP4 PUSH1 0x80 ADD PUSH2 0xF0 JUMP JUMPDEST SWAP1 JUMP JUMPDEST PUSH2 0xD3 JUMP JUMPDEST PUSH2 0xCE JUMP JUMPDEST CALLVALUE PUSH2 0x562 JUMPI PUSH2 0x55E PUSH2 0x54D PUSH2 0x541 CALLDATASIZE PUSH1 0x4 PUSH2 0x4BA JUMP JUMPDEST SWAP5 SWAP4 SWAP1 SWAP4 SWAP3 SWAP2 SWAP3 PUSH2 0x102B JUMP JUMPDEST PUSH2 0x555 PUSH2 0xC3 JUMP JUMPDEST SWAP2 DUP3 SWAP2 DUP3 PUSH2 0x39B JUMP JUMPDEST SUB SWAP1 RETURN JUMPDEST PUSH2 0xC9 JUMP JUMPDEST CALLVALUE PUSH2 0x598 JUMPI PUSH2 0x594 PUSH2 0x583 PUSH2 0x57D CALLDATASIZE PUSH1 0x4 PUSH2 0xFF JUMP JUMPDEST SWAP2 PUSH2 0x1044 JUMP JUMPDEST PUSH2 0x58B PUSH2 0xC3 JUMP JUMPDEST SWAP2 DUP3 SWAP2 DUP3 PUSH2 0x147 JUMP JUMPDEST SUB SWAP1 RETURN JUMPDEST PUSH2 0xC9 JUMP JUMPDEST CALLVALUE PUSH2 0x5D4 JUMPI PUSH2 0x5D0 PUSH2 0x5BF PUSH2 0x5B3 CALLDATASIZE PUSH1 0x4 PUSH2 0x4BA JUMP JUMPDEST SWAP5 SWAP4 SWAP1 SWAP4 SWAP3 SWAP2 SWAP3 PUSH2 0x1357 JUMP JUMPDEST PUSH2 0x5C7 PUSH2 0xC3 JUMP JUMPDEST SWAP2 DUP3 SWAP2 DUP3 PUSH2 0x39B JUMP JUMPDEST SUB SWAP1 RETURN JUMPDEST PUSH2 0xC9 JUMP JUMPDEST PUSH1 0xE0 DUP2 DUP4 SUB SLT PUSH2 0x645 JUMPI PUSH2 0x5F0 DUP3 PUSH1 0x0 DUP4 ADD PUSH2 0x244 JUMP JUMPDEST SWAP3 PUSH2 0x5FE DUP4 PUSH1 0x20 DUP5 ADD PUSH2 0x244 JUMP JUMPDEST SWAP3 PUSH2 0x60C DUP2 PUSH1 0x40 DUP6 ADD PUSH2 0xF0 JUMP JUMPDEST SWAP3 PUSH2 0x61A DUP3 PUSH1 0x60 DUP4 ADD PUSH2 0xF0 JUMP JUMPDEST SWAP3 PUSH2 0x642 PUSH2 0x62B DUP5 PUSH1 0x80 DUP6 ADD PUSH2 0xF0 JUMP JUMPDEST SWAP4 PUSH2 0x639 DUP2 PUSH1 0xA0 DUP7 ADD PUSH2 0x244 JUMP JUMPDEST SWAP4 PUSH1 0xC0 ADD PUSH2 0xF0 JUMP JUMPDEST SWAP1 JUMP JUMPDEST PUSH2 0xCE JUMP JUMPDEST SWAP2 PUSH1 0x20 PUSH2 0x66C SWAP3 SWAP5 SWAP4 PUSH2 0x665 PUSH1 0x40 DUP3 ADD SWAP7 PUSH1 0x0 DUP4 ADD SWAP1 PUSH2 0x13A JUMP JUMPDEST ADD SWAP1 PUSH2 0x13A JUMP JUMPDEST JUMP JUMPDEST CALLVALUE PUSH2 0x6A6 JUMPI PUSH2 0x68D PUSH2 0x681 CALLDATASIZE PUSH1 0x4 PUSH2 0x5D9 JUMP JUMPDEST SWAP6 SWAP5 SWAP1 SWAP5 SWAP4 SWAP2 SWAP4 PUSH2 0x16A6 JUMP JUMPDEST SWAP1 PUSH2 0x6A2 PUSH2 0x699 PUSH2 0xC3 JUMP JUMPDEST SWAP3 DUP4 SWAP3 DUP4 PUSH2 0x64A JUMP JUMPDEST SUB SWAP1 RETURN JUMPDEST PUSH2 0xC9 JUMP JUMPDEST CALLVALUE PUSH2 0x6DC JUMPI PUSH2 0x6D8 PUSH2 0x6C7 PUSH2 0x6C1 CALLDATASIZE PUSH1 0x4 PUSH2 0x2CD JUMP JUMPDEST SWAP1 PUSH2 0x16D9 JUMP JUMPDEST PUSH2 0x6CF PUSH2 0xC3 JUMP JUMPDEST SWAP2 DUP3 SWAP2 DUP3 PUSH2 0x39B JUMP JUMPDEST SUB SWAP1 RETURN JUMPDEST PUSH2 0xC9 JUMP JUMPDEST SWAP2 SWAP1 PUSH1 0x40 DUP4 DUP3 SUB SLT PUSH2 0x70A JUMPI DUP1 PUSH2 0x6FE PUSH2 0x707 SWAP3 PUSH1 0x0 DUP7 ADD PUSH2 0x244 JUMP JUMPDEST SWAP4 PUSH1 0x20 ADD PUSH2 0x244 JUMP JUMPDEST SWAP1 JUMP JUMPDEST PUSH2 0xCE JUMP JUMPDEST CALLVALUE PUSH2 0x741 JUMPI PUSH2 0x728 PUSH2 0x722 CALLDATASIZE PUSH1 0x4 PUSH2 0x6E1 JUMP JUMPDEST SWAP1 PUSH2 0x18E2 JUMP JUMPDEST SWAP1 PUSH2 0x73D PUSH2 0x734 PUSH2 0xC3 JUMP JUMPDEST SWAP3 DUP4 SWAP3 DUP4 PUSH2 0x64A JUMP JUMPDEST SUB SWAP1 RETURN JUMPDEST PUSH2 0xC9 JUMP JUMPDEST SWAP2 SWAP1 PUSH2 0x100 DUP4 DUP3 SUB SLT PUSH2 0x7C3 JUMPI PUSH2 0x760 DUP2 PUSH1 0x0 DUP6 ADD PUSH2 0x244 JUMP JUMPDEST SWAP3 PUSH2 0x76E DUP3 PUSH1 0x20 DUP4 ADD PUSH2 0x244 JUMP JUMPDEST SWAP3 PUSH2 0x77C DUP4 PUSH1 0x40 DUP5 ADD PUSH2 0xF0 JUMP JUMPDEST SWAP3 PUSH2 0x78A DUP2 PUSH1 0x60 DUP6 ADD PUSH2 0xF0 JUMP JUMPDEST SWAP3 PUSH2 0x798 DUP3 PUSH1 0x80 DUP4 ADD PUSH2 0xF0 JUMP JUMPDEST SWAP3 PUSH2 0x7C0 PUSH2 0x7A9 DUP5 PUSH1 0xA0 DUP6 ADD PUSH2 0xF0 JUMP JUMPDEST SWAP4 PUSH2 0x7B7 DUP2 PUSH1 0xC0 DUP7 ADD PUSH2 0x244 JUMP JUMPDEST SWAP4 PUSH1 0xE0 ADD PUSH2 0xF0 JUMP JUMPDEST SWAP1 JUMP JUMPDEST PUSH2 0xCE JUMP JUMPDEST PUSH1 0x40 SWAP1 PUSH2 0x7F2 PUSH2 0x7F9 SWAP5 SWAP7 SWAP6 SWAP4 SWAP7 PUSH2 0x7E8 PUSH1 0x60 DUP5 ADD SWAP9 PUSH1 0x0 DUP6 ADD SWAP1 PUSH2 0x13A JUMP JUMPDEST PUSH1 0x20 DUP4 ADD SWAP1 PUSH2 0x13A JUMP JUMPDEST ADD SWAP1 PUSH2 0x13A JUMP JUMPDEST JUMP JUMPDEST CALLVALUE PUSH2 0x838 JUMPI PUSH2 0x834 PUSH2 0x820 PUSH2 0x811 CALLDATASIZE PUSH1 0x4 PUSH2 0x746 JUMP JUMPDEST SWAP7 SWAP6 SWAP1 SWAP6 SWAP5 SWAP2 SWAP5 SWAP4 SWAP3 SWAP4 PUSH2 0x1DCC JUMP JUMPDEST PUSH2 0x82B SWAP4 SWAP2 SWAP4 PUSH2 0xC3 JUMP JUMPDEST SWAP4 DUP5 SWAP4 DUP5 PUSH2 0x7C8 JUMP JUMPDEST SUB SWAP1 RETURN JUMPDEST PUSH2 0xC9 JUMP JUMPDEST PUSH1 0x0 DUP1 REVERT JUMPDEST PUSH1 0x0 SWAP1 JUMP JUMPDEST SWAP1 JUMP JUMPDEST SWAP1 JUMP JUMPDEST PUSH2 0x861 PUSH2 0x85C PUSH2 0x866 SWAP3 PUSH2 0x847 JUMP JUMPDEST PUSH2 0x84A JUMP JUMPDEST PUSH2 0xD8 JUMP JUMPDEST SWAP1 JUMP JUMPDEST PUSH1 0x0 ADD SWAP1 JUMP JUMPDEST SWAP1 JUMP JUMPDEST PUSH2 0x886 PUSH2 0x881 PUSH2 0x88B SWAP3 PUSH2 0x86F JUMP JUMPDEST PUSH2 0x84A JUMP JUMPDEST PUSH2 0xD8 JUMP JUMPDEST SWAP1 JUMP JUMPDEST PUSH4 0x4E487B71 PUSH1 0xE0 SHL PUSH1 0x0 MSTORE PUSH1 0x11 PUSH1 0x4 MSTORE PUSH1 0x24 PUSH1 0x0 REVERT JUMPDEST PUSH2 0x8B3 PUSH2 0x8B9 SWAP2 SWAP4 SWAP3 SWAP4 PUSH2 0xD8 JUMP JUMPDEST SWAP3 PUSH2 0xD8 JUMP JUMPDEST SWAP2 PUSH2 0x8C5 DUP4 DUP3 MUL PUSH2 0xD8 JUMP JUMPDEST SWAP3 DUP2 DUP5 DIV EQ SWAP1 ISZERO OR ISZERO PUSH2 0x8D4 JUMPI JUMP JUMPDEST PUSH2 0x88E JUMP JUMPDEST SWAP1 JUMP JUMPDEST PUSH2 0x8F0 PUSH2 0x8EB PUSH2 0x8F5 SWAP3 PUSH2 0x8D9 JUMP JUMPDEST PUSH2 0x84A JUMP JUMPDEST PUSH2 0xD8 JUMP JUMPDEST SWAP1 JUMP JUMPDEST PUSH2 0x907 PUSH2 0x90D SWAP2 SWAP4 SWAP3 SWAP4 PUSH2 0xD8 JUMP JUMPDEST SWAP3 PUSH2 0xD8 JUMP JUMPDEST DUP3 ADD DUP1 SWAP3 GT PUSH2 0x918 JUMPI JUMP JUMPDEST PUSH2 0x88E JUMP JUMPDEST PUSH4 0x4E487B71 PUSH1 0xE0 SHL PUSH1 0x0 MSTORE PUSH1 0x12 PUSH1 0x4 MSTORE PUSH1 0x24 PUSH1 0x0 REVERT JUMPDEST PUSH2 0x93F PUSH2 0x945 SWAP2 PUSH2 0xD8 JUMP JUMPDEST SWAP2 PUSH2 0xD8 JUMP JUMPDEST SWAP1 DUP2 ISZERO PUSH2 0x950 JUMPI DIV SWAP1 JUMP JUMPDEST PUSH2 0x91D JUMP JUMPDEST PUSH2 0x95D PUSH2 0x842 JUMP JUMPDEST POP DUP1 PUSH2 0x972 PUSH2 0x96C PUSH1 0x0 PUSH2 0x84D JUMP JUMPDEST SWAP2 PUSH2 0xD8 JUMP JUMPDEST EQ PUSH2 0xA18 JUMPI DUP2 PUSH2 0x98B PUSH2 0x985 PUSH1 0x0 PUSH2 0x84D JUMP JUMPDEST SWAP2 PUSH2 0xD8 JUMP JUMPDEST EQ DUP1 ISZERO PUSH2 0x9FD JUMPI JUMPDEST PUSH2 0x9E0 JUMPI PUSH2 0x9DD SWAP3 PUSH2 0x9D2 PUSH2 0x9C0 PUSH2 0x9B9 PUSH2 0x9D7 SWAP5 PUSH2 0x9B3 PUSH2 0x3E5 PUSH2 0x872 JUMP JUMPDEST SWAP1 PUSH2 0x8A4 JUMP JUMPDEST SWAP3 DUP4 PUSH2 0x8A4 JUMP JUMPDEST SWAP4 PUSH2 0x9CC PUSH2 0x3E8 PUSH2 0x8DC JUMP JUMPDEST SWAP1 PUSH2 0x8A4 JUMP JUMPDEST PUSH2 0x8F8 JUMP JUMPDEST SWAP1 PUSH2 0x933 JUMP JUMPDEST SWAP1 JUMP JUMPDEST PUSH1 0x0 PUSH4 0x42301C23 PUSH1 0xE0 SHL DUP2 MSTORE DUP1 PUSH2 0x9F9 PUSH1 0x4 DUP3 ADD PUSH2 0x869 JUMP JUMPDEST SUB SWAP1 REVERT JUMPDEST POP DUP3 PUSH2 0xA12 PUSH2 0xA0C PUSH1 0x0 PUSH2 0x84D JUMP JUMPDEST SWAP2 PUSH2 0xD8 JUMP JUMPDEST EQ PUSH2 0x993 JUMP JUMPDEST PUSH1 0x0 PUSH4 0x340DABEF PUSH1 0xE0 SHL DUP2 MSTORE DUP1 PUSH2 0xA31 PUSH1 0x4 DUP3 ADD PUSH2 0x869 JUMP JUMPDEST SUB SWAP1 REVERT JUMPDEST PUSH1 0x60 SWAP1 JUMP JUMPDEST MLOAD SWAP1 JUMP JUMPDEST SWAP1 JUMP JUMPDEST PUSH2 0xA55 PUSH2 0xA50 PUSH2 0xA5A SWAP3 PUSH2 0xA3E JUMP JUMPDEST PUSH2 0x84A JUMP JUMPDEST PUSH2 0xD8 JUMP JUMPDEST SWAP1 JUMP JUMPDEST PUSH8 0xFFFFFFFFFFFFFFFF DUP2 GT PUSH2 0xA75 JUMPI PUSH1 0x20 DUP1 SWAP2 MUL ADD SWAP1 JUMP JUMPDEST PUSH2 0x1A2 JUMP JUMPDEST SWAP1 PUSH2 0xA8C PUSH2 0xA87 DUP4 PUSH2 0xA5D JUMP JUMPDEST PUSH2 0x1E1 JUMP JUMPDEST SWAP2 DUP3 MSTORE JUMP JUMPDEST CALLDATASIZE SWAP1 CALLDATACOPY JUMP JUMPDEST SWAP1 PUSH2 0xABB PUSH2 0xAA3 DUP4 PUSH2 0xA7A JUMP JUMPDEST SWAP3 PUSH1 0x20 DUP1 PUSH2 0xAB1 DUP7 SWAP4 PUSH2 0xA5D JUMP JUMPDEST SWAP3 ADD SWAP2 SUB SWAP1 PUSH2 0xA91 JUMP JUMPDEST JUMP JUMPDEST SWAP1 JUMP JUMPDEST PUSH2 0xAD4 PUSH2 0xACF PUSH2 0xAD9 SWAP3 PUSH2 0xABD JUMP JUMPDEST PUSH2 0x84A JUMP JUMPDEST PUSH2 0xD8 JUMP JUMPDEST SWAP1 JUMP JUMPDEST PUSH2 0xAEB PUSH2 0xAF1 SWAP2 SWAP4 SWAP3 SWAP4 PUSH2 0xD8 JUMP JUMPDEST SWAP3 PUSH2 0xD8 JUMP JUMPDEST DUP3 SUB SWAP2 DUP3 GT PUSH2 0xAFC JUMPI JUMP JUMPDEST PUSH2 0x88E JUMP JUMPDEST PUSH4 0x4E487B71 PUSH1 0xE0 SHL PUSH1 0x0 MSTORE PUSH1 0x32 PUSH1 0x4 MSTORE PUSH1 0x24 PUSH1 0x0 REVERT JUMPDEST SWAP1 PUSH2 0xB21 DUP3 PUSH2 0x313 JUMP JUMPDEST DUP2 LT ISZERO PUSH2 0xB32 JUMPI PUSH1 0x20 DUP1 SWAP2 MUL ADD ADD SWAP1 JUMP JUMPDEST PUSH2 0xB01 JUMP JUMPDEST SWAP1 PUSH2 0xB41 SWAP1 PUSH2 0xD8 JUMP JUMPDEST SWAP1 MSTORE JUMP JUMPDEST PUSH2 0xB4E SWAP1 PUSH2 0xD8 JUMP JUMPDEST PUSH1 0x0 DUP2 EQ PUSH2 0xB5D JUMPI PUSH1 0x1 SWAP1 SUB SWAP1 JUMP JUMPDEST PUSH2 0x88E JUMP JUMPDEST SWAP1 PUSH2 0xB6C DUP3 PUSH2 0xA3A JUMP JUMPDEST DUP2 LT ISZERO PUSH2 0xB7D JUMPI PUSH1 0x20 DUP1 SWAP2 MUL ADD ADD SWAP1 JUMP JUMPDEST PUSH2 0xB01 JUMP JUMPDEST PUSH2 0xB8C SWAP1 MLOAD PUSH2 0x223 JUMP JUMPDEST SWAP1 JUMP JUMPDEST PUSH2 0xB99 SWAP1 MLOAD PUSH2 0xD8 JUMP JUMPDEST SWAP1 JUMP JUMPDEST SWAP2 SWAP1 PUSH2 0xBA6 PUSH2 0xA35 JUMP JUMPDEST POP PUSH2 0xBB0 DUP2 PUSH2 0xA3A JUMP JUMPDEST PUSH2 0xBC3 PUSH2 0xBBD PUSH1 0x2 PUSH2 0xA41 JUMP JUMPDEST SWAP2 PUSH2 0xD8 JUMP JUMPDEST LT PUSH2 0xCDB JUMPI PUSH2 0xC0A PUSH2 0xBDC PUSH2 0xBD7 DUP4 PUSH2 0xA3A JUMP JUMPDEST PUSH2 0xA96 JUMP JUMPDEST SWAP4 PUSH2 0xC05 DUP6 SWAP2 PUSH2 0xBFE PUSH2 0xBEE DUP9 PUSH2 0x313 JUMP JUMPDEST PUSH2 0xBF8 PUSH1 0x1 PUSH2 0xAC0 JUMP JUMPDEST SWAP1 PUSH2 0xADC JUMP JUMPDEST SWAP1 SWAP3 PUSH2 0xB17 JUMP JUMPDEST PUSH2 0xB37 JUMP JUMPDEST PUSH2 0xC26 PUSH2 0xC16 DUP3 PUSH2 0xA3A JUMP JUMPDEST PUSH2 0xC20 PUSH1 0x1 PUSH2 0xAC0 JUMP JUMPDEST SWAP1 PUSH2 0xADC JUMP JUMPDEST JUMPDEST DUP1 PUSH2 0xC3B PUSH2 0xC35 PUSH1 0x0 PUSH2 0x84D JUMP JUMPDEST SWAP2 PUSH2 0xD8 JUMP JUMPDEST GT ISZERO PUSH2 0xCD7 JUMPI PUSH2 0xCD2 SWAP1 PUSH2 0xCCD PUSH2 0xCA8 PUSH2 0xC8D PUSH2 0xC74 PUSH2 0xC6F DUP8 PUSH2 0xC69 DUP8 PUSH2 0xC63 PUSH1 0x1 PUSH2 0xAC0 JUMP JUMPDEST SWAP1 PUSH2 0xADC JUMP JUMPDEST SWAP1 PUSH2 0xB62 JUMP JUMPDEST PUSH2 0xB82 JUMP JUMPDEST PUSH2 0xC87 PUSH2 0xC82 DUP9 DUP8 SWAP1 PUSH2 0xB62 JUMP JUMPDEST PUSH2 0xB82 JUMP JUMPDEST SWAP1 PUSH2 0x18E2 JUMP JUMPDEST PUSH2 0xCA0 PUSH2 0xC9B DUP11 DUP8 SWAP1 PUSH2 0xB17 JUMP JUMPDEST PUSH2 0xB8F JUMP JUMPDEST SWAP2 SWAP1 SWAP2 PUSH2 0x1044 JUMP JUMPDEST PUSH2 0xCC8 DUP8 SWAP2 PUSH2 0xCC1 DUP6 PUSH2 0xCBB PUSH1 0x1 PUSH2 0xAC0 JUMP JUMPDEST SWAP1 PUSH2 0xADC JUMP JUMPDEST SWAP1 SWAP3 PUSH2 0xB17 JUMP JUMPDEST PUSH2 0xB37 JUMP JUMPDEST PUSH2 0xB45 JUMP JUMPDEST PUSH2 0xC27 JUMP JUMPDEST POP POP JUMP JUMPDEST PUSH1 0x0 PUSH4 0x20DB8267 PUSH1 0xE0 SHL DUP2 MSTORE DUP1 PUSH2 0xCF4 PUSH1 0x4 DUP3 ADD PUSH2 0x869 JUMP JUMPDEST SUB SWAP1 REVERT JUMPDEST SWAP6 SWAP5 SWAP4 SWAP3 SWAP2 SWAP1 DUP6 PUSH2 0xD12 PUSH2 0xD0C TIMESTAMP SWAP3 PUSH2 0xD8 JUMP JUMPDEST SWAP2 PUSH2 0xD8 JUMP JUMPDEST GT PUSH2 0xD23 JUMPI PUSH2 0xD20 SWAP7 PUSH2 0xD40 JUMP JUMPDEST SWAP1 JUMP JUMPDEST PUSH1 0x0 PUSH4 0x1AB7DA6B PUSH1 0xE0 SHL DUP2 MSTORE DUP1 PUSH2 0xD3C PUSH1 0x4 DUP3 ADD PUSH2 0x869 JUMP JUMPDEST SUB SWAP1 REVERT JUMPDEST SWAP1 PUSH2 0xD57 SWAP7 SWAP6 SWAP5 SWAP4 SWAP3 SWAP2 PUSH2 0xD52 PUSH2 0x1E8D JUMP JUMPDEST PUSH2 0xE64 JUMP JUMPDEST SWAP1 PUSH2 0xD60 PUSH2 0x1EF3 JUMP JUMPDEST JUMP JUMPDEST PUSH2 0xD6D SWAP2 CALLDATASIZE SWAP2 PUSH2 0x253 JUMP JUMPDEST SWAP1 JUMP JUMPDEST SWAP2 SWAP1 DUP2 LT ISZERO PUSH2 0xD80 JUMPI PUSH1 0x20 MUL ADD SWAP1 JUMP JUMPDEST PUSH2 0xB01 JUMP JUMPDEST CALLDATALOAD PUSH2 0xD8F DUP2 PUSH2 0x22F JUMP JUMPDEST SWAP1 JUMP JUMPDEST PUSH2 0xDA6 PUSH2 0xDA1 PUSH2 0xDAB SWAP3 PUSH2 0x218 JUMP JUMPDEST PUSH2 0x84A JUMP JUMPDEST PUSH2 0x218 JUMP JUMPDEST SWAP1 JUMP JUMPDEST PUSH2 0xDB7 SWAP1 PUSH2 0xD92 JUMP JUMPDEST SWAP1 JUMP JUMPDEST PUSH2 0xDC3 SWAP1 PUSH2 0xDAE JUMP JUMPDEST SWAP1 JUMP JUMPDEST PUSH2 0xDCF SWAP1 PUSH2 0xD92 JUMP JUMPDEST SWAP1 JUMP JUMPDEST PUSH2 0xDDB SWAP1 PUSH2 0xDC6 JUMP JUMPDEST SWAP1 JUMP JUMPDEST PUSH2 0xDE7 SWAP1 PUSH2 0xD92 JUMP JUMPDEST SWAP1 JUMP JUMPDEST PUSH2 0xDF3 SWAP1 PUSH2 0xDDE JUMP JUMPDEST SWAP1 JUMP JUMPDEST PUSH1 0x0 DUP1 REVERT JUMPDEST PUSH1 0xE0 SHL SWAP1 JUMP JUMPDEST SWAP1 POP MLOAD SWAP1 PUSH2 0xE0E DUP3 PUSH2 0x22F JUMP JUMPDEST JUMP JUMPDEST SWAP1 PUSH1 0x20 DUP3 DUP3 SUB SLT PUSH2 0xE2A JUMPI PUSH2 0xE27 SWAP2 PUSH1 0x0 ADD PUSH2 0xE01 JUMP JUMPDEST SWAP1 JUMP JUMPDEST PUSH2 0xCE JUMP JUMPDEST SWAP2 PUSH1 0x20 PUSH2 0xE51 SWAP3 SWAP5 SWAP4 PUSH2 0xE4A PUSH1 0x40 DUP3 ADD SWAP7 PUSH1 0x0 DUP4 ADD SWAP1 PUSH2 0x41E JUMP JUMPDEST ADD SWAP1 PUSH2 0x41E JUMP JUMPDEST JUMP JUMPDEST PUSH2 0xE5B PUSH2 0xC3 JUMP JUMPDEST RETURNDATASIZE PUSH1 0x0 DUP3 RETURNDATACOPY RETURNDATASIZE SWAP1 REVERT JUMPDEST PUSH2 0xE7D SWAP3 SWAP8 SWAP7 POP POP PUSH2 0xE77 DUP4 DUP6 SWAP1 PUSH2 0xD62 JUMP JUMPDEST SWAP1 PUSH2 0x16D9 JUMP JUMPDEST SWAP5 PUSH2 0xEBE PUSH2 0xEB8 PUSH2 0xEB2 PUSH2 0xEAD DUP10 PUSH2 0xEA7 PUSH2 0xE97 DUP13 PUSH2 0x313 JUMP JUMPDEST PUSH2 0xEA1 PUSH1 0x1 PUSH2 0xAC0 JUMP JUMPDEST SWAP1 PUSH2 0xADC JUMP JUMPDEST SWAP1 PUSH2 0xB17 JUMP JUMPDEST PUSH2 0xB8F JUMP JUMPDEST SWAP3 PUSH2 0xD8 JUMP JUMPDEST SWAP2 PUSH2 0xD8 JUMP JUMPDEST LT PUSH2 0x100E JUMPI PUSH2 0xEE8 PUSH2 0xEE3 PUSH2 0xEDE DUP4 DUP6 PUSH2 0xED8 PUSH1 0x0 PUSH2 0x84D JUMP JUMPDEST SWAP2 PUSH2 0xD70 JUMP JUMPDEST PUSH2 0xD85 JUMP JUMPDEST PUSH2 0xDBA JUMP JUMPDEST SWAP3 CALLER SWAP1 PUSH2 0xF1C PUSH2 0xF17 PUSH32 0x0 PUSH2 0xDD2 JUMP JUMPDEST PUSH2 0xDEA JUMP JUMPDEST PUSH1 0x20 PUSH4 0xE6A43905 SWAP2 PUSH2 0xF41 PUSH2 0xF3C DUP8 DUP10 PUSH2 0xF36 PUSH1 0x0 PUSH2 0x84D JUMP JUMPDEST SWAP2 PUSH2 0xD70 JUMP JUMPDEST PUSH2 0xD85 JUMP JUMPDEST SWAP1 PUSH2 0xF7A PUSH2 0xF62 PUSH2 0xF5D DUP10 DUP12 PUSH2 0xF57 PUSH1 0x1 PUSH2 0xAC0 JUMP JUMPDEST SWAP2 PUSH2 0xD70 JUMP JUMPDEST PUSH2 0xD85 JUMP JUMPDEST SWAP5 PUSH2 0xF85 PUSH2 0xF6E PUSH2 0xC3 JUMP JUMPDEST SWAP7 DUP8 SWAP6 DUP7 SWAP5 DUP6 SWAP5 PUSH2 0xDFB JUMP JUMPDEST DUP5 MSTORE PUSH1 0x4 DUP5 ADD PUSH2 0xE2F JUMP JUMPDEST SUB SWAP2 GAS STATICCALL SWAP6 DUP7 ISZERO PUSH2 0x1009 JUMPI PUSH2 0xFD7 SWAP7 PUSH2 0xFD1 SWAP5 PUSH2 0xFC7 SWAP4 PUSH1 0x0 SWAP3 PUSH2 0xFD9 JUMPI JUMPDEST POP PUSH2 0xFC1 PUSH2 0xFBC DUP13 PUSH2 0xFB6 PUSH1 0x0 PUSH2 0x84D JUMP JUMPDEST SWAP1 PUSH2 0xB17 JUMP JUMPDEST PUSH2 0xB8F JUMP JUMPDEST SWAP3 PUSH2 0x1F6E JUMP JUMPDEST DUP7 SWAP3 SWAP4 SWAP1 SWAP4 PUSH2 0xD62 JUMP JUMPDEST SWAP1 PUSH2 0x20DB JUMP JUMPDEST JUMP JUMPDEST PUSH2 0xFFB SWAP2 SWAP3 POP PUSH1 0x20 RETURNDATASIZE DUP2 GT PUSH2 0x1002 JUMPI JUMPDEST PUSH2 0xFF3 DUP2 DUP4 PUSH2 0x1B8 JUMP JUMPDEST DUP2 ADD SWAP1 PUSH2 0xE10 JUMP JUMPDEST SWAP1 CODESIZE PUSH2 0xFA4 JUMP JUMPDEST POP RETURNDATASIZE PUSH2 0xFE9 JUMP JUMPDEST PUSH2 0xE53 JUMP JUMPDEST PUSH1 0x0 PUSH4 0x42301C23 PUSH1 0xE0 SHL DUP2 MSTORE DUP1 PUSH2 0x1027 PUSH1 0x4 DUP3 ADD PUSH2 0x869 JUMP JUMPDEST SUB SWAP1 REVERT JUMPDEST SWAP1 PUSH2 0x1041 SWAP6 SWAP5 SWAP4 SWAP3 SWAP2 PUSH2 0x103C PUSH2 0xA35 JUMP JUMPDEST PUSH2 0xCF8 JUMP JUMPDEST SWAP1 JUMP JUMPDEST SWAP2 PUSH2 0x104D PUSH2 0x842 JUMP JUMPDEST POP DUP3 PUSH2 0x1062 PUSH2 0x105C PUSH1 0x0 PUSH2 0x84D JUMP JUMPDEST SWAP2 PUSH2 0xD8 JUMP JUMPDEST EQ PUSH2 0x111B JUMPI DUP2 PUSH2 0x107B PUSH2 0x1075 PUSH1 0x0 PUSH2 0x84D JUMP JUMPDEST SWAP2 PUSH2 0xD8 JUMP JUMPDEST EQ DUP1 ISZERO PUSH2 0x1100 JUMPI JUMPDEST PUSH2 0x10E3 JUMPI PUSH2 0x10CA PUSH2 0x10B9 PUSH2 0x10E0 SWAP5 PUSH2 0x10B3 PUSH2 0x10A2 PUSH2 0x10D0 SWAP7 DUP4 SWAP1 PUSH2 0x8A4 JUMP JUMPDEST PUSH2 0x10AD PUSH2 0x3E8 PUSH2 0x8DC JUMP JUMPDEST SWAP1 PUSH2 0x8A4 JUMP JUMPDEST SWAP4 PUSH2 0xADC JUMP JUMPDEST PUSH2 0x10C4 PUSH2 0x3E5 PUSH2 0x872 JUMP JUMPDEST SWAP1 PUSH2 0x8A4 JUMP JUMPDEST SWAP1 PUSH2 0x933 JUMP JUMPDEST PUSH2 0x10DA PUSH1 0x1 PUSH2 0xAC0 JUMP JUMPDEST SWAP1 PUSH2 0x8F8 JUMP JUMPDEST SWAP1 JUMP JUMPDEST PUSH1 0x0 PUSH4 0x340DABEF PUSH1 0xE0 SHL DUP2 MSTORE DUP1 PUSH2 0x10FC PUSH1 0x4 DUP3 ADD PUSH2 0x869 JUMP JUMPDEST SUB SWAP1 REVERT JUMPDEST POP DUP1 PUSH2 0x1115 PUSH2 0x110F PUSH1 0x0 PUSH2 0x84D JUMP JUMPDEST SWAP2 PUSH2 0xD8 JUMP JUMPDEST EQ PUSH2 0x1083 JUMP JUMPDEST PUSH1 0x0 PUSH4 0x42301C23 PUSH1 0xE0 SHL DUP2 MSTORE DUP1 PUSH2 0x1134 PUSH1 0x4 DUP3 ADD PUSH2 0x869 JUMP JUMPDEST SUB SWAP1 REVERT JUMPDEST SWAP6 SWAP5 SWAP4 SWAP3 SWAP2 SWAP1 DUP6 PUSH2 0x1152 PUSH2 0x114C TIMESTAMP SWAP3 PUSH2 0xD8 JUMP JUMPDEST SWAP2 PUSH2 0xD8 JUMP JUMPDEST GT PUSH2 0x1163 JUMPI PUSH2 0x1160 SWAP7 PUSH2 0x1180 JUMP JUMPDEST SWAP1 JUMP JUMPDEST PUSH1 0x0 PUSH4 0x1AB7DA6B PUSH1 0xE0 SHL DUP2 MSTORE DUP1 PUSH2 0x117C PUSH1 0x4 DUP3 ADD PUSH2 0x869 JUMP JUMPDEST SUB SWAP1 REVERT JUMPDEST SWAP1 PUSH2 0x1197 SWAP7 SWAP6 SWAP5 SWAP4 SWAP3 SWAP2 PUSH2 0x1192 PUSH2 0x1E8D JUMP JUMPDEST PUSH2 0x11A2 JUMP JUMPDEST SWAP1 PUSH2 0x11A0 PUSH2 0x1EF3 JUMP JUMPDEST JUMP JUMPDEST PUSH2 0x11BB SWAP3 SWAP8 SWAP7 POP POP PUSH2 0x11B5 DUP4 DUP6 SWAP1 PUSH2 0xD62 JUMP JUMPDEST SWAP1 PUSH2 0xB9C JUMP JUMPDEST SWAP5 PUSH2 0x11EA PUSH2 0x11E4 PUSH2 0x11DE PUSH2 0x11D9 DUP10 PUSH2 0x11D3 PUSH1 0x0 PUSH2 0x84D JUMP JUMPDEST SWAP1 PUSH2 0xB17 JUMP JUMPDEST PUSH2 0xB8F JUMP JUMPDEST SWAP3 PUSH2 0xD8 JUMP JUMPDEST SWAP2 PUSH2 0xD8 JUMP JUMPDEST GT PUSH2 0x133A JUMPI PUSH2 0x1214 PUSH2 0x120F PUSH2 0x120A DUP4 DUP6 PUSH2 0x1204 PUSH1 0x0 PUSH2 0x84D JUMP JUMPDEST SWAP2 PUSH2 0xD70 JUMP JUMPDEST PUSH2 0xD85 JUMP JUMPDEST PUSH2 0xDBA JUMP JUMPDEST SWAP3 CALLER SWAP1 PUSH2 0x1248 PUSH2 0x1243 PUSH32 0x0 PUSH2 0xDD2 JUMP JUMPDEST PUSH2 0xDEA JUMP JUMPDEST PUSH1 0x20 PUSH4 0xE6A43905 SWAP2 PUSH2 0x126D PUSH2 0x1268 DUP8 DUP10 PUSH2 0x1262 PUSH1 0x0 PUSH2 0x84D JUMP JUMPDEST SWAP2 PUSH2 0xD70 JUMP JUMPDEST PUSH2 0xD85 JUMP JUMPDEST SWAP1 PUSH2 0x12A6 PUSH2 0x128E PUSH2 0x1289 DUP10 DUP12 PUSH2 0x1283 PUSH1 0x1 PUSH2 0xAC0 JUMP JUMPDEST SWAP2 PUSH2 0xD70 JUMP JUMPDEST PUSH2 0xD85 JUMP JUMPDEST SWAP5 PUSH2 0x12B1 PUSH2 0x129A PUSH2 0xC3 JUMP JUMPDEST SWAP7 DUP8 SWAP6 DUP7 SWAP5 DUP6 SWAP5 PUSH2 0xDFB JUMP JUMPDEST DUP5 MSTORE PUSH1 0x4 DUP5 ADD PUSH2 0xE2F JUMP JUMPDEST SUB SWAP2 GAS STATICCALL SWAP6 DUP7 ISZERO PUSH2 0x1335 JUMPI PUSH2 0x1303 SWAP7 PUSH2 0x12FD SWAP5 PUSH2 0x12F3 SWAP4 PUSH1 0x0 SWAP3 PUSH2 0x1305 JUMPI JUMPDEST POP PUSH2 0x12ED PUSH2 0x12E8 DUP13 PUSH2 0x12E2 PUSH1 0x0 PUSH2 0x84D JUMP JUMPDEST SWAP1 PUSH2 0xB17 JUMP JUMPDEST PUSH2 0xB8F JUMP JUMPDEST SWAP3 PUSH2 0x1F6E JUMP JUMPDEST DUP7 SWAP3 SWAP4 SWAP1 SWAP4 PUSH2 0xD62 JUMP JUMPDEST SWAP1 PUSH2 0x20DB JUMP JUMPDEST JUMP JUMPDEST PUSH2 0x1327 SWAP2 SWAP3 POP PUSH1 0x20 RETURNDATASIZE DUP2 GT PUSH2 0x132E JUMPI JUMPDEST PUSH2 0x131F DUP2 DUP4 PUSH2 0x1B8 JUMP JUMPDEST DUP2 ADD SWAP1 PUSH2 0xE10 JUMP JUMPDEST SWAP1 CODESIZE PUSH2 0x12D0 JUMP JUMPDEST POP RETURNDATASIZE PUSH2 0x1315 JUMP JUMPDEST PUSH2 0xE53 JUMP JUMPDEST PUSH1 0x0 PUSH4 0xE1B0DA4F PUSH1 0xE0 SHL DUP2 MSTORE DUP1 PUSH2 0x1353 PUSH1 0x4 DUP3 ADD PUSH2 0x869 JUMP JUMPDEST SUB SWAP1 REVERT JUMPDEST SWAP1 PUSH2 0x136D SWAP6 SWAP5 SWAP4 SWAP3 SWAP2 PUSH2 0x1368 PUSH2 0xA35 JUMP JUMPDEST PUSH2 0x1138 JUMP JUMPDEST SWAP1 JUMP JUMPDEST SWAP8 SWAP7 SWAP6 SWAP5 SWAP4 SWAP3 SWAP2 SWAP1 DUP8 PUSH2 0x138C PUSH2 0x1386 TIMESTAMP SWAP3 PUSH2 0xD8 JUMP JUMPDEST SWAP2 PUSH2 0xD8 JUMP JUMPDEST GT PUSH2 0x139E JUMPI PUSH2 0x139A SWAP9 PUSH2 0x13BB JUMP JUMPDEST SWAP1 SWAP2 JUMP JUMPDEST PUSH1 0x0 PUSH4 0x1AB7DA6B PUSH1 0xE0 SHL DUP2 MSTORE DUP1 PUSH2 0x13B7 PUSH1 0x4 DUP3 ADD PUSH2 0x869 JUMP JUMPDEST SUB SWAP1 REVERT JUMPDEST SWAP1 PUSH2 0x13D4 SWAP9 SWAP8 SWAP7 SWAP6 SWAP5 SWAP4 SWAP3 SWAP2 PUSH2 0x13CF PUSH2 0x1E8D JUMP JUMPDEST PUSH2 0x1469 JUMP JUMPDEST SWAP1 SWAP2 PUSH2 0x13DE PUSH2 0x1EF3 JUMP JUMPDEST JUMP JUMPDEST PUSH2 0x13F4 PUSH2 0x13EF PUSH2 0x13F9 SWAP3 PUSH2 0x847 JUMP JUMPDEST PUSH2 0x84A JUMP JUMPDEST PUSH2 0x218 JUMP JUMPDEST SWAP1 JUMP JUMPDEST PUSH2 0x1405 SWAP1 PUSH2 0x13E0 JUMP JUMPDEST SWAP1 JUMP JUMPDEST PUSH2 0x1411 SWAP1 PUSH2 0xD92 JUMP JUMPDEST SWAP1 JUMP JUMPDEST PUSH2 0x141D SWAP1 PUSH2 0x1408 JUMP JUMPDEST SWAP1 JUMP JUMPDEST PUSH2 0x1429 SWAP1 PUSH2 0xDDE JUMP JUMPDEST SWAP1 JUMP JUMPDEST SWAP1 POP MLOAD SWAP1 PUSH2 0x1439 DUP3 PUSH2 0xDB JUMP JUMPDEST JUMP JUMPDEST SWAP2 SWAP1 PUSH1 0x40 DUP4 DUP3 SUB SLT PUSH2 0x1464 JUMPI DUP1 PUSH2 0x1458 PUSH2 0x1461 SWAP3 PUSH1 0x0 DUP7 ADD PUSH2 0x142C JUMP JUMPDEST SWAP4 PUSH1 0x20 ADD PUSH2 0x142C JUMP JUMPDEST SWAP1 JUMP JUMPDEST PUSH2 0xCE JUMP JUMPDEST SWAP1 SWAP2 SWAP4 SWAP3 SWAP8 POP SWAP8 SWAP6 SWAP4 SWAP8 POP POP PUSH2 0x14A6 PUSH2 0x14A1 PUSH32 0x0 PUSH2 0xDD2 JUMP JUMPDEST PUSH2 0xDEA JUMP JUMPDEST PUSH1 0x20 PUSH4 0xE6A43905 SWAP2 DUP5 SWAP1 PUSH2 0x14CC DUP11 SWAP5 PUSH2 0x14D7 PUSH2 0x14C0 PUSH2 0xC3 JUMP JUMPDEST SWAP7 DUP8 SWAP6 DUP7 SWAP5 DUP6 SWAP5 PUSH2 0xDFB JUMP JUMPDEST DUP5 MSTORE PUSH1 0x4 DUP5 ADD PUSH2 0xE2F JUMP JUMPDEST SUB SWAP2 GAS STATICCALL SWAP1 DUP2 ISZERO PUSH2 0x16A1 JUMPI PUSH1 0x0 SWAP2 PUSH2 0x1673 JUMPI JUMPDEST POP SWAP3 DUP4 PUSH2 0x1508 PUSH2 0x1502 PUSH2 0x14FD PUSH1 0x0 PUSH2 0x13FC JUMP JUMPDEST PUSH2 0x223 JUMP JUMPDEST SWAP2 PUSH2 0x223 JUMP JUMPDEST EQ PUSH2 0x1656 JUMPI PUSH2 0x153A PUSH2 0x1535 DUP6 PUSH2 0x1530 PUSH1 0x40 SWAP6 PUSH2 0x1526 PUSH2 0x1563 SWAP10 PUSH2 0xDBA JUMP JUMPDEST SWAP1 CALLER DUP5 SWAP2 SWAP3 PUSH2 0x1F6E JUMP JUMPDEST PUSH2 0x1414 JUMP JUMPDEST PUSH2 0x1420 JUMP JUMPDEST PUSH2 0x1558 PUSH1 0x0 PUSH4 0x89AFCB44 PUSH2 0x154C PUSH2 0xC3 JUMP JUMPDEST SWAP8 DUP9 SWAP6 DUP7 SWAP5 DUP6 SWAP4 PUSH2 0xDFB JUMP JUMPDEST DUP4 MSTORE PUSH1 0x4 DUP4 ADD PUSH2 0x42B JUMP JUMPDEST SUB SWAP3 GAS CALL DUP1 ISZERO PUSH2 0x1651 JUMPI PUSH1 0x0 DUP1 SWAP4 SWAP1 SWAP2 PUSH2 0x1614 JUMPI JUMPDEST POP PUSH2 0x1591 PUSH2 0x158B PUSH2 0x1597 SWAP3 SWAP5 SWAP8 DUP5 PUSH2 0x2436 JUMP JUMPDEST POP PUSH2 0x223 JUMP JUMPDEST SWAP2 PUSH2 0x223 JUMP JUMPDEST EQ PUSH1 0x0 EQ PUSH2 0x160F JUMPI SWAP3 JUMPDEST SWAP3 SWAP4 PUSH2 0x15B6 PUSH2 0x15B0 DUP7 SWAP3 PUSH2 0xD8 JUMP JUMPDEST SWAP2 PUSH2 0xD8 JUMP JUMPDEST LT PUSH2 0x15F2 JUMPI PUSH2 0x15CE PUSH2 0x15C8 DUP5 SWAP3 PUSH2 0xD8 JUMP JUMPDEST SWAP2 PUSH2 0xD8 JUMP JUMPDEST LT PUSH2 0x15D5 JUMPI JUMP JUMPDEST PUSH1 0x0 PUSH4 0xEF71D091 PUSH1 0xE0 SHL DUP2 MSTORE DUP1 PUSH2 0x15EE PUSH1 0x4 DUP3 ADD PUSH2 0x869 JUMP JUMPDEST SUB SWAP1 REVERT JUMPDEST PUSH1 0x0 PUSH4 0x8DC525D1 PUSH1 0xE0 SHL DUP2 MSTORE DUP1 PUSH2 0x160B PUSH1 0x4 DUP3 ADD PUSH2 0x869 JUMP JUMPDEST SUB SWAP1 REVERT JUMPDEST PUSH2 0x15A1 JUMP JUMPDEST PUSH2 0x158B SWAP4 POP PUSH2 0x1597 SWAP2 POP PUSH2 0x1641 PUSH2 0x1591 SWAP2 PUSH1 0x40 RETURNDATASIZE DUP2 GT PUSH2 0x164A JUMPI JUMPDEST PUSH2 0x1639 DUP2 DUP4 PUSH2 0x1B8 JUMP JUMPDEST DUP2 ADD SWAP1 PUSH2 0x143B JUMP JUMPDEST SWAP5 POP SWAP2 POP PUSH2 0x1578 JUMP JUMPDEST POP RETURNDATASIZE PUSH2 0x162F JUMP JUMPDEST PUSH2 0xE53 JUMP JUMPDEST PUSH1 0x0 PUSH4 0x317F12FD PUSH1 0xE2 SHL DUP2 MSTORE DUP1 PUSH2 0x166F PUSH1 0x4 DUP3 ADD PUSH2 0x869 JUMP JUMPDEST SUB SWAP1 REVERT JUMPDEST PUSH2 0x1694 SWAP2 POP PUSH1 0x20 RETURNDATASIZE DUP2 GT PUSH2 0x169A JUMPI JUMPDEST PUSH2 0x168C DUP2 DUP4 PUSH2 0x1B8 JUMP JUMPDEST DUP2 ADD SWAP1 PUSH2 0xE10 JUMP JUMPDEST CODESIZE PUSH2 0x14EA JUMP JUMPDEST POP RETURNDATASIZE PUSH2 0x1682 JUMP JUMPDEST PUSH2 0xE53 JUMP JUMPDEST SWAP1 PUSH2 0x16C6 SWAP7 SWAP6 SWAP5 SWAP4 SWAP3 SWAP2 PUSH2 0x16B8 PUSH2 0x842 JUMP JUMPDEST PUSH2 0x16C0 PUSH2 0x842 JUMP JUMPDEST SWAP1 PUSH2 0x1370 JUMP JUMPDEST SWAP1 SWAP2 JUMP JUMPDEST PUSH1 0x1 PUSH2 0x16D6 SWAP2 ADD PUSH2 0xD8 JUMP JUMPDEST SWAP1 JUMP JUMPDEST SWAP2 SWAP1 PUSH2 0x16E3 PUSH2 0xA35 JUMP JUMPDEST POP PUSH2 0x16ED DUP2 PUSH2 0xA3A JUMP JUMPDEST PUSH2 0x1700 PUSH2 0x16FA PUSH1 0x2 PUSH2 0xA41 JUMP JUMPDEST SWAP2 PUSH2 0xD8 JUMP JUMPDEST LT PUSH2 0x180A JUMPI PUSH2 0x1733 PUSH2 0x1719 PUSH2 0x1714 DUP4 PUSH2 0xA3A JUMP JUMPDEST PUSH2 0xA96 JUMP JUMPDEST SWAP4 PUSH2 0x172E DUP6 PUSH2 0x1728 PUSH1 0x0 PUSH2 0x84D JUMP JUMPDEST SWAP1 PUSH2 0xB17 JUMP JUMPDEST PUSH2 0xB37 JUMP JUMPDEST PUSH2 0x173B PUSH2 0x842 JUMP JUMPDEST JUMPDEST DUP1 PUSH2 0x176A PUSH2 0x1764 PUSH2 0x175F PUSH2 0x174F DUP7 PUSH2 0xA3A JUMP JUMPDEST PUSH2 0x1759 PUSH1 0x1 PUSH2 0xAC0 JUMP JUMPDEST SWAP1 PUSH2 0xADC JUMP JUMPDEST PUSH2 0xD8 JUMP JUMPDEST SWAP2 PUSH2 0xD8 JUMP JUMPDEST LT ISZERO PUSH2 0x1806 JUMPI PUSH2 0x1801 SWAP1 PUSH2 0x17FC PUSH2 0x17D7 PUSH2 0x17BC PUSH2 0x1790 PUSH2 0x178B DUP8 DUP7 SWAP1 PUSH2 0xB62 JUMP JUMPDEST PUSH2 0xB82 JUMP JUMPDEST PUSH2 0x17B6 PUSH2 0x17B1 DUP9 PUSH2 0x17AB DUP9 PUSH2 0x17A5 PUSH1 0x1 PUSH2 0xAC0 JUMP JUMPDEST SWAP1 PUSH2 0x8F8 JUMP JUMPDEST SWAP1 PUSH2 0xB62 JUMP JUMPDEST PUSH2 0xB82 JUMP JUMPDEST SWAP1 PUSH2 0x18E2 JUMP JUMPDEST PUSH2 0x17CF PUSH2 0x17CA DUP11 DUP8 SWAP1 PUSH2 0xB17 JUMP JUMPDEST PUSH2 0xB8F JUMP JUMPDEST SWAP2 SWAP1 SWAP2 PUSH2 0x955 JUMP JUMPDEST PUSH2 0x17F7 DUP8 SWAP2 PUSH2 0x17F0 DUP6 PUSH2 0x17EA PUSH1 0x1 PUSH2 0xAC0 JUMP JUMPDEST SWAP1 PUSH2 0x8F8 JUMP JUMPDEST SWAP1 SWAP3 PUSH2 0xB17 JUMP JUMPDEST PUSH2 0xB37 JUMP JUMPDEST PUSH2 0x16CA JUMP JUMPDEST PUSH2 0x173C JUMP JUMPDEST POP POP JUMP JUMPDEST PUSH1 0x0 PUSH4 0x20DB8267 PUSH1 0xE0 SHL DUP2 MSTORE DUP1 PUSH2 0x1823 PUSH1 0x4 DUP3 ADD PUSH2 0x869 JUMP JUMPDEST SUB SWAP1 REVERT JUMPDEST PUSH14 0xFFFFFFFFFFFFFFFFFFFFFFFFFFFF AND SWAP1 JUMP JUMPDEST PUSH2 0x1843 DUP2 PUSH2 0x1827 JUMP JUMPDEST SUB PUSH2 0x184A JUMPI JUMP JUMPDEST PUSH1 0x0 DUP1 REVERT JUMPDEST SWAP1 POP MLOAD SWAP1 PUSH2 0x185C DUP3 PUSH2 0x183A JUMP JUMPDEST JUMP JUMPDEST PUSH4 0xFFFFFFFF AND SWAP1 JUMP JUMPDEST PUSH2 0x1870 DUP2 PUSH2 0x185E JUMP JUMPDEST SUB PUSH2 0x1877 JUMPI JUMP JUMPDEST PUSH1 0x0 DUP1 REVERT JUMPDEST SWAP1 POP MLOAD SWAP1 PUSH2 0x1889 DUP3 PUSH2 0x1867 JUMP JUMPDEST JUMP JUMPDEST SWAP1 SWAP2 PUSH1 0x60 DUP3 DUP5 SUB SLT PUSH2 0x18C1 JUMPI PUSH2 0x18BE PUSH2 0x18A7 DUP5 PUSH1 0x0 DUP6 ADD PUSH2 0x184F JUMP JUMPDEST SWAP4 PUSH2 0x18B5 DUP2 PUSH1 0x20 DUP7 ADD PUSH2 0x184F JUMP JUMPDEST SWAP4 PUSH1 0x40 ADD PUSH2 0x187C JUMP JUMPDEST SWAP1 JUMP JUMPDEST PUSH2 0xCE JUMP JUMPDEST PUSH2 0x18DA PUSH2 0x18D5 PUSH2 0x18DF SWAP3 PUSH2 0x1827 JUMP JUMPDEST PUSH2 0x84A JUMP JUMPDEST PUSH2 0xD8 JUMP JUMPDEST SWAP1 JUMP JUMPDEST SWAP1 PUSH2 0x18EB PUSH2 0x842 JUMP JUMPDEST POP PUSH2 0x18F4 PUSH2 0x842 JUMP JUMPDEST POP PUSH2 0x1900 DUP3 DUP3 SWAP1 PUSH2 0x2436 JUMP JUMPDEST POP SWAP1 PUSH1 0x20 PUSH2 0x1935 PUSH2 0x1930 PUSH32 0x0 PUSH2 0xDD2 JUMP JUMPDEST PUSH2 0xDEA JUMP JUMPDEST SWAP2 PUSH4 0xE6A43905 SWAP3 PUSH2 0x1959 DUP7 SWAP3 SWAP5 PUSH2 0x1964 PUSH2 0x194D PUSH2 0xC3 JUMP JUMPDEST SWAP7 DUP8 SWAP6 DUP7 SWAP5 DUP6 SWAP5 PUSH2 0xDFB JUMP JUMPDEST DUP5 MSTORE PUSH1 0x4 DUP5 ADD PUSH2 0xE2F JUMP JUMPDEST SUB SWAP2 GAS STATICCALL SWAP1 DUP2 ISZERO PUSH2 0x1AB6 JUMPI PUSH1 0x0 SWAP2 PUSH2 0x1A88 JUMPI JUMPDEST POP SWAP1 DUP2 PUSH2 0x1995 PUSH2 0x198F PUSH2 0x198A PUSH1 0x0 PUSH2 0x13FC JUMP JUMPDEST PUSH2 0x223 JUMP JUMPDEST SWAP2 PUSH2 0x223 JUMP JUMPDEST EQ PUSH2 0x1A6B JUMPI PUSH1 0x60 PUSH2 0x19B0 PUSH2 0x19AB PUSH2 0x19C6 SWAP5 PUSH2 0x1414 JUMP JUMPDEST PUSH2 0x1420 JUMP JUMPDEST PUSH4 0x902F1AC SWAP1 PUSH2 0x19BE PUSH2 0xC3 JUMP JUMPDEST SWAP5 DUP6 SWAP3 PUSH2 0xDFB JUMP JUMPDEST DUP3 MSTORE DUP2 DUP1 PUSH2 0x19D6 PUSH1 0x4 DUP3 ADD PUSH2 0x869 JUMP JUMPDEST SUB SWAP2 GAS STATICCALL DUP1 ISZERO PUSH2 0x1A66 JUMPI PUSH1 0x0 DUP1 SWAP4 SWAP1 SWAP2 PUSH2 0x1A24 JUMPI JUMPDEST POP PUSH2 0x1A0B PUSH2 0x1A04 PUSH2 0x19FE PUSH2 0x1A11 SWAP4 PUSH2 0x18C6 JUMP JUMPDEST SWAP5 PUSH2 0x18C6 JUMP JUMPDEST SWAP5 SWAP3 PUSH2 0x223 JUMP JUMPDEST SWAP2 PUSH2 0x223 JUMP JUMPDEST EQ PUSH1 0x0 EQ PUSH2 0x1A1F JUMPI SWAP1 JUMPDEST SWAP1 SWAP2 JUMP JUMPDEST PUSH2 0x1A1B JUMP JUMPDEST PUSH2 0x19FE SWAP4 POP PUSH2 0x1A11 SWAP2 POP PUSH2 0x1A04 PUSH2 0x1A54 PUSH2 0x1A0B SWAP3 PUSH1 0x60 RETURNDATASIZE DUP2 GT PUSH2 0x1A5F JUMPI JUMPDEST PUSH2 0x1A4C DUP2 DUP4 PUSH2 0x1B8 JUMP JUMPDEST DUP2 ADD SWAP1 PUSH2 0x188B JUMP JUMPDEST POP SWAP6 POP SWAP3 POP POP PUSH2 0x19EB JUMP JUMPDEST POP RETURNDATASIZE PUSH2 0x1A42 JUMP JUMPDEST PUSH2 0xE53 JUMP JUMPDEST POP POP POP PUSH1 0x0 SWAP1 PUSH2 0x1A85 PUSH2 0x1A7F PUSH1 0x0 SWAP4 PUSH2 0x84D JUMP JUMPDEST SWAP3 PUSH2 0x84D JUMP JUMPDEST SWAP1 JUMP JUMPDEST PUSH2 0x1AA9 SWAP2 POP PUSH1 0x20 RETURNDATASIZE DUP2 GT PUSH2 0x1AAF JUMPI JUMPDEST PUSH2 0x1AA1 DUP2 DUP4 PUSH2 0x1B8 JUMP JUMPDEST DUP2 ADD SWAP1 PUSH2 0xE10 JUMP JUMPDEST CODESIZE PUSH2 0x1977 JUMP JUMPDEST POP RETURNDATASIZE PUSH2 0x1A97 JUMP JUMPDEST PUSH2 0xE53 JUMP JUMPDEST SWAP10 SWAP9 SWAP8 SWAP7 SWAP6 SWAP5 SWAP4 SWAP3 SWAP2 SWAP1 DUP10 PUSH2 0x1AD9 PUSH2 0x1AD3 TIMESTAMP SWAP3 PUSH2 0xD8 JUMP JUMPDEST SWAP2 PUSH2 0xD8 JUMP JUMPDEST GT PUSH2 0x1AEC JUMPI PUSH2 0x1AE7 SWAP11 PUSH2 0x1B09 JUMP JUMPDEST SWAP1 SWAP2 SWAP3 JUMP JUMPDEST PUSH1 0x0 PUSH4 0x1AB7DA6B PUSH1 0xE0 SHL DUP2 MSTORE DUP1 PUSH2 0x1B05 PUSH1 0x4 DUP3 ADD PUSH2 0x869 JUMP JUMPDEST SUB SWAP1 REVERT JUMPDEST SWAP1 PUSH2 0x1B24 SWAP11 SWAP10 SWAP9 SWAP8 SWAP7 SWAP6 SWAP5 SWAP4 SWAP3 SWAP2 PUSH2 0x1B1F PUSH2 0x1E8D JUMP JUMPDEST PUSH2 0x1B50 JUMP JUMPDEST SWAP1 SWAP2 SWAP3 PUSH2 0x1B2F PUSH2 0x1EF3 JUMP JUMPDEST JUMP JUMPDEST SWAP1 PUSH1 0x20 DUP3 DUP3 SUB SLT PUSH2 0x1B4B JUMPI PUSH2 0x1B48 SWAP2 PUSH1 0x0 ADD PUSH2 0x142C JUMP JUMPDEST SWAP1 JUMP JUMPDEST PUSH2 0xCE JUMP JUMPDEST PUSH2 0x1B6E SWAP8 SWAP5 SWAP12 SWAP10 SWAP11 POP SWAP8 SWAP5 SWAP6 SWAP3 SWAP8 POP POP POP DUP6 SWAP4 DUP10 SWAP1 SWAP2 SWAP3 SWAP4 SWAP5 PUSH2 0x24E1 JUMP JUMPDEST SWAP4 SWAP1 SWAP5 PUSH2 0x1BA2 PUSH2 0x1B9D PUSH32 0x0 PUSH2 0xDD2 JUMP JUMPDEST PUSH2 0xDEA JUMP JUMPDEST PUSH1 0x20 PUSH4 0xE6A43905 SWAP2 DUP6 SWAP1 PUSH2 0x1BC8 DUP6 SWAP5 PUSH2 0x1BD3 PUSH2 0x1BBC PUSH2 0xC3 JUMP JUMPDEST SWAP7 DUP8 SWAP6 DUP7 SWAP5 DUP6 SWAP5 PUSH2 0xDFB JUMP JUMPDEST DUP5 MSTORE PUSH1 0x4 DUP5 ADD PUSH2 0xE2F JUMP JUMPDEST SUB SWAP2 GAS STATICCALL SWAP1 DUP2 ISZERO PUSH2 0x1DC7 JUMPI PUSH1 0x0 SWAP2 PUSH2 0x1D99 JUMPI JUMPDEST POP SWAP3 DUP4 PUSH2 0x1C04 PUSH2 0x1BFE PUSH2 0x1BF9 PUSH1 0x0 PUSH2 0x13FC JUMP JUMPDEST PUSH2 0x223 JUMP JUMPDEST SWAP2 PUSH2 0x223 JUMP JUMPDEST EQ PUSH2 0x1CC0 JUMPI JUMPDEST PUSH2 0x1C48 PUSH2 0x1C76 SWAP5 PUSH2 0x1C43 PUSH2 0x1C39 PUSH1 0x20 SWAP7 SWAP6 PUSH2 0x1C34 PUSH2 0x1C2A PUSH2 0x1C4D SWAP8 PUSH2 0xDBA JUMP JUMPDEST DUP14 CALLER DUP8 SWAP2 SWAP3 PUSH2 0x1F6E JUMP JUMPDEST PUSH2 0xDBA JUMP JUMPDEST CALLER DUP4 SWAP1 DUP12 SWAP3 PUSH2 0x1F6E JUMP JUMPDEST PUSH2 0x1414 JUMP JUMPDEST PUSH2 0x1420 JUMP JUMPDEST PUSH2 0x1C6B PUSH1 0x0 PUSH4 0x6A627842 PUSH2 0x1C5F PUSH2 0xC3 JUMP JUMPDEST SWAP7 DUP8 SWAP6 DUP7 SWAP5 DUP6 SWAP4 PUSH2 0xDFB JUMP JUMPDEST DUP4 MSTORE PUSH1 0x4 DUP4 ADD PUSH2 0x42B JUMP JUMPDEST SUB SWAP3 GAS CALL SWAP1 DUP2 ISZERO PUSH2 0x1CBB JUMPI PUSH1 0x0 SWAP2 PUSH2 0x1C8D JUMPI JUMPDEST POP SWAP1 JUMP JUMPDEST PUSH2 0x1CAE SWAP2 POP PUSH1 0x20 RETURNDATASIZE DUP2 GT PUSH2 0x1CB4 JUMPI JUMPDEST PUSH2 0x1CA6 DUP2 DUP4 PUSH2 0x1B8 JUMP JUMPDEST DUP2 ADD SWAP1 PUSH2 0x1B31 JUMP JUMPDEST CODESIZE PUSH2 0x1C89 JUMP JUMPDEST POP RETURNDATASIZE PUSH2 0x1C9C JUMP JUMPDEST PUSH2 0xE53 JUMP JUMPDEST SWAP3 POP SWAP1 PUSH2 0x1CF4 PUSH2 0x1CEF PUSH32 0x0 PUSH2 0xDD2 JUMP JUMPDEST PUSH2 0xDEA JUMP JUMPDEST PUSH1 0x20 PUSH4 0xC9C65396 SWAP2 DUP6 SWAP1 PUSH2 0x1D1C PUSH1 0x0 DUP8 SWAP6 PUSH2 0x1D27 PUSH2 0x1D10 PUSH2 0xC3 JUMP JUMPDEST SWAP8 DUP9 SWAP7 DUP8 SWAP6 DUP7 SWAP5 PUSH2 0xDFB JUMP JUMPDEST DUP5 MSTORE PUSH1 0x4 DUP5 ADD PUSH2 0xE2F JUMP JUMPDEST SUB SWAP3 GAS CALL SWAP3 DUP4 ISZERO PUSH2 0x1D94 JUMPI PUSH2 0x1C76 SWAP5 PUSH2 0x1C43 PUSH2 0x1C39 PUSH2 0x1C48 SWAP4 PUSH2 0x1C34 PUSH2 0x1C2A PUSH1 0x20 SWAP10 PUSH2 0x1C4D SWAP9 PUSH1 0x0 SWAP2 PUSH2 0x1D67 JUMPI JUMPDEST POP SWAP11 POP POP POP SWAP6 SWAP7 POP POP POP SWAP2 POP POP PUSH2 0x1C0A JUMP JUMPDEST PUSH2 0x1D87 SWAP2 POP DUP12 RETURNDATASIZE DUP2 GT PUSH2 0x1D8D JUMPI JUMPDEST PUSH2 0x1D7F DUP2 DUP4 PUSH2 0x1B8 JUMP JUMPDEST DUP2 ADD SWAP1 PUSH2 0xE10 JUMP JUMPDEST CODESIZE PUSH2 0x1D55 JUMP JUMPDEST POP RETURNDATASIZE PUSH2 0x1D75 JUMP JUMPDEST PUSH2 0xE53 JUMP JUMPDEST PUSH2 0x1DBA SWAP2 POP PUSH1 0x20 RETURNDATASIZE DUP2 GT PUSH2 0x1DC0 JUMPI JUMPDEST PUSH2 0x1DB2 DUP2 DUP4 PUSH2 0x1B8 JUMP JUMPDEST DUP2 ADD SWAP1 PUSH2 0xE10 JUMP JUMPDEST CODESIZE PUSH2 0x1BE6 JUMP JUMPDEST POP RETURNDATASIZE PUSH2 0x1DA8 JUMP JUMPDEST PUSH2 0xE53 JUMP JUMPDEST SWAP1 PUSH2 0x1DF5 SWAP8 SWAP7 SWAP6 SWAP5 SWAP4 SWAP3 SWAP2 PUSH2 0x1DDF PUSH2 0x842 JUMP JUMPDEST PUSH2 0x1DE7 PUSH2 0x842 JUMP JUMPDEST PUSH2 0x1DEF PUSH2 0x842 JUMP JUMPDEST SWAP2 PUSH2 0x1ABB JUMP JUMPDEST SWAP1 SWAP2 SWAP3 JUMP JUMPDEST PUSH1 0x0 SHR SWAP1 JUMP JUMPDEST SWAP1 JUMP JUMPDEST PUSH2 0x1E0F PUSH2 0x1E14 SWAP2 PUSH2 0x1DFA JUMP JUMPDEST PUSH2 0x1E00 JUMP JUMPDEST SWAP1 JUMP JUMPDEST PUSH2 0x1E21 SWAP1 SLOAD PUSH2 0x1E03 JUMP JUMPDEST SWAP1 JUMP JUMPDEST PUSH2 0x1E2E PUSH1 0x2 PUSH2 0xA41 JUMP JUMPDEST SWAP1 JUMP JUMPDEST PUSH1 0x0 SHL SWAP1 JUMP JUMPDEST SWAP1 PUSH2 0x1E44 PUSH1 0x0 NOT SWAP2 PUSH2 0x1E31 JUMP JUMPDEST SWAP2 DUP2 NOT AND SWAP2 AND OR SWAP1 JUMP JUMPDEST PUSH2 0x1E62 PUSH2 0x1E5D PUSH2 0x1E67 SWAP3 PUSH2 0xD8 JUMP JUMPDEST PUSH2 0x84A JUMP JUMPDEST PUSH2 0xD8 JUMP JUMPDEST SWAP1 JUMP JUMPDEST SWAP1 JUMP JUMPDEST SWAP1 PUSH2 0x1E82 PUSH2 0x1E7D PUSH2 0x1E89 SWAP3 PUSH2 0x1E4E JUMP JUMPDEST PUSH2 0x1E6A JUMP JUMPDEST DUP3 SLOAD PUSH2 0x1E37 JUMP JUMPDEST SWAP1 SSTORE JUMP JUMPDEST PUSH2 0x1E97 PUSH1 0x0 PUSH2 0x1E17 JUMP JUMPDEST PUSH2 0x1EB0 PUSH2 0x1EAA PUSH2 0x1EA5 PUSH2 0x1E24 JUMP JUMPDEST PUSH2 0xD8 JUMP JUMPDEST SWAP2 PUSH2 0xD8 JUMP JUMPDEST EQ PUSH2 0x1EC9 JUMPI PUSH2 0x1EC7 PUSH2 0x1EC0 PUSH2 0x1E24 JUMP JUMPDEST PUSH1 0x0 PUSH2 0x1E6D JUMP JUMPDEST JUMP JUMPDEST PUSH1 0x0 PUSH4 0x3EE5AEB5 PUSH1 0xE0 SHL DUP2 MSTORE DUP1 PUSH2 0x1EE2 PUSH1 0x4 DUP3 ADD PUSH2 0x869 JUMP JUMPDEST SUB SWAP1 REVERT JUMPDEST PUSH2 0x1EF0 PUSH1 0x1 PUSH2 0xAC0 JUMP JUMPDEST SWAP1 JUMP JUMPDEST PUSH2 0x1F05 PUSH2 0x1EFE PUSH2 0x1EE6 JUMP JUMPDEST PUSH1 0x0 PUSH2 0x1E6D JUMP JUMPDEST JUMP JUMPDEST PUSH2 0x1F10 SWAP1 PUSH2 0xDDE JUMP JUMPDEST SWAP1 JUMP JUMPDEST PUSH4 0xFFFFFFFF PUSH1 0xE0 SHL AND SWAP1 JUMP JUMPDEST PUSH2 0x1F33 PUSH2 0x1F2E PUSH2 0x1F38 SWAP3 PUSH2 0x185E JUMP JUMPDEST PUSH2 0xDFB JUMP JUMPDEST PUSH2 0x1F13 JUMP JUMPDEST SWAP1 JUMP JUMPDEST PUSH1 0x40 SWAP1 PUSH2 0x1F65 PUSH2 0x1F6C SWAP5 SWAP7 SWAP6 SWAP4 SWAP7 PUSH2 0x1F5B PUSH1 0x60 DUP5 ADD SWAP9 PUSH1 0x0 DUP6 ADD SWAP1 PUSH2 0x41E JUMP JUMPDEST PUSH1 0x20 DUP4 ADD SWAP1 PUSH2 0x41E JUMP JUMPDEST ADD SWAP1 PUSH2 0x13A JUMP JUMPDEST JUMP JUMPDEST PUSH1 0x4 SWAP3 PUSH2 0x1FA8 PUSH2 0x1FBC SWAP6 SWAP4 PUSH2 0x1FB7 SWAP4 SWAP5 PUSH2 0x1F8F PUSH4 0x23B872DD SWAP3 SWAP5 SWAP2 SWAP3 PUSH2 0x1F1F JUMP JUMPDEST SWAP4 PUSH2 0x1F98 PUSH2 0xC3 JUMP JUMPDEST SWAP8 DUP9 SWAP6 PUSH1 0x20 DUP8 ADD SWAP1 DUP2 MSTORE ADD PUSH2 0x1F3B JUMP JUMPDEST PUSH1 0x20 DUP3 ADD DUP2 SUB DUP3 MSTORE SUB DUP4 PUSH2 0x1B8 JUMP JUMPDEST PUSH2 0x2712 JUMP JUMPDEST JUMP JUMPDEST PUSH8 0xFFFFFFFFFFFFFFFF DUP2 GT PUSH2 0x1FDC JUMPI PUSH2 0x1FD8 PUSH1 0x20 SWAP2 PUSH2 0x198 JUMP JUMPDEST ADD SWAP1 JUMP JUMPDEST PUSH2 0x1A2 JUMP JUMPDEST SWAP1 PUSH2 0x1FF3 PUSH2 0x1FEE DUP4 PUSH2 0x1FBE JUMP JUMPDEST PUSH2 0x1E1 JUMP JUMPDEST SWAP2 DUP3 MSTORE JUMP JUMPDEST CALLDATASIZE SWAP1 CALLDATACOPY JUMP JUMPDEST SWAP1 PUSH2 0x2022 PUSH2 0x200A DUP4 PUSH2 0x1FE1 JUMP JUMPDEST SWAP3 PUSH1 0x20 DUP1 PUSH2 0x2018 DUP7 SWAP4 PUSH2 0x1FBE JUMP JUMPDEST SWAP3 ADD SWAP2 SUB SWAP1 PUSH2 0x1FF8 JUMP JUMPDEST JUMP JUMPDEST PUSH1 0x0 SWAP2 SUB SLT PUSH2 0x202F JUMPI JUMP JUMPDEST PUSH2 0xCE JUMP JUMPDEST MLOAD SWAP1 JUMP JUMPDEST PUSH1 0x20 SWAP2 DUP2 MSTORE ADD SWAP1 JUMP JUMPDEST PUSH1 0x0 JUMPDEST DUP4 DUP2 LT PUSH2 0x2055 JUMPI POP POP SWAP1 PUSH1 0x0 SWAP2 ADD MSTORE JUMP JUMPDEST DUP1 PUSH1 0x20 SWAP2 DUP4 ADD MLOAD DUP2 DUP6 ADD MSTORE ADD PUSH2 0x2044 JUMP JUMPDEST PUSH2 0x2085 PUSH2 0x208E PUSH1 0x20 SWAP4 PUSH2 0x2093 SWAP4 PUSH2 0x207C DUP2 PUSH2 0x2034 JUMP JUMPDEST SWAP4 DUP5 DUP1 SWAP4 PUSH2 0x2038 JUMP JUMPDEST SWAP6 DUP7 SWAP2 ADD PUSH2 0x2041 JUMP JUMPDEST PUSH2 0x198 JUMP JUMPDEST ADD SWAP1 JUMP JUMPDEST SWAP1 SWAP3 PUSH2 0x20CB SWAP1 PUSH2 0x20C1 PUSH2 0x20D8 SWAP7 SWAP5 PUSH2 0x20B7 PUSH1 0x80 DUP7 ADD SWAP8 PUSH1 0x0 DUP8 ADD SWAP1 PUSH2 0x13A JUMP JUMPDEST PUSH1 0x20 DUP6 ADD SWAP1 PUSH2 0x13A JUMP JUMPDEST PUSH1 0x40 DUP4 ADD SWAP1 PUSH2 0x41E JUMP JUMPDEST PUSH1 0x60 DUP2 DUP5 SUB SWAP2 ADD MSTORE PUSH2 0x2066 JUMP JUMPDEST SWAP1 JUMP JUMPDEST SWAP1 SWAP3 SWAP2 PUSH2 0x20E6 PUSH2 0x842 JUMP JUMPDEST JUMPDEST DUP1 PUSH2 0x2115 PUSH2 0x210F PUSH2 0x210A PUSH2 0x20FA DUP10 PUSH2 0xA3A JUMP JUMPDEST PUSH2 0x2104 PUSH1 0x1 PUSH2 0xAC0 JUMP JUMPDEST SWAP1 PUSH2 0xADC JUMP JUMPDEST PUSH2 0xD8 JUMP JUMPDEST SWAP2 PUSH2 0xD8 JUMP JUMPDEST LT ISZERO PUSH2 0x242A JUMPI PUSH2 0x212E PUSH2 0x2129 DUP7 DUP4 SWAP1 PUSH2 0xB62 JUMP JUMPDEST PUSH2 0xB82 JUMP JUMPDEST SWAP1 PUSH2 0x2155 PUSH2 0x2150 DUP8 PUSH2 0x214A DUP5 PUSH2 0x2144 PUSH1 0x1 PUSH2 0xAC0 JUMP JUMPDEST SWAP1 PUSH2 0x8F8 JUMP JUMPDEST SWAP1 PUSH2 0xB62 JUMP JUMPDEST PUSH2 0xB82 JUMP JUMPDEST SWAP2 PUSH2 0x2161 DUP2 DUP5 SWAP1 PUSH2 0x2436 JUMP JUMPDEST POP SWAP1 PUSH2 0x2189 PUSH2 0x2184 DUP8 PUSH2 0x217E DUP7 PUSH2 0x2178 PUSH1 0x1 PUSH2 0xAC0 JUMP JUMPDEST SWAP1 PUSH2 0x8F8 JUMP JUMPDEST SWAP1 PUSH2 0xB17 JUMP JUMPDEST PUSH2 0xB8F JUMP JUMPDEST SWAP2 PUSH2 0x219D PUSH2 0x2197 DUP4 SWAP3 PUSH2 0x223 JUMP JUMPDEST SWAP2 PUSH2 0x223 JUMP JUMPDEST EQ PUSH1 0x0 EQ PUSH2 0x241A JUMPI PUSH2 0x21AF PUSH1 0x0 PUSH2 0x84D JUMP JUMPDEST JUMPDEST SWAP2 SWAP1 DUP4 PUSH2 0x21E0 PUSH2 0x21DA PUSH2 0x21D5 PUSH2 0x21C5 DUP14 PUSH2 0xA3A JUMP JUMPDEST PUSH2 0x21CF PUSH1 0x2 PUSH2 0xA41 JUMP JUMPDEST SWAP1 PUSH2 0xADC JUMP JUMPDEST PUSH2 0xD8 JUMP JUMPDEST SWAP2 PUSH2 0xD8 JUMP JUMPDEST LT PUSH1 0x0 EQ PUSH2 0x2412 JUMPI PUSH2 0x2219 PUSH2 0x2214 PUSH32 0x0 PUSH2 0xDD2 JUMP JUMPDEST PUSH2 0xDEA JUMP JUMPDEST PUSH1 0x20 DUP11 PUSH4 0xE6A43905 SWAP3 PUSH2 0x2264 PUSH2 0x224C PUSH2 0x2247 DUP12 SWAP5 PUSH2 0x2241 DUP13 PUSH2 0x223B PUSH1 0x2 PUSH2 0xA41 JUMP JUMPDEST SWAP1 PUSH2 0x8F8 JUMP JUMPDEST SWAP1 PUSH2 0xB62 JUMP JUMPDEST PUSH2 0xB82 JUMP JUMPDEST SWAP5 PUSH2 0x226F PUSH2 0x2258 PUSH2 0xC3 JUMP JUMPDEST SWAP7 DUP8 SWAP6 DUP7 SWAP5 DUP6 SWAP5 PUSH2 0xDFB JUMP JUMPDEST DUP5 MSTORE PUSH1 0x4 DUP5 ADD PUSH2 0xE2F JUMP JUMPDEST SUB SWAP2 GAS STATICCALL DUP1 ISZERO PUSH2 0x240D JUMPI PUSH1 0x20 SWAP2 PUSH1 0x0 SWAP2 PUSH2 0x23E0 JUMPI JUMPDEST POP JUMPDEST SWAP6 PUSH2 0x22B8 PUSH2 0x22B3 PUSH32 0x0 PUSH2 0xDD2 JUMP JUMPDEST PUSH2 0xDEA JUMP JUMPDEST PUSH2 0x22DA PUSH4 0xE6A43905 SWAP5 SWAP3 SWAP5 PUSH2 0x22E5 PUSH2 0x22CE PUSH2 0xC3 JUMP JUMPDEST SWAP7 DUP8 SWAP6 DUP7 SWAP5 DUP6 SWAP5 PUSH2 0xDFB JUMP JUMPDEST DUP5 MSTORE PUSH1 0x4 DUP5 ADD PUSH2 0xE2F JUMP JUMPDEST SUB SWAP2 GAS STATICCALL SWAP1 DUP2 ISZERO PUSH2 0x23DB JUMPI PUSH2 0x230B SWAP2 PUSH2 0x2306 SWAP2 PUSH1 0x0 SWAP2 PUSH2 0x23AD JUMPI JUMPDEST POP PUSH2 0x1414 JUMP JUMPDEST PUSH2 0x1420 JUMP JUMPDEST PUSH4 0x22C0D9F SWAP3 SWAP2 SWAP5 PUSH2 0x2325 PUSH2 0x2320 PUSH1 0x0 PUSH2 0x84D JUMP JUMPDEST PUSH2 0x1FFD JUMP JUMPDEST DUP3 EXTCODESIZE ISZERO PUSH2 0x23A8 JUMPI PUSH1 0x0 SWAP5 PUSH2 0x2357 DUP7 SWAP3 PUSH2 0x234C SWAP5 PUSH2 0x2340 PUSH2 0xC3 JUMP JUMPDEST SWAP11 DUP12 SWAP9 DUP10 SWAP8 DUP9 SWAP7 PUSH2 0xDFB JUMP JUMPDEST DUP7 MSTORE PUSH1 0x4 DUP7 ADD PUSH2 0x2097 JUMP JUMPDEST SUB SWAP3 GAS CALL SWAP2 DUP3 ISZERO PUSH2 0x23A3 JUMPI PUSH2 0x2371 SWAP3 PUSH2 0x2376 JUMPI JUMPDEST POP PUSH2 0x16CA JUMP JUMPDEST PUSH2 0x20E7 JUMP JUMPDEST PUSH2 0x2396 SWAP1 PUSH1 0x0 RETURNDATASIZE DUP2 GT PUSH2 0x239C JUMPI JUMPDEST PUSH2 0x238E DUP2 DUP4 PUSH2 0x1B8 JUMP JUMPDEST DUP2 ADD SWAP1 PUSH2 0x2024 JUMP JUMPDEST CODESIZE PUSH2 0x236B JUMP JUMPDEST POP RETURNDATASIZE PUSH2 0x2384 JUMP JUMPDEST PUSH2 0xE53 JUMP JUMPDEST PUSH2 0xDF6 JUMP JUMPDEST PUSH2 0x23CE SWAP2 POP PUSH1 0x20 RETURNDATASIZE DUP2 GT PUSH2 0x23D4 JUMPI JUMPDEST PUSH2 0x23C6 DUP2 DUP4 PUSH2 0x1B8 JUMP JUMPDEST DUP2 ADD SWAP1 PUSH2 0xE10 JUMP JUMPDEST CODESIZE PUSH2 0x2300 JUMP JUMPDEST POP RETURNDATASIZE PUSH2 0x23BC JUMP JUMPDEST PUSH2 0xE53 JUMP JUMPDEST PUSH2 0x2400 SWAP2 POP DUP3 RETURNDATASIZE DUP2 GT PUSH2 0x2406 JUMPI JUMPDEST PUSH2 0x23F8 DUP2 DUP4 PUSH2 0x1B8 JUMP JUMPDEST DUP2 ADD SWAP1 PUSH2 0xE10 JUMP JUMPDEST CODESIZE PUSH2 0x2284 JUMP JUMPDEST POP RETURNDATASIZE PUSH2 0x23EE JUMP JUMPDEST PUSH2 0xE53 JUMP JUMPDEST PUSH1 0x20 DUP7 PUSH2 0x2286 JUMP JUMPDEST PUSH2 0x2424 PUSH1 0x0 PUSH2 0x84D JUMP JUMPDEST SWAP2 PUSH2 0x21B0 JUMP JUMPDEST POP POP POP SWAP1 POP JUMP JUMPDEST PUSH1 0x0 SWAP1 JUMP JUMPDEST PUSH2 0x243E PUSH2 0x2431 JUMP JUMPDEST POP PUSH2 0x2447 PUSH2 0x2431 JUMP JUMPDEST POP DUP1 PUSH2 0x245B PUSH2 0x2455 DUP5 PUSH2 0x223 JUMP JUMPDEST SWAP2 PUSH2 0x223 JUMP JUMPDEST EQ PUSH2 0x24C4 JUMPI DUP1 PUSH2 0x2473 PUSH2 0x246D DUP5 PUSH2 0x223 JUMP JUMPDEST SWAP2 PUSH2 0x223 JUMP JUMPDEST LT PUSH1 0x0 EQ PUSH2 0x24BF JUMPI SWAP1 JUMPDEST SWAP1 SWAP2 DUP3 PUSH2 0x249B PUSH2 0x2495 PUSH2 0x2490 PUSH1 0x0 PUSH2 0x13FC JUMP JUMPDEST PUSH2 0x223 JUMP JUMPDEST SWAP2 PUSH2 0x223 JUMP JUMPDEST EQ PUSH2 0x24A2 JUMPI JUMP JUMPDEST PUSH1 0x0 PUSH4 0xD92E233D PUSH1 0xE0 SHL DUP2 MSTORE DUP1 PUSH2 0x24BB PUSH1 0x4 DUP3 ADD PUSH2 0x869 JUMP JUMPDEST SUB SWAP1 REVERT JUMPDEST PUSH2 0x247D JUMP JUMPDEST PUSH1 0x0 PUSH4 0x5C6D7B73 PUSH1 0xE0 SHL DUP2 MSTORE DUP1 PUSH2 0x24DD PUSH1 0x4 DUP3 ADD PUSH2 0x869 JUMP JUMPDEST SUB SWAP1 REVERT JUMPDEST SWAP1 SWAP5 SWAP2 SWAP4 SWAP3 SWAP5 PUSH2 0x24EF PUSH2 0x842 JUMP JUMPDEST POP PUSH2 0x24F8 PUSH2 0x842 JUMP JUMPDEST POP PUSH2 0x252A PUSH2 0x2525 PUSH32 0x0 PUSH2 0xDD2 JUMP JUMPDEST PUSH2 0xDEA JUMP JUMPDEST PUSH1 0x20 PUSH4 0xE6A43905 SWAP2 DUP5 SWAP1 PUSH2 0x2550 DUP6 SWAP5 PUSH2 0x255B PUSH2 0x2544 PUSH2 0xC3 JUMP JUMPDEST SWAP7 DUP8 SWAP6 DUP7 SWAP5 DUP6 SWAP5 PUSH2 0xDFB JUMP JUMPDEST DUP5 MSTORE PUSH1 0x4 DUP5 ADD PUSH2 0xE2F JUMP JUMPDEST SUB SWAP2 GAS STATICCALL SWAP1 DUP2 ISZERO PUSH2 0x270D JUMPI PUSH1 0x0 SWAP2 PUSH2 0x26DF JUMPI JUMPDEST POP PUSH2 0x258A PUSH2 0x2584 PUSH2 0x257F PUSH1 0x0 PUSH2 0x13FC JUMP JUMPDEST PUSH2 0x223 JUMP JUMPDEST SWAP2 PUSH2 0x223 JUMP JUMPDEST EQ PUSH1 0x0 EQ PUSH2 0x259A JUMPI POP POP POP POP SWAP2 JUMPDEST JUMP JUMPDEST PUSH2 0x25A3 SWAP2 PUSH2 0x18E2 JUMP JUMPDEST SWAP3 SWAP1 SWAP3 DUP4 PUSH2 0x25BA PUSH2 0x25B4 PUSH1 0x0 PUSH2 0x84D JUMP JUMPDEST SWAP2 PUSH2 0xD8 JUMP JUMPDEST EQ DUP1 PUSH2 0x26C4 JUMPI JUMPDEST PUSH1 0x0 EQ PUSH2 0x25D3 JUMPI POP POP POP POP SWAP2 JUMPDEST PUSH2 0x2598 JUMP JUMPDEST PUSH2 0x25E3 DUP6 SWAP7 SWAP4 SWAP5 SWAP7 DUP8 DUP4 SWAP2 PUSH2 0x27CD JUMP JUMPDEST SWAP6 DUP7 PUSH2 0x25F7 PUSH2 0x25F1 DUP7 PUSH2 0xD8 JUMP JUMPDEST SWAP2 PUSH2 0xD8 JUMP JUMPDEST GT ISZERO PUSH1 0x0 EQ PUSH2 0x2640 JUMPI POP POP POP POP PUSH2 0x2617 PUSH2 0x2611 DUP5 SWAP3 PUSH2 0xD8 JUMP JUMPDEST SWAP2 PUSH2 0xD8 JUMP JUMPDEST LT PUSH2 0x2623 JUMPI SWAP2 JUMPDEST PUSH2 0x25CE JUMP JUMPDEST PUSH1 0x0 PUSH4 0xEF71D091 PUSH1 0xE0 SHL DUP2 MSTORE DUP1 PUSH2 0x263C PUSH1 0x4 DUP3 ADD PUSH2 0x869 JUMP JUMPDEST SUB SWAP1 REVERT JUMPDEST SWAP1 SWAP2 SWAP4 POP DUP3 PUSH2 0x2653 SWAP4 SWAP7 POP SWAP2 SWAP1 SWAP2 PUSH2 0x27CD JUMP JUMPDEST SWAP2 PUSH2 0x2667 PUSH2 0x2661 DUP5 SWAP3 PUSH2 0xD8 JUMP JUMPDEST SWAP2 PUSH2 0xD8 JUMP JUMPDEST GT PUSH2 0x26A7 JUMPI PUSH2 0x267F PUSH2 0x2679 DUP4 SWAP3 PUSH2 0xD8 JUMP JUMPDEST SWAP2 PUSH2 0xD8 JUMP JUMPDEST LT PUSH2 0x268A JUMPI SWAP2 PUSH2 0x261E JUMP JUMPDEST PUSH1 0x0 PUSH4 0x8DC525D1 PUSH1 0xE0 SHL DUP2 MSTORE DUP1 PUSH2 0x26A3 PUSH1 0x4 DUP3 ADD PUSH2 0x869 JUMP JUMPDEST SUB SWAP1 REVERT JUMPDEST PUSH1 0x0 PUSH4 0xE1B0DA4F PUSH1 0xE0 SHL DUP2 MSTORE DUP1 PUSH2 0x26C0 PUSH1 0x4 DUP3 ADD PUSH2 0x869 JUMP JUMPDEST SUB SWAP1 REVERT JUMPDEST POP DUP1 PUSH2 0x26D9 PUSH2 0x26D3 PUSH1 0x0 PUSH2 0x84D JUMP JUMPDEST SWAP2 PUSH2 0xD8 JUMP JUMPDEST EQ PUSH2 0x25C1 JUMP JUMPDEST PUSH2 0x2700 SWAP2 POP PUSH1 0x20 RETURNDATASIZE DUP2 GT PUSH2 0x2706 JUMPI JUMPDEST PUSH2 0x26F8 DUP2 DUP4 PUSH2 0x1B8 JUMP JUMPDEST DUP2 ADD SWAP1 PUSH2 0xE10 JUMP JUMPDEST CODESIZE PUSH2 0x256E JUMP JUMPDEST POP RETURNDATASIZE PUSH2 0x26EE JUMP JUMPDEST PUSH2 0xE53 JUMP JUMPDEST SWAP1 PUSH1 0x0 PUSH1 0x20 SWAP2 PUSH2 0x2720 PUSH2 0x842 JUMP JUMPDEST POP PUSH2 0x2729 PUSH2 0x842 JUMP JUMPDEST POP DUP3 DUP2 MLOAD SWAP2 ADD DUP3 DUP6 GAS CALL ISZERO PUSH2 0x27C1 JUMPI RETURNDATASIZE PUSH1 0x0 MLOAD SWAP1 PUSH2 0x2750 PUSH2 0x274A PUSH1 0x0 PUSH2 0x84D JUMP JUMPDEST SWAP2 PUSH2 0xD8 JUMP JUMPDEST EQ PUSH1 0x0 EQ PUSH2 0x27A7 JUMPI POP PUSH2 0x2762 DUP2 PUSH2 0x1F07 JUMP JUMPDEST EXTCODESIZE PUSH2 0x2776 PUSH2 0x2770 PUSH1 0x0 PUSH2 0x84D JUMP JUMPDEST SWAP2 PUSH2 0xD8 JUMP JUMPDEST EQ JUMPDEST PUSH2 0x277F JUMPI POP JUMP JUMPDEST PUSH2 0x278B PUSH2 0x27A3 SWAP2 PUSH2 0x1F07 JUMP JUMPDEST PUSH1 0x0 SWAP2 DUP3 SWAP2 PUSH4 0x5274AFE7 PUSH1 0xE0 SHL DUP4 MSTORE PUSH1 0x4 DUP4 ADD PUSH2 0x42B JUMP JUMPDEST SUB SWAP1 REVERT JUMPDEST PUSH2 0x27BA PUSH2 0x27B4 PUSH1 0x1 PUSH2 0xAC0 JUMP JUMPDEST SWAP2 PUSH2 0xD8 JUMP JUMPDEST EQ ISZERO PUSH2 0x2778 JUMP JUMPDEST PUSH1 0x40 MLOAD RETURNDATASIZE PUSH1 0x0 DUP3 RETURNDATACOPY RETURNDATASIZE SWAP1 REVERT JUMPDEST PUSH2 0x27D5 PUSH2 0x842 JUMP JUMPDEST POP DUP1 PUSH2 0x27EA PUSH2 0x27E4 PUSH1 0x0 PUSH2 0x84D JUMP JUMPDEST SWAP2 PUSH2 0xD8 JUMP JUMPDEST EQ PUSH2 0x285C JUMPI DUP2 PUSH2 0x2803 PUSH2 0x27FD PUSH1 0x0 PUSH2 0x84D JUMP JUMPDEST SWAP2 PUSH2 0xD8 JUMP JUMPDEST EQ DUP1 ISZERO PUSH2 0x2841 JUMPI JUMPDEST PUSH2 0x2824 JUMPI PUSH2 0x2821 SWAP3 PUSH2 0x281C SWAP2 PUSH2 0x8A4 JUMP JUMPDEST PUSH2 0x933 JUMP JUMPDEST SWAP1 JUMP JUMPDEST PUSH1 0x0 PUSH4 0x42301C23 PUSH1 0xE0 SHL DUP2 MSTORE DUP1 PUSH2 0x283D PUSH1 0x4 DUP3 ADD PUSH2 0x869 JUMP JUMPDEST SUB SWAP1 REVERT JUMPDEST POP DUP3 PUSH2 0x2856 PUSH2 0x2850 PUSH1 0x0 PUSH2 0x84D JUMP JUMPDEST SWAP2 PUSH2 0xD8 JUMP JUMPDEST EQ PUSH2 0x280B JUMP JUMPDEST PUSH1 0x0 PUSH4 0x8DC525D1 PUSH1 0xE0 SHL DUP2 MSTORE DUP1 PUSH2 0x2875 PUSH1 0x4 DUP3 ADD PUSH2 0x869 JUMP JUMPDEST SUB SWAP1 REVERT INVALID LOG2 PUSH5 0x6970667358 0x22 SLT KECCAK256 PUSH26 0xC13C1E76957798084965ADD50180A01D312AE3270AC94D95E538 JUMPI DUP2 0xD6 0xC1 MULMOD PUSH5 0x736F6C6343 STOP ADDMOD 0x1E STOP CALLER "
        },
        "methodIdentifiers": {
          "FACTORY()": "2dd31000",
          "addLiquidity(address,address,uint256,uint256,uint256,uint256,address,uint256)": "e8e33700",
          "getAmountIn(uint256,uint256,uint256)": "85f8c259",
          "getAmountOut(uint256,uint256,uint256)": "054d50d4",
          "getAmountsIn(uint256,address[])": "1f00ca74",
          "getAmountsOut(uint256,address[])": "d06ca61f",
          "getReserves(address,address)": "d52bb6f4",
          "removeLiquidity(address,address,uint256,uint256,uint256,address,uint256)": "baa2abde",
          "swapExactTokensForTokens(uint256,uint256,address[],address,uint256)": "38ed1739",
          "swapTokensForExactTokens(uint256,uint256,address[],address,uint256)": "8803dbee"
        }
      }
    }
  }
}