{
  "_format": "hh-sol-artifact-1",
  "contractName": "TokenA",
  "sourceName": "contracts/TokenA.sol",
  "abi": [
    {
      "inputs": [
        {
          "internalType": "address",
          "name": "initialOwner",
          "type": "address"
        }
      ],
      "stateMutability": "nonpayable",
      "type": "constructor"
    },
    {
      "inputs": [
        {
          "internalType": "address",
          "name": "spender",
          "type": "address"
        },
        {
          "internalType": "uint256",
          "name": "allowance",
          "type": "uint256"
        },
        {
          "internalType": "uint256",
          "name": "needed",
          "type": "uint256"
        }
      ],
      "name": "ERC20InsufficientAllowance",
      "type": "error"
    },
    {
      "inputs": [
        {
          "internalType": "address",
          "name": "sender",
          "type": "address"
        },
        {
          "internalType": "uint256",
          "name": "balance",
          "type": "uint256"
        },
        {
          "internalType": "uint256",
          "name": "needed",
          "type": "uint256"
        }
      ],
      "name": "ERC20InsufficientBalance",
      "type": "error"
    },
    {
      "inputs": [
        {
          "internalType": "address",
          "name": "approver",
          "type": "address"
        }
      ],
      "name": "ERC20InvalidApprover",
      "type": "error"
    },
    {
      "inputs": [
        {
          "internalType": "address",
          "name": "receiver",
          "type": "address"
        }
      ],
      "name": "ERC20InvalidReceiver",
      "type": "error"
    },
    {
      "inputs": [
        {
          "internalType": "address",
          "name": "sender",
          "type": "address"
        }
      ],
      "name": "ERC20InvalidSender",
      "type": "error"
    },
    {
      "inputs": [
        {
          "internalType": "address",
          "name": "spender",
          "type": "address"
        }
      ],
      "name": "ERC20InvalidSpender",
      "type": "error"
    },
    {
      "inputs": [
        {
          "internalType": "address",
          "name": "user",
          "type": "address"
        },
        {
          "internalType": "uint256",
          "name": "remainingTime",
          "type": "uint256"
        }
      ],
      "name": "FaucetCooldownActive",
      "type": "error"
    },
    {
      "inputs": [
        {
          "internalType": "address",
          "name": "owner",
          "type": "address"
        }
      ],
      "name": "OwnableInvalidOwner",
      "type": "error"
    },
    {
      "inputs": [
        {
          "internalType": "address",
          "name": "account",
          "type": "address"
        }
      ],
      "name": "OwnableUnauthorizedAccount",
      "type": "error"
    },
    {
      "inputs": [],
      "name": "ReentrancyGuardReentrantCall",
      "type": "error"
    },
    {
      "anonymous": false,
      "inputs": [
        {
          "indexed": true,
          "internalType": "address",
          "name": "owner",
          "type": "address"
        },
        {
          "indexed": true,
          "internalType": "address",
          "name": "spender",
          "type": "address"
        },
        {
          "indexed": false,
          "internalType": "uint256",
          "name": "value",
          "type": "uint256"
        }
      ],
      "name": "Approval",
      "type": "event"
    },
    {
      "anonymous": false,
      "inputs": [
        {
          "indexed": true,
          "internalType": "address",
          "name": "user",
          "type": "address"
        },
        {
          "indexed": false,
          "internalType": "uint256",
          "name": "amount",
          "type": "uint256"
        },
        {
          "indexed": false,
          "internalType": "uint256",
          "name": "timestamp",
          "type": "uint256"
        }
      ],
      "name": "FaucetUsed",
      "type": "event"
    },
    {
      "anonymous": false,
      "inputs": [
        {
          "indexed": true,
          "internalType": "address",
          "name": "previousOwner",
          "type": "address"
        },
        {
          "indexed": true,
          "internalType": "address",
          "name": "newOwner",
          "type": "address"
        }
      ],
      "name": "OwnershipTransferred",
      "type": "event"
    },
    {
      "anonymous": false,
      "inputs": [
        {
          "indexed": true,
          "internalType": "address",
          "name": "from",
          "type": "address"
        },
        {
          "indexed": true,
          "internalType": "address",
          "name": "to",
          "type": "address"
        },
        {
          "indexed": false,
          "internalType": "uint256",
          "name": "value",
          "type": "uint256"
        }
      ],
      "name": "Transfer",
      "type": "event"
    },
    {
      "inputs": [],
      "name": "FAUCET_AMOUNT",
      "outputs": [
        {
          "internalType": "uint256",
          "name": "",
          "type": "uint256"
        }
      ],
      "stateMutability": "view",
      "type": "function"
    },
    {
      "inputs": [],
      "name": "FAUCET_COOLDOWN",
      "outputs": [
        {
          "internalType": "uint256",
          "name": "",
          "type": "uint256"
        }
      ],
      "stateMutability": "view",
      "type": "function"
    },
    {
      "inputs": [
        {
          "internalType": "address",
          "name": "owner",
          "type": "address"
        },
        {
          "internalType": "address",
          "name": "spender",
          "type": "address"
        }
      ],
      "name": "allowance",
      "outputs": [
        {
          "internalType": "uint256",
          "name": "",
          "type": "uint256"
        }
      ],
      "stateMutability": "view",
      "type": "function"
    },
    {
      "inputs": [
        {
          "internalType": "address",
          "name": "spender",
          "type": "address"
        },
        {
          "internalType": "uint256",
          "name": "value",
          "type": "uint256"
        }
      ],
      "name": "approve",
      "outputs": [
        {
          "internalType": "bool",
          "name": "",
          "type": "bool"
        }
      ],
      "stateMutability": "nonpayable",
      "type": "function"
    },
    {
      "inputs": [
        {
          "internalType": "address",
          "name": "account",
          "type": "address"
        }
      ],
      "name": "balanceOf",
      "outputs": [
        {
          "internalType": "uint256",
          "name": "",
          "type": "uint256"
        }
      ],
      "stateMutability": "view",
      "type": "function"
    },
    {
      "inputs": [
        {
          "internalType": "address",
          "name": "user",
          "type": "address"
        }
      ],
      "name": "canUseFaucet",
      "outputs": [
        {
          "internalType": "bool",
          "name": "canUse",
          "type": "bool"
        }
      ],
      "stateMutability": "view",
      "type": "function"
    },
    {
      "inputs": [],
      "name": "decimals",
      "outputs": [
        {
          "internalType": "uint8",
          "name": "",
          "type": "uint8"
        }
      ],
      "stateMutability": "view",
      "type": "function"
    },
    {
      "inputs": [],
      "name": "faucet",
      "outputs": [],
      "stateMutability": "nonpayable",
      "type": "function"
    },
    {
      "inputs": [
        {
          "internalType": "address",
          "name": "user",
          "type": "address"
        }
      ],
      "name": "getFaucetCooldownTime",
      "outputs": [
        {
          "internalType": "uint256",
          "name": "remainingTime",
          "type": "uint256"
        }
      ],
      "stateMutability": "view",
      "type": "function"
    },
    {
      "inputs": [
        {
          "internalType": "address",
          "name": "",
          "type": "address"
        }
      ],
      "name": "lastFaucetTime",
      "outputs": [
        {
          "internalType": "uint256",
          "name": "",
          "type": "uint256"
        }
      ],
      "stateMutability": "view",
      "type": "function"
    },
    {
      "inputs": [
        {
          "internalType": "address",
          "name": "to",
          "type": "address"
        },
        {
          "internalType": "uint256",
          "name": "amount",
          "type": "uint256"
        }
      ],
      "name": "mint",
      "outputs": [],
      "stateMutability": "nonpayable",
      "type": "function"
    },
    {
      "inputs": [],
      "name": "name",
      "outputs": [
        {
          "internalType": "string",
          "name": "",
          "type": "string"
        }
      ],
      "stateMutability": "view",
      "type": "function"
    },
    {
      "inputs": [],
      "name": "owner",
      "outputs": [
        {
          "internalType": "address",
          "name": "",
          "type": "address"
        }
      ],
      "stateMutability": "view",
      "type": "function"
    },
    {
      "inputs": [],
      "name": "renounceOwnership",
      "outputs": [],
      "stateMutability": "nonpayable",
      "type": "function"
    },
    {
      "inputs": [],
      "name": "symbol",
      "outputs": [
        {
          "internalType": "string",
          "name": "",
          "type": "string"
        }
      ],
      "stateMutability": "view",
      "type": "function"
    },
    {
      "inputs": [],
      "name": "totalSupply",
      "outputs": [
        {
          "internalType": "uint256",
          "name": "",
          "type": "uint256"
        }
      ],
      "stateMutability": "view",
      "type": "function"
    },
    {
      "inputs": [
        {
          "internalType": "address",
          "name": "to",
          "type": "address"
        },
        {
          "internalType": "uint256",
          "name": "value",
          "type": "uint256"
        }
      ],
      "name": "transfer",
      "outputs": [
        {
          "internalType": "bool",
          "name": "",
          "type": "bool"
        }
      ],
      "stateMutability": "nonpayable",
      "type": "function"
    },
    {
      "inputs": [
        {
          "internalType": "address",
          "name": "from",
          "type": "address"
        },
        {
          "internalType": "address",
          "name": "to",
          "type": "address"
        },
        {
          "internalType": "uint256",
          "name": "value",
          "type": "uint256"
        }
      ],
      "name": "transferFrom",
      "outputs": [
        {
          "internalType": "bool",
          "name": "",
          "type": "bool"
        }
      ],
      "stateMutability": "nonpayable",
      "type": "function"
    },
    {
      "inputs": [
        {
          "internalType": "address",
          "name": "newOwner",
          "type": "address"
        }
      ],
      "name": "transferOwnership",
      "outputs": [],
      "stateMutability": "nonpayable",
      "type": "function"
    }
  ],
  "bytecode": "0x60806040523461002f576100196100146100fa565b6101eb565b610021610034565b6116406106c1823961164090f35b61003a565b60405190565b600080fd5b601f801991011690565b634e487b7160e01b600052604160045260246000fd5b906100699061003f565b810190811060018060401b0382111761008157604052565b610049565b90610099610092610034565b928361005f565b565b600080fd5b60018060a01b031690565b6100b4906100a0565b90565b6100c0816100ab565b036100c757565b600080fd5b905051906100d9826100b7565b565b906020828203126100f5576100f2916000016100cc565b90565b61009b565b610118611d018038038061010d81610086565b9283398101906100db565b90565b60018060401b0381116101375761013360209161003f565b0190565b610049565b9061014e6101498361011b565b610086565b918252565b60007f546f6b656e410000000000000000000000000000000000000000000000000000910152565b610185600661013c565b9061019260208301610153565b565b61019c61017b565b90565b60007f544b410000000000000000000000000000000000000000000000000000000000910152565b6101d1600361013c565b906101de6020830161019f565b565b6101e86101c7565b90565b610205906101f7610194565b6101ff6101e0565b91610295565b565b90565b90565b90565b61022461021f61022992610207565b61020d565b61020a565b90565b6102366001610210565b90565b60001b90565b9061024c60001991610239565b9181191691161790565b61026a61026561026f9261020a565b61020d565b61020a565b90565b90565b9061028a61028561029192610256565b610272565b825461023f565b9055565b906102a09291610302565b6102b26102ab61022c565b6006610275565b565b90565b6102cb6102c66102d0926102b4565b61020d565b6100a0565b90565b6102dc906102b7565b90565b6102e8906100ab565b9052565b9190610300906000602085019401906102df565b565b9161030c9161059d565b8061032861032261031d60006102d3565b6100ab565b916100ab565b14610338576103369061065f565b565b61035d61034560006102d3565b6000918291631e4fbdf760e01b8352600483016102ec565b0390fd5b5190565b634e487b7160e01b600052602260045260246000fd5b906001600283049216801561039b575b602083101461039657565b610365565b91607f169161038b565b600052602060002090565b601f602091010490565b1b90565b919060086103da9102916103d4600019846103ba565b926103ba565b9181191691161790565b91906103fa6103f561040293610256565b610272565b9083546103be565b9055565b600090565b61041d91610417610406565b916103e4565b565b5b81811061042b575050565b80610439600060019361040b565b01610420565b9190601f811161044f575b505050565b61045b610480936103a5565b906020610467846103b0565b83019310610488575b610479906103b0565b019061041f565b38808061044a565b915061047981929050610470565b1c90565b906104ab9060001990600802610496565b191690565b816104ba9161049a565b906002021790565b906104cc81610361565b9060018060401b03821161058c576104ee826104e8855461037b565b8561043f565b602090601f83116001146105235791809161051293600092610517575b50506104b0565b90555b565b9091500151388061050b565b601f19831691610532856103a5565b9260005b8181106105745750916002939185600196941061055a575b50505002019055610515565b61056a910151601f84169061049a565b905538808061054e565b91936020600181928787015181550195019201610536565b610049565b9061059b916104c2565b565b906105ac6105b3926003610591565b6004610591565b565b60001c90565b60018060a01b031690565b6105d26105d7916105b5565b6105bb565b90565b6105e490546105c6565b90565b906105f860018060a01b0391610239565b9181191691161790565b61061661061161061b926100a0565b61020d565b6100a0565b90565b61062790610602565b90565b6106339061061e565b90565b90565b9061064e6106496106559261062a565b610636565b82546105e7565b9055565b60000190565b61066960056105da565b610674826005610639565b906106a86106a27f8be0079c531659141344cd1fd0a4f28419497f9722a3daafe3b4186f6b6457e09361062a565b9161062a565b916106b1610034565b806106bb81610659565b0390a356fe60806040526004361015610013575b6108a8565b61001e60003561014d565b806306fdde0314610148578063095ea7b31461014357806318160ddd1461013e57806323b872dd14610139578063313ce5671461013457806340c10f191461012f578063705195161461012a57806370a0823114610125578063715018a614610120578063766976401461011b578063780768fc146101165780637bc1f6cc146101115780637d1d5d191461010c5780638da5cb5b1461010757806395d89b4114610102578063a9059cbb146100fd578063dd62ed3e146100f8578063de5f72fd146100f35763f2fde38b0361000e57610875565b610842565b61080c565b6107a8565b610773565b61073e565b6106e6565b610678565b6105b0565b61057b565b610506565b6104d1565b61049c565b610449565b61040e565b6103af565b61033f565b6102e6565b6101f9565b60e01c90565b60405190565b600080fd5b600080fd5b600091031261016e57565b61015e565b5190565b60209181520190565b60005b838110610194575050906000910152565b806020918301518185015201610183565b601f801991011690565b6101ce6101d76020936101dc936101c581610173565b93848093610177565b95869101610180565b6101a5565b0190565b6101f691602082019160008184039101526101af565b90565b3461022957610209366004610163565b610225610214610a0f565b61021c610153565b918291826101e0565b0390f35b610159565b60018060a01b031690565b6102429061022e565b90565b61024e81610239565b0361025557565b600080fd5b9050359061026782610245565b565b90565b61027581610269565b0361027c57565b600080fd5b9050359061028e8261026c565b565b91906040838203126102b957806102ad6102b6926000860161025a565b93602001610281565b90565b61015e565b151590565b6102cc906102be565b9052565b91906102e4906000602085019401906102c3565b565b34610317576103136103026102fc366004610290565b90610a2a565b61030a610153565b918291826102d0565b0390f35b610159565b61032590610269565b9052565b919061033d9060006020850194019061031c565b565b3461036f5761034f366004610163565b61036b61035a610a78565b610362610153565b91829182610329565b0390f35b610159565b90916060828403126103aa576103a7610390846000850161025a565b9361039e816020860161025a565b93604001610281565b90565b61015e565b346103e0576103dc6103cb6103c5366004610374565b91610a8e565b6103d3610153565b918291826102d0565b0390f35b610159565b60ff1690565b6103f4906103e5565b9052565b919061040c906000602085019401906103eb565b565b3461043e5761041e366004610163565b61043a610429610ae1565b610431610153565b918291826103f8565b0390f35b610159565b60000190565b346104785761046261045c366004610290565b90610b17565b61046a610153565b8061047481610443565b0390f35b610159565b90602082820312610497576104949160000161025a565b90565b61015e565b346104cc576104c86104b76104b236600461047d565b610ba2565b6104bf610153565b91829182610329565b0390f35b610159565b34610501576104fd6104ec6104e736600461047d565b610c15565b6104f4610153565b91829182610329565b0390f35b610159565b3461053457610516366004610163565b61051e610c82565b610526610153565b8061053081610443565b0390f35b610159565b90565b90565b61055361054e61055892610539565b61053c565b610269565b90565b61056d68056bc75e2d6310000061053f565b90565b61057861055b565b90565b346105ab5761058b366004610163565b6105a7610596610570565b61059e610153565b91829182610329565b0390f35b610159565b346105e0576105dc6105cb6105c636600461047d565b610c8c565b6105d3610153565b918291826102d0565b0390f35b610159565b6105f96105f46105fe9261022e565b61053c565b61022e565b90565b61060a906105e5565b90565b61061690610601565b90565b906106239061060d565b600052602052604060002090565b1c90565b90565b61064890600861064d9302610631565b610635565b90565b9061065b9154610638565b90565b61067590610670600791600092610619565b610650565b90565b346106a8576106a461069361068e36600461047d565b61065e565b61069b610153565b91829182610329565b0390f35b610159565b90565b6106c46106bf6106c9926106ad565b61053c565b610269565b90565b6106d8620151806106b0565b90565b6106e36106cc565b90565b34610716576106f6366004610163565b6107126107016106db565b610709610153565b91829182610329565b0390f35b610159565b61072490610239565b9052565b919061073c9060006020850194019061071b565b565b3461076e5761074e366004610163565b61076a610759610d01565b610761610153565b91829182610728565b0390f35b610159565b346107a357610783366004610163565b61079f61078e610d17565b610796610153565b918291826101e0565b0390f35b610159565b346107d9576107d56107c46107be366004610290565b90610d2d565b6107cc610153565b918291826102d0565b0390f35b610159565b919060408382031261080757806107fb610804926000860161025a565b9360200161025a565b90565b61015e565b3461083d576108396108286108223660046107de565b90610d67565b610830610153565b91829182610329565b0390f35b610159565b3461087057610852366004610163565b61085a610f4e565b610862610153565b8061086c81610443565b0390f35b610159565b346108a35761088d61088836600461047d565b610fc0565b610895610153565b8061089f81610443565b0390f35b610159565b600080fd5b606090565b634e487b7160e01b600052602260045260246000fd5b90600160028304921680156108e8575b60208310146108e357565b6108b2565b91607f16916108d8565b60209181520190565b600052602060002090565b906000929180549061092161091a836108c8565b80946108f2565b9160018116908160001461097a575060011461093d575b505050565b61094a91929394506108fb565b916000925b8184106109625750500190388080610938565b6001816020929593955484860152019101929061094f565b92949550505060ff1916825215156020020190388080610938565b9061099f91610906565b90565b634e487b7160e01b600052604160045260246000fd5b906109c2906101a5565b810190811067ffffffffffffffff8211176109dc57604052565b6109a2565b90610a016109fa926109f1610153565b93848092610995565b03836109b8565b565b610a0c906109e1565b90565b610a176108ad565b50610a226003610a03565b90565b600090565b610a4791610a36610a25565b50610a3f610fcb565b919091610fd8565b600190565b600090565b60001c90565b610a63610a6891610a51565b610635565b90565b610a759054610a57565b90565b610a80610a4c565b50610a8b6002610a6b565b90565b91610ab892610a9b610a25565b50610ab0610aa7610fcb565b82908491611029565b9190916110b8565b600190565b600090565b90565b610ad9610ad4610ade92610ac2565b61053c565b6103e5565b90565b610ae9610abd565b50610af46012610ac5565b90565b90610b0991610b0461115b565b610b0b565b565b90610b15916111aa565b565b90610b2191610af7565b565b634e487b7160e01b600052601160045260246000fd5b610b48610b4e91939293610269565b92610269565b8201809211610b5957565b610b23565b610b6d610b7391939293610269565b92610269565b8203918211610b7e57565b610b23565b90565b610b9a610b95610b9f92610b83565b61053c565b610269565b90565b610baa610a4c565b50610bbf610bba42926007610619565b610a6b565b90610bd282610bcc6106cc565b90610b39565b610be4610bde83610269565b91610269565b11610bf8575050610bf56000610b86565b90565b610c0d610c1292610c076106cc565b90610b39565b610b5e565b90565b610c2c610c3191610c24610a4c565b506000610619565b610a6b565b90565b610c3c61115b565b610c44610c6e565b565b610c5a610c55610c5f92610b83565b61053c565b61022e565b90565b610c6b90610c46565b90565b610c80610c7b6000610c62565b61124a565b565b610c8a610c34565b565b610cab610ca6610cb992610c9e610a25565b506007610619565b610a6b565b610cb36106cc565b90610b39565b610ccb610cc542610269565b91610269565b111590565b600090565b60018060a01b031690565b610cec610cf191610a51565b610cd5565b90565b610cfe9054610ce0565b90565b610d09610cd0565b50610d146005610cf4565b90565b610d1f6108ad565b50610d2a6004610a03565b90565b610d4a91610d39610a25565b50610d42610fcb565b9190916110b8565b600190565b90610d599061060d565b600052602052604060002090565b610d8c91610d82610d8792610d7a610a4c565b506001610d4f565b610619565b610a6b565b90565b610d976112d7565b610d9f610e4d565b610da761135c565b565b916020610dcb929493610dc46040820196600083019061071b565b019061031c565b565b60001b90565b90610de060001991610dcd565b9181191691161790565b610dfe610df9610e0392610269565b61053c565b610269565b90565b90565b90610e1e610e19610e2592610dea565b610e06565b8254610dd3565b9055565b916020610e4b929493610e446040820196600083019061031c565b019061031c565b565b334290610e75610e67610e6260078490610619565b610a6b565b610e6f6106cc565b90610b39565b610e87610e8184610269565b91610269565b11610f0057610ea182610e9c60078490610619565b610e09565b610eb381610ead61055b565b906111aa565b610ebb61055b565b91610ee67f1471294b27bd6e7d297998c0fd0fb313349f2f6c782cc696d9279410a95575749261060d565b92610efb610ef2610153565b92839283610e29565b0390a2565b610f2e82610f29610f1b610f1660078690610619565b610a6b565b610f236106cc565b90610b39565b610b5e565b90610f4a60009283926337f86cfd60e01b845260048401610da9565b0390fd5b610f56610d8f565b565b610f6990610f6461115b565b610f6b565b565b80610f87610f81610f7c6000610c62565b610239565b91610239565b14610f9757610f959061124a565b565b610fbc610fa46000610c62565b6000918291631e4fbdf760e01b835260048301610728565b0390fd5b610fc990610f58565b565b610fd3610cd0565b503390565b91610fe69291600192611370565b565b60409061101261101994969593966110086060840198600085019061071b565b602083019061031c565b019061031c565b565b906110269103610269565b90565b929192611037818390610d67565b908161104d611047600019610269565b91610269565b1061105a575b5050509050565b8161106d61106787610269565b91610269565b106110945761108b939461108291939261101b565b90600092611370565b80388080611053565b506110b4849291926000938493637dc7a0d960e11b855260048501610fe8565b0390fd5b91826110d56110cf6110ca6000610c62565b610239565b91610239565b1461113257816110f66110f06110eb6000610c62565b610239565b91610239565b146111095761110792919091611493565b565b61112e6111166000610c62565b600091829163ec442f0560e01b835260048301610728565b0390fd5b61115761113f6000610c62565b6000918291634b637e8f60e11b835260048301610728565b0390fd5b611163610d01565b61117c611176611171610fcb565b610239565b91610239565b0361118357565b6111a661118e610fcb565b600091829163118cdaa760e01b835260048301610728565b0390fd5b806111c66111c06111bb6000610c62565b610239565b91610239565b146111e3576111e1916111d96000610c62565b919091611493565b565b6112086111f06000610c62565b600091829163ec442f0560e01b835260048301610728565b0390fd5b9061121d60018060a01b0391610dcd565b9181191691161790565b90565b9061123f61123a6112469261060d565b611227565b825461120c565b9055565b6112546005610cf4565b61125f82600561122a565b9061129361128d7f8be0079c531659141344cd1fd0a4f28419497f9722a3daafe3b4186f6b6457e09361060d565b9161060d565b9161129c610153565b806112a681610443565b0390a3565b90565b6112c26112bd6112c7926112ab565b61053c565b610269565b90565b6112d460026112ae565b90565b6112e16006610a6b565b6112fa6112f46112ef6112ca565b610269565b91610269565b146113135761131161130a6112ca565b6006610e09565b565b6000633ee5aeb560e01b81528061132c60048201610443565b0390fd5b90565b61134761134261134c92611330565b61053c565b610269565b90565b6113596001611333565b90565b61136e61136761134f565b6006610e09565b565b90928161138e6113886113836000610c62565b610239565b91610239565b1461145c57836113af6113a96113a46000610c62565b610239565b91610239565b14611433576113d3836113ce6113c760018690610d4f565b8790610619565b610e09565b6113dd575b505050565b9190916114286114166114107f8c5be1e5ebec7d5bd14f71427d1e84f3dd0314c0f7b2291e5b200ac8c7c3b9259361060d565b9361060d565b9361141f610153565b91829182610329565b0390a33880806113d8565b6114586114406000610c62565b6000918291634a1406b160e11b835260048301610728565b0390fd5b6114816114696000610c62565b600091829163e602df0560e01b835260048301610728565b0390fd5b906114909101610269565b90565b919091806114b26114ac6114a76000610c62565b610239565b91610239565b14600014611597576114d76114d0836114cb6002610a6b565b610b39565b6002610e09565b5b826114f46114ee6114e96000610c62565b610239565b91610239565b1460001461156a576115196115128361150d6002610a6b565b61101b565b6002610e09565b5b91909161156561155361154d7fddf252ad1be2c89b69c2b068fc378daa952ba7f163c4a11628f55a4df523b3ef9361060d565b9361060d565b9361155c610153565b91829182610329565b0390a3565b6115928261158c61157d60008790610619565b9161158783610a6b565b611485565b90610e09565b61151a565b6115ab6115a660008390610619565b610a6b565b806115be6115b885610269565b91610269565b106115e7576115d16115e291849061101b565b6115dd60008490610619565b610e09565b6114d8565b90611606909192600093849363391434e360e21b855260048501610fe8565b0390fdfea26469706673582212203a4951c17ebc3377d83c070b7eac4b0fc9b2f204a6fc11b77e2000afd36fc2cc64736f6c634300081e0033",
  "linkReferences": {},
  "deployedLinkReferences": {}
}